:100000000C94D1000C94F9000C94F9000C94F900B4
:100010000C94F9000C94F9000C94F9000C949716C8
:100020000C94F9000C94C1160C942C180C9495188F
:100030000C940A180C94F9000C94F9000C94F90033
:100040000C94F9000C94E2170C9400180C94F61719
:100050000C94F9000C94F9000C94F9000C94F5152B
:100060000C94F9000C9465160C943F160C94F9004E
:100070000C94E5160C94F9000C94F9000C942417D8
:100080000C94CC170C948E170C94EC170C94091745
:100090000C94F9000C94F9000C94F9000C94F900FC
:1000A0000C94F9000C94F9000C94F90007634236A3
:1000B000B79BD8A71A39685618AEBAAB558C1D3CF9
:1000C000B7CC5763BD6DEDFD753EF6177231BF00BD
:1000D0000000803F08000000BE922449123EABAAF7
:1000E000AA2ABECDCCCC4C3E00000080BEABAAAA52
:1000F000AA3E00000000BF000000803F000000009A
:1001000000084178D3BB4387D1133D190E3CC3BDD2
:100110004282AD2B3E68EC8276BED98FE1A93E4C7F
:1001200080EFFFBE01C4FF7F3F0000000000080B0E
:1001300000020202000009040000010202000005A2
:1001400024001001052401010104240206052406EF
:1001500000010705810310004009040100020A00A4
:10016000000007050202400000070583024000006E
:100170000403090412010002EF020140091284483D
:100180000001010203014761627269656C204775D5
:100190006572726572005241564120524E4700000E
:1001A000111B11241FBECFEFDAE0DEBFCDBF11E07F
:1001B000A0E0B1E0E0E4F9E602C005900D92AE39AE
:1001C000B107D9F723E0AEE9B1E001C01D92AE332B
:1001D000B207E1F710E0C1EDD0E004C02197FE01C5
:1001E0000E948231C03DD107C9F70E94601B0C9468
:1001F0009E340C940000FB01DC015C9112966C9122
:10020000252F220F220F220F95E5822F899F080E9E
:1002100080E0811D1124452F4074352F307257FD29
:1002200040C0411129C0311106C0982F9095282F48
:10023000892F90E004C025E5280F90E08BEA6F3FFE
:10024000B9F030E0662321F0669F312D09F03F5F61
:10025000332309F445C0839F080E80E0811D239F4E
:10026000020E20E0211D939F090E90E0911D1124A4
:10027000808321839283089531110DC0922F2AEA41
:10028000929F090E90E0911D11242BEA291B922FB9
:100290002AEA280FCDCF90E0282F2095982F80E0D4
:1002A000CECF411111C031110BC0922F8AEA989F15
:1002B000090E90E0911D11242BEA291B9B5AEFCFC8
:1002C000982F909520E0BBCF311106C025E5280F6F
:1002D0009BEA981B822FF6CF2AEA280F30E0F9CF4D
:1002E00090E020E080E0C4CF90913F02911103C0E4
:1002F0008FEF9FEF08954FB7F89492E09093E90045
:100300009091F200292F30E01216130614F421E028
:1003100030E0232B29F084E680933E028091F100A7
:10032000992339F02091F200211103C02BE620938C
:10033000E8004FBF9923E1F290E008952FB7F894B9
:1003400083E08093E9009091E800892F807295FF07
:1003500004C09091F20080E4891B2FBF0895109291
:1003600090001092910010929200109271003E98AD
:100370000895789483E085BD0895F89487E085BD5D
:1003800008958230910538F0880F991F880F991FC2
:1003900005970197F1F708953FB7F89480913802D7
:1003A00090913902A0913A02B0913B0226B5A89BE8
:1003B00005C02F3F19F00196A11DB11D3FBFBA2FF7
:1003C000A92F982F8827BC01CD01620F711D811DB7
:1003D000911D42E0660F771F881F991F4A95D1F73C
:1003E0000895CF92DF92EF92FF920E94CC016B01B1
:1003F0007C010E94CC016C197D098E099F09683E21
:10040000734081059105A8F3FF90EF90DF90CF90A6
:10041000089580E991E00895AF92BF92CF92DF9264
:10042000EF92FF920F931F93CF93DF936C017B01A9
:100430008B01040F151FEB015E01AE18BF08C0173A
:10044000D10759F06991D601ED91FC910190F081AD
:10045000E02DC6010995892B79F7C501DF91CF9170
:100460001F910F91FF90EF90DF90CF90BF90AF90D2
:100470000895FC01538D448D252F30E0842F90E0AA
:10048000821B930B541710F0CF960895019708958F
:10049000FC01918D828D981761F0A28DAE0FBF2F58
:1004A000B11D5D968C91928D9F5F9F73928F90E0AE
:1004B00008958FEF9FEF0895FC01918D828D98171D
:1004C00031F0828DE80FF11D858D90E008958FEF5A
:1004D0009FEF0895FC01918D228D892F90E0805C23
:1004E0009F4F821B91098F739927089580E492E0B2
:1004F0000E946A0221E0892B09F420E0822F0895EE
:1005000080E090E0892B29F00E94760281110C9402
:1005100000000895FC01A48DA80FB92FB11DA35AA6
:10052000BF4F2C91848D90E001968F739927848F13
:10053000A689B7892C93A089B1898C9182748C93F8
:10054000938D848D981306C00288F389E02D8081F5
:100550008F7D80830895EF92FF920F931F93CF9327
:10056000DF93EC0181E0888F9B8D8C8D981319C0EF
:10057000E889F989808185FF14C09FB7F894EE89D6
:10058000FF896083E889F9898081827480839FBFB5
:1005900081E090E0DF91CF911F910F91FF90EF905C
:1005A0000895F62E0B8D10E00F5F1F4F0F7311276C
:1005B000E02E8C8D8E110CC00FB607FCFACFE889A7
:1005C000F989808185FFF5CFCE010E948A02F1CFA3
:1005D000EB8DEC0FFD2FF11DE35AFF4FF0829FB71B
:1005E000F8940B8FEA89FB8980818062CFCFCF930B
:1005F000DF93EC01888D8823B9F0AA89BB89E8894B
:10060000F9898C9185FD03C0808186FD0DC00FB6F0
:1006100007FCF7CF8C9185FFF2CF808185FFEDCF6E
:10062000CE010E948A02E9CFDF91CF9108958F9287
:100630009F92AF92BF92CF92DF92EF92FF920F9371
:100640001F93CF93DF936C017B018A0180910B0193
:10065000882309F457C080913F02882309F452C0CF
:100660008091DC0180FF05C08091E0008260809372
:10067000E000E801B12C8AEFA82E93E0892E2AE34E
:10068000922E209711F4BB20B9F10E949E01811196
:1006900006C0AA94AA20B1F10E94F101F2CF8C17F2
:1006A0001D0611F00CF08C2F9FB7F8948092E90092
:1006B0002091E80025FD02C09FBFE3CF282F30E046
:1006C000C21BD30BF701815020F041914093F10000
:1006D000FACFE20EF31EBB2021F09092E800B12C7D
:1006E000EBCF8091E80085FDE7CF9092E800BB2436
:1006F000B394209709F3F3CF84E68093DB011016BF
:1007000011063CF081E090E0F6019383828310E0D3
:1007100000E0C801DF91CF911F910F91FF90EF9002
:10072000DF90CF90BF90AF909F908F900895CF9320
:10073000DF931F92CDB7DEB76983DC01ED91FC91A9
:100740000280F381E02D41E050E0BE016F5F7F4FFA
:1007500009950F90DF91CF91089583E08093E90090
:100760008091F200882319F08AE38093E8000895CD
:100770000E949E0190E00895FC018485958597FD77
:1007800005C02FEF3FEF3587248708950C9474013F
:10079000CF93DF93EC018C859D8597FF04C00E9469
:1007A00074019D878C878C859D85DF91CF910895FD
:1007B000FC018485958597FD0BC09FB7F89482E076
:1007C0008093E9008091F2009FBF90E00196089528
:1007D0009FB7F89482E08093E9008091F2009FBF78
:1007E00090E008958A3010F4805D0895895A089544
:1007F0000F931F93CF93DF93EC01EEE0F0E000E066
:1008000011E210935700849108273196E431F105E5
:10081000C1F7802F82958F700E94F2038883802F0A
:100820008F700E94F2038983E5E1F0E01093570096
:100830000491802F82958F700E94F2038A83802F0B
:100840008F700E94F2038B83E6E1F0E01093570073
:100850000491802F82958F700E94F2038C83802FE9
:100860008F700E94F2038D83E7E1F0E01093570050
:100870001491812F82958F700E94F2038E83812FB5
:100880008F700E94F2038F83DF91CF911F910F91A0
:100890000895FF920F931F93CF93DF93F62E8A0153
:1008A000E9010E94AF018F2D66E00E942531A1E988
:1008B000B0E09C93E0E9F0E08081826080838C91DD
:1008C00088618C9380818068808346983E9A1093DB
:1008D000970000939600D0939900C09398001092CF
:1008E000950010929400DF91CF911F910F91FF908E
:1008F000089510928000E1E8F0E0108210928200EA
:1009000010926F0087E080830895AF92BF92CF92DC
:10091000DF92EF92FF920F931F93CF93DF9300D05C
:100920001F92CDB7DEB75C018B016A017901F90135
:1009300080818530A9F481E08B839E012D5F3F4F3C
:10094000AE014E5F5F4FBE016F5F7F4FC5010E94DA
:10095000850499818A81981709F183E0F7018083E2
:10096000F70180818230E1F410928400F5018789DB
:1009700090E00E94C101809184008170F801808321
:100980000F900F900F90DF91CF911F910F91FF90DB
:10099000EF90DF90CF90BF90AF90089582E0DECFD0
:1009A000833041F416BCF501878990E00E94C101B3
:1009B00086B5E3CF1092840016BCF501878990E0DC
:1009C0000E94C10190918400998386B59170F801CD
:1009D00090838170F6018083F7019081943081F6D5
:1009E000F80190818927CBCFEF92FF920F931F934D
:1009F000CF93DF937B018A01C4E8D0E0188216BC54
:100A0000FC01878990E00E94C1018881F701808301
:100A100086B5F8018083DF91CF911F910F91FF90F0
:100A2000EF9008950F931F93CF93DF938C01DC0118
:100A3000EC91F0E090A113968C91C1E0D0E09E0182
:100A400001C0220F8A95EAF7922B90A3CB010E9456
:100A5000C101D801EC91F0E080A113969C9101C0F6
:100A6000CC0F9A95EAF7C095C823C0A3DF91CF9128
:100A70001F910F910895DC01EC91F0E080A1139695
:100A80009C91139721E030E0A90101C0440F9A9591
:100A9000EAF74095482340A31196EC911197F0E0B6
:100AA00080A113969C9101C0220F9A95EAF7209598
:100AB000282320A30895DC01EC91F0E080A1139697
:100AC0009C91139741E050E09A0101C0220F9A9542
:100AD000EAF72095282320A31196EC911197F0E0D6
:100AE00080A113969C9101C0440F9A95EAF7482B78
:100AF00040A308950F931F93CF93DF932091DA01C2
:100B00002F5F322F37703093DA0120FF2BC020E89F
:100B100031FD2064347009F02062205FFC01EC019B
:100B2000239600E011E06785662329F070E0C80194
:100B30000E9431316F5F6187822F869F080E80E0AF
:100B4000811D1124811110C01682662311F061509D
:100B500061873196EC17FD0731F7DF91CF911F9137
:100B60000F91089520E0D4CF81508683EECF4F922D
:100B70005F927F928F929F92AF92BF92CF92DF92BD
:100B8000EF92FF920F931F93CF93DF932C01EB0112
:100B90000E94CC01F20125893689621B730B6A30F1
:100BA0007105B0F3F8948A819B81181619060CF030
:100BB000CDC1E881F9816BB1862E689485F83BB18F
:100BC0003F7D3BB9DA848F812D2D281B822F2F8307
:100BD0004C85042E000C550BAA81BB817889FF84BB
:100BE000E9887F5FF394E3949E819884B984AB8411
:100BF0001181C12C6C2D0C2D2C2D21811127889455
:100C00002111280F08F42FEF8195889470FD120FA1
:100C10001795889471FD120F1795889472FD120F25
:100C20001795889473FD120F1795889474FD120F11
:100C30001795889475FD120F1795889476FD120FFD
:100C40001795889477FD120F17958894622F71116C
:100C5000612F8D0D162F002C8BB800C017FF3BB9EC
:100C600020816627889400C000C0002C3BB9211168
:100C7000290F00C0002C8BB800C016FF3BB908F448
:100C80002FEF9195889400C000C0002C3BB9F0FC78
:100C9000620F00C0002C8BB800C015FF3BB96795F0
:100CA0008894F1FC620F00C000C0002C3BB967952E
:100CB000889400C0002C8BB800C014FF3BB9F2FC34
:100CC000620F6795889400C000C0002C3BB9F3FC0C
:100CD000620F00C0002C8BB800C013FF3BB96795B2
:100CE0008894F4FC620F00C000C0002C3BB96795EB
:100CF000889400C0002C8BB800C012FF3BB9F5FCF3
:100D0000620F6795889400C000C0002C3BB9F6FCC8
:100D1000620F00C0002C8BB800C011FF3BB9679573
:100D20008894F7FC620F00C000C0002C3BB96795A7
:100D3000889400C0002C8BB800C010FF3BB9122F64
:100D4000F110162F9B0D00C000C0002C3BB900C055
:100D500000C0002C8BB800C017FF3BB9228166276A
:100D6000889400C000C0002C3BB92111290D00C09F
:100D7000002C8BB800C016FF3BB908F42FEFE40F2E
:100D8000F51F00C000C0002C3BB9E0FC620F00C0A2
:100D9000002C8BB800C015FF3BB967958894E1FC27
:100DA000620F00C000C0002C3BB96795889400C05A
:100DB000002C8BB800C014FF3BB9E2FC620F6795B2
:100DC000889400C000C0002C3BB9E3FC620F00C057
:100DD000002C8BB800C013FF3BB967958894E4FCE6
:100DE000620F00C000C0002C3BB96795889400C01A
:100DF000002C8BB800C012FF3BB9E5FC620F679571
:100E0000889400C000C0002C3BB9E6FC620F00C013
:100E1000002C8BB800C011FF3BB967958894E7FCA4
:100E2000620F00C000C0002C3BB96795889400C0D9
:100E3000002C8BB800C010FF3BB9122FE110162F09
:100E4000919400C000C0002C3BB99A0C00C000C0B7
:100E50008BB800C017FF3BB921816627889400C07A
:100E600000C0002C3BB92111280F00C0002C8BB80A
:100E700000C016FF3BB908F42FEF8195889400C09D
:100E800000C0002C3BB970FD620F00C0002C8BB875
:100E900000C015FF3BB96795889471FD620F00C0D3
:100EA00000C0002C3BB96795889400C0002C8BB81B
:100EB00000C014FF3BB972FD620F6795889400C0B3
:100EC00000C0002C3BB973FD620F00C0002C8BB832
:100ED00000C013FF3BB96795889474FD620F00C092
:100EE00000C0002C3BB96795889400C0002C8BB8DB
:100EF00000C012FF3BB975FD620F6795889400C072
:100F000000C0002C3BB976FD620F00C0002C8BB8EE
:100F100000C011FF3BB96795889477FD620F00C050
:100F200000C0002C3BB96795889400C0002C8BB89A
:100F300000C010FF3BB9122F7111162F8D0D00C08C
:100F400000C0002C3BB9119709F086CEEA81FB81E5
:100F50002EE130E0DF010E94673130E020E0A9019E
:100F6000AAE9EA9F0E0E411DFA9F400D511D112462
:100F70004F0F511DDC01CB01840F951FA11DB11D29
:100F8000893E43E09407A105B10508F434C0885EAA
:100F90009340A109B10942E0B695A7959795879529
:100FA0004A95D1F747E0849F080E211D949F200D9C
:100FB000311D1124290F311D6091D90170E0860F78
:100FC000971F820F931F4091340250913502609118
:100FD000360270913702292F3327420F531F611DAC
:100FE000711D409334025093350260933602709322
:100FF00037028093D90178940E94CC01F201768B5C
:10100000658BDF91CF911F910F91FF90EF90DF9053
:10101000CF90BF90AF909F908F907F905F904F90B8
:10102000089581E090E00895559A08959F92AF92B7
:10103000BF92CF92DF92EF92FF920F931F93CF93C5
:10104000DF9300D01F92CDB7DEB7FC0161834283EE
:101050009081992309F455C1E62E8F01913009F052
:101060008AC063817481E9828FEF8A834B83CE01CA
:1010700001960E94FB00D0902D0380913003909147
:101080003103A0913203B0913303892B8A2B8B2B30
:10109000D9F00E94CC010091D5011091D601209188
:1010A000D7013091D801601B710B820B930B00911B
:1010B00030031091310320913203309133036017D4
:1010C000710782079307C8F20E94CC016093D50193
:1010D0007093D6018093D7019093D801E0913803A3
:1010E000F0913903309759F0409134035091350312
:1010F00060913603709137038D2D0995D82E00919C
:10110000E0011091E10185EBE82E81E0F82E570116
:101110000115110509F481C0B5EDAB16B1E0BB06B0
:1011200009F47BC0D801ED91FC910484F585E02D94
:10113000C8010995F501819391935F0180912E0378
:1011400090912F038436910518F4D8011C961C92B7
:10115000F80145855685628173810190F081E02D0B
:101160000280F381E02D2D2DC8010995D801149638
:101170000D911C91CDCF692F70E080E091E00E942D
:101180003131842F0E942531982EB92ED12CC12CBB
:1011900080E0AA24AA94D80113966D917C91FF2433
:1011A000F394F80E891571F0E982AA82AB826C0D76
:1011B0007D1DCE0101960E94FB008F2DB3E0CB0E6A
:1011C000D11CE9CFF8019081B99EB02C1124E9829D
:1011D0009FEF9A83BB82F3E08F9F600D711D1124F6
:1011E000CE0101960E94FB00CC24CA9493E0D92E34
:1011F000D8018C91F81608F03ECFE982CA821B8292
:1012000013966D917C91FD9C600D711D1124CE0192
:1012100001960E94FB00F394EBCF0091E001109146
:10122000E10101151105A9F0B5EDEB16B1E0FB06E2
:1012300081F0F701619171917F01D801ED91FC91ED
:101240000684F785E02DC8010995F8010481158110
:10125000E8CF8091B3019091B4019C012F5F3F4F83
:101260003093B4012093B30149970CF44AC08FB76F
:10127000F894209134023091350240913602509119
:1012800037028FBF8091AF019091B001A091B10161
:10129000B091B201281B390B4A0B5B0B21F421E002
:1012A00030E040E050E0E091B301F091B40188EE0D
:1012B00093E0E89FB001E99F700DF89F700D112435
:1012C000072E000C880B990B0E94453130932F0399
:1012D00020932E031092B4011092B3012FB7F8940B
:1012E0008091340290913502A0913602B09137027C
:1012F0002FBF8093AF019093B001A093B101B09341
:10130000B2010F900F900F90DF91CF911F910F912D
:10131000FF90EF90DF90CF90BF90AF909F90089597
:10132000FC018485958520810097A1F4228B81E0C2
:10133000808B81E090E095878487868597852181E1
:101340000097F9F4238B81E0818B81E090E097870F
:1013500086870895328932130CC020892F5F208B35
:101360003385231306C0248935892F5F3F4F358B82
:10137000248B0196811522E09207E9F615861486E2
:10138000DCCF338932130CC021892F5F218B338549
:10139000231306C0268937892F5F3F4F378B268B53
:1013A0000196811522E0920791F617861686089518
:1013B000FC018081928189131BC085818F5F8583A9
:1013C0009481891728F0878190850196908787837B
:1013D00081819381891310C086818F5F8683948178
:1013E000891768F081859285019692878187089593
:1013F000828381E08583ECCF838381E086830895B7
:101400003F924F925F926F927F928F929F92AF9294
:10141000BF92CF92DF92EF92FF920F931F93CF93E1
:10142000DF9300D000D0CDB7DEB74C016B017A015D
:10143000FB011082FA0110820DE211E088E0582EC3
:10144000412C312C332011F041102BC0AE014E5FE6
:101450005F4FBE016F5F7F4FC4010E94F404AE0175
:101460004C5F5F4FBE016D5F7F4FC4010E94F4046B
:1014700031100AC089818170A82E8B818170782EED
:10148000A81611F0332433944110DCCF8A81817087
:10149000B82E8C818170682EB816A1F24424439432
:1014A000D1CF7A1438F4F6018081F8019081892B2C
:1014B000F60180836B1438F4F7018081F801908184
:1014C000892BF70180835A940F5F1F4F5110B8CFBB
:1014D00000911F0210912002F6018081F8018083A3
:1014E000F7018081F8018183C8010E94D809C801F1
:1014F0000E9490090F900F900F900F90DF91CF9165
:101500001F910F91FF90EF90DF90CF90BF90AF9021
:101510009F908F907F906F905F904F903F90089535
:10152000AF92BF92DF92EF92FF920F931F93CF93F0
:10153000DF935C017B018A01FB011082FA011082BA
:10154000CDE2D1E088E0D82E1092840016BCF501DF
:10155000878990E00E94C1018091840096B580FF48
:1015600005C0F70180812881822B808390FF05C010
:10157000F80180819881892B8083DA942196D1109B
:10158000E3CFC0911F02D0912002F70180818883B0
:10159000F80180818983CE010E94D809CE01DF91B4
:1015A000CF911F910F91FF90EF90DF90BF90AF9080
:1015B0000C949009CF92DF92EF92FF920F931F93BA
:1015C000CF93DF9300D000D0CDB7DEB78C016B0195
:1015D0007A01AE014E5F5F4FBE016F5F7F4F0E9489
:1015E000900AAE014C5F5F4FBE016D5F7F4FC80137
:1015F0000E94900A89819B818927F60180838A81D4
:101600009C818927F70180830F900F900F900F9096
:10161000DF91CF911F910F91FF90EF90DF90CF90CE
:101620000895CF92DF92EF92FF920F931F93CF9383
:10163000DF9300D000D0CDB7DEB76C017B018A010B
:10164000AE014E5F5F4FBE016F5F7F4F0E94900AF9
:10165000AE014C5F5F4FBE016D5F7F4FC6010E94C0
:10166000900A99818B818927990F911D8927F7010C
:1016700080839A818C818927990F911D8927F80190
:1016800080830F900F900F900F90DF91CF911F915B
:101690000F91FF90EF90DF90CF900895EF92FF921F
:1016A0000F931F93CF93DF93CDB7DEB728970FB675
:1016B000F894DEBF0FBECDBF7C018B01AE014A5F47
:1016C0005F4FBE016E5F7F4F0E94900AAE01495F7F
:1016D0005F4FBE016D5F7F4FC7010E94900AAE0150
:1016E000485F5F4FBE016C5F7F4FC7010E94900A49
:1016F00069817A818B819C818F77992780689F632C
:1017000020E030E040E85FE30E948831F801608328
:101710007183828393836D817E818F8198858F779A
:10172000992780689F6320E030E040E85FE30E94F3
:101730008831F801648375838683978328960FB672
:10174000F894DEBF0FBECDBFDF91CF911F910F91F7
:10175000FF90EF9008950F931F93CF93DF9300D0E6
:10176000CDB7DEB700912102109122020E94BD0187
:10177000AE014E5F5F4FBE016F5F7F4FC8010E9499
:10178000900A0E94B90199818A818927990F911D38
:1017900089270F900F90DF91CF911F910F9108959E
:1017A0002F923F924F925F926F927F928F929F9271
:1017B000AF92BF92CF92DF92EF92FF920F931F935F
:1017C000CF93DF93CDB7DEB7CA50D2400FB6F894AF
:1017D000DEBF0FBECDBF8C0180E091E09E012F5F88
:1017E0003F4FCD5FDD4F39832883C350D240D901AD
:1017F000FC011D923197E9F71E01F1E02F0E3F1E0B
:10180000D101FC011D923197E9F72091210230911D
:101810002202CB5FDD4F39832883C550D2400E941E
:10182000BD01412C512C3201C12CD12C7601812CCF
:10183000912C5401F80180819181A281B3814816D5
:1018400059066A067B0608F047C0AE014E5F5D4F41
:10185000BE016F5F7D4FCB5FDD4F88819981C550A1
:10186000D2400E94900ACF5FDD4FA881C150D24084
:101870008A2F90E0882329F02FEF280F82239F5F83
:10188000F9CF890E911CA11CB11CCE5FDD4FE88100
:10189000C250D2409E2F992329F02FEF290F922377
:1018A0008F5FF9CFC80ED11CE11CF11C21E030E0A4
:1018B0002C0F3D1F2A0F311DD9018C918F5F8C9306
:1018C000E20DF32DF11D80818F5F80833FEF431A7E
:1018D000530A630A730AAECF0E94B901D8018D91F1
:1018E0009D910D90BC91A02DCB5FDD4F8883998396
:1018F000AA83BB83C550D240BC01CD0123E0660F53
:10190000771F881F991F2A95D1F70E94B62F2B01A8
:101910003C01C501B4010E94B62FA30192010E94AF
:101920000C3220E030E040E05FE30E94883120E0AC
:1019300030E048EC52E40E9417304B015C01F801A2
:1019400084869586A686B786C701B6010E94B62F03
:10195000A30192010E940C3220E030E040E05FE3FE
:101960000E94883120E030E048EC52E40E941730B9
:101970006B017C01D8015096CD92DD92ED92FC92E4
:10198000539720E030E0A901C501B4010E9456330D
:10199000181624F0B7FAB094B7F8B094F801448060
:1019A000558066807780A5019401C301B2010E9431
:1019B000563387FD19C020E030E0A901C701B60108
:1019C0000E945633181624F0F7FAF094F7F8F094C2
:1019D000A7019601C301B2010E94563387FD04C0DE
:1019E00081E0D80154968C93CB5FDD4F688179817B
:1019F0008A819B81C550D2400E94B62F20E030E002
:101A000040E85BE30E9417302B013C01FE01319658
:101A1000CB5FDD4FF983E883C550D240C75FDD4F10
:101A200039822882C950D240C12CD12C760146017E
:101A30005701CB5FDD4FA881B981C550D2406D9170
:101A4000CB5FDD4FB983A883C550D24070E090E0F2
:101A500080E00E94B62FA30192010E9488319B0171
:101A6000AC010E941730A30192010E940C329B012D
:101A7000AC01C501B4010E9489314B015C01C75F13
:101A8000DD4FE881F981C950D2406191C75FDD4FD8
:101A9000F983E883C950D24070E090E080E00E9472
:101AA000B62FA30192010E9488319B01AC010E94D4
:101AB0001730A30192010E940C329B01AC01C701B7
:101AC000B6010E9489316B017C01CB5FDD4F28811B
:101AD0003981C550D2402216330609F0AACFD80169
:101AE00055968D929D92AD92BC925897F801C18EF9
:101AF000D28EE38EF48E4084518462847384A30179
:101B00009201C501B4010E94B12F87FF2EC0A3012D
:101B10009201C701B6010E94B12F87FF26C081E064
:101B2000D8015D968C93D80154968C915497882354
:101B300011F05D968C91C65FDD4F0FB6F894DEBF55
:101B40000FBECDBFDF91CF911F910F91FF90EF900E
:101B5000DF90CF90BF90AF909F908F907F906F90CD
:101B60005F904F903F902F900895F801158EDBCF36
:101B70002F923F924F925F926F927F928F929F929D
:101B8000AF92BF92CF92DF92EF92FF920F931F938B
:101B9000CF93DF93CDB7DEB72F970FB6F894DEBFA4
:101BA0000FBECDBF1C0100912102109122020E94A4
:101BB000BD01812C912C54011F82188619861A862A
:101BC0001B821C821D821E82C12CD12C7601412CCD
:101BD000512C3201F101868D978DA0A1B1A18816FB
:101BE0009906AA06BB0608F054C0AE014F5F5F4FCE
:101BF000BE016E5F7F4FC8010E94F4042A81420E2D
:101C0000511C611C711C3981C30ED11CE11CF11CDB
:101C100081149104A104B104A1F1422F6B85461BEC
:101C2000550BCA0157FF03C0919581959109092E63
:101C3000000CAA0BBB0B4B815C816D817E81480F30
:101C4000591F6A1F7B1F4B835C836D837E83632FC9
:101C5000AF856A1B770BCB0177FF03C09195819508
:101C60009109092E000CAA0BBB0B4F815885698581
:101C70007A85480F591F6A1F7B1F4F8358876987D2
:101C80007A875FEF851A950AA50AB50A3F872B87E1
:101C9000A1CF0E94B901D1015E966D917D918D9188
:101CA0009C9191976B877C878D879E870E94B62F2A
:101CB0004B015C01C301B2010E94B62FA501940142
:101CC0000E940C322B013C01F10142A653A664A6EE
:101CD00075A6C701B6010E94B62FA50194010E9406
:101CE0000C324B015C01D1019E968D929D92AD927A
:101CF000BC92D1976B857C858D859E8561507109DD
:101D0000810991090E94B62F6B017C016B817C8156
:101D10008D819E810E94B62FA70196010E940C32F0
:101D20006B837C838D839E83F10162AB73AB84AB49
:101D300095AB6F81788589859A850E94B62FA7011A
:101D400096010E940C326F83788789879A87D10128
:101D5000D6966D937D938D939C93D997F80167895F
:101D600070E090E080E00E94B62F9B01AC010E94E1
:101D700089316B017C01D1019296CD92DD92ED9279
:101D8000FC929597AC019B01C301B2010E945633AE
:101D900087FD5CC0A7019601C501B4010E945633BE
:101DA00087FD54C081E0F10182AFF10186A097A0C8
:101DB000A0A4B1A4A50194016B817C818D819E8139
:101DC0000E94563318160CF045C0A50194016F818E
:101DD000788589859A850E9456331816DCF581E04E
:101DE000D101DB968C93D101DA961C91DA971123FD
:101DF00011F0DB961C91C1010E94D00B1823809139
:101E00001D0290911E02009731F0111104C04FEF96
:101E100060E00E941608F10114AF2F960FB6F894F7
:101E2000DEBF0FBECDBFDF91CF911F910F91FF900D
:101E3000EF90DF90CF90BF90AF909F908F907F906A
:101E40006F905F904F903F902F900895D101DA9658
:101E50001C92ABCFF10113AEC6CF50E08DED92E0F6
:101E60000C9417038DED92E00C949703EF92FF9280
:101E70000F931F93CF93DF93E42EF12C8B01D0E0CF
:101E8000C0E0CE15DF0508F03DC02FB7F894809173
:101E9000340290913502A0913602B09137022FBFE3
:101EA0008093E5029093E602A093E702B093E802E4
:101EB0008DED92E00E94BC0397FF2CC02FB7F894E1
:101EC0008091340290913502A0913602B091370290
:101ED0002FBF4091E5025091E6026091E7027091B8
:101EE000E802841B950BA60BB70B4091E1025091C1
:101EF000E2026091E3027091E40284179507A6075D
:101F0000B707B0F28C2FDF91CF911F910F91FF9007
:101F1000EF900895F80181938F012196B2CF8DED56
:101F200092E00E94BC0308958DED92E00C94D803DA
:101F3000AF92CF92EF920F93CF93DF93CDB7DEB7EF
:101F400028970FB6F894DEBF0FBECDBF34E23983B9
:101F50006A834B832C830D83EE82CF82A886DC01BB
:101F6000ED91FC910084F185E02D48E0BE016F5FAA
:101F70007F4F099528960FB6F894DEBF0FBECDBFF0
:101F8000DF91CF910F91EF90CF90AF9008952F9266
:101F90003F924F925F926F927F928F929F92AF92F9
:101FA000CF92DF92EF92FF920F931F93CF93DF9325
:101FB00000D0CDB7DEB74C013B01622F84E0489FD3
:101FC000F00111243796E80DF91D408051802280E0
:101FD0003380A12CC12CE12C272D462D80912D0280
:101FE00090912E020E94980F0E94BD017101F594FC
:101FF000E794E80CF91C10E000E090E4D92EA1E091
:102000002A2233246016710671F1F401808D81114A
:10201000DEB8F2012114310441F0D701ED91FC91B9
:10202000E40DF51D0190F081E02DAE014E5F5F4F94
:10203000BE016F5F7F4FC7010995F401808D81114B
:102040001EB880912D0290912E02DC01ED91FC9141
:102050000084F185E02D42E0BE016F5F7F4F09955E
:102060000F5F1F4FCFCF0E94B9010F900F90DF91EC
:10207000CF911F910F91FF90EF90DF90CF90AF9095
:102080009F908F907F906F905F904F903F902F9098
:102090000895AF92CF92EF920F93CF93DF93CDB786
:1020A000DEB728970FB6F894DEBF0FBECDBFCE01C6
:1020B00001960E94F803A12CC12CE12C00E020E045
:1020C00048E061E080912D0290912E020E94980FCD
:1020D00080912D0290912E02DC01ED91FC91008403
:1020E000F185E02D48E0BE016F5F7F4F099528968E
:1020F0000FB6F894DEBF0FBECDBFDF91CF910F9129
:10210000EF90CF90AF9008950F931F93CF93DF93ED
:10211000EC018B01E881F9810190F081E02D0995B6
:10212000892B31F480E0DF91CF911F910F910895B9
:10213000E881F9810280F381E02DCE010995843296
:1021400089F7E881F9810480F581E02D47E0B80145
:10215000CE010995873031F7F8018081E4CFCF9324
:10216000DF9300D000D0CDB7DEB749835A836B83AD
:102170007C83DC01ED91FC910084F185E02D44E04D
:10218000BE016F5F7F4F09950F900F900F900F90DA
:10219000DF91CF910895AF92CF92EF920F93CF93AB
:1021A000DF93EC01A12C8DE0C82E9DE0E92E0DE01F
:1021B0002DE04CAD6DE380912D0290912E020E9496
:1021C000980F80912D0290912E02DC01ED91FC91EF
:1021D0000680F781E02D6AAD09954AA55BA56CA53F
:1021E0007DA580912D0290912E020E94AF104EA5E8
:1021F0005FA568A979A980912D0290912E020E9475
:10220000AF104AA15BA16CA17DA180912D0290919C
:102210002E020E94AF1080912D0290912E02DC01BF
:10222000ED91FC910680F781E02D6BAD09954AA9EF
:102230005BA96CA97DA980912D0290912E020E942C
:10224000AF104EA95FA968AD79AD80912D02909134
:102250002E020E94AF104EA15FA168A579A58091C2
:102260002D0290912E020E94AF1080912D0290912C
:102270002E02DC01ED91FC910680F781E02D6C8946
:1022800009954C855D856E857F8580912D029091A5
:102290002E020E94AF10488959896A897B898091F2
:1022A0002D0290912E020E94AF104C815D816E81B3
:1022B0007F8180912D0290912E020E94AF1080911B
:1022C0002D0290912E02DC01ED91FC910680F781A8
:1022D000E02D6D8D09954D895E896F89788D80918E
:1022E0002D0290912E020E94AF10498D5A8D6B8D58
:1022F0007C8D80912D0290912E020E94AF10488516
:1023000059856A857B8580912D0290912E02DF91FF
:10231000CF910F91EF90CF90AF900C94AF10CF93DF
:10232000DF9300D0CDB7DEB77A836983DC01ED910E
:10233000FC910084F185E02D42E0BE016F5F7F4F8C
:1023400009950F900F90DF91CF9108954091A001D2
:102350005091A10120919E0130919F014217530796
:10236000B4F49091E8009570E1F39091E80092FD4B
:1023700019C08093F1008091A0019091A101019674
:102380008F739927892B19F48EEF8093E800809141
:10239000A0019091A10101969093A1018093A001C9
:1023A00081E0089580E00895DF92EF92FF920F930D
:1023B0001F93CF93DF93D82E8A01EB017B01E40EAC
:1023C000F51ECE15DF0559F0D7FE12C0FE0184912F
:1023D0000E94A61121968111F4CF0FEF1FEFC801C3
:1023E000DF91CF911F910F91FF90EF90DF900895B3
:1023F0008881EECF0F931F93CF93DF931F92CDB7BA
:10240000DEB712E0198342E450E06EE271E080E84A
:102410000E94D4118091A70181110CC01093A301D7
:1024200084E08093A4011092A6011092A50181E09E
:102430008093A7010091A5011091A6010115110536
:1024400089F0D801ED91FC910280F381E02DBE016D
:102450006F5F7F4FC801099597FD04C0F8010085A3
:102460001185ECCF89810F90DF91CF911F910F9152
:102470000895AF92BF92CF92DF92EF92FF920F93A7
:102480001F93CF93DF9300D01F92CDB7DEB75A01D1
:1024900019821A821B82882361F18B01E1E0F0E04E
:1024A000E82EF12CD8012D918D012223F1F06F013E
:1024B000B1E0CB1AD108D501AC0DBD1D4C91442320
:1024C000A1F030E02F5F3F4FD7010E941631A42FBB
:1024D000B0E011969B01AC010E940B31A1E0B0E08D
:1024E000AC0FBD1FAC0DBD1D8C933196E430F105D2
:1024F000C9F669817A818B810F900F900F90DF91DF
:10250000CF911F910F91FF90EF90DF90CF90BF90F0
:10251000AF9008956F927F928F92CF92DF92EF9259
:10252000FF920F931F93CF93DF93CDB7DEB76297E0
:102530000FB6F894DEBF0FBECDBF8C016B017A01E0
:10254000822FA801475F5F4FB8016A5F7F4F0E94EB
:1025500039123B01882ED8011C962C91C701F7FE39
:1025600004C0882799278E199F09DA82C9829C8323
:102570008B839E838D83688A798A8A8A213049F584
:10258000CE0101960E947A0583E08D871F861E8604
:10259000F7FE02C08DEF8D87D801ED91FC91028886
:1025A000F389E02DBE016F5F7F4FC80109956296E8
:1025B0000FB6F894DEBF0FBECDBFDF91CF911F9154
:1025C0000F91FF90EF90DF90CF908F907F906F9062
:1025D00008951C861B861A86198618861F82D4CFFA
:1025E000CF92DF92EF92FF920F931F93CF93DF93DF
:1025F000CDB7DEB762970FB6F894DEBF0FBECDBF82
:102600008C016B017A01822FA801475F5F4FB801EF
:102610006A5F7F4F0E9439129B01482FD8011C9698
:102620008C91DA82C982FC82EB82FE82ED82288B59
:10263000398B4A8B813009F5CE0101960E947A05CB
:102640001D861F861E86D801ED91FC910288F389B4
:10265000E02DBE016F5F7F4FC801099562960FB6EE
:10266000F894DEBF0FBECDBFDF91CF911F910F91C8
:10267000FF90EF90DF90CF9008951C861B861A86FE
:10268000198618861F82DCCF90E080E00895FC0157
:1026900064870895FC01848590E00895FC01858598
:1026A00096850895CF92DF92EF92FF928132910545
:1026B000E8F422E020939100C12CD12C5AEFE52EB2
:1026C00054E4F52EBC0190E080E00E94B62FA701F3
:1026D00096010E9417300E9421340E94BF32CB0124
:1026E0000197FF90EF90DF90CF900895873021E021
:1026F000920750F423E020939100C12CD12C4AE79B
:10270000E42E43E4F42EDECF893124E0920750F426
:1027100024E020939100C12CD12C3AE7E32E32E43F
:10272000F32ED0CF833620E1920750F425E020939A
:102730009100C12CD12C2AE7E22E21E4F22EC2CF47
:1027400090E080E0CECFCF93DF93EC0118820E941F
:10275000AF0180910302909104020E94790488A144
:1027600099A10E94282F8AA19BA10E94282F19A21B
:1027700018A21BA21AA2E0911D02F0911E028281F2
:10278000882389F087831186108690E09195819542
:102790009109938782878BE390E09587848781E016
:1027A000868317861686DF91CF9108950F931F9326
:1027B000CF938C01C42F822F662349F08AE090E0EA
:1027C0000E94D530C82F8BE090E00E94D5309FEF5B
:1027D0009C0F953008F053C0882309F450C0C130D5
:1027E00079F0C23009F44FC033E022E39FEEC330EA
:1027F00051F022E39FE9C43009F497EC33E003C0C1
:1028000029E197EC34E02817D0F121E0F80120838A
:10281000C3838483318392831092C0001092C100DD
:102820001092C2001092C3001092C40026983E98E5
:1028300019BC29B5206129BD12BE22B72A6022BF6A
:1028400022B7206322BF22B7206422BF29B52260AD
:1028500029BD3093C1002091C00021602093C000A9
:102860002091C00020622093C0002E98269A909359
:10287000D1008093D0001092BF001092BE00CF9183
:102880001F910F91089529E195E9BCCFAF92CF92A6
:10289000EF920F93CF93DF9385E090E00E94D530C5
:1028A000C82F86E090E00E94D530D82F87E090E0D6
:1028B0000E94D530082F88E090E00E94D530A12CEE
:1028C000C12CE82E2D2F4C2F6CE080912D02909181
:1028D0002E020E94980FDF91CF910F91EF90CF9031
:1028E000AF900895AF92BF92CF92DF92EF920F9385
:1028F000CF935B016A01C22FBC0189E190E00E9485
:10290000F530B5018BE190E00E94F530B6018DE124
:1029100090E00E94F5306C2F83E290E00E94E3305B
:10292000602F84E290E00E94E3306E2D88E290E018
:10293000CF910F91EF90DF90CF90BF90AF900C941C
:10294000E330EF920F93CF93DF93D0E0C0E0CE015E
:102950000E94D5308F3F21F52196C431D105B9F7BA
:1029600063E08AE090E00E94E33064E18BE090E075
:102970000E94E3306AE08FE090E00E94E33060E183
:1029800084E190E00E94E33089E9E82E0FEC26E430
:102990004CE251E06EE570E088E592E00E9472142E
:1029A00062E085E090E00E94E33060E086E090E045
:1029B0000E94E33060E087E090E00E94E3306FE146
:1029C00088E090E0DF91CF910F91EF900C94E3308D
:1029D000CF92DF92EF92FF92CF93DF93EC0181E0F1
:1029E000888389E190E00E94DD309C838B838BE1BA
:1029F00090E00E94DD309A8389838DE190E00E940F
:102A0000DD309E838D8383E290E00E94D5308F83FA
:102A100084E290E00E94D530888788E290E00E94AE
:102A2000D53089870E94AF0182E390E00E94521363
:102A30009093990080939800809191008860809392
:102A400091008091710084608093710010929500D4
:102A50001092940081E090E09EAF8DAFFE01FF9652
:102A600085E190E091838083329685E690E09183C2
:102A70008083329689E790E091838083329685EB5C
:102A800090E091838083329686EB90E0A0E0B0E006
:102A900080839183A283B3836D817E8190E080E007
:102AA0000E94B62F20E030E04AE754E40E9417303D
:102AB00020E030E048E452E40E940C326B017C01DB
:102AC00020E030E0A9010E94563320E030E040E0F1
:102AD0005FE387FD6CC0C701B6010E9489310E9487
:102AE000B832FE01E55BFF4F6A547F4F8F4F9F4F17
:102AF0006083718382839383349686E190E091832F
:102B0000808332968DE190E091838083329683E2D8
:102B100090E091838083329688E290E09183808375
:102B200032968CE290E091838083329680E390E04D
:102B30009183808332968CE390E0918380833296F8
:102B40008CED90E091838083329689EE90E09183C2
:102B50008083329685E291E091838083329689E486
:102B600091E09183808332968DE591E0918380831B
:102B7000329688EB91E091838083329611821082A5
:102B80008F8190E00E948C2E99A388A38B819C81D9
:102B90000E948C2E9BA38AA319AE1AAE1BAE1CAE4C
:102BA000DF91CF91FF90EF90DF90CF900895C70114
:102BB000B6010E94883193CF0E949234FC01828139
:102BC0009381009789F02585368577FDB901261711
:102BD00037070CF4B901AB01440F551F460F571FBF
:102BE00070E060E00C94973408951F920F920FB636
:102BF0000F9211242F933F938F939F93AF93BF9383
:102C00008091340290913502A0913602B091370242
:102C10003091330223E0230F2D3758F50196A11D83
:102C2000B11D209333028093340290933502A09318
:102C30003602B09337028091380290913902A09108
:102C40003A02B0913B020196A11DB11D809338025A
:102C500090933902A0933A02B0933B02BF91AF9197
:102C60009F918F913F912F910F900FBE0F901F90CA
:102C7000189526E8230F0296A11DB11DD2CF1F92F1
:102C80000F920FB60F9211242F933F934F935F93A0
:102C90006F937F938F939F93AF93BF93EF93FF9324
:102CA00080E492E00E948A02FF91EF91BF91AF9180
:102CB0009F918F917F916F915F914F913F912F9154
:102CC0000F900FBE0F901F9018951F920F920FB686
:102CD0000F9211242F938F939F93EF93FF93E09183
:102CE0005002F09151028081E0915602F09157021A
:102CF00082FD1BC09081809159028F5F8F7320915C
:102D00005A02821741F0E0915902F0E0E05CFD4F79
:102D1000958F80935902FF91EF919F918F912F9101
:102D20000F900FBE0F901F9018958081F4CF1F92C7
:102D30000F920FB60F9211242F933F934F935F93EF
:102D40006F937F938F939F93AF93BF93EF93FF9373
:102D500064E670E080910702909108020E941205DB
:102D6000FF91EF91BF91AF919F918F917F916F9163
:102D70005F914F913F912F910F900FBE0F901F9039
:102D800018951F920F920FB60F9211242F933F9315
:102D90004F935F936F937F938F939F93AF93BF9363
:102DA000EF93FF930E949716FF91EF91BF91AF9120
:102DB0009F918F917F916F915F914F913F912F9153
:102DC0000F900FBE0F901F9018951F920F920FB685
:102DD0000F9211242F933F934F935F936F937F93A1
:102DE0008F939F93AF93BF93EF93FF930E94971698
:102DF000FF91EF91BF91AF919F918F917F916F91D3
:102E00005F914F913F912F910F900FBE0F901F90A8
:102E100018951F920F920FB60F9211248F939F93C4
:102E2000EF93FF93E0910D02F0910E02808191816A
:102E3000019691838083FF91EF919F918F910F90E5
:102E40000FBE0F901F9018951F920F920FB60F9202
:102E50001124AF92CF92DF92EF92FF920F932F93B4
:102E60003F934F935F936F937F938F939F93AF9312
:102E7000BF93CF93DF93EF93FF9360919600709190
:102E80009700E0910D02F0910E02C081D18190E097
:102E900080E00E94B62F2DEB37E346E857E30E940F
:102EA00017306B017C01BE0190E080E00E94B62FDC
:102EB0009B01AC01C701B6010E948931462F272F23
:102EC000A12CC12CE92E082F68E780912D0290914A
:102ED0002E020E94980F1092950010929400E0919B
:102EE0000D02F0910E0211821082FF91EF91DF919D
:102EF000CF91BF91AF919F918F917F916F915F9192
:102F00004F913F912F910F91FF90EF90DF90CF90D5
:102F1000AF900F900FBE0F901F9018951F920F92B9
:102F20000FB60F9211242F933F934F935F936F939C
:102F30007F938F939F93AF93BF93CF93DF93EF9341
:102F4000FF93C0912B02D0912C0269AD7AAD8BAD6D
:102F50009CAD0E94B62F20E030E040E85FE30E9485
:102F600089310E94BF3269AF7AAF8BAF9CAF81E0ED
:102F700088AFFF91EF91DF91CF91BF91AF919F917A
:102F80008F917F916F915F914F913F912F910F9012
:102F90000FBE0F901F9018951F920F920FB60F92B1
:102FA00011248F93EF93FF93E0912102F09122027D
:102FB00081E08183FF91EF918F910F900FBE0F9071
:102FC0001F9018951F920F920FB60F9211240F9019
:102FD0000FBE0F901F9018951F920F920FB60F9271
:102FE00011240F900FBE0F901F9018951F920F92F3
:102FF0000FB60F9211240F900FBE0F901F901895CF
:103000001F920F920FB60F9211240F900FBE0F90C8
:103010001F9018951F920F920FB60F9211248F9345
:103020009F93EF93FF93E0911D02F0911E0286851E
:103030009785019697878687808D918D0196918FD0
:10304000808F81E08583FF91EF919F918F910F9009
:103050000FBE0F901F9018951F920F920FB60F92F0
:1030600011248F939F938091E1009091E100937FD1
:103070009093E10083FF0FC01092E90091E09093DC
:10308000EB001092EC0092E39093ED0010923F025F
:1030900098E09093F00082FF1CC093E09093E900C9
:1030A0009091F200992319F09AE39093E80090919F
:1030B000DB01992329F09091DB0191509093DB0182
:1030C00090913E02992329F090913E029150909365
:1030D0003E0284FF18C08091E2008E7E8160809362
:1030E000E2008091E1008F7E8093E1008091DC011D
:1030F0008E7E80618093DC019F918F910F900FBE37
:103100000F901F90189580FFF7CF8091E2008E7E80
:1031100080618093E2008091E1008E7E8093E100E7
:103120008091DC018E7E8160E5CF1F920F920FB6F9
:103130000F921124DF92EF92FF920F931F932F9320
:103140003F934F935F936F937F938F939F93AF932F
:10315000BF93EF93FF93CF93DF93CDB7DEB7619724
:10316000DEBFCDBF1092E9008091E80083FF2FC041
:1031700089E0FE013A96EE2EDF2E815029F09091E3
:10318000F10090833196F9CF84E680933E0282EF7E
:103190008093E8008A8587FF38C09091E80090FF0F
:1031A000FCCF982F907609F035C19B854C855D85C5
:1031B0002C85FD84911130C0803859F58091DD0156
:1031C0008093F1001092F1008EEF8093E8006196F9
:1031D0000FB6F894DEBF0FBECDBFDF91CF91FF9148
:1031E000EF91BF91AF919F918F917F916F915F917F
:1031F0004F913F912F911F910F91FF90EF90DF9092
:103200000F900FBE0F901F9018959EEF9093E800BF
:10321000C8CF1092F100D6CF913059F48111D4CF9C
:103220004130510589F68091DD018D7F8093DD016C
:10323000CBCF933049F48111C7CF4130510521F6EE
:103240008091DD018260F2CF953041F48091E800F9
:1032500080FFFCCF20682093E300B6CF963009F0C2
:10326000ACC00889198922E01092E9001092A101EE
:103270001092A001F2122EC010929F0110929E0196
:103280000E94FA111F8299E09983FA8291E09E834D
:1032900090EA98879AEF99872091A0013091A10137
:1032A000275F3F4F3C832B838D831092E900109260
:1032B000A1011092A00110939F0100939E0149E08B
:1032C00050E0BE016F5F7F4F80E00E94D4110E94EA
:1032D000FA117ACF10939F0100939E018091A7016C
:1032E00081110DC082E08093A30184E08093A4014A
:1032F0001092A6011092A50181E08093A701009190
:10330000A5011091A6010115110509F455C1D801B7
:10331000ED91FC910480F581E02D6E2D7D2DC8018D
:103320000995009709F04EC1F80100851185EBCF92
:10333000F3E0FF120CC08C858823B1F1823059F480
:1033400068E086E991E00E94E71A81113DCF81E2B1
:103350008093EB003CCF813021F46FE086E891E070
:10336000F2CF8330A1F7CE0101960E94F80382E1EB
:103370000E94A61183E00E94A6118E010F5F1F4FCD
:103380007E0129E0E20EF11CD8018D918D010E9491
:10339000A6118823E1F280E00E94A6118823B9F2E9
:1033A000E016F10689F710CF60E771E0FB01449168
:1033B00050E080E80E94D41107CF973041F2983056
:1033C00021F481E08093F100FFCE993009F0FCCE2A
:1033D000837009F0BCCFE7E2F1E081E031E096E3F1
:1033E0002191222371F08093E9003093EB00DF01FB
:1033F00011972C912093EC009093ED008F5F873014
:1034000079F78EE78093EA001092EA008C8580932A
:103410003F02DACE888999891092E9001092A101C1
:103420001092A00190939F0180939E018E8581113F
:103430009AC08B859A85913A49F4813209F087CFF9
:1034400047E050E064E071E080E0B4CF913209F0F1
:103450007ECF833269F48C859D85B0E0A0E08093B7
:10346000000190930101A0930201B0930301ACCE3F
:103470008032A9F48091E80082FFFCCF88E0E4E08C
:10348000F1E0815029F09091F10090833196F9CFCD
:1034900084E680933E028BEF8093E80095CE8232E3
:1034A00009F092CE8C8580930B01EEEFFFE78591BA
:1034B00094918B3F9C4D51F1E0E0F8E08091040144
:1034C00090910501A0910601B0910701803B9440C5
:1034D000A105B105F1F480910B0180FD1AC0EE3F0A
:1034E0008AE0F80789F587E797E7918380838091E1
:1034F00060008093A20188E19BE00FB6F894A89544
:10350000809360000FBE909360005ECEEEEFFAE015
:10351000D5CF808191818737974709F055CEA895FF
:10352000809160008861809360008091A201809307
:103530006000EE3F2AE0F20789F08091FE0A909148
:10354000FF0A9183808340CE8081918187379807DD
:1035500051F29093FF0A8093FE0AC5CF1092FF0AA2
:103560001092FE0A31CE8091A70181110DC082E038
:103570008093A30184E08093A4011092A60110928D
:10358000A50181E08093A7010091A5011091A601FA
:103590000115110509F4DBCED801ED91FC910190E4
:1035A000F081E02D6E2D7D2DC801099581110CCE85
:1035B000F80100851185ECCFF1E0FF12B9CE64E788
:1035C00071E0F4CE181619060CF4FECDC0CEEF92C1
:1035D000FF920F931F93CF93DF93182FE92E062F9F
:1035E00081E0860F880F0E94A61183E00E94A61139
:1035F000F12EC12FDE2DFE0184910E94A611182FFD
:1036000080E00E94A611812329F021969C2F9F190A
:10361000901788F3DF91CF911F910F91FF90EF905A
:103620000895E0E4F2E01382128288EE93E0A0E0D5
:10363000B0E084839583A683B7832DE731E031839F
:1036400020832DEC30E0358724872CEC30E0378761
:10365000268728EC30E0318B208B29EC30E0338B4F
:10366000228B2AEC30E0358B248B2EEC30E0378B2C
:10367000268B118E128E138E148EEDEDF2E01382D6
:10368000128284839583A683B7838FE891E0918328
:1036900080838FEF9FEF95878487EDE2F3E080834F
:1036A00012821182148613868FEF9FEFDC018783CD
:1036B0009087A187B287138214821582168208959B
:1036C000CF93DF93CDB7DEB7AA970FB6F894DEBFDE
:1036D0000FBECDBF789484B5826084BD84B581600F
:1036E00084BD85B5826085BD85B5816085BD8091CD
:1036F0006E00816080936E00109281008091810045
:10370000826080938100809181008160809381003C
:103710008091800081608093800080919100826020
:1037200080939100809191008160809391008091BD
:1037300090008160809390008091C10084608093AC
:10374000C1008091C10082608093C1008091C1005E
:1037500081608093C1008091C30081608093C30029
:103760008091C00082608093C0008091C20081601F
:103770008093C20080917A00846080937A00809167
:103780007A00826080937A0080917A0081608093D1
:103790007A0080917A00806880937A0010923F02CC
:1037A0001092DD011092DC018091D700816080933E
:1037B000D70080EA8093D80089B5806189BD89B53A
:1037C000826089BD09B400FEFDCF0E94F1018091A5
:1037D000D8008F7C80618093D8008091E000807F4A
:1037E0008093E0008091E1008E7E8093E1008DE087
:1037F0008093E20083E090E00E948C2EDC01129620
:103800001C92129729E331E02D933C932FEF3FEF69
:103810003093EA022093E90244E650E060E070E071
:103820004093E1025093E2026093E3027093E4025A
:1038300004B603FC0DC041E950ED63E070E0209157
:10384000E80023FD05C04150510961097109B9F72C
:103850009093300280932F0281E090E00E948C2EA2
:1038600090932A028093290281E090E00E948C2E9E
:103870008C010E94A114109326020093250281E07E
:1038800090E00E948C2E90933D0280933C0281E058
:1038900090E00E948C2E909304028093030282E0B9
:1038A00090E00E948C2EFC01118210821182108205
:1038B00090930E0280930D0281E090E00E948C2E86
:1038C000909302028093010281E090E00E948C2E8E
:1038D00024B7277F24BF909328028093270281E09A
:1038E00090E00E948C2E909306028093050285E062
:1038F00090E00E948C2E8C01DC011C9220E040E0C4
:1039000061E00E94D613109324020093230289E100
:1039100090E00E948C2E8C01FC0110821182108E8E
:1039200014BC15BC10926E0083E085BD80916E00C2
:10393000816080936E0080910302909104020E9446
:10394000790480E99AE0D80118969C938E93179792
:103950001A961C921E9219978AED9AE01C969C93D7
:103960008E931B971E961C921E921D9781E19BE0E1
:1039700050969C938E931F9752961C921E9251972D
:1039800080E09AE054969C938E93539756961C929F
:103990001E9255978FE090E00E94D530882311F059
:1039A000F801878B10932202009321028AE190E0B4
:1039B0000E948C2E8C01DC0111961C92119712969C
:1039C0001C92129715961C92159716961C92169794
:1039D00050961C92F89488E18093600080E4809374
:1039E0006000789484E190E00E94D530F82EF801D0
:1039F0008083F3E08F9FC00111240E948C2EAC01C4
:103A0000D80114969C938E9313972F2D30E08091BC
:103A1000F901811155C01092E5011092E4019FEF68
:103A20009093E8019093E9019093EA019093EB0160
:103A30009093EC019093ED0181E08093EE01109260
:103A4000F0011092EF0180E797E19093F2018093EB
:103A5000F10183E090E09093F4018093F3011092E0
:103A6000F6011092F5011092E7011092E6018091A3
:103A7000E0019091E101892B31F482EE91E0909385
:103A8000E1018093E001E091DE01F091DF013097E8
:103A900021F082EE91E09583848382EE91E0909311
:103AA000DF018093DE011092F8011092F7018DE59D
:103AB00091E09093E3018093E20181E08093F9012A
:103AC000559A5093E5014093E4013093F00120931F
:103AD000EF018091300390913103A0913203B091B6
:103AE0003303843CE9E09E07A105B10520F484EC92
:103AF00099E0A0E0B0E08093300390933103A0936D
:103B00003203B093330310931E0200931D028CE620
:103B100090E00E948C2E2CE6DC011D922A95E9F79C
:103B2000FC01B89620E1DF011D922A95E9F7FC011E
:103B300010AE90932C0280932B028DE390E00E94B4
:103B40008C2E8C01DC0154961C9254975D961C922D
:103B50005D97DA961C92DA97DB961C92DB97FF242E
:103B6000F394DC96FC9285E39CE0A0E0B0E0F801E1
:103B700080839183A283B38345EE50ED62EB7FE3B4
:103B8000448355836683778348EB5EE765EB73E494
:103B90004087518762877387868F978FA0A3B1A3D1
:103BA00086E696E6A6E6BFE386A397A3A0A7B1A7FD
:103BB000109332020093310288E190E00E948C2E33
:103BC000FC0112821382F582F68210861782128619
:103BD00011861586148617861686F08AF18A158A4C
:103BE000148A178A168A84E084838DE08387F09391
:103BF0002002E0931F0284E090E00E948C2E4C0192
:103C000080910C01D4018C9380910D0111968C93BD
:103C1000119780910E0112968C93129780910F014B
:103C200013968C93909212028092110284E090E09D
:103C30000E948C2E5C0180911001F501808380919F
:103C4000110181838091120182838091130183830A
:103C5000B0921002A0920F0284E090E00E948C2E9D
:103C60006C0180911401D6018C93809115011196FD
:103C70008C9311978091160112968C9312978091D4
:103C8000170113968C93D0920C02C0920B0284E021
:103C900090E00E948C2E7C0180911801F7018083B6
:103CA00080911901818380911A01828380911B0187
:103CB0008383F0920A02E092090284E090E00E947D
:103CC0008C2EFC0180911C01808380911D018183D9
:103CD00080911E01828380911F018383F0930802EB
:103CE000E09307029092140280921302B09216029F
:103CF000A0921502D0921802C0921702F0921A02F6
:103D0000E0921902F0931C02E0931B0280E291EA18
:103D10000E94C101C8010E94B80DE0913102F091EA
:103D2000320284AD882331F080912B0290912C02D5
:103D30000E94E8149E012F5F3F4F3A8F298F2090F9
:103D40002F0230903002E0913102F091320284ADC6
:103D5000BE0181113DC06F5F7F4FC1010E94841081
:103D6000882381F020912F023091300230932E026F
:103D700020932D02813089F48091290290912A02AA
:103D80000E94491080E090E0892BC9F20E947602DF
:103D9000882381F20E940000CDCF8C3039F48091CD
:103DA0002502909126020E944614ECCF8C3339F400
:103DB00080913102909132020E94B80DE3CF8D3391
:103DC00009F780913102909132020E94CB10DACF34
:103DD000615F7F4FC1010E948410182F882399F1E1
:103DE00030922E0220922D0280902B0290902C0275
:103DF00074013BE6E30EF11CD7018C91811109C0DF
:103E0000F1018281811105C081E08283C4010E9499
:103E1000A3131E3309F43AC708F02FC21F3109F467
:103E200040C508F086C11D3009F443C408F04BC1F9
:103E3000133009F40BC408F039C1113009F4E9C397
:103E4000123009F4EDC3E0902102F0902202D70174
:103E50008C918823F1F011968C9111978823C9F0E9
:103E600012966D917C9113976115710549F0149626
:103E70004C91443028F400E024E3C7010E94C70FAE
:103E8000F70185819681892B11F00C946A2981E0D4
:103E90008183E0901D02F0901E02F7018581882346
:103EA00009F4B9C015828681882309F458C0868533
:103EB0009785C484D58411818C159D0510F00C94D0
:103EC00073296685778590E080E00E94B62F4B01CC
:103ED0005C01B60190E080E00E94B62F9B01AC012E
:103EE000C501B4010E940C324B015C01D7011A9646
:103EF0006D917C91072E000C880B990B0E94B82FB6
:103F00009B01AC01C501B4010E9417304B015C015B
:103F1000F701678170E090E080E00E94B82F9B017C
:103F2000AC01C501B4010E9489314B015C0120E064
:103F300030E0A9010E94563320E030E040E05FE32A
:103F400087FF02C00C946D29C501B4010E9489311C
:103F50000E94B832462F612FC7010E941608F70150
:103F60008089882309F457C0808D918DC688D788B1
:103F700012818C159D0510F00C947D29608D718D3A
:103F800090E080E00E94B62F4B015C01B60190E00A
:103F900080E00E94B62F9B01AC01C501B4010E94D4
:103FA0000C324B015C01D70154966D917C91072E28
:103FB000000C880B990B0E94B82F9B01AC01C50126
:103FC000B4010E9417304B015C01F701618970E078
:103FD00090E080E00E94B82F9B01AC01C501B401C4
:103FE0000E9489314B015C0120E030E0A9010E9470
:103FF000563320E030E040E05FE387FF02C00C94DE
:104000007729C501B4010E9489310E94B832412F3D
:10401000C7010E94160820902B0230902C02F1015B
:104020008081882309F4AECE80AD882309F4AACE1E
:1040300010AE41AD52AD63AD74ADEB5BFF4F80810F
:104040009181B0E0A0E0F10184179507A607B707BA
:1040500010F40C944B2B01AD12AD23AD34AD45AD36
:1040600056AD70E060E0041715072607370711F01A
:104070000C948229E0911D02F0911E0242812FEFE3
:1040800030E0C901841B910911F40C94B6294783CF
:1040900031872087938782878BE390E09587848799
:1040A00081E08683178616860C94B6291A3009F4A7
:1040B000D7C21C3009F0C7CE80912502909126020C
:1040C0000E944614C0CE103109F44DC3C8F41E300E
:1040D00009F422C31F3009F0B6CE8889882309F479
:1040E0003CC384E190E00E94D530A12CC12CE12C8E
:1040F00000E020E0482F6FE0C1010E94980FA3CE9E
:10410000143109F4AFC31E3109F09DCEE0912102B4
:10411000F09122028889882309F4BDC3A12CC12C07
:10412000E12C00E020E047896EE1C1010E94980F78
:104130008ACE1A3209F40DC508F080C080902102A1
:1041400090902202123209F41EC4B0F4103209F425
:10415000EBC3113209F077CE688979896115710551
:1041600009F471CE4A89443008F06DCE0B8921E202
:10417000C4010E94C70F67CE183209F412C4193265
:1041800009F061CE488859884114510409F45BCE86
:104190006A887B886114710409F455CEA12CC12C66
:1041A000E12C00E0252D442D69E2C1010E94980F09
:1041B0000E94BD01B30190E080E00E94B62F20E094
:1041C00030E040E85FE30E9489310E94A53328E196
:1041D00032E741E35FE30E940C320E94F5310E9416
:1041E000BF32362E70E090E080E00E94B62F20E0D3
:1041F00030E040E05EE30E9417300E94F5310E94FB
:10420000BF32262EF12CE12C90E080E040E050E01F
:10421000BA01831508F037C401E010E0082E02C08F
:10422000000F111F0A94E2F7012E000C220B330B32
:10423000402B512B622B732B0196EBCF153309F4D6
:104240000FC570F4E0912102F0912202123309F4BB
:10425000D1C4133309F0F7CD10820E94AF01F3CD22
:104260001C3309F40CC51D3309F0EDCD80913102EA
:10427000909132020E94CB10E6CD153609F456C655
:1042800008F0BFC0123509F446C508F07BC01834E9
:1042900009F48CC578F4163409F4E8C5173409F02C
:1042A000D2CD4989688980911D0290911E020E9499
:1042B0001608C9CD103509F4D1C5113509F0C3CDA3
:1042C00069897A896115710509F4BDCDE0901D02F7
:1042D000F0901E02288930E0D70111961C91C90187
:1042E000811B910909F4AFCDAC0153956C01DA94AF
:1042F000DC0197FF04C0AA27BB27A81BB90BEE2738
:10430000FF27EC19FD09A417B50724F04E175F0726
:104310000CF4FAC4AE17BF0724F0E417F5070CF449
:10432000C601F701118B338B228B958B848B90E028
:1043300080E00E94B62F20E030E048E851E40E947F
:104340000C324B015C0120E030E0A9010E945633A1
:1043500020E030E040E05FE387FDD8C4C501B40150
:104360000E9489310E94B832D70157967C936E9390
:10437000569781E050968C93509759961C921E92B6
:10438000589761CD1B3509F48AC508F5133509F432
:104390001AC51A3509F057CD8889882309F476C5DE
:1043A000D10112961C92F40180A191A10E94282FA4
:1043B000D40192968D919C910E94282FF40111A214
:1043C00010A213A212A2C4010E94E8143CCD1C3515
:1043D00009F493C5143609F036CDE8898FEF8E0FB6
:1043E000853008F030CD8989811190C5E150FF0BEF
:1043F000EE0FFF1FED5EFD4F808191810E943B0516
:1044000022CD183709F433C6D8F51E3609F4E7C5AE
:10441000E8F4163609F4BBC5173609F014CDE8895F
:104420008FEF8E0F853008F00ECD69897A8961157E
:10443000710509F408CDE150FF0BEE0FFF1FED5E93
:10444000FD4F808191810E941205FDCC1F3609F439
:10445000DDC5103709F0F7CC1889809111029091D1
:1044600012020E945B05112309F4EDCCF89480E45C
:104470008EB9812F90E00E94C1011EB87894E3CCE0
:10448000143809F480C6B0F4123809F42DC6133874
:1044900009F0D9CC8889882309F471C62C893D8913
:1044A0004A895B89698980910D0290910E020E9470
:1044B0004904C9CC1C3809F4E5C6163909F0C3CC47
:1044C0008889882309F4FDC69A898FEF890F873080
:1044D00008F0B9CC6B89673008F0B5CC79891092B7
:1044E0007C0010927A0010927B0010BE80917C00BC
:1044F000772309F4E4C6806480937C0090937A006B
:1045000080917C00846080937C0080917B0080623D
:1045100080937B0080917A00806880937A008BE999
:104520009FE00197F1F780917A00806480937A0090
:1045300080917A0086FDFCCF062F10E0C801880F1D
:10454000991F41E050E002C0440F551F8A95E2F7E1
:1045500080E090E0DC01F0E0E0E020917A0020646F
:1045600020937A0020917A0026FDFCCF20917800DC
:1045700030917900820F931FA11DB11D31964E1706
:104580005F0759F704C0B695A795979587956A95E3
:10459000D2F7A8E4CA2EA1EEDA2EAAE9EA2EA0E408
:1045A000FA2E711108C0FAE0CF2EF7EDDF2EF3E2FC
:1045B000EF2EF0E4FF2EBC0190E080E00E94B62FC9
:1045C000A70196010E9417306B017C01065F1F4F07
:1045D00061E070E080E090E004C0660F771F881F04
:1045E000991F0A95D2F70E94B62F9B01AC01C70113
:1045F000B6010E940C32462F272FA12CC12CE92E88
:10460000082F66E980912D0290912E020E94980F4A
:104610001ACC8091290290912A020E94491013CC51
:1046200080913A0390913B03009711F48EE393E05D
:10463000498D5A8D481B590BA12CC12CE12C00E04F
:10464000252F62E0C1010E94980FFDCBF894A89538
:1046500088E18093600088E0809360007894F3CBD9
:1046600010E000E06FEF7FEFC8010E94F5300E5FB1
:104670001F4F0115F4E01F07A9F7809125029091C3
:1046800026020E94A11420E040E061E08091230214
:10469000909124020E94D6138FE090E00E94D530C2
:1046A000882309F4D0CBE0912102F0912202878B7C
:1046B000CACB88898823A1F08AE090E00E94D53097
:1046C000182F8BE090E00E94D530A12CC12CE12C5A
:1046D00000E0282F412F6DE0C1010E94980FB3CB5D
:1046E00019890A898FEF810F853060F4002351F01A
:1046F000612F8AE090E00E94E330602F8BE090E031
:104700000E94E330202F412F60E08091230290919E
:1047100024020E94D61397CB8889882379F08FE0F2
:1047200090E00E94D530A12CC12CE12C00E020E0CB
:10473000482F6EE0C1010E94980F85CB1989112383
:1047400009F481CB612F8FE090E00E94E330E0918B
:104750002102F0912202178B76CB698984E190E0E7
:104760000E94E33070CB88898823F1F189E190E0E1
:104770000E94DD302C018BE190E00E94DD303C0195
:104780008DE190E00E94DD304C0183E290E00E94D8
:10479000D530182F84E290E00E94D530F82E88E2C0
:1047A00090E00E94D530A12CC12C76E0E72E082F96
:1047B0002F2D412F60E1C1010E94980FB20180911D
:1047C0002D0290912E020E948F11B30180912D0233
:1047D00090912E020E948F11B40180912D02909130
:1047E0002E020E948F112FCBADB6BEB619890A8951
:1047F000EB884C892DB73EB7241B31090FB6F894CE
:104800003EBF0FBE2DBF8DB79EB701966C01D10183
:10481000ED91FC910480F581E02DBC01C101099569
:10482000F601808191819C012A503109273A344058
:1048300098F4D60112966D917C91139761157105CC
:1048400059F014964D915C914A30510528F011238E
:1048500019F0212F0E9472140FB6F894BEBE0FBE3D
:10486000ADBEF1CA809123029091240228892223AF
:1048700061F0A12CC12CE12C00E0FC0124814381DA
:1048800064E1C1010E94980FDECA2A89498960E06B
:104890000E94D613D8CA8989882309F4D4CA878B81
:1048A000D2CA888899888114910409F4CCCA60908E
:1048B000210270902202A12CC12CE12C00E0292DB4
:1048C000482D6FE1C1010E94980F0E94BD0110E0C8
:1048D00000E060E4F62ED30158968C918111FEB869
:1048E000AE014E5F5F4FBE016F5F7F4FC3010E94FD
:1048F000F404F301808D81111EB880912D029091F6
:104900002E02DC01ED91FC910084F185E02D42E066
:10491000BE016F5F7F4F09950F5F1F4F8016910695
:10492000D1F60E94B9018FCA8889888F815085305D
:1049300008F089CA0E94BD01F401808D882311F01E
:1049400080E48EB99E01285E3F4FAE014E5F5F4FFF
:10495000BE016F5F7F4FC4010E948504D401589649
:104960008C9181111EB8A12CC12CE12C0A812981C6
:10497000488D60E280912D0290912E020E94980F46
:104980000E94B90160CA8889882331F076986E9AAE
:1049900081E0F401808F57CA6E98D40158961C921A
:1049A00052CA688879886114710409F44CCA1A895A
:1049B000112309F448CAA12CC12CE12C00E0272DB9
:1049C000462D68E2C1010E94980F0E94BD01612F2F
:1049D00070E090E080E00E94B62F20E030E040E8F8
:1049E0005FE30E9489310E94A53328E132E741E369
:1049F0005FE30E940C320E94F5310E94BF32062F05
:104A0000F12CE12C90E080E0A12CB12C6501801705
:104A100090F441E050E0082E02C0440F551F0A9464
:104A2000E2F7052E000C660B770BA42AB52AC62ADE
:104A3000D72A0196ECCFAE014A5E5F4FBE01695E98
:104A40007F4FC4010E94900A6F896A216F8B8E8903
:104A5000A822AE8A161710F40C94382E6983809120
:104A60002D0290912E021A1510F00C94482EDC01A4
:104A7000ED91FC910680F781E02D0995BFEFEB1ACF
:104A8000FB0A0C945F2E5A01D12CC12C10E0211688
:104A9000A9F1AE014E5F5F4FBE016F5F7F4FC40152
:104AA0000E94900A29818A8111110DC0422F50E085
:104AB0005C8F4B8FA82FB0E0BE8FAD8F1F5F38E0AB
:104AC000C30ED11CE4CF30E00C2C02C0220F331FE8
:104AD0000A94E2F7EB8DFC8DE22BF32BFC8FEB8F2E
:104AE00090E00C2C02C0880F991F0A94E2F72D8DDC
:104AF0003E8D282B392B3E8F2D8FE0CF6B8D7C8DFB
:104B00006A217B214D8D5E8DA422B5226616770623
:104B100010F40C94682E80912D0290912E026A144C
:104B20007B0410F00C94762E0E948F11EFEFEE1A9A
:104B3000FE0A0C94832E0E948F11B50180912D02E4
:104B400090912E020E948F1182E0E80EF11C0C94CD
:104B5000832E888899888114910409F474C960901F
:104B6000210270902202A12CC12CE12C00E0292D01
:104B7000482D6AE2C1010E94980F0E94BD016401A4
:104B8000D694C794F12CE12CCE14DF04F1F0BE01D1
:104B90006F5F7F4FC3010E944E0B49815A816B8129
:104BA0007C8180912D0290912E020E94AF104D8148
:104BB0005E816F81788580912D0290912E020E94F6
:104BC000AF109FEFE91AF90ADFCF80FE10C0BE01D7
:104BD0006F5F7F4FC3010E944E0B49815A816B81E9
:104BE0007C8180912D0290912E020E94AF100E9434
:104BF000B90129C9288939892115310509F423C941
:104C00009C89943008F01FC90A891B890336A0E1EA
:104C10001A0708F018C981E08083338322839483C4
:104C2000168305830115110511F481830CC91182C6
:104C30000E94AF01C8010E94521390939900809383
:104C4000980080919100886080939100809171001C
:104C50008260809371001092950010929400F3C8C6
:104C6000E0912102F09122024081A12CC12CE12C83
:104C700000E020E065E3C1010E94980FE4C8809144
:104C80003102909132020E94B80DDDC880901F025F
:104C900090902002A12CC12CE12C00E020E048E003
:104CA0006EE3C1010E94980FF401678170858091C5
:104CB0002D0290912E020E948F11D40119966D91B0
:104CC0007C9180912D0290912E020E948F11F4010F
:104CD0006489758980912D0290912E020E948F1116
:104CE000D40156966D917C9180912D0290912E0267
:104CF0000E948F11F4011086178212861186158A80
:104D0000148A178A168A9FC8CA010BCBC501B40141
:104D10000E94883127CB8889882309F494C869893F
:104D20007A896115710509F48EC800911D021091F0
:104D30001E0290E0982F8827F8012181218B280FEF
:104D4000392F311D338B228B958B848B90E080E043
:104D50000E94B62F20E030E048E851E40E940C3277
:104D60006B017C0120E030E0A9010E94563320E075
:104D700030E040E05FE387FD14C0C701B6010E9448
:104D800089310E94B832D80157967C936E9356971A
:104D900081E050968C93509759961C921E9258978A
:104DA00052C8C701B6010E948831EBCF80911D0225
:104DB00090911E02FC012681211145C8488961811C
:104DC0000E94160840C869897A896115710509F43D
:104DD0003AC8888900911D0210911E02D8011296CE
:104DE0004C91129790E09C01241B310909F42BC8C7
:104DF00017964C93179719969C938E9318971B961A
:104E00003C932E931A9790E080E00E94B62F20E00A
:104E100030E048E851E40E940C326B017C0120E054
:104E200030E0A9010E94563320E030E040E05FE32B
:104E300087FD0FC0C701B6010E9489310E94B832B8
:104E4000F8017587648781E08683178616860C943F
:104E5000231FC701B6010E948831F0CFE0911D02E7
:104E6000F0911E021682108A0C94231FE0911D02FD
:104E7000F0911E02A12CC12CE68000892281418183
:104E800066E4C1010E94980F0C94231F81E0D101B8
:104E900012968C93C4010E94A3130C94231FF40157
:104EA00006A1E7A044A125A1A12C30E1C32E6BE50A
:104EB000C1010E94980F7401F8E2EF0EF11C840109
:104EC000085C1F4F6701D7016D917D917D01809135
:104ED0002D0290912E020E948F110E151F0599F739
:104EE000F40115A214A217A216A2F60111921192B2
:104EF0000E171F07D9F70C94231F81E09889911191
:104F000001C080E0D7018C930C94231F813011F0F5
:104F10000C94231FE150FF0BEE0FFF1FED5EFD4FC2
:104F2000808191810E945B050C94231FE8898FEF9B
:104F30008E0F853010F00C94231FE150FF0BEE0F05
:104F4000FF1FED5EFD4F0190F081E02DA181B0E0EB
:104F500090962C918381E281F0E040A130E0082E10
:104F600002C0359527950A94E2F7217050E002C0FF
:104F7000559547958A95E2F74170A12CC12CE12CFB
:104F800000E065E6C1010E94980F0C94231FE88998
:104F90008FEF8E0F853010F00C94231FE150FF0B24
:104FA000EE0FFF1FED5EFD4FA081B181EC91F0E0AF
:104FB00013968C9121E030E002C0220F331F8A95B6
:104FC000E2F7C901298990A1222321F0892B80A32E
:104FD0000C94231F8095892380A30C94231F888918
:104FE000882379F080911102909112020E943B0572
:104FF00010926A001DBA80E380936A00EE9A0C94C6
:10500000231F10926A001DBA0C94231F88898823DD
:1050100029F1898910927C0010927A0010927B000D
:1050200010BE882379F080917B00806480937B00A0
:1050300080917C00846080937C0080917B00806202
:1050400080937B0080B7886080BF8BE99FE00197E9
:10505000F1F780B7836080BF0C94231F10927C000F
:1050600010927A0010927B0010BE0C94231F888946
:105070008823B1F180910F02909110020E943B05AC
:105080000E94AF0184E08093910080919000836042
:10509000809390008091910088618093910083E2D9
:1050A00094EF90939900809398008091910080688C
:1050B0008093910080919100806480939100C59AC3
:1050C0008091710080628093710080917100816095
:1050D0008093710010929500109294000C94231FFD
:1050E0000E94AF010C94231F8889882309F443C0D0
:1050F000E988FA88C70101978236904110F00C9434
:10510000231F08EC10E041E2E416F10480F009E10D
:1051100010E057E0E51651E0F50648F006E010E033
:1051200089E1E81684E0F80610F002E010E00E9441
:10513000AF01C7010E94521390939700809396008D
:1051400080919000826080939000809191008861AE
:1051500080939100809190008068809390004698A1
:105160003E9A109399000093980010929500109227
:1051700094000C94231F0E94AF010C94231F0E94E3
:10518000AF010C94231F8889882309F477C06989AB
:105190007A896115710519F01B89111104C00E94EB
:1051A000AF010C94231F90E080E00E94B62F9B017A
:1051B000AC0160E074E284EF99E40E940C326B0170
:1051C0007C0120E030E0A9010E94563320E030E06D
:1051D00040E05FE387FD48C0C701B6010E94893106
:1051E0000E94B83261507109810991090E94B82F5B
:1051F0004B015C01612F70E090E080E00E94B62FCF
:1052000020E030E04FE753E40E940C3220E030E031
:1052100048EC52E40E9417306B017C0120E030E042
:10522000A9010E94563320E030E040E05FE387FDB3
:1052300020C0C701B6010E9489310E94B8320E9485
:10524000B82F0E94BF32062F10E0C501B4010E94A2
:10525000BF329801AB0162E080910D0290910E0285
:105260000E9449040C94231FC701B6010E94883193
:10527000B7CFC701B6010E948831DFCF0E94AF01CE
:105280000C94231F88898823A1F0809109029091B2
:105290000A020E943B051092680010926B0081E0A8
:1052A0008093680080916B00806880936B000C9401
:1052B000231F1092680010926B000C94231F806CC7
:1052C0001BC910927C0010927A0010927B0010BED5
:1052D0000C94231F11820C94491FC501B4010E9434
:1052E00088310C94A81F168240850C94AB1FC50111
:1052F000B4010E9488310C940520108A412F6289E4
:105300000C94082001AD12AD23AD34ADFF96408161
:10531000518170E060E0041715072607370709F090
:1053200059C080911D0290911E02DC0116962C91AD
:105330001697211105C04FEF11966C910E94160827
:10534000E0911D02F0911E028181818B90E09D5FB2
:10535000938B828B80E093E0958B848B8BEE90E037
:10536000978B868B81E0808B118E108ED1011996E0
:105370001C91112311F40C94C21EF101E15BFF4F4B
:1053800090E080E0D101D9964D915D916D917C9135
:10539000DC97C190D190F12CE12C4C155D056E0588
:1053A0007F0509F071C1880F991F280E391EF10180
:1053B000E35AFF4F608171816115710509F0DAC010
:1053C00010928000109281001092820010926F0063
:1053D0000C94C21EF10101AD12AD23AD34ADEF5BF3
:1053E000FF4F4081518170E060E0041715072607E8
:1053F000370789F4E0911D02F0911E028281882313
:1054000009F4B4CF87831186108690E09195819539
:1054100091090C944A20F10101AD12AD23AD34ADD8
:10542000ED5BFF4F4081518170E060E0041715078C
:105430002607370709F086C0809103029091040285
:105440000E947904D101A35ABF4F910125593F4FC2
:10545000CE010196BD01FB0141915191BF01FC01BB
:1054600041935193CF0126173707A9F7FE013D96C7
:10547000929182918D939D93298D3A8DE217F30736
:10548000B9F7D1011D961D921D921D921C92509745
:1054900013968D919C9114979C0173E0220F331FFA
:1054A0007A95E1F752963C932E9351979C01220FE7
:1054B000331F220F331F54963C932E93539792968B
:1054C000ED91FC918E0F9F1F24E0E817F90711F072
:1054D0002193FBCFF101878190E020A131A1F90157
:1054E000AF01421B530B4817590710F41192F8CF24
:1054F000D1015F961C920E94AB0B8770F1018387EC
:10550000282F30E08730A1F480E284872F583E4F67
:10551000F9016081D1011A966C9380911D029091DE
:105520001E02FC011682108A40E00E9416081ECF5F
:10553000F901EF58FE4F81819081891BD1011C96A2
:105540008C93E4CFF10141AD52AD63AD74AD8417DE
:105550009507A607B70709F009CFE95BFF4F8081E0
:1055600091810197B0E0A0E0F10181AF92AFA3AFCC
:10557000B4AFFCCE90E080E00E94B62F9B01AC015E
:1055800060E074E284EF99E40E940C326B017C01CC
:1055900020E030E0A9010E94563320E030E040E0F6
:1055A0005FE387FD67C0C701B6010E9489310E9491
:1055B000B83261507109810991090E94B82F4B01DD
:1055C0005C01612F70E090E080E00E94B62F20E047
:1055D00030E04FE753E40E940C3220E030E048EC2A
:1055E00052E40E9417306B017C0120E030E0A901F9
:1055F0000E94563320E030E040E05FE387FD3FC08B
:10560000C701B6010E9489310E94B8320E94B82FAA
:105610000E94BF32062F10E0C501B4010E94BF32C4
:1056200010928000109281001092820010926F0000
:1056300022E020938100209180002260209380004E
:1056400020918100286120938100209180002860B2
:10565000209380002F98279A70938700609386008C
:1056600010938D0000938C0010928500109284009E
:105670000C94C21EC701B6010E94883198CFC701A1
:10568000B6010E948831C0CF01968730910509F09C
:1056900079CE0C94C21E41AD52AD63AD74ADE95BE1
:1056A000FF4F80819181A281B381481759076A0712
:1056B0007B0710F40C94C21ED101D9964D915D91D7
:1056C0006D917C91DC97349680819181A281B38128
:1056D00084179507A607B70708F4A5C20E94AB0B6D
:1056E000E12C882329F09FEF980F8923E394F9CFC9
:1056F000F1012381348150E040E06585768587851E
:1057000090890E944531D10192962D913C919397B9
:10571000F901E60FF71F208153968D919C915497C4
:10572000821B910954969C938E935397E0825396D3
:105730006D917C915497E60EF72EF11C5496FC92D5
:10574000EE92539751966D917C915297CB0196951D
:105750008795E81AF90A5696FC92EE92559790E0D2
:1057600080E00E94B62F20E030E040E85EE30E9437
:1057700017300E944B344B015C01B701FF0C880BC2
:10578000990B0E94B82FA50194010E940C324B0185
:105790005C01F101878A908EA18EB28E20E030E00C
:1057A000A9010E945633181624F0B7FAB094B7F83E
:1057B000B094A5019401C501B4010E9417302B01DA
:1057C0003C017C016B01F7FAF094F7F8F09420E0CB
:1057D00030E040E05FE3C701B6010E9417300E944D
:1057E00086326F8F78A389A39AA32AE136EF45E129
:1057F0005FE3C701B6010E9417300E9486326BA397
:105800007CA38DA39EA3C701B6010E9486326FA31D
:1058100078A789A79AA720E030E040EE50E46F8D8A
:1058200078A189A19AA10E9417306B017C0120E028
:1058300030E040E851E46BA17CA18DA19EA10E94C3
:1058400017309B01AC01C701B6010E9489316B0181
:105850007C012BED3FE049E45FE3C301B2010E940C
:10586000173020E030E040EE50E40E9489312FA153
:1058700038A549A55AA50E9417309B01AC01C70164
:10588000B6010E94893129E838E848E05DE30E94CA
:1058900017309B01AC0160E070E080E89FE30E945C
:1058A00088310E944B3420E030E040E05FE30E940A
:1058B00017306B017C0120E030E0A901C501B40183
:1058C0000E94B12F87FF61C020E030E040E05FE33D
:1058D000C701B6010E9489319B01AC010E94893148
:1058E0009B01AC0160E070E080E89FE30E9488319A
:1058F000D1015B966D937D938D939C935E9720E091
:1059000030E04FE753E40E9417306B017C0120E048
:1059100030E0A9010E94563320E030E040E05FE330
:1059200087FD3CC0C701B6010E9489310E94B83290
:10593000162FF101278130E050E040E06585768543
:10594000878590890E944531D10190962D913C9197
:105950009197C901860F971FFC0110831796EC9051
:105960001797F12C90964D915C91FA0160E070E0F0
:10597000CB019F01241B350B2E153F05A0F421916F
:10598000620F711D811D911DF4CFA701960160E08A
:1059900070E080E09FE30E9488319ECFC701B6018E
:1059A0000E948831C3CF0E94B62F4B015C01B70122
:1059B000FF0C880B990B0E94B82F9B01AC01C5010D
:1059C000B4010E940C326B017C0120E030E0A9019F
:1059D0000E94563320E030E040E05FE387FD19C1CC
:1059E000C701B6010E9489310E94B8320E94B82FC7
:1059F0006B017C0120E030E040E851E40E94B12FCF
:105A000087FF06C0C12CD12C40E8E42E41E4F42EDF
:105A1000C701B6010E94BF32162FD1015F966C9369
:105A20005F971896EC901897A0901D02B0901E02F8
:105A30001A96DC90462F6D2DE11608F059C0F12C16
:105A4000612F70E090E080E00E94B62F2B013C01B6
:105A5000B7010F2C000C880B990B0E94B82F9B01EB
:105A6000AC01C301B2010E9488312B013C016FEFF0
:105A700070E06E197F09072E000C880B990B0E94AD
:105A8000B82F9B01AC01C301B2010E940C322B0163
:105A90003C01F101648570E090E080E00E94B82F45
:105AA0009B01AC01C301B2010E9417302B013C01E4
:105AB0006D2D70E090E080E00E94B82F9B01AC015A
:105AC000C301B2010E9489316B017C0120E030E00A
:105AD000A9010E94563320E030E040E05FE387FDFB
