:100000000C94BD000C94E5000C94E5000C94E50004
:100010000C94E5000C94E5000C94E5000C94DF10C2
:100020000C94E5000C9409110C94F5110C945E12DB
:100030000C94D5110C94E5000C94E5000C94E500AB
:100040000C94E5000C94E5000C94E5000C94E5009C
:100050000C94E5000C94E5000C94E5000C943D1024
:100060000C94E5000C94AD100C9487100C94E500F2
:100070000C942D110C94E5000C94E5000C946C117B
:100080000C94DF110C94E5000C94E5000C945111D4
:100090000C94E5000C94E5000C94E5000C94E5004C
:1000A0000C94E5000C94E5000C94E50008000000B9
:1000B000BE922449123EABAAAA2ABECDCCCC4C3E5D
:1000C00000000080BEABAAAAAA3E00000000BF004C
:1000D0000000803F0000000000084178D3BB438748
:1000E000D1133D190E3CC3BD4282AD2B3E68EC825C
:1000F00076BED98FE1A93E4C80EFFFBE01C4FF7FE1
:100100003F0000000000080B00020202000009048A
:100110000000010202000005240010010524010175
:1001200001042402060524060001070581031000CE
:100130004009040100020A00000007050202400015
:1001400000070583024000000403090412010002B5
:10015000EF020140091284480001010203014761D6
:10016000627269656C2047756572726572005241F2
:10017000564120524E470000DA1411241FBECFEF23
:10018000DAE0DEBFCDBF11E0A0E0B1E0E2E3F8E4E9
:1001900002C005900D92AC36B107D9F722E0ACE66B
:1001A000B1E001C01D92A33CB207E1F710E0CDEB36
:1001B000D0E004C02197FE010E940B22CC3BD10766
:1001C000C9F70E9425150C9417240C940000FB011C
:1001D000DC016C9112967C91962F990F990F990FD3
:1001E00035E5292F239F020E20E0211D1124822FA7
:1001F000562F5074462F407267FD40C051112CC0DD
:10020000411105C0922F9095892F90E004C025E5FB
:10021000280F90E08BEA7F3FD9F030E0772321F080
:10022000779F312D09F03F5F332309F448C0482FF1
:10023000439F040E40E0411D842F239F020E20E0C7
:10024000211D492F439F040E40E0411D942F11248E
:10025000808321839283089541110BC0392F2AEAAC
:10026000329F030E30E0311D11249BEA931B280FAF
:10027000CBCF90E02095982F80E0CDCF511112C0C8
:1002800041110CC0392F2AEA329F030E30E0311D94
:1002900011242BEA231B95E5930FEECF922F909517
:1002A00020E0B9CF411106C025E5280F9BEA981B35
:1002B000822FF6CF2AEA280F90E0932FF8CF90E014
:1002C00020E080E0C5CF9091B601911103C08FEF7F
:1002D0009FEF08954FB7F89492E09093E9009091C2
:1002E000F200292F30E01216130614F421E030E05A
:1002F000232B29F084E68093B5018091F1009923A6
:1003000039F02091F200211103C02BE62093E80080
:100310004FBF9923E1F290E008952FB7F89483E05E
:100320008093E9009091E800892F807295FF04C0C6
:100330009091F20080E4891B2FBF089510927C00F9
:1003400010927A0010927B0010BE0895CF92DF9237
:10035000EF92FF92CF93DF93F62EC62FD0E09E014F
:10036000220F331FA1E0B0E002C0AA0FBB1F2A95E5
:10037000E2F730E020E040E050E0BA01A217B30716
:10038000B1F090917A00906490937A0090917A0005
:1003900096FDFCCF90917800E0917900FE2FE92F37
:1003A0004E0F5F1F611D711D2F5F3F4FE7CF04C0D0
:1003B0007695679557954795FA94D2F79AE0C92EA6
:1003C00097EDD92E93E2E92E90E4F92E882341F09F
:1003D00088E4C82E81EED82E8AE9E82E80E4F82E33
:1003E000BA0190E080E00E947220A70196010E946D
:1003F000D3206B017C012A9661E070E080E090E000
:1004000004C0660F771F881F991FCA95D2F70E94F4
:1004100072209B01AC01C701B6010E949522DF91B9
:10042000CF91FF90EF90DF90CF900895CF92EF9211
:100430000F93CF93DF93CDB7DEB728970FB6F8941D
:10044000DEBF0FBECDBF34E239836A834B832C837A
:100450000D83EE82CF821886DC01ED91FC91008441
:10046000F185E02D48E0BE016F5F7F4F099528962A
:100470000FB6F894DEBF0FBECDBFDF91CF910F91C5
:10048000EF90CF900895789483E085BD0895F89417
:1004900087E085BD0895109290001092910010920F
:1004A0009200109271003E9808958230910538F0C4
:1004B000880F991F880F991F05970197F1F70895E5
:1004C0003FB7F8948091AF019091B001A091B10134
:1004D000B091B20126B5A89B05C02F3F19F0019637
:1004E000A11DB11D3FBFBA2FA92F982F8827BC018E
:1004F000CD01620F711D811D911D42E0660F771FB6
:10050000881F991F4A95D1F708950F931F93CF9392
:10051000C62F8091B5029091B602A091B702B0911A
:10052000B802892B8A2B8B2BD9F00E946002009194
:10053000C1011091C2012091C3013091C401601B1F
:10054000710B820B930B0091B5021091B6022091B2
:10055000B7023091B8026017710782079307C8F29B
:100560000E9460026093C1017093C2018093C30135
:100570009093C401E091BD02F091BE02309751F01A
:100580004091B9025091BA026091BB027091BC02D5
:100590008C2F09958091BF019091C0019C012F5F24
:1005A0003F4F3093C0012093BF0149970CF44AC0DC
:1005B0008FB7F8942091B7013091B8014091B901FB
:1005C0005091BA018FBF8091BB019091BC01A09165
:1005D000BD01B091BE01281B390B4A0B5B0B21F406
:1005E00021E030E040E050E0E091BF01F091C00137
:1005F00088EE93E0E89FB001E99F700DF89F700DC1
:100600001124072E000C880B990B0E94E9213093CE
:10061000B4022093B3021092C0011092BF012FB711
:10062000F8948091B7019091B801A091B901B0916F
:10063000BA012FBF8093BB019093BC01A093BD0171
:10064000B093BE01CF911F910F910895CF92DF9289
:10065000EF92FF920E9460026B017C010E94600297
:100660006C197D098E099F09683E734081059105CB
:10067000A8F3FF90EF90DF90CF900895AF92BF92D4
:10068000CF92DF92EF92FF920F931F93CF93DF935E
:100690006C017B018B01040F151FEB015E01AE188D
:1006A000BF08C017D10759F06991D601ED91FC91AF
:1006B0000190F081E02DC6010995892B79F7C501DC
:1006C000DF91CF911F910F91FF90EF90DF90CF902E
:1006D000BF90AF900895FC01538D448D252F30E0DD
:1006E000842F90E0821B930B541710F0CF9608953F
:1006F00001970895FC01918D828D981761F0A28D6C
:10070000AE0FBF2FB11D5D968C91928D9F5F9F7331
:10071000928F90E008958FEF9FEF0895FC01918DE7
:10072000828D981731F0828DE80FF11D858D90E054
:1007300008958FEF9FEF0895FC01918D228D892FF1
:1007400090E0805C9F4F821B91098F7399270895D9
:1007500085EC91E00E949C0321E0892B09F420E0C4
:10076000822F089580E090E0892B29F00E94A80351
:1007700081110C9400000895FC01A48DA80FB92FDD
:10078000B11DA35ABF4F2C91848D90E001968F73B9
:100790009927848FA689B7892C93A089B1898C91D8
:1007A00082748C93938D848D981306C00288F3898C
:1007B000E02D80818F7D80830895EF92FF920F93CB
:1007C0001F93CF93DF93EC0181E0888F9B8D8C8DFD
:1007D000981319C0E889F989808185FF14C09FB7F3
:1007E000F894EE89FF896083E889F98980818274B1
:1007F00080839FBF81E090E0DF91CF911F910F91A7
:10080000FF90EF900895F62E0B8D10E00F5F1F4FB5
:100810000F731127E02E8C8D8E110CC00FB607FCC4
:10082000FACFE889F989808185FFF5CFCE010E9452
:10083000BC03F1CFEB8DEC0FFD2FF11DE35AFF4F01
:10084000F0829FB7F8940B8FEA89FB8980818062E0
:10085000CFCFCF93DF93EC01888D8823B9F0AA899D
:10086000BB89E889F9898C9185FD03C0808186FD6B
:100870000DC00FB607FCF7CF8C9185FFF2CF8081BA
:1008800085FFEDCFCE010E94BC03E9CFDF91CF9170
:1008900008958F929F92AF92BF92CF92DF92EF9284
:1008A000FF920F931F93CF93DF936C017B018A011B
:1008B00080910B01882309F457C08091B6018823E9
:1008C00009F452C080917E0180FF05C08091E00054
:1008D00082608093E000E801B12C8AEFA82E93E0BB
:1008E000892E2AE3922E209711F4BB20B9F10E94A1
:1008F0008D01811106C0AA94AA20B1F10E9426039D
:10090000F2CF8C171D0611F00CF08C2F9FB7F894C6
:100910008092E9002091E80025FD02C09FBFE3CF4F
:10092000282F30E0C21BD30BF701815020F04191FA
:100930004093F100FACFE20EF31EBB2021F090921B
:10094000E800B12CEBCF8091E80085FDE7CF9092D5
:10095000E800BB24B394209709F3F3CF84E6809397
:100960007D01101611063CF081E090E0F6019383C2
:10097000828310E000E0C801DF91CF911F910F91B9
:10098000FF90EF90DF90CF90BF90AF909F908F90AF
:100990000895CF93DF931F92CDB7DEB76983DC0153
:1009A000ED91FC910280F381E02D41E050E0BE0129
:1009B0006F5F7F4F09950F90DF91CF91089583E08E
:1009C0008093E9008091F200882319F08AE38093F4
:1009D000E80008950E948D0190E00895FC0184854F
:1009E000958597FD05C02FEF3FEF35872487089544
:1009F0000C946301CF93DF93EC018C859D8597FF69
:100A000004C00E9463019D878C878C859D85DF9142
:100A1000CF910895FC018485958597FD0BC09FB704
:100A2000F89482E08093E9008091F2009FBF90E00B
:100A3000019608959FB7F89482E08093E900809131
:100A4000F2009FBF90E008958A3010F4805D089511
:100A5000895A08950F931F93CF93DF93EC01EEE033
:100A6000F0E000E011E210935700849108273196DE
:100A7000E431F105C1F7802F82958F700E94240523
:100A80008883802F8F700E9424058983E5E1F0E040
:100A9000109357000491802F82958F700E94240537
:100AA0008A83802F8F700E9424058B83E6E1F0E01B
:100AB000109357000491802F82958F700E94240517
:100AC0008C83802F8F700E9424058D83E7E1F0E0F6
:100AD000109357001491812F82958F700E942405E6
:100AE0008E83812F8F700E9424058F83DF91CF9199
:100AF0001F910F9108954F925F926F927F928F9204
:100B00009F92AF92BF92CF92DF92EF92FF920F939C
:100B10001F93CF93DF9300D0CDB7DEB75C014B01BD
:100B2000622F84E0489FF00111243796EA0DFB1DE7
:100B30006080718042805380C12CE12C292D482D8A
:100B40008091A8019091A9010E9416020E9447027B
:100B50007201F594E794EA0CFB1C10E000E090E4CD
:100B6000D92EA1E04A2255248016910671F1F50193
:100B7000808D8111DEB8F3014114510441F0D70199
:100B8000ED91FC91E60DF71D0190F081E02DAE0195
:100B90004E5F5F4FBE016F5F7F4FC7010995F50143
:100BA000808D81111EB88091A8019091A901DC016E
:100BB000ED91FC910084F185E02D42E0BE016F5F74
:100BC0007F4F09950F5F1F4FCFCF0E9443020F90B9
:100BD0000F90DF91CF911F910F91FF90EF90DF90D9
:100BE000CF90BF90AF909F908F907F906F905F90CD
:100BF0004F900895AF92BF92CF92DF92EF92FF9203
:100C00000F931F93CF93DF9300D01F92CDB7DEB722
:100C10005C018B016A017901F90180818530A9F4B9
:100C200081E08B839E012D5F3F4FAE014E5F5F4F92
:100C3000BE016F5F7F4FC5010E94FA0599818A81CD
:100C4000981709F183E0F7018083F70180818230F2
:100C5000E1F410928400F501878990E00E9455022A
:100C6000809184008170F80180830F900F900F9025
:100C7000DF91CF911F910F91FF90EF90DF90CF9078
:100C8000BF90AF90089582E0DECF833041F416BC70
:100C9000F501878990E00E94550286B5E3CF109256
:100CA000840016BCF501878990E00E94550290915E
:100CB0008400998386B59170F80190838170F60164
:100CC0008083F7019081943081F6F8019081892723
:100CD000CBCFEF92FF920F931F93CF93DF937B01C4
:100CE0008A01C4E8D0E0188216BCFC01878990E034
:100CF0000E9455028881F701808386B5F8018083C0
:100D0000DF91CF911F910F91FF90EF9008950F9376
:100D10001F93CF93DF938C01DC01EC91F0E090A165
:100D200013968C91C1E0D0E09E0101C0220F8A95FC
:100D3000EAF7922B90A3CB010E945502D801EC91C7
:100D4000F0E080A113969C9101C0CC0F9A95EAF730
:100D5000C095C823C0A3DF91CF911F910F91089533
:100D6000DC01EC91F0E080A113969C91139721E0B7
:100D700030E0A90101C0440F9A95EAF74095482355
:100D800040A31196EC911197F0E080A113969C91ED
:100D900001C0220F9A95EAF72095282320A30895F1
:100DA000DC01EC91F0E080A113969C91139741E057
:100DB00050E09A0101C0220F9A95EAF72095282366
:100DC00020A31196EC911197F0E080A113969C91CD
:100DD00001C0440F9A95EAF7482B40A30895EF927B
:100DE000FF920F931F93CF93DF9300D000D000D0DA
:100DF000CDB7DEB78C01E62EF42EFC0182A9882344
:100E000089F180E0442369F0842F90E00196959564
:100E100087958158282F229F020E20E0211D112442
:100E2000822FE9829FEF9A838B83BE016C5F7F4F95
:100E3000CE0101960E94E7006091B202CE010496B5
:100E40000E948502F801E0AAF1AA26960FB6F8944E
:100E5000DEBF0FBECDBFDF91CF911F910F91FF90ED
:100E6000EF90089569838FEF8A834B83DECFFC0177
:100E70008485958520810097A1F4228B81E0808B69
:100E800081E090E09587848786859785218100970A
:100E9000F9F4238B81E0818B81E090E0978786874E
:100EA0000895328932130CC020892F5F208B33853F
:100EB000231306C0248935892F5F3F4F358B248B40
:100EC0000196811522E09207E9F615861486DCCF9B
:100ED000338932130CC021892F5F218B3385231373
:100EE00006C0268937892F5F3F4F378B268B0196A7
:100EF000811522E0920791F6178616860895FC0167
:100F00008081928189131BC085818F5F8583948145
:100F1000891728F087819085019690878783818142
:100F20009381891310C086818F5F8683948189178E
:100F300068F08185928501969287818708958283E2
:100F400081E08583ECCF838381E0868308953F929F
:100F50004F925F926F927F928F929F92AF92BF92C9
:100F6000CF92DF92EF92FF920F931F93CF93DF9375
:100F700000D000D0CDB7DEB74C016B017A01FB0188
:100F80001082FA0110820DE211E088E0582E412C07
:100F9000312C332011F041102BC0AE014E5F5F4F5A
:100FA000BE016F5F7F4FC4010E946906AE014C5FB6
:100FB0005F4FBE016D5F7F4FC4010E946906311013
:100FC0000AC089818170A82E8B818170782EA81625
:100FD00011F0332433944110DCCF8A818170B82E14
:100FE0008C818170682EB816A1F244244394D1CF2D
:100FF0007A1438F4F6018081F8019081892BF6018A
:1010000080836B1438F4F7018081F8019081892B7B
:10101000F70180835A940F5F1F4F5110B8CF009192
:101020009C0110919D01F6018081F8018083F701F8
:101030008081F8018183C8010E947F07C8010E9456
:1010400037070F900F900F900F90DF91CF911F9166
:101050000F91FF90EF90DF90CF90BF90AF909F9057
:101060008F907F906F905F904F903F900895AF92D8
:10107000BF92DF92EF92FF920F931F93CF93DF9374
:101080005C017B018A01FB011082FA011082CDE232
:10109000D1E088E0D82E1092840016BCF501878933
:1010A00090E00E9455028091840096B580FF05C0B3
:1010B000F70180812881822B808390FF05C0F80191
:1010C00080819881892B8083DA942196D110E3CF97
:1010D000C0919C01D0919D01F70180818883F80126
:1010E00080818983CE010E947F07CE01DF91CF915D
:1010F0001F910F91FF90EF90DF90BF90AF900C94F5
:101100003707CF92DF92EF92FF920F931F93CF9307
:10111000DF9300D000D0CDB7DEB78C016B017A0130
:10112000AE014E5F5F4FBE016F5F7F4F0E94370879
:10113000AE014C5F5F4FBE016D5F7F4FC8010E94E3
:10114000370889819B818927F60180838A819C8168
:101150008927F70180830F900F900F900F90DF91F8
:10116000CF911F910F91FF90EF90DF90CF90089556
:10117000CF92DF92EF92FF920F931F93CF93DF9363
:1011800000D000D0CDB7DEB76C017B018A01AE0183
:101190004E5F5F4FBE016F5F7F4F0E943708AE0109
:1011A0004C5F5F4FBE016D5F7F4FC6010E943708E5
:1011B00099818B818927990F911D8927F701808358
:1011C0009A818C818927990F911D8927F801808345
:1011D0000F900F900F900F90DF91CF911F910F9173
:1011E000FF90EF90DF90CF900895EF92FF920F93D2
:1011F0001F93CF93DF93CDB7DEB728970FB6F89440
:10120000DEBF0FBECDBF7C018B01AE014A5F5F4FD9
:10121000BE016E5F7F4F0E943708AE01495F5F4F8E
:10122000BE016D5F7F4FC7010E943708AE01485F66
:101230005F4FBE016C5F7F4FC7010E943708698115
:101240007A818B819C818F77992780689F6320E0CA
:1012500030E040E85FE30E941122F801608371836F
:10126000828393836D817E818F8198858F77992783
:1012700080689F6320E030E040E85FE30E94112235
:10128000F801648375838683978328960FB6F89454
:10129000DEBF0FBECDBFDF91CF911F910F91FF90A9
:1012A000EF9008952F923F924F925F926F927F92AC
:1012B0008F929F92AF92BF92CF92DF92EF92FF9266
:1012C0000F931F93CF93DF93CDB7DEB7CA50D240B1
:1012D0000FB6F894DEBF0FBECDBF8C0180E091E069
:1012E0009E012F5F3F4FCD5FDD4F39832883C35071
:1012F000D240D901FC011D923197E9F71E01F1E0BE
:101300002F0E3F1ED101FC011D923197E9F720916C
:101310009E0130919F01CB5FDD4F39832883C550FB
:10132000D2400E944702412C512C3201C12CD12CB9
:101330007601812C912C5401F80180819181A28148
:10134000B381481659066A067B0608F047C0AE010D
:101350004E5F5D4FBE016F5F7D4FCB5FDD4F88817C
:101360009981C550D2400E943708CF5FDD4FA881D8
:10137000C150D2408A2F90E0882329F02FEF280F08
:1013800082239F5FF9CF890E911CA11CB11CCE5FF7
:10139000DD4FE881C250D2409E2F992329F02FEFD4
:1013A000290F92238F5FF9CFC80ED11CE11CF11CCD
:1013B00021E030E02C0F3D1F2A0F311DD9018C9107
:1013C0008F5F8C93E20DF32DF11D80818F5F808301
:1013D0003FEF431A530A630A730AAECF0E944302D7
:1013E000D8018D919D910D90BC91A02DCB5FDD4FCB
:1013F00088839983AA83BB83C550D240BC01CD01A9
:1014000023E0660F771F881F991F2A95D1F70E9446
:1014100072202B013C01C501B4010E947220A3017E
:1014200092010E94952220E030E040E05FE30E94BC
:10143000112220E030E048EC52E40E94D3204B011E
:101440005C01F80184869586A686B786C701B60139
:101450000E947220A30192010E94952220E030E0B8
:1014600040E05FE30E94112220E030E048EC52E4CB
:101470000E94D3206B017C01D8015096CD92DD9261
:10148000ED92FC92539720E030E0A901C501B40130
:101490000E947723181624F0B7FAB094B7F8B094E6
:1014A000F8014480558066807780A5019401C301CE
:1014B000B2010E94772387FD19C020E030E0A90126
:1014C000C701B6010E947723181624F0F7FAF094AA
:1014D000F7F8F094A7019601C301B2010E947723A7
:1014E00087FD04C081E0D80154968C93CB5FDD4F1B
:1014F000688179818A819B81C550D2400E94722087
:1015000020E030E040E85BE30E94D3202B013C0167
:10151000FE013196CB5FDD4FF983E883C550D240A1
:10152000C75FDD4F39822882C950D240C12CD12CEF
:10153000760146015701CB5FDD4FA881B981C550C7
:10154000D2406D91CB5FDD4FB983A883C550D240A7
:1015500070E090E080E00E947220A30192010E945E
:1015600011229B01AC010E94D320A30192010E9491
:1015700095229B01AC01C501B4010E9412224B01CE
:101580005C01C75FDD4FE881F981C950D2406191AC
:10159000C75FDD4FF983E883C950D24070E090E027
:1015A00080E00E947220A30192010E9411229B01FF
:1015B000AC010E94D320A30192010E9495229B01BD
:1015C000AC01C701B6010E9412226B017C01CB5F06
:1015D000DD4F28813981C550D2402216330609F0EB
:1015E000AACFD80155968D929D92AD92BC925897F4
:1015F000F801C18ED28EE38EF48E408451846284D1
:101600007384A3019201C501B4010E946D2087FF7C
:101610002EC0A3019201C701B6010E946D2087FF71
:1016200026C081E0D8015D968C93D80154968C91A8
:101630005497882311F05D968C91C65FDD4F0FB6ED
:10164000F894DEBF0FBECDBFDF91CF911F910F91F8
:10165000FF90EF90DF90CF90BF90AF909F908F90D2
:101660007F906F905F904F903F902F900895F8017A
:10167000158EDBCF2F923F924F925F926F927F92A7
:101680008F929F92AF92BF92CF92DF92EF92FF9292
:101690000F931F93CF93DF93CDB7DEB72F970FB67E
:1016A000F894DEBF0FBECDBF1C0100919E011091CA
:1016B0009F010E944702812C912C54011F821886A1
:1016C00019861A861B821C821D821E82C12CD12C77
:1016D0007601412C512C3201F101868D978DA0A10C
:1016E000B1A188169906AA06BB0608F054C0AE013F
:1016F0004F5F5F4FBE016E5F7F4FC8010E9469065A
:101700002A81420E511C611C711C3981C30ED11CEF
:10171000E11CF11C81149104A104B104A1F1422F38
:101720006B85461B550BCA0157FF03C091958195E8
:101730009109092E000CAA0BBB0B4B815C816D81BA
:101740007E81480F591F6A1F7B1F4B835C836D830B
:101750007E83632FAF856A1B770BCB0177FF03C0B6
:10176000919581959109092E000CAA0BBB0B4F8115
:10177000588569857A85480F591F6A1F7B1F4F83DB
:10178000588769877A875FEF851A950AA50AB50A8F
:101790003F872B87A1CF0E944302D1015E966D91B6
:1017A0007D918D919C9191976B877C878D879E878A
:1017B0000E9472204B015C01C301B2010E947220A1
:1017C000A50194010E9495222B013C01F10142A642
:1017D00053A664A675A6C701B6010E947220A50192
:1017E00094010E9495224B015C01D1019E968D923D
:1017F0009D92AD92BC92D1976B857C858D859E859F
:1018000061507109810991090E9472206B017C016C
:101810006B817C818D819E810E947220A70196013F
:101820000E9495226B837C838D839E83F10162AB42
:1018300073AB84AB95AB6F81788589859A850E945F
:101840007220A70196010E9495226F83788789876D
:101850009A87D101D6966D937D938D939C93D9975A
:10186000F801678970E090E080E00E9472209B019F
:10187000AC010E9412226B017C01D1019296CD92A3
:10188000DD92ED92FC929597AC019B01C301B201F0
:101890000E94772387FD4FC0A7019601C501B401BF
:1018A0000E94772387FD47C081E0F10182AFF101FB
:1018B00086A097A0A0A4B1A4A50194016B817C810E
:1018C0008D819E810E9477231816CCF5A501940185
:1018D0006F81788589859A850E94772318167CF513
:1018E00081E0D101DB968C93D101DA961C91DA97D5
:1018F000112311F0DB961C91C1010E945209812332
:10190000F10184AF2F960FB6F894DEBF0FBECDBFA6
:10191000DF91CF911F910F91FF90EF90DF90CF90CB
:10192000BF90AF909F908F907F906F905F904F90FF
:101930003F902F900895D101DA961C92B8CFF10113
:1019400013AED2CFCF92EF920F93CF93DF93CDB759
:10195000DEB728970FB6F894DEBF0FBECDBFCE011D
:1019600001960E942A05C12CE12C00E020E048E00D
:1019700061E08091A8019091A9010E9416028091D6
:10198000A8019091A901DC01ED91FC910084F18501
:10199000E02D48E0BE016F5F7F4F099528960FB696
:1019A000F894DEBF0FBECDBFDF91CF910F91EF90C6
:1019B000CF90089550E082E692E00C94490482E6CC
:1019C00092E00C94C904EF92FF920F931F93CF9370
:1019D000DF93E42EF12C8B01D0E0C0E0CE15DF05C3
:1019E00008F03DC02FB7F8948091B7019091B801ED
:1019F000A091B901B091BA012FBF80936A02909370
:101A00006B02A0936C02B0936D0282E692E00E949A
:101A1000EE0497FF2CC02FB7F8948091B7019091F6
:101A2000B801A091B901B091BA012FBF40916A02EB
:101A300050916B0260916C0270916D02841B950B4A
:101A4000A60BB70B40916602509167026091680245
:101A50007091690284179507A607B707B0F28C2F1B
:101A6000DF91CF911F910F91FF90EF900895F801B2
:101A700081938F012196B2CF82E692E00E94EE041C
:101A8000089582E692E00C940A050F931F93CF937A
:101A9000DF93EC018B01E881F9810190F081E02D69
:101AA0000995892B31F480E0DF91CF911F910F913F
:101AB0000895E881F9810280F381E02DCE01099536
:101AC000843289F7E881F9810480F581E02D47E0CF
:101AD000B801CE010995873031F7F8018081E4CF54
:101AE000CF93DF9300D000D0CDB7DEB749835A83C0
:101AF0006B837C83DC01ED91FC910084F185E02D0A
:101B000044E0BE016F5F7F4F09950F900F900F90DB
:101B10000F90DF91CF910895CF92EF920F93CF93D3
:101B2000DF93EC018DE0C82E9DE0E92E0DE02DE065
:101B30004CAD67E48091A8019091A9010E94160222
:101B40008091A8019091A901DC01ED91FC910680A2
:101B5000F781E02D6AAD09954AA55BA56CA57DA529
:101B60008091A8019091A9010E94700D4EA55FA5DA
:101B700068A979A98091A8019091A9010E94700D8E
:101B80004AA15BA16CA17DA18091A8019091A901BE
:101B90000E94700D8091A8019091A901DC01ED9146
:101BA000FC910680F781E02D6BAD09954AA95BA9F0
:101BB0006CA97DA98091A8019091A9010E94700D46
:101BC0004EA95FA968AD79AD8091A8019091A90156
:101BD0000E94700D4EA15FA168A579A58091A80112
:101BE0009091A9010E94700D8091A8019091A90186
:101BF000DC01ED91FC910680F781E02D6C8909955F
:101C00004C855D856E857F858091A8019091A901A5
:101C10000E94700D488959896A897B898091A80141
:101C20009091A9010E94700D4C815D816E817F8130
:101C30008091A8019091A9010E94700D8091A80146
:101C40009091A901DC01ED91FC910680F781E02DD6
:101C50006D8D09954D895E896F89788D8091A80178
:101C60009091A9010E94700D498D5A8D6B8D7C8DCC
:101C70008091A8019091A9010E94700D4885598515
:101C80006A857B858091A8019091A901DF91CF9110
:101C90000F91EF90CF900C94700DCF93DF9300D005
:101CA000CDB7DEB77A836983DC01ED91FC910084C6
:101CB000F185E02D42E0BE016F5F7F4F09950F90E7
:101CC0000F90DF91CF91089540916E0150916F0177
:101CD00020916C0130916D0142175307B4F490913B
:101CE000E8009570E1F39091E80092FD19C08093AF
:101CF000F10080916E0190916F0101968F73992789
:101D0000892B19F48EEF8093E80080916E019091F9
:101D10006F01019690936F0180936E0181E00895A9
:101D200080E00895DF92EF92FF920F931F93CF937D
:101D3000DF93D82E8A01EB017B01E40EF51ECE1550
:101D4000DF0559F0D7FE12C0FE0184910E94640E97
:101D500021968111F4CF0FEF1FEFC801DF91CF91D2
:101D60001F910F91FF90EF90DF9008958881EECF43
:101D70000F931F93CF93DF931F92CDB7DEB712E07F
:101D8000198342E450E066E071E080E80E94920E20
:101D90008091750181110CC01093710184E08093D2
:101DA0007201109274011092730181E080937501A9
:101DB00000917301109174010115110589F0D8018A
:101DC000ED91FC910280F381E02DBE016F5F7F4FAA
:101DD000C801099597FD04C0F80100851185ECCF75
:101DE00089810F90DF91CF911F910F910895CF922C
:101DF000DF92EF92FF9281329105E8F422E0209386
:101E00009100C12CD12C5AEFE52E54E4F52EBC01E3
:101E100090E080E00E947220A70196010E94D320EA
:101E20000E94CC230E940723CB010197FF90EF90E3
:101E3000DF90CF900895873021E0920750F423E09F
:101E400020939100C12CD12C4AE7E42E43E4F42ED8
:101E5000DECF893124E0920750F424E020939100F2
:101E6000C12CD12C3AE7E32E32E4F32ED0CF8336C7
:101E700020E1920750F425E020939100C12CD12C51
:101E80002AE7E22E21E4F22EC2CF90E080E0CECF0E
:101E90000F931F93CF938C01C42F822F662349F099
:101EA0008FE090E00E949121C82F80E190E00E9495
:101EB00091219FEF9C0F953008F04EC0882309F4C4
:101EC0004BC0C13079F0C23009F44AC023E032E39C
:101ED0009FEEC33051F032E39FE9C43009F497EC30
:101EE00023E003C039E197EC24E03817A8F1F801AA
:101EF000C08381831092C0001092C1001092C20072
:101F00001092C3001092C400269819BC39B53061F4
:101F100039BD12BE32B73A6032BF32B7306332BF1A
:101F200032B7306432BF39B5326039BD2093C10059
:101F30002091C00021602093C0002091C000206249
:101F40002093C0002E98269A9093D1008093D000C1
:101F50001092BF001092BE00CF911F910F91089573
:101F600039E195E9C1CFCF92EF920F93CF93DF93F1
:101F70008AE090E00E949121C82F8BE090E00E94BF
:101F80009121D82F8CE090E00E949121082F8DE0C4
:101F900090E00E949121C12CE82E2D2F4C2F6CE057
:101FA0008091A8019091A9010E941602DF91CF9122
:101FB0000F91EF90CF900895CF93DF93D0E0C0E0E2
:101FC000CE010E9491218F3F09F041C02196C4317A
:101FD000D105B1F744E050E070E060E087E691E0C1
:101FE0000E94A5216DE871E084E090E00E94D32179
:101FF00068EE7EEF86E090E00E94D32163E08FE000
:1020000090E00E94B52164E180E190E00E94B5215A
:102010006AE084E190E00E94B52160E089E190E00F
:102020000E94B52140EE53E964E070E08EE190E05B
:102030000E94C72143E353E36BE770E482E290E040
:102040000E94C72164E186E290E00E94B52161E030
:102050008AE090E00E94B52160E08BE090E00E9471
:10206000B52160E08CE090E00E94B52163E18DE055
:1020700090E0DF91CF910C94B5211F920F920FB693
:102080000F9211242F933F938F939F93AF93BF93FE
:102090008091B7019091B801A091B901B091BA01B6
:1020A0003091AE0123E0230F2D3758F50196A11D85
:1020B000B11D2093AE018093B7019093B801A09316
:1020C000B901B093BA018091AF019091B001A09194
:1020D000B101B091B2010196A11DB11D8093AF0174
:1020E0009093B001A093B101B093B201BF91AF91B1
:1020F0009F918F913F912F910F900FBE0F901F9046
:10210000189526E8230F0296A11DB11DD2CF1F926C
:102110000F920FB60F9211242F933F934F935F931B
:102120006F937F938F939F93AF93BF93EF93FF939F
:1021300085EC91E00E94BC03FF91EF91BF91AF91BC
:102140009F918F917F916F915F914F913F912F91CF
:102150000F900FBE0F901F9018951F920F920FB601
:102160000F9211242F938F939F93EF93FF93E091FE
:10217000D501F091D6018081E091DB01F091DC0185
:1021800082FD1BC090818091DE018F5F8F73209153
:10219000DF01821741F0E091DE01F0E0EB53FE4FEA
:1021A000958F8093DE01FF91EF919F918F912F91F9
:1021B0000F900FBE0F901F9018958081F4CF1F9243
:1021C0000F920FB60F9211242F933F934F935F936B
:1021D0006F937F938F939F93AF93BF93EF93FF93EF
:1021E00064E670E080918801909189010E948706E1
:1021F000FF91EF91BF91AF919F918F917F916F91DF
:102200005F914F913F912F910F900FBE0F901F90B4
:1022100018951F920F920FB60F9211242F933F9390
:102220004F935F936F937F938F939F93AF93BF93DE
:10223000EF93FF930E94DF10FF91EF91BF91AF9159
:102240009F918F917F916F915F914F913F912F91CE
:102250000F900FBE0F901F9018951F920F920FB600
:102260000F9211242F933F934F935F936F937F931C
:102270008F939F93AF93BF93EF93FF930E94DF10D1
:10228000FF91EF91BF91AF919F918F917F916F914E
:102290005F914F913F912F910F900FBE0F901F9024
:1022A00018951F920F920FB60F9211248F939F9340
:1022B000EF93FF93E0918E01F0918F0184819581DE
:1022C000019695838483FF91EF919F918F910F9059
:1022D0000FBE0F901F9018951F920F920FB60F927E
:1022E0001124AF92BF92CF92DF92EF92FF920F93A1
:1022F0002F933F934F935F936F937F938F939F930E
:10230000AF93BF93CF93DF93EF93FF93A0908E0192
:10231000B0908F016091960070919700F501C48193
:10232000D58190E080E00E9472202DEB37E346E8F3
:1023300057E30E94D3206B017C01BE0190E080E056
:102340000E9472209B01AC01C701B6010E941222BB
:10235000462F272FC12CE92E082F61E78091A80175
:102360009091A9010E94160210929500109294007B
:10237000F50115821482FF91EF91DF91CF91BF910A
:10238000AF919F918F917F916F915F914F913F910D
:102390002F910F91FF90EF90DF90CF90BF90AF9073
:1023A0000F900FBE0F901F9018951F920F920FB6AF
:1023B0000F9211240F900FBE0F901F9018951F922F
:1023C0000F920FB60F9211248F93EF93FF93E0912A
:1023D0009E01F0919F0181E08183FF91EF918F91A8
:1023E0000F900FBE0F901F9018951F920F920FB66F
:1023F0000F9211248F939F938091E1009091E100BF
:10240000937F9093E10083FF0FC01092E90091E069
:102410009093EB001092EC0092E39093ED001092F9
:10242000B60198E09093F00082FF1CC093E0909377
:10243000E9009091F200992319F09AE39093E80053
:1024400090917D01992329F090917D019150909375
:102450007D019091B501992329F09091B50191509A
:102460009093B50184FF18C08091E2008E7E816058
:102470008093E2008091E1008F7E8093E100809163
:102480007E018E7E806180937E019F918F910F905F
:102490000FBE0F901F90189580FFF7CF8091E2003C
:1024A0008E7E80618093E2008091E1008E7E809339
:1024B000E10080917E018E7E8160E5CF1F920F92B8
:1024C0000FB60F921124DF92EF92FF920F931F939A
:1024D0002F933F934F935F936F937F938F939F932C
:1024E000AF93BF93EF93FF93CF93DF93CDB7DEB757
:1024F0006197DEBFCDBF1092E9008091E80083FFB5
:102500002FC089E0FE013A96EE2EDF2E815029F091
:102510009091F10090833196F9CF84E68093B501D4
:1025200082EF8093E8008A8587FF38C09091E800A9
:1025300090FFFCCF982F907609F035C19B854C8594
:102540005D852C85FD84911130C0803859F58091CE
:102550007F018093F1001092F1008EEF8093E800EC
:1025600061960FB6F894DEBF0FBECDBFDF91CF915D
:10257000FF91EF91BF91AF919F918F917F916F915B
:102580005F914F913F912F911F910F91FF90EF908D
:10259000DF900F900FBE0F901F9018959EEF9093B5
:1025A000E800C8CF1092F100D6CF913059F48111D4
:1025B000D4CF4130510589F680917F018D7F809382
:1025C0007F01CBCF933049F48111C7CF4130510502
:1025D00021F680917F018260F2CF953041F48091A5
:1025E000E80080FFFCCF20682093E300B6CF963050
:1025F00009F0ACC00889198922E01092E900109214
:102600006F0110926E01F2122EC010926D011092A5
:102610006C010E94B80E1F8299E09983FA8291E0C2
:102620009E8390EA98879AEF998720916E01309166
:102630006F01275F3F4F3C832B838D831092E9000E
:1026400010926F0110926E0110936D0100936C0156
:1026500049E050E0BE016F5F7F4F80E00E94920E24
:102660000E94B80E7ACF10936D0100936C01809197
:10267000750181110DC082E08093710184E0809327
:102680007201109274011092730181E080937501C0
:1026900000917301109174010115110509F455C1E0
:1026A000D801ED91FC910480F581E02D6E2D7D2DFA
:1026B000C8010995009709F04EC1F8010085118500
:1026C000EBCFF3E0FF120CC08C858823B1F1823090
:1026D00059F468E08EE691E00E94B01481113DCF7C
:1026E00081E28093EB003CCF813021F46FE08EE5F6
:1026F00091E0F2CF8330A1F7CE0101960E942A0526
:1027000082E10E94640E83E00E94640E8E010F5FDE
:102710001F4F7E0129E0E20EF11CD8018D918D0141
:102720000E94640E8823E1F280E00E94640E8823F8
:10273000B9F2E016F10689F710CF68E471E0FB0109
:10274000449150E080E80E94920E07CF973041F20A
:10275000983021F481E08093F100FFCE993009F0A8
:10276000FCCE837009F0BCCFE7E2F1E081E031E01C
:1027700096E32191222371F08093E9003093EB00DE
:10278000DF0111972C912093EC009093ED008F5F67
:10279000873079F78EE78093EA001092EA008C8503
:1027A0008093B601DACE888999891092E900109257
:1027B0006F0110926E0190936D0180936C018E8574
:1027C00081119AC08B859A85913A49F4813209F03A
:1027D00087CF47E050E064E071E080E0B4CF913211
:1027E00009F07ECF833269F48C859D85B0E0A0E04E
:1027F0008093000190930101A0930201B093030123
:10280000ACCE8032A9F48091E80082FFFCCF88E052
:10281000E4E0F1E0815029F09091F100908331964D
:10282000F9CF84E68093B5018BEF8093E80095CED5
:10283000823209F092CE8C8580930B01EEEFFFE798
:10284000859194918B3F9C4D51F1E0E0F8E08091AF
:10285000040190910501A0910601B0910701803B10
:102860009440A105B105F1F480910B0180FD1AC0DF
:10287000EE3F8AE0F80789F587E797E79183808341
:10288000809160008093700188E19BE00FB6F8941E
:10289000A895809360000FBE909360005ECEEEEF2F
:1028A000FAE0D5CF808191818737974709F055CEDF
:1028B000A89580916000886180936000809170018C
:1028C00080936000EE3F2AE0F20789F08091FE0AD3
:1028D0009091FF0A9183808340CE808191818737D8
:1028E000980751F29093FF0A8093FE0AC5CF109289
:1028F000FF0A1092FE0A31CE8091750181110DC040
:1029000082E08093710184E08093720110927401DF
:102910001092730181E08093750100917301109111
:1029200074010115110509F4DBCED801ED91FC917C
:102930000190F081E02D6E2D7D2DC801099581114A
:102940000CCEF80100851185ECCFF1E0FF12B9CE75
:102950006CE471E0F4CE181619060CF4FECDC0CE6E
:10296000EF92FF920F931F93CF93DF93182FE92ECF
:10297000062F81E0860F880F0E94640E83E00E947C
:10298000640EF12EC12FDE2DFE0184910E94640E93
:10299000182F80E00E94640E812329F021969C2F3D
:1029A0009F19901788F3DF91CF911F910F91FF909E
:1029B000EF900895E5ECF1E01382128288EE93E047
:1029C000A0E0B0E084839583A683B78327E431E059
:1029D000318320832DEC30E0358724872CEC30E0E8
:1029E0003787268728EC30E0318B208B29EC30E0CC
:1029F000338B228B2AEC30E0358B248B2EEC30E0AD
:102A0000378B268B118E128E138E148EE2E6F2E037
:102A10001382128284839583A683B78389E591E02C
:102A2000918380838FEF9FEF95878487E2EBF2E0BD
:102A3000808312821182148613868FEF9FEFDC0150
:102A400087839087A187B2870895CF93DF93CDB70F
:102A5000DEB76C970FB6F894DEBF0FBECDBF78948B
:102A600084B5826084BD84B5816084BD85B5826093
:102A700085BD85B5816085BD80916E008160809344
:102A80006E001092810080918100826080938100AD
:102A900080918100816080938100809180008160BD
:102AA000809380008091910082608093910080915A
:102AB000910081608093910080919000816080936B
:102AC00090008091C10084608093C1008091C1001A
:102AD00082608093C1008091C10081608093C100B9
:102AE0008091C30081608093C3008091C0008260A8
:102AF0008093C0008091C20081608093C200809169
:102B00007A00846080937A0080917A00826080935A
:102B10007A0080917A00816080937A0080917A00B7
:102B2000806880937A001092B60110927F01109213
:102B30007E018091D70081608093D70080EA8093E6
:102B4000D80089B5806189BD89B5826089BD09B425
:102B500000FEFDCF0E9426038091D8008F7C80610B
:102B60008093D8008091E000807F8093E000809186
:102B7000E1008E7E8093E1008DE08093E20083E0AF
:102B800090E00E94481FDC0112961C92129729E3E4
:102B900031E02D933C932FEF3FEF30936F02209362
:102BA0006E0244E650E060E070E0409366025093AD
:102BB0006702609368027093690204B603FC0DC05B
:102BC00041E950ED63E070E02091E80023FD05C08D
:102BD0004150510961097109B9F79093AB01809394
:102BE000AA0181E090E00E94481F9093A701809382
:102BF000A60181E090E00E94481F8C010E94DC0F3A
:102C00001093A3010093A20181E090E00E94481F6D
:102C10009093B4018093B30181E090E00E94481F3B
:102C2000909383018093820181E090E00E94481F8D
:102C3000909385018093840181E090E00E94481F79
:102C4000909381018093800181E090E00E94481F71
:102C500024B7277F24BF9093A5018093A40181E02E
:102C600090E00E94481F909387018093860182E044
:102C700090E00E94481F8C0120E040E061E00E944B
:102C8000480F1093A1010093A00189E190E00E94F8
:102C9000481F8C01FC0110821182108E14BC15BCDF
:102CA00010926E0083E085BD80916E0081608093FC
:102CB0006E0010928000109281001092820010929B
:102CC0006F0087E08093810087E398E09087878397
:102CD0001286118681E898E0948783871686158688
:102CE00088EB98E0908B8787128A118A87EA97E0B1
:102CF000948B838B168A158A84E190E00E9491213F
:102D0000882319F0D80157968C9310939F01009354
:102D10009E018DE390E00E94481F8C01FC01148A03
:102D2000158E12AE13AEFF24F394F4AE85E39CE04F
:102D3000A0E0B0E080839183A283B38345EE50EDA1
:102D400062EB7FE3448355836683778348EB5EE7DA
:102D500065EB73E44087518762877387868F978F0F
:102D6000A0A3B1A386E696E6A6E6BFE386A397A353
:102D7000A0A7B1A71093AD010093AC0188E190E04A
:102D80000E94481FFC0112821382F582F68210868F
:102D90001782128611861586148617861686F08A83
:102DA000F18A158A148A178A168A84E084838DE052
:102DB0008387F0939D01E0939C0184E090E00E9462
:102DC000481F4C0180910C01D4018C9380910D011E
:102DD00011968C93119780910E0112968C931297F5
:102DE00080910F0113968C939092910180929001A3
:102DF00086E090E00E94481F7C0180911001F7015D
:102E0000808380911101818380911201828380915E
:102E10001301838315821482F0928F01E0928E0158
:102E200084E090E00E94481F5C0180911401D5016C
:102E30008C938091150111968C93119780911601B6
:102E400012968C9312978091170113968C93B092DF
:102E50008D01A0928C0184E090E00E94481F6C01DB
:102E600080911801F60180838091190181838091FE
:102E70001A01828380911B018383D0928B01C092BF
:102E80008A0184E090E00E94481FFC0180911C01AF
:102E9000808380911D01818380911E0182838091B6
:102EA0001F018383F0938901E0938801909293013D
:102EB00080929201F0929501E0929401B092970174
:102EC000A0929601D0929901C0929801F0939B0133
:102ED000E0939A018BE39DE00197F1F7C8010E940E
:102EE0003A0BE091AC01F091AD0184AD882361F023
:102EF000E0919C01F0919D01108617821286118647
:102F0000158A148A178A168A9E012F5F3F4F19016E
:102F10004090AA015090AB01E091AC01F091AD015D
:102F200084AD81113CC0B101C2010E94450D8823CE
:102F300081F02091AA013091AB013093A901209337
:102F4000A801813089F48091A6019091A7010E9487
:102F5000A20C80E090E0892BD9F20E94A80388237C
:102F6000B9F20E940000D4CF8C3039F48091A201D4
:102F70009091A3010E94B30FECCF863439F4809175
:102F8000AC019091AD010E943A0BE3CF873409F771
:102F90008091AC019091AD010E948C0DDACFBE0101
:102FA000675F7F4FC2010E94450D8823D1F0509288
:102FB000A9014092A801833309F479C408F0F9C04B
:102FC0008E3009F4D7C208F07DC0843009F47AC28B
:102FD00080F5823009F40AC208F060C2813009F439
:102FE000FEC1E0909E01F0909F01D7018C91882353
:102FF00009F4AFCF11968C911197882309F4A9CFCA
:1030000012966D917C9113976115710549F0149694
:103010004C91443028F400E02EE3C7010E947B0568
:10302000F70185819681892B09F0EFC681E08183C4
:1030300090CF8B3009F450C258F510E000E08A3090
:1030400081F66FEF7FEFC8010E94D3210E5F1F4F03
:10305000011534E01307A9F78091A2019091A30113
:103060000E94DC0F20E040E061E08091A00190919F
:10307000A1010E94480F84E190E00E949121E0911B
:103080009E01F0919F01882309F4ABCF878BA9CFD4
:103090008C3009F44CC28D3009F0A3CF8A85882387
:1030A00009F44CC28FE090E00E949121182F80E13A
:1030B00090E00E949121C12CE12C00E0282F412FAB
:1030C0006DE0FCC1893209F448C3D0F4803109F4C1
:1030D00086C208F46CC28E3109F426C3883209F026
:1030E00080CFE0919E01F0919F018A85882309F4A9
:1030F00030C3C12CE12C00E020E0478968E2DEC14A
:10310000A0909E01B0909F018B3209F48EC308F409
:1031100062C38C3209F499C3823309F062CF8A8486
:103120009B848114910409F45CCFFC84FF2009F492
:1031300058CFC12CE12C00E0292D482D62E3C201BB
:103140000E9416020E9447026F2D70E090E080E01E
:103150000E94722020E030E040E85FE30E941222EB
:103160000E94842328E132E741E35FE30E94952235
:103170000E947E220E940723E62E10E000E090E0ED
:1031800080E0412C512C32018E1508F06CC341E0D7
:1031900050E0082E02C0440F551F0A94E2F7052E96
:1031A000000C660B770B442A552A662A772A01966B
:1031B000EBCF863609F404C508F089C0863409F4DB
:1031C0008AC408F04EC0A0909E01B0909F018C333D
:1031D00009F43DC4C0F5843309F003CF8A849B848D
:1031E0008114910409F4FDCEC12CE12C00E0292DBD
:1031F000482D64E3C2010E9416020E944702740136
:10320000F694E79410E000E0E016F10609F40EC42D
:10321000B101C5010E94F50849815A816B817C8109
:103220008091A8019091A9010E94700D4D815E814D
:103230006F8178858091A8019091A9010E94700DFD
:103240000F5F1F4FE1CF8D3309F440C48F3309F076
:10325000C8CEF5014081C12CE12C00E020E06FE3F5
:103260002DC1883409F445C408F43CC4843609F4FB
:1032700085C4853609F0B5CEEA858FEF8E0F85308F
:1032800008F0AFCEE150FF0BEE0FFF1FEE56FE4FE2
:103290000190F081E02DA181B0E090962C91838186
:1032A000E281F0E040A130E0082E02C0359527957C
:1032B0000A94E2F7217050E002C0559547958A952F
:1032C000E2F74170C12CE12C00E065E6F7C08137E0
:1032D00009F4D2C4B8F58E3609F496C4D0F4873612
:1032E00009F07FCEEA858FEF8E0F853008F079CE1A
:1032F0006B857C856115710509F473CEE150FF0B78
:10330000EE0FFF1FEE56FE4F808191810E948706CF
:1033100068CE8F3609F48DC4803709F062CE1A85E5
:1033200080919001909191010E94D006112309F49F
:1033300058CEF89480E48EB9812F90E00E94550217
:103340001EB8C8C0833709F40CC508F4C8C4843754
:1033500009F43BC5853709F044CE8A85882309F4F2
:1033600051C5FC848FEF8F0D873008F03ACE0D8564
:10337000073008F036CE1B850E949E0180917C00AC
:10338000112309F43DC5806480937C00F0927A009B
:1033900080917C00846080937C0080917B008062BF
:1033A00080937B0080917A00806880937A008BE91B
:1033B0009FE00197F1F780917A00806480937A0012
:1033C00080917A0086FDFCCF602F812F0E94A6019C
:1033D000462F272FC12CE92E082F65E75AC0809170
:1033E000A6019091A7010E94A20CFBCD0E949E0114
:1033F00080917C00806C80937C0080917C00876051
:1034000080937C0080917B00806280937B0086E0CB
:1034100080937A0080917A00806880937A008BE9AB
:103420009FE00197F1F780917A00806480937A00A1
:1034300080917A0086FDFCCF65E080E00E94A601C5
:103440004B015C0184E090E00E949F217C0186E0BA
:1034500090E00E949F218C01B70190E080E00E94E3
:103460007220A50194010E94D3206B017C01B80158
:10347000110F880B990B0E9474209B01AC01C701AE
:10348000B6010E941222462F272FC12CE92E082FA9
:1034900062E08091A8019091A90111C08091BF02C2
:1034A0009091C002009711F483EC92E0A101481BB7
:1034B000590BC12CE12C00E0252F63E0C2010E94D2
:1034C00016028FCDF894A89588E18093600088E07B
:1034D00080936000789485CD8A85882389F084E084
:1034E00090E00E949F21182FF92E86E090E00E9424
:1034F0009F21C12CE92E082F2F2D412F6BE0DECF0D
:10350000EB84FC840D851E8544E050E070E060E0B3
:1035100087E691E00E94A521B70184E090E00E9437
:10352000D321B80186E090E00E94D3215ACD80914A
:10353000A2019091A3010E94B30F53CD1B850C856E
:103540008FEF810F853060F4002351F0612F8FE001
:1035500090E00E94B521602F80E190E00E94B521AB
:10356000202F412F60E08091A0019091A1010E9445
:10357000480F37CD8A85882359F084E190E00E9476
:103580009121C12CE12C00E020E0482F6EE096CF85
:103590001B85112309F425CD612F84E190E00E9461
:1035A000B521E0919E01F0919F01178B1ACD8A857C
:1035B000882359F089E190E00E949121C12CE12CEF
:1035C00000E020E0482F6FE079CF61E08B8581112A
:1035D00001C060E089E190E00E94B52102CD8A85BA
:1035E0008823C9F18EE190E00E9499216B8B7C8B3E
:1035F0008D8B9E8B82E290E00E9499214B015C01B1
:1036000086E290E00E949121C12CE12C00E028E0AC
:10361000482F60E1C2010E9416028091A80190919A
:10362000A9012B893C894D895E8929833A834B8383
:103630005C83DC01ED91FC910084F185E02D44E098
:10364000B1010995B501A4018091A8019091A9014A
:103650000E94700DC6CCEDB7FEB7FC8FEB8FFB85DB
:10366000FB8B4C852DB73EB7241B31090FB6F89460
:103670003EBF0FBE2DBF0DB71EB70F5F1F4FD2014C
:10368000ED91FC910480F581E02DB801C20109950E
:10369000F8014080518062807380C480D580E680CC
:1036A000F78046015701F0E64F16FAEE5F06610417
:1036B000710498F020E030E0A901B601C7010E9432
:1036C0007723181694F420E030E040E85FE3B60179
:1036D000C7010E946D2087FF12C04B8D5C8D0FB615
:1036E000F8945EBF0FBE4DBF7CCC20E030E040E8D8
:1036F0005FEBB601C7010E947723181674F32B897C
:10370000222359F3B301A2018EE190E00E94C72168
:10371000B501A40182E290E00E94C7216B8986E294
:1037200090E00E94B521D9CF8091A0019091A10194
:103730002A85222351F0C12CE12C00E0DC011196F6
:103740002C9111974C916EE1B9CE2C854B8560E0A0
:103750000ECF8B8581119ACC44CCAA84BB84A11452
:10376000B10409F43ECC80909E0190909F01C12C41
:10377000E12C00E02B2D4A2D69E2C2010E941602C5
:103780000E94470210E000E080E4F82EF401808DF2
:103790008111FEB8AE014E5F5F4FB101C4010E94BE
:1037A0006906D40158968C9181111EB88091A801A8
:1037B0009091A901DC01ED91FC910084F185E02D4F
:1037C00042E0B10109950F5F1F4FA016B106F1F657
:1037D0000E94430206CC8A858A8B8150853008F08E
:1037E00000CC0E944702F501808D882311F080E40F
:1037F0008EB99E012E5E3F4FAE014E5F5F4FB1010D
:10380000C5010E94FA05D50158968C9181111EB808
:10381000C12CE12C0A8129814A896AE28091A801A0
:103820009091A9010E941602D3CF6A857B8561150C
:10383000710509F4D6CB4C85443008F0D2CB0D8508
:103840002BE2C5010E947B05CCCB8A85882331F011
:1038500076986E9A81E0F501808FC3CB6E98D50182
:1038600058961C92BECBAE01405F5F4FBE016F5EAB
:103870007F4FC5010E94370869896421698B888957
:103880004822488AF61608F4C2C269838091A801CA
:103890009091A901F41408F0C9C2DC01ED91FC91EA
:1038A0000680F781E02D09950F5F1F4FD2C28A84F1
:1038B0009B848114910409F494CBAC84BD84A1143D
:1038C000B10409F48ECB60909E0170909F01C12CD1
:1038D000E12C00E0292D482D63E3C2010E9416026D
:1038E0000E944702B50190E080E00E94722020E033
:1038F00030E040E85FE30E9412220E94842328E126
:1039000032E741E35FE30E9495220E947E220E94FB
:103910000723562E70E090E080E00E94722020E0A5
:1039200030E040E05EE30E94D3200E947E220E94AD
:1039300007236B8BF12CE12C90E080E040E050E01D
:10394000BA01851590F401E010E0082E02C0000FC6
:10395000111F0A94E2F7012E000C220B330B402BAF
:10396000512B622B732B0196ECCF8A01D12CC12CE9
:10397000412CBB89B41599F1AE014E5F5F4FB10187
:10398000C3010E94370829818A8141100DC0E22FAE
:10399000F0E0F88FEF8B282F30E03A8F298F439497
:1039A000B8E0CB0ED11CE5CF30E00C2C02C0220FCA
:1039B000331F0A94E2F74F89588D422B532B588FAF
:1039C0004F8B90E00C2C02C0880F991F0A94E2F7ED
:1039D000A98DBA8DA82BB92BBA8FA98FE0CF6F898B
:1039E000788D60237123E98DFA8D0E231F23A6168F
:1039F000B70608F433C28091A8019091A901A016DE
:103A0000B10608F034C20E944D0EBFEFEB1AFB0A5C
:103A10003AC20E944D0EB8018091A8019091A9016F
:103A20000E944D0E22E0E20EF11C2DC280FED0CE8F
:103A3000B101C5010E94F50849815A816B817C81E1
:103A40008091A8019091A9010E94700DC1CE2A8594
:103A50003B852115310509F4C4CA9E85943008F0D0
:103A6000C0CA0C851D85033640E1140708F0B9CAA9
:103A700081E0D5018C9313963C932E931297149664
:103A80009C93149716961C930E9315970115110588
:103A900019F411968C93A5CAF50111820E944B026C
:103AA000C8010E94F70E909399008093980080912E
:103AB0009100886080939100809171008260809372
:103AC000710010929500109294008BCAD5011C923F
:103AD0000E944B0286CA8091AC019091AD010E9478
:103AE0003A0B7FCA8091AC019091AD010E948C0D80
:103AF00078CAA0909C01B0909D01C12CE12C00E0FF
:103B000020E048E068E4C2010E941602D501179641
:103B10006D917C918091A8019091A9010E944D0E18
:103B2000F501618572858091A8019091A9010E949B
:103B30004D0ED50154966D917C918091A801909184
:103B4000A9010E944D0EF501668977898091A8012F
:103B50009091A9010E944D0ED50118961C921E92BB
:103B600017971A961C921E92199755961C921E92A0
:103B7000549757961C921E92569733CAEA858FEF38
:103B80008E0F853008F02DCA8B8581110BC0E15056
:103B9000FF0BEE0FFF1FEE56FE4F808191810E94BA
:103BA000B0061FCA813009F01CCAE150FF0BEE0FAE
:103BB000FF1FEE56FE4F808191810E94D00611CAF0
:103BC000EA858FEF8E0F853008F00BCAE150FF0BAE
:103BD000EE0FFF1FEE56FE4FA081B181EC91F0E099
:103BE00013968C9121E030E002C0220F331F8A959A
:103BF000E2F7C9012B8590A1222319F0892B80A31C
:103C0000F0C980958923FBCF8A85882371F0809144
:103C10009001909191010E94B00610926A001DBA25
:103C200080E380936A00EE9ADCC910926A001DBAA4
:103C3000D8C98A85882309F4E5C01B850E949E01A6
:103C4000112379F080917B00806480937B008091C8
:103C50007C00846080937C0080917B0080628093F4
:103C60007B0080B7886080BF8BE99FE00197F1F708
:103C700080B7836080BFB5C98A85882309F428CFBF
:103C800080918E0190918F010E94B0060E944B029C
:103C900084E08093910080919000836080939000F5
:103CA0008091910088618093910083E294EF9093DA
:103CB0009900809398008091910080688093910092
:103CC00080919100806480939100C59A80917100E9
:103CD000806280937100809171008160F0CE8A854E
:103CE000882309F4F5CE0B851C85C801019782361F
:103CF000904108F076C928ECE22EF12C0132110532
:103D000088F099E1E92EF12C073041E0140750F0DA
:103D100036E0E32EF12C093154E0150718F082E06B
:103D2000E82EF12C0E944B02C8010E94F70E9093DE
:103D3000970080939600809190008260809390001D
:103D400080919100886180939100809190008068BB
:103D50008093900046983E9AF0929900E0929800E5
:103D6000B0CE8A85882309F4B3CEDB848FEF8D0D26
:103D7000853008F036C9EC84FD84E114F10409F4BF
:103D800030C90E851F850115110509F42AC90E9445
:103D90004B02D092910080919000826080939000BD
:103DA000809191008861809391008091900080685B
:103DB0008093900046983E9AF0929700E092960089
:103DC00010939900009398007CCE8A85882399F0FF
:103DD00080918A0190918B010E94B0061092680038
:103DE00010926B0081E08093680080916B00806886
:103DF00080936B00F6C81092680010926B00F1C8B7
:103E0000806CC2CA0E949E01ECC81182A2C8F41440
:103E100000F14A828091A8019091A901DC01ED9105
:103E2000FC910680F781E02D642D3DCD4A82DC01B6
:103E3000ED91FC919401201B310B2130310509F4E7
:103E40002FCD0084F185E02D42E0B10109950E5F90
:103E50001F4F0815190508F492C9BACCA016B1066F
:103E600090F0B8018091A8019091A901CCCD940166
:103E70002E193F092130310509F0CBCD0E944D0E9E
:103E8000FFEFEF1AFF0AE814F90408F455CDA0CCAF
:103E90000F931F93CF93DF938230910510F482E04C
:103EA00090E0E091C102F091C20230E020E0B0E089
:103EB000A0E0309799F42115310509F44AC0281B78
:103EC000390B24303105D8F58A819B816115710544
:103ED00089F1FB0193838283FE0111C040815181EE
:103EE0000281138148175907E0F04817590799F4E0
:103EF000109761F012960C93129713961C933296BA
:103F0000CF01DF91CF911F910F9108950093C102CE
:103F10001093C202F4CF2115310551F04217530717
:103F200038F0A901DB019A01BD01DF01F801C1CF21
:103F3000EF01F9CF9093C2028093C102CDCFFE0171
:103F4000E20FF31F81939193225031093983288323
:103F5000D7CF2091BF023091C002232B41F4209192
:103F60002201309123013093C0022093BF0220919F
:103F70002001309121012115310541F42DB73EB7C3
:103F80004091240150912501241B350BE091BF0283
:103F9000F091C002E217F307A0F42E1B3F0B281785
:103FA000390778F0AC014E5F5F4F2417350748F0B2
:103FB0004E0F5F1F5093C0024093BF0281939193B5
:103FC0009FCFF0E0E0E09CCFCF93DF930097E9F044
:103FD000FC01329713821282A091C102B091C202F9
:103FE000ED0130E020E01097A1F420813181820FB3
:103FF000931F2091BF023091C0022817390709F0A2
:1040000061C0F093C002E093BF02DF91CF910895A9
:10401000EA01CE17DF07E8F54A815B819E01411571
:104020005105B1F7E901FB83EA8349915991C40F26
:10403000D51FEC17FD0761F4808191810296840FF2
:10404000951FE90199838883828193819B838A8369
:10405000F0E0E0E012968D919C9113970097B9F5EE
:104060002D913C911197CD010296820F931F2091C3
:10407000BF023091C0022817390739F6309751F541
:104080001092C2021092C102B093C002A093BF026C
:10409000BCCFD383C28340815181840F951FC81741
:1040A000D90761F44E5F5F4F88819981480F591F8E
:1040B000518340838A819B819383828321153105BB
:1040C00009F0B0CFF093C202E093C1029ECFFD0190
:1040D000DC01C0CF13821282D7CF0E94AF2008F438
:1040E00081E00895E89409C097FB3EF4909580958F
:1040F000709561957F4F8F4F9F4F9923A9F0F92FAE
:1041000096E9BB279395F695879577956795B7952B
:10411000F111F8CFFAF4BB0F11F460FF1BC06F5F11
:104120007F4F8F4F9F4F16C0882311F096E911C023
:10413000772321F09EE8872F762F05C0662371F044
:1041400096E8862F70E060E02AF09A95660F771F58
:10415000881FDAF7880F9695879597F90895990F34
:104160000008550FAA0BE0E8FEEF16161706E80741
:10417000F907C0F012161306E407F50798F0621B62
:10418000730B840B950B39F40A2661F0232B242B37
:10419000252B21F408950A2609F4A140A6958FEF56
:1041A000811D811D08950E94E6200C9457210E94D4
:1041B000492138F00E94502120F0952311F00C94F1
:1041C00040210C94462111240C948B210E946821DB
:1041D00070F3959FC1F3950F50E0551F629FF0015A
:1041E000729FBB27F00DB11D639FAA27F00DB11D73
:1041F000AA1F649F6627B00DA11D661F829F2227FC
:10420000B00DA11D621F739FB00DA11D621F839F82
:10421000A00D611D221F749F3327A00D611D231F58
:10422000849F600D211D822F762F6A2F11249F57A6
:1042300050409AF0F1F088234AF0EE0FFF1FBB1FA9
:10424000661F771F881F91505040A9F79E3F510568
:1042500080F00C9440210C948B215F3FE4F3983E56
:10426000D4F3869577956795B795F795E7959F5F12
:10427000C1F7FE2B880F911D9695879597F90895A4
:1042800097F99F6780E870E060E008959FEF80EC09
:10429000089500240A9416161706180609060895AC
:1042A00000240A9412161306140605060895092E12
:1042B0000394000C11F4882352F0BB0F40F4BF2B81
:1042C00011F460FF04C06F5F7F4F8F4F9F4F0895C1
:1042D00057FD9058440F551F59F05F3F71F04795B7
:1042E000880F97FB991F61F09F3F79F0879508959C
:1042F000121613061406551FF2CF4695F1DF08C0BB
:10430000161617061806991FF1CF869571056105D7
:1043100008940895E894BB2766277727CB0197F97F
:104320000895F999FECF92BD81BDF89A992780B57D
:104330000895A6E1B0E044E050E00C94DB21A8E150
:10434000B0E042E050E00C94DB21DC01A40FB51F8B
:104350004150504048F0CB01840F951F2E910E9490
:10436000B62141505040D0F70895262FF999FECF3D
:1043700092BD81BDF89A019700B4021639F01FBAB8
:1043800020BD0FB6F894FA9AF99A0FBE08950396D5
:10439000272F0E94B6210E94B521252F0E94B62109
:1043A000242F0C94B6210196272F0E94B6210C943D
:1043B000B521DC01CB01FC01F999FECF06C0F2BDAD
:1043C000E1BDF89A319600B40D9241505040B8F7D3
:1043D0000895A1E21A2EAA1BBB1BFD010DC0AA1F46
:1043E000BB1FEE1FFF1FA217B307E407F50720F05E
:1043F000A21BB30BE40BF50B661F771F881F991FD9
:104400001A9469F760957095809590959B01AC0121
:10441000BD01CF010895EE0FFF1F0590F491E02D2F
:1044200009945058BB27AA270E9429220C9457218F
:104430000E94492138F00E94502120F039F49F3F1A
:1044400019F426F40C9446210EF4E095E7FB0C9445
:104450004021E92F0E94682158F3BA1762077307B9
:104460008407950720F079F4A6F50C948A210EF4C0
:10447000E0950B2EBA2FA02D0B01B90190010C0174
:10448000CA01A0011124FF27591B99F0593F50F48C
:10449000503E68F11A16F040A22F232F342F4427E4
:1044A000585FF3CF469537952795A795F0405395DC
:1044B000C9F77EF41F16BA0B620B730B840BBAF0AC
:1044C0009150A1F0FF0FBB1F661F771F881FC2F717
:1044D0000EC0BA0F621F731F841F48F4879577952B
:1044E0006795B795F7959E3F08F0B0CF9395880FE5
:1044F00008F09927EE0F9795879508950E945F23FE
:1045000090F09F3748F4911116F40C948B2160E0E1
:1045100070E080E89FE3089526F01B16611D711D71
:10452000811D0C9436230C9451230E94A9220C94D3
:1045300057210E94502158F00E94492140F029F44F
:104540005F3F29F00C94402151110C948B210C9465
:1045500046210E94682168F39923B1F3552391F312
:10456000951B550BBB27AA2762177307840738F0E2
:104570009F5F5F4F220F331F441FAA1FA9F335D03F
:104580000E2E3AF0E0E832D091505040E695001CF3
:10459000CAF72BD0FE2F29D0660F771F881FBB1FAD
:1045A000261737074807AB07B0E809F0BB0B802D8B
:1045B000BF01FF2793585F4F3AF09E3F510578F0B7
:1045C0000C9440210C948B215F3FE4F3983ED4F38C
:1045D000869577956795B795F7959F5FC9F7880F8B
:1045E000911D9695879597F90895E1E0660F771FDD
:1045F000881FBB1F621773078407BA0720F0621B6E
:10460000730B840BBA0BEE1F88F7E09508950E9498
:10461000702188F09F5798F0B92F9927B751B0F0C3
:10462000E1F0660F771F881F991F1AF0BA95C9F736
:1046300014C0B13091F00E948A21B1E008950C9429
:104640008A21672F782F8827B85F39F0B93FCCF3DC
:10465000869577956795B395D9F73EF490958095B3
:10466000709561957F4F8F4F9F4F0895882371F408
:10467000772321F09850872B762F07C0662311F4FB
:1046800099270DC09051862B70E060E02AF09A9532
:10469000660F771F881FDAF7880F9695879597F929
:1046A00008959F3F31F0915020F487957795679555
:1046B000B795880F911D9695879597F908950E9453
:1046C0007021A0F0BEE7B91788F4BB279F3860F4CB
:1046D0001616B11D672F782F8827985FF7CF86951C
:1046E00077956795B11D93959639C8F308950E9403
:1046F000AF2008F48FEF089516F00C9451230C941A
:10470000462168940C9440210E947021A8F39923BB
:10471000C1F3AEF3DF93CF931F930F93FF92C92F93
:10472000DD2788232AF02197660F771F881FDAF785
:1047300020E030E040E85FEB9FE3883920F0803EE6
:1047400038F021968F770E941222ECEAF0E004C044
:104750000E941222E9EDF0E00E94F0238B01BE01DD
:10476000EC01FB2E6F5771097595771F880B990B1C
:104770000E94742028E132E741E35FE30E94E620D3
:10478000AF2D9801AE01FF900F911F91CF91DF9156
:104790000E9429220C9457210E947021E8F09E3734
:1047A000E8F09639B8F49E3848F4672F782F8827B8
:1047B000985FF9CF86957795679593959539D0F35E
:1047C000B62FB1706B0F711D811D20F48795779501
:1047D000679593950C9436230C9451230C948B215C
:1047E000DF93CF931F930F93FF92EF92DF927B01A2
:1047F0008C01689406C0DA2EEF010E94E620FE01CB
:10480000E894A5912591359145915591A6F3EF0135
:104810000E942922FE019701A801DA9469F7DF902E
:10482000EF90FF900F911F91CF91DF910895F89431
:02483000FFCFB8
:10483200FFFFFFFF00E10000000000000E0D0C066C
:10484200080706070807060605040307050403050B
:104852000000C302800000C1808100000001020448
:10486200081020408000000000410D3C0DE30CDFE9
:104872000CDA0C00000000DD033E036B0329049CEC
:10488200037A038E0300000000C9044904EA04DF2E
:0C489200040A05EE04FA045241564100ED
:00000001FF
