:100000000C94D2000C94FA000C94FA000C94FA00B0
:100010000C94FA000C94FA000C94FA000C94DA1682
:100020000C94FA000C9404170C943D180C94A61828
:100030000C94D3170C94FA000C94FA000C94FA0068
:100040000C94FA000C94FA000C94FA000C94FA0048
:100050000C94FA000C94FA000C94FA000C943816E4
:100060000C94FA000C94A8160C9482160C94FA00C6
:100070000C9428170C94FA000C94FA000C9467174F
:100080000C9427180C94FA000C94FA000C944C175A
:100090000C94FA000C94FA000C94FA000C94FA00F8
:1000A0000C94FA000C94FA000C94FA0007634236A0
:1000B000B79BD8A71A39685618AEBAAB558C1D3CF9
:1000C000B7CC5763BD6DEDFD753EF6177231BF00BD
:1000D0000000803F08000000BE922449123EABAAF7
:1000E000AA2ABECDCCCC4C3E00000080BEABAAAA52
:1000F000AA3E00000000BF000000803F000000009A
:1001000000084178D3BB4387D1133D190E3CC3BDD2
:100110004282AD2B3E68EC8276BED98FE1A93E4C7F
:1001200080EFFFBE01C4FF7F3F0000000000080B0E
:1001300000020202000009040000010202000005A2
:1001400024001001052401010104240206052406EF
:1001500000010705810310004009040100020A00A4
:10016000000007050202400000070583024000006E
:100170000403090412010002EF020140091284483D
:100180000001010203014761627269656C204775D5
:100190006572726572005241564120524E47207678
:1001A0003100221B11241FBECFEFDAE0DEBFCDBF2E
:1001B00011E0A0E0B1E0E2E6F5E602C005900D92A4
:1001C000AA39B107D9F723E0AAE9B1E001C01D922D
:1001D000A431B207E1F710E0C2EDD0E004C02197EE
:1001E000FE010E947F2FC13DD107C9F70E946D1B00
:1001F0000C94AF320C940000FB01DC016C91129660
:100200007C91962F990F990F990F35E5292F239FF0
:10021000020E20E0211D1124822F562F5074462FEC
:10022000407267FD40C051112CC0411105C0922F92
:100230009095892F90E004C025E5280F90E08BEA87
:100240007F3FD9F030E0772321F0779F312D09F0FF
:100250003F5F332309F448C0482F439F040E40E01A
:10026000411D842F239F020E20E0211D492F439F13
:10027000040E40E0411D942F11248083218392833A
:10028000089541110BC0392F2AEA329F030E30E046
:10029000311D11249BEA931B280FCBCF90E02095B2
:1002A000982F80E0CDCF511112C041110CC0392FD1
:1002B0002AEA329F030E30E0311D11242BEA231B62
:1002C00095E5930FEECF922F909520E0B9CF411195
:1002D00006C025E5280F9BEA981B822FF6CF2AEA55
:1002E000280F90E0932FF8CF90E020E080E0C5CF7A
:1002F00090910502911103C08FEF9FEF08954FB7C2
:10030000F89492E09093E9009091F200292F30E068
:100310001216130614F421E030E0232B29F084E6B2
:10032000809304028091F100992339F02091F2002A
:10033000211103C02BE62093E8004FBF9923E1F27F
:1003400090E008952FB7F89483E08093E9009091AE
:10035000E800892F807295FF04C09091F20080E43C
:10036000891B2FBF089510927C0010927A00109282
:100370007B0010BE0895CF92DF92EF92FF92CF9351
:10038000DF93F62EC62FD0E09E01220F331FA1E08F
:10039000B0E002C0AA0FBB1F2A95E2F730E020E0D0
:1003A00040E050E0BA01A217B307B1F090917A0093
:1003B000906490937A0090917A0096FDFCCF909192
:1003C0007800E0917900FE2FE92F4E0F5F1F611D2D
:1003D000711D2F5F3F4FE7CF04C076956795579506
:1003E0004795FA94D2F79AE0C92E97EDD92E93E269
:1003F000E92E90E4F92E882341F088E4C82E81EE9E
:10040000D82E8AE9E82E80E4F82EBA0190E080E048
:100410000E94A82DA70196010E94092E6B017C0164
:100420002A9661E070E080E090E004C0660F771FDC
:10043000881F991FCA95D2F70E94A82D9B01AC0175
:10044000C701B6010E942430DF91CF91FF90EF9059
:10045000DF90CF900895789483E085BD0895F89457
:1004600087E085BD0895109290001092910010923F
:100470009200109271003E9808958230910538F0F4
:10048000880F991F880F991F05970197F1F7089515
:100490003FB7F8948091FE019091FF01A091000276
:1004A000B091010226B5A89B05C02F3F19F0019617
:1004B000A11DB11D3FBFBA2FA92F982F8827BC01BE
:1004C000CD01620F711D811D911D42E0660F771FE6
:1004D000881F991F4A95D1F708953F924F925F92D6
:1004E0006F927F928F929F92AF92BF92CF92DF9244
:1004F000EF92FF920F931F93CF93DF9300D01F9241
:10050000CDB7DEB75C01D62E80910603909107032C
:10051000A0910803B0910903892B8A2B8B2BD9F06A
:100520000E944802009112021091130220911402BD
:1005300030911502601B710B820B930B0091060327
:100540001091070320910803309109036017710788
:1005500082079307C8F20E944802609312027093C8
:1005600013028093140290931502E0910E03F09110
:100570000F03309759F040910A0350910B0360919B
:100580000C0370910D038D2D0995D82EE09010026B
:10059000F09011024D2C512C712C612CE114F104BE
:1005A00009F45BC0D7011C96CC901C978091040382
:1005B000909105038436910510F41C961C92D70186
:1005C000ED91FC918080918019821A821B82DD203E
:1005D00091F187010A5F1F4FF0E0E0E0D8012D9113
:1005E0008D01222321F112963C90332001F130E05D
:1005F00050E040E02F5F3F4F4F4F5F4FC301B201CC
:100600000E94392F9B01AC01832D90E0B0E0A0E067
:10061000BC01CD016F5F7F4F8F4F9F4F0E94392FDD
:10062000A1E0B0E0AC0FBD1FAE0FBF1F8C933196A1
:10063000E330F10599F609811A812B81F70145858F
:100640005685B501C701F4010995D7011C96CC92D6
:100650001C971496ED90FC90A1CF80910E02909182
:100660000F029C012F5F3F4F30930F0220930E0229
:1006700049970CF44AC08FB7F89420910602309144
:10068000070240910802509109028FBF80910A022F
:1006900090910B02A0910C02B0910D02281B390B16
:1006A0004A0B5B0B21F421E030E040E050E0E091A8
:1006B0000E02F0910F0288EE93E0E89FB001E99FEF
:1006C000700DF89F700D1124072E000C880B990BEC
:1006D0000E945D2F309305032093040310920F02B4
:1006E00010920E022FB7F8948091060290910702A3
:1006F000A0910802B09109022FBF80930A02909343
:100700000B02A0930C02B0930D020F900F900F906C
:10071000DF91CF911F910F91FF90EF90DF90CF90DD
:10072000BF90AF909F908F907F906F905F904F9011
:100730003F900895CF92DF92EF92FF920E9448027D
:100740006B017C010E9448026C197D098E099F098A
:10075000683E734081059105A8F3FF90EF90DF900C
:10076000CF90089580E991E00895AF92BF92CF9223
:10077000DF92EF92FF920F931F93CF93DF936C0161
:100780007B018B01040F151FEB015E01AE18BF0842
:10079000C017D10759F06991D601ED91FC910190F4
:1007A000F081E02DC6010995892B79F7C501DF910C
:1007B000CF911F910F91FF90EF90DF90CF90BF905E
:1007C000AF900895FC01538D448D252F30E0842F88
:1007D00090E0821B930B541710F0CF960895019769
:1007E0000895FC01918D828D981761F0A28DAE0F56
:1007F000BF2FB11D5D968C91928D9F5F9F73928FDD
:1008000090E008958FEF9FEF0895FC01918D828D08
:10081000981731F0828DE80FF11D858D90E00895D5
:100820008FEF9FEF0895FC01918D228D892F90E02D
:10083000805C9F4F821B91098F739927089586E1F1
:1008400092E00E94130421E0892B09F420E0822F1A
:10085000089580E090E0892B29F00E941F04811107
:100860000C9400000895FC01A48DA80FB92FB11DB0
:10087000A35ABF4F2C91848D90E001968F739927D6
:10088000848FA689B7892C93A089B1898C918274B1
:100890008C93938D848D981306C00288F389E02D84
:1008A00080818F7D80830895EF92FF920F931F9335
:1008B000CF93DF93EC0181E0888F9B8D8C8D981313
:1008C00019C0E889F989808185FF14C09FB7F89421
:1008D000EE89FF896083E889F98980818274808349
:1008E0009FBF81E090E0DF91CF911F910F91FF902A
:1008F000EF900895F62E0B8D10E00F5F1F4F0F73D2
:100900001127E02E8C8D8E110CC00FB607FCFACF8C
:10091000E889F989808185FFF5CFCE010E943304F3
:10092000F1CFEB8DEC0FFD2FF11DE35AFF4FF0825D
:100930009FB7F8940B8FEA89FB8980818062CFCFC3
:10094000CF93DF93EC01888D8823B9F0AA89BB8906
:10095000E889F9898C9185FD03C0808186FD0DC0F1
:100960000FB607FCF7CF8C9185FFF2CF808185FF12
:10097000EDCFCE010E943304E9CFDF91CF910895EE
:100980008F929F92AF92BF92CF92DF92EF92FF929F
:100990000F931F93CF93DF936C017B018A018091AA
:1009A0000B01882309F457C080910502882309F4BC
:1009B00052C08091AE0180FF05C08091E00082604E
:1009C0008093E000E801B12C8AEFA82E93E0892EF5
:1009D0002AE3922E209711F4BB20B9F10E94A201C4
:1009E000811106C0AA94AA20B1F10E949A03F2CF05
:1009F0008C171D0611F00CF08C2F9FB7F894809285
:100A0000E9002091E80025FD02C09FBFE3CF282F19
:100A100030E0C21BD30BF701815020F0419140938D
:100A2000F100FACFE20EF31EBB2021F09092E80015
:100A3000B12CEBCF8091E80085FDE7CF9092E800E4
:100A4000BB24B394209709F3F3CF84E68093AD01E0
:100A5000101611063CF081E090E0F601938382834A
:100A600010E000E0C801DF91CF911F910F91FF903E
:100A7000EF90DF90CF90BF90AF909F908F900895B0
:100A8000CF93DF931F92CDB7DEB76983DC01ED9181
:100A9000FC910280F381E02D41E050E0BE016F5FE8
:100AA0007F4F09950F90DF91CF91089583E0809358
:100AB000E9008091F200882319F08AE38093E8002E
:100AC00008950E94A20190E00895FC018485958517
:100AD00097FD05C02FEF3FEF3587248708950C94CD
:100AE0007801CF93DF93EC018C859D8597FF04C03F
:100AF0000E9478019D878C878C859D85DF91CF91A1
:100B00000895FC018485958597FD0BC09FB7F894E7
:100B100082E08093E9008091F2009FBF90E001960F
:100B200008959FB7F89482E08093E9008091F200E5
:100B30009FBF90E008958A3010F4805D0895895A2F
:100B400008950F931F93CF93DF93EC01EEE0F0E055
:100B500000E011E210935700849108273196E431A8
:100B6000F105C1F7802F82958F700E949B058883C5
:100B7000802F8F700E949B058983E5E1F0E0109340
:100B800057000491802F82958F700E949B058A8365
:100B9000802F8F700E949B058B83E6E1F0E010931D
:100BA00057000491802F82958F700E949B058C8343
:100BB000802F8F700E949B058D83E7E1F0E01093FA
:100BC00057001491812F82958F700E949B058E8310
:100BD000812F8F700E949B058F83DF91CF911F9192
:100BE0000F910895AF92BF92CF92DF92EF92FF9252
:100BF0000F931F93CF93DF9300D01F92CDB7DEB733
:100C00005C018B016A017901F90180818530A9F4C9
:100C100081E08B839E012D5F3F4FAE014E5F5F4FA2
:100C2000BE016F5F7F4FC5010E94F20599818A81E5
:100C3000981709F183E0F7018083F7018081823002
:100C4000E1F410928400F501878990E00E943D0252
:100C5000809184008170F80180830F900F900F9035
:100C6000DF91CF911F910F91FF90EF90DF90CF9088
:100C7000BF90AF90089582E0DECF833041F416BC80
:100C8000F501878990E00E943D0286B5E3CF10927E
:100C9000840016BCF501878990E00E943D02909186
:100CA0008400998386B59170F80190838170F60174
:100CB0008083F7019081943081F6F8019081892733
:100CC000CBCFEF92FF920F931F93CF93DF937B01D4
:100CD0008A01C4E8D0E0188216BCFC01878990E044
:100CE0000E943D028881F701808386B5F8018083E8
:100CF000DF91CF911F910F91FF90EF9008950F9387
:100D00001F93CF93DF938C01DC01EC91F0E090A175
:100D100013968C91C1E0D0E09E0101C0220F8A950C
:100D2000EAF7922B90A3CB010E943D02D801EC91EF
:100D3000F0E080A113969C9101C0CC0F9A95EAF740
:100D4000C095C823C0A3DF91CF911F910F91089543
:100D5000DC01EC91F0E080A113969C91139721E0C7
:100D600030E0A90101C0440F9A95EAF74095482365
:100D700040A31196EC911197F0E080A113969C91FD
:100D800001C0220F9A95EAF72095282320A3089501
:100D9000DC01EC91F0E080A113969C91139741E067
:100DA00050E09A0101C0220F9A95EAF72095282376
:100DB00020A31196EC911197F0E080A113969C91DD
:100DC00001C0440F9A95EAF7482B40A30895CF92AB
:100DD000DF92EF92FF92CF93DF93EC0199A970E03D
:100DE0009B01291B310949F181E08CAB9DAB7FABA5
:100DF0006EAB39AF28AFBA0190E080E00E94A82D19
:100E000020E030E048E851E40E9424306B017C018E
:100E100020E030E0A9010E946E3120E030E040E0A7
:100E20005FE387FD11C0C701B6010E94A12F0E9498
:100E3000D0307BAF6AAF1DAE1CAEDF91CF91FF907B
:100E4000EF90DF90CF900895C701B6010E94A02FC8
:100E5000EECFFF920F931F93CF93DF9300D000D07C
:100E600000D0CDB7DEB78C01F62EFC0120A982A9F7
:100E7000882379F180E0662369F0862F90E001965F
:100E8000959587958158382F339F030E30E0311D9B
:100E90001124832F2C839FEF9D838E83BE016F5F70
:100EA0007F4FCE0104960E94FC0060910303CE01A7
:100EB00001960E946D02F801F1AA26960FB6F894E9
:100EC000DEBF0FBECDBFDF91CF911F910F91FF907D
:100ED00008952C838FEF8D836E83E0CF0F931F9344
:100EE000CF93DF932091AC012F5F322F3770309377
:100EF000AC0120FF2BC020E831FD2064347009F0E4
:100F00002062205FFC01EC01239600E011E0648583
:100F1000662329F070E0C8010E94492F6F5F618746
:100F2000322F369F030E30E0311D1124311110C0D5
:100F30001682662311F0615061873196EC17FD0728
:100F400031F7DF91CF911F910F91089520E0D4CF19
:100F500031503683EECF4F925F927F928F929F9265
:100F6000AF92BF92CF92DF92EF92FF920F931F93B7
:100F7000CF93DF932C01EB010E944802F2012785F9
:100F80003089621B730B6A307105B0F3F8948A8163
:100F90009B81181619060CF0CDC1E881F9816BB15F
:100FA000862E689485F83BB13F7D3BB9DA848F810A
:100FB0002D2D281B822F2F834F85042E000C550BBF
:100FC000AA81BB817D85FC84EE847F5FF394E394EA
:100FD0009E819884B984AB841181C12C6C2D0C2D19
:100FE0002C2D2181112788942111280F08F42FEF2F
:100FF0008195889470FD120F1795889471FD120FDA
:101000001795889472FD120F1795889473FD120F2F
:101010001795889474FD120F1795889475FD120F1B
:101020001795889476FD120F1795889477FD120F07
:1010300017958894622F7111612F8D0D162F002C3A
:101040008BB800C017FF3BB920816627889400C089
:1010500000C0002C3BB92111290F00C0002C8BB817
:1010600000C016FF3BB908F42FEF9195889400C09B
:1010700000C0002C3BB9F0FC620F00C0002C8BB804
:1010800000C015FF3BB967958894F1FC620F00C062
:1010900000C0002C3BB96795889400C0002C8BB829
:1010A00000C014FF3BB9F2FC620F6795889400C042
:1010B00000C0002C3BB9F3FC620F00C0002C8BB8C1
:1010C00000C013FF3BB967958894F4FC620F00C021
:1010D00000C0002C3BB96795889400C0002C8BB8E9
:1010E00000C012FF3BB9F5FC620F6795889400C001
:1010F00000C0002C3BB9F6FC620F00C0002C8BB87E
:1011000000C011FF3BB967958894F7FC620F00C0DF
:1011100000C0002C3BB96795889400C0002C8BB8A8
:1011200000C010FF3BB9122FF110162F9B0D00C00D
:1011300000C0002C3BB900C000C0002C8BB800C020
:1011400017FF3BB922816627889400C000C0002C9D
:101150003BB92111290D00C0002C8BB800C016FF2F
:101160003BB908F42FEFE40FF51F00C000C0002CBE
:101170003BB9E0FC620F00C0002C8BB800C015FF2B
:101180003BB967958894E1FC620F00C000C0002C59
:101190003BB96795889400C0002C8BB800C014FF41
:1011A0003BB9E2FC620F6795889400C000C0002C38
:1011B0003BB9E3FC620F00C0002C8BB800C013FFEA
:1011C0003BB967958894E4FC620F00C000C0002C16
:1011D0003BB96795889400C0002C8BB800C012FF03
:1011E0003BB9E5FC620F6795889400C000C0002CF5
:1011F0003BB9E6FC620F00C0002C8BB800C011FFA9
:101200003BB967958894E7FC620F00C000C0002CD2
:101210003BB96795889400C0002C8BB800C010FFC4
:101220003BB9122FE110162F919400C000C0002C82
:101230003BB99A0C00C000C08BB800C017FF3BB987
:1012400021816627889400C000C0002C3BB9211181
:10125000280F00C0002C8BB800C016FF3BB908F463
:101260002FEF8195889400C000C0002C3BB970FD21
:10127000620F00C0002C8BB800C015FF3BB967950A
:10128000889471FD620F00C000C0002C3BB96795C7
:10129000889400C0002C8BB800C014FF3BB972FDCD
:1012A000620F6795889400C000C0002C3BB973FDA5
:1012B000620F00C0002C8BB800C013FF3BB96795CC
:1012C000889474FD620F00C000C0002C3BB9679584
:1012D000889400C0002C8BB800C012FF3BB975FD8C
:1012E000620F6795889400C000C0002C3BB976FD62
:1012F000620F00C0002C8BB800C011FF3BB967958E
:10130000889477FD620F00C000C0002C3BB9679540
:10131000889400C0002C8BB800C010FF3BB9122F7E
:101320007111162F8D0D00C000C0002C3BB9119714
:1013300009F086CE4A815B8120EE31E0DA010E941D
:10134000852FDC01CB01F4E0B695A795979587959D
:10135000FA95D1F730E020E0B901EAE94E9F040E9A
:10136000611D5E9F600D711D1124650F711D860F3B
:10137000971FA11DB11D893E43E09407A105B1054A
:1013800008F434C0885E9340A109B10942E0B695E3
:10139000A795979587954A95D1F747E0849F080EC2
:1013A000211D949F200D311D1124290F311D6091A5
:1013B000AB0170E0860F971F820F931F40910602CA
:1013C000509107026091080270910902292F33277A
:1013D000420F531F611D711D409306025093070277
:1013E00060930802709309028093AB0178940E9485
:1013F0004802F201708B6787DF91CF911F910F91A7
:10140000FF90EF90DF90CF90BF90AF909F908F9024
:101410007F905F904F90089581E090E00895559AF5
:1014200008956F927F928F92CF92DF92EF92FF9208
:101430000F931F93CF93DF93CDB7DEB762970FB6AD
:10144000F894DEBF0FBECDBF6C017A013801822E49
:10145000DC011C962C91CA0157FF04C088279927EC
:10146000841B950B7A8369839C838B839E838D83F6
:101470006D867E868F86213049F5CE0101960E94C9
:101480006E0783E0888B1A8A198AF7FE02C08DEFF7
:10149000888BD601ED91FC910684F785E02DBE0185
:1014A0006F5F7F4FC601099562960FB6F894DEBF55
:1014B0000FBECDBFDF91CF911F910F91FF90EF90A5
:1014C000DF90CF908F907F906F9008951C861B8641
:1014D0001A86198618861F82D4CFEF92FF920F9337
:1014E0001F93CF93DF93CDB7DEB762970FB6F89413
:1014F000DEBF0FBECDBF7C01DC011C968C917A83D0
:1015000069835C834B835E834D830D871E872F87A2
:101510008130F9F4CE0101960E946E07188A1A8A6A
:10152000198AD701ED91FC910684F785E02DBE0163
:101530006F5F7F4FC701099562960FB6F894DEBFC3
:101540000FBECDBFDF91CF911F910F91FF90EF9014
:1015500008951C861B861A86198618861F82DECF80
:10156000EF92FF920F931F93CF93DF9300D000D0A1
:1015700000D0CDB7DEB78C01E62EF42EFC0182A997
:10158000882389F180E0442369F0842F90E001965C
:10159000959587958158282F229F020E20E0211DC6
:1015A0001124822FE9829FEF9A838B83BE016C5FA7
:1015B0007F4FCE0101960E94FC0060910303CE0193
:1015C00004960E946D02F801E0AAF1AA26960FB6D1
:1015D000F894DEBF0FBECDBFDF91CF911F910F9169
:1015E000FF90EF90089569838FEF8A834B83DECF5E
:1015F0000F931F93CF93DF9300D01F92CDB7DEB729
:10160000AB0119821A821B82DC01ED91FC910190E1
:10161000F081E02D00E010E020E0BE016F5F7F4F21
:1016200009950F900F900F90DF91CF911F910F911F
:101630000895FC018485958520810097A1F4228B73
:1016400081E0808B81E090E095878487868597850F
:1016500021810097F9F4238B81E0818B81E090E078
:10166000978786870895328932130CC020892F5FAF
:10167000208B3385231306C0248935892F5F3F4F84
:10168000358B248B0196811522E09207E9F61586A9
:101690001486DCCF338932130CC021892F5F218B54
:1016A0003385231306C0268937892F5F3F4F378B39
:1016B000268B0196811522E0920791F617861686F1
:1016C0000895FC018081928189131BC085818F5F01
:1016D00085839481891728F087819085019690876A
:1016E000878381819381891310C086818F5F868370
:1016F0009481891768F08185928501969287818708
:101700000895828381E08583ECCF838381E08683A3
:1017100008953F924F925F926F927F928F929F9225
:10172000AF92BF92CF92DF92EF92FF920F931F93EF
:10173000CF93DF9300D000D0CDB7DEB74C016B0163
:101740007A01FB011082FA0110820DE211E088E0BB
:10175000582E412C312C332011F041102BC0AE01FA
:101760004E5F5F4FBE016F5F7F4FC4010E946106F5
:10177000AE014C5F5F4FBE016D5F7F4FC4010E94A1
:10178000610631100AC089818170A82E8B81817019
:10179000782EA81611F0332433944110DCCF8A81BF
:1017A0008170B82E8C818170682EB816A1F2442405
:1017B0004394D1CF7A1438F4F6018081F8019081F6
:1017C000892BF60180836B1438F4F7018081F801CE
:1017D0009081892BF70180835A940F5F1F4F51101E
:1017E000B8CF0091E7011091E801F6018081F8017E
:1017F0008083F7018081F8018183C8010E94610B19
:10180000C8010E94190B0F900F900F900F90DF915D
:10181000CF911F910F91FF90EF90DF90CF90BF90ED
:10182000AF909F908F907F906F905F904F903F9080
:101830000895AF92BF92DF92EF92FF920F931F93A2
:10184000CF93DF935C017B018A01FB011082FA01D7
:101850001082CDE2D1E088E0D82E1092840016BC30
:10186000F501878990E00E943D028091840096B541
:1018700080FF05C0F70180812881822B808390FF43
:1018800005C0F80180819881892B8083DA942196A4
:10189000D110E3CFC091E701D091E801F701808139
:1018A0008883F80180818983CE010E94610BCE017B
:1018B000DF91CF911F910F91FF90EF90DF90BF903C
:1018C000AF900C94190BCF92DF92EF92FF920F938F
:1018D0001F93CF93DF9300D000D0CDB7DEB78C013C
:1018E0006B017A01AE014E5F5F4FBE016F5F7F4FAC
:1018F0000E94190CAE014C5F5F4FBE016D5F7F4FC0
:10190000C8010E94190C89819B818927F601808377
:101910008A819C818927F70180830F900F900F9017
:101920000F90DF91CF911F910F91FF90EF90DF907B
:10193000CF900895CF92DF92EF92FF920F931F9373
:10194000CF93DF9300D000D0CDB7DEB76C017B0121
:101950008A01AE014E5F5F4FBE016F5F7F4F0E94F5
:10196000190CAE014C5F5F4FBE016D5F7F4FC6012A
:101970000E94190C99818B818927990F911D8927C4
:10198000F70180839A818C818927990F911D89277E
:10199000F80180830F900F900F900F90DF91CF91FF
:1019A0001F910F91FF90EF90DF90CF900895EF92ED
:1019B000FF920F931F93CF93DF93CDB7DEB7289796
:1019C0000FB6F894DEBF0FBECDBF7C018B01AE0118
:1019D0004A5F5F4FBE016E5F7F4F0E94190CAE01E0
:1019E000495F5F4FBE016D5F7F4FC7010E94190CB9
:1019F000AE01485F5F4FBE016C5F7F4FC7010E9421
:101A0000190C69817A818B819C818F7799278068F5
:101A10009F6320E030E040E85FE30E94A02FF801E0
:101A200060837183828393836D817E818F819885AA
:101A30008F77992780689F6320E030E040E85FE37C
:101A40000E94A02FF801648375838683978328966C
:101A50000FB6F894DEBF0FBECDBFDF91CF911F91BF
:101A60000F91FF90EF900895CF93DF9300D0CDB703
:101A7000DEB7FC0110821182128213822681378127
:101A800083E0220F331F8A95E1F74085429FC00112
:101A9000439F900D112496958795B0E0A0E087872D
:101AA000908BA18BB28B92A180A1A82FB1A12A2FDC
:101AB000281B291710F41D92FACF178AAE014E5F2A
:101AC0005F4FBE016F5F7F4F8091E9019091EA0106
:101AD0000E94190CE9818A81E827E770F0E0E75954
:101AE000FE4F40E060818091F3019091F4010E94EB
:101AF000B00A0F900F90DF91CF9108952F923F92EF
:101B00004F925F926F927F928F929F92AF92BF920D
:101B1000CF92DF92EF92FF920F931F93CF93DF93B9
:101B2000CDB7DEB7CA50D2400FB6F894DEBF0FBEB5
:101B3000CDBF8C0180E091E09E012F5F3F4FCD5FD4
:101B4000DD4F39832883C350D240D901FC011D9257
:101B50003197E9F71E01F1E02F0E3F1ED101FC0184
:101B60001D923197E9F72091E9013091EA01CB5FAD
:101B7000DD4F39832883C550D2400E942F02412C6B
:101B8000512C3201C12CD12C7601812C912C540185
:101B9000F80180819181A281B381481659066A06B5
:101BA0007B0608F047C0AE014E5F5D4FBE016F5F20
:101BB0007D4FCB5FDD4F88819981C550D2400E9417
:101BC000190CCF5FDD4FA881C150D2408A2F90E021
:101BD000882329F02FEF280F82239F5FF9CF890EEA
:101BE000911CA11CB11CCE5FDD4FE881C250D240D8
:101BF0009E2F992329F02FEF290F92238F5FF9CF82
:101C0000C80ED11CE11CF11C21E030E02C0F3D1F5F
:101C10002A0F311DD9018C918F5F8C93E20DF32D2A
:101C2000F11D80818F5F80833FEF431A530A630A5F
:101C3000730AAECF0E942B02D8018D919D910D9019
:101C4000BC91A02DCB5FDD4F88839983AA83BB8392
:101C5000C550D240BC01CD0123E0660F771F881F1D
:101C6000991F2A95D1F70E94A82D2B013C01C5018F
:101C7000B4010E94A82DA30192010E94243020E00B
:101C800030E040E05FE30E94A02F20E030E048EC2D
:101C900052E40E94092E4B015C01F801848695866E
:101CA000A686B786C701B6010E94A82DA30192019E
:101CB0000E94243020E030E040E05FE30E94A02F4B
:101CC00020E030E048EC52E40E94092E6B017C01D8
:101CD000D8015096CD92DD92ED92FC92539720E080
:101CE00030E0A901C501B4010E946E31181624F03C
:101CF000B7FAB094B7F8B094F80144805580668084
:101D00007780A5019401C301B2010E946E3187FD65
:101D100019C020E030E0A901C701B6010E946E3170
:101D2000181624F0F7FAF094F7F8F094A70196014A
:101D3000C301B2010E946E3187FD04C081E0D80169
:101D400054968C93CB5FDD4F688179818A819B812A
:101D5000C550D2400E94A82D20E030E040E85BE36F
:101D60000E94092E2B013C01FE013196CB5FDD4F15
:101D7000F983E883C550D240C75FDD4F398228829E
:101D8000C950D240C12CD12C760146015701CB5FFE
:101D9000DD4FA881B981C550D2406D91CB5FDD4F39
:101DA000B983A883C550D24070E090E080E00E94E3
:101DB000A82DA30192010E94A02F9B01AC010E94BB
:101DC000092EA30192010E9424309B01AC01C501A0
:101DD000B4010E94A12F4B015C01C75FDD4FE88178
:101DE000F981C950D2406191C75FDD4FF983E88323
:101DF000C950D24070E090E080E00E94A82DA3017D
:101E000092010E94A02F9B01AC010E94092EA30108
:101E100092010E9424309B01AC01C701B6010E94CF
:101E2000A12F6B017C01CB5FDD4F28813981C5502B
:101E3000D2402216330609F0AACFD80155968D92CA
:101E40009D92AD92BC925897F801C18ED28EE38ECE
:101E5000F48E4084518462847384A3019201C5018D
:101E6000B4010E94A32D87FF2EC0A3019201C701D8
:101E7000B6010E94A32D87FF26C081E0D8015D96A0
:101E80008C93D80154968C915497882311F05D96C9
:101E90008C91C65FDD4F0FB6F894DEBF0FBECDBF8D
:101EA000DF91CF911F910F91FF90EF90DF90CF9036
:101EB000BF90AF909F908F907F906F905F904F906A
:101EC0003F902F900895F801158EDBCF2F923F920F
:101ED0004F925F926F927F928F929F92AF92BF923A
:101EE000CF92DF92EF92FF920F931F93CF93DF93E6
:101EF000CDB7DEB72F970FB6F894DEBF0FBECDBFBC
:101F00008C018091F3019091F401009721F04FE74B
:101F100060EC0E94B00A2090E9013090EA010E9432
:101F20002F02812C912C54011F82188619861A8643
:101F30001B821C821D821E82C12CD12C7601412C59
:101F4000512C3201F801868D978DA0A1B1A1881680
:101F50009906AA06BB0608F054C0AE014F5F5F4F5A
:101F6000BE016E5F7F4FC1010E9461062A81420E51
:101F7000511C611C711C3981C30ED11CE11CF11C68
:101F800081149104A104B104A1F1422F6B85461B79
:101F9000550BCA0157FF03C0919581959109092EF0
:101FA000000CAA0BBB0B4B815C816D817E81480FBD
:101FB000591F6A1F7B1F4B835C836D837E83632F56
:101FC000AF856A1B770BCB0177FF03C09195819595
:101FD0009109092E000CAA0BBB0B4F81588569850E
:101FE0007A85480F591F6A1F7B1F4F83588769875F
:101FF0007A875FEF851A950AA50AB50A3F872B876E
:10200000A1CF0E942B02D8015E966D917D918D919A
:102010009C9191976B877C878D879E870E94A82DC6
:102020004B015C01C301B2010E94A82DA5019401DE
:102030000E9424302B013C01F80142A653A664A65D
:1020400075A6C701B6010E94A82DA50194010E94A2
:1020500024304B015C01D8019E968D929D92AD92E9
:10206000BC92D1976B857C858D859E856150710969
:10207000810991090E94A82D6B017C016B817C81F3
:102080008D819E810E94A82DA70196010E94243077
:102090006B837C838D839E83F80162AB73AB84ABCF
:1020A00095AB6F81788589859A850E94A82DA701B7
:1020B00096010E9424306F83788789879A87D80198
:1020C000D6966D937D938D939C93D997F1016789F3
:1020D00070E090E080E00E94A82D9B01AC010E947E
:1020E000A12F6B017C01D8019296CD92DD92ED92E9
:1020F000FC929597AC019B01C301B2010E946E3125
:1021000087FD68C0A7019601C501B4010E946E3128
:1021100087FD60C081E0F80182AFF80186A097A03A
:10212000A0A4B1A4A50194016B817C818D819E81C5
:102130000E946E3118160CF051C0A50194016F81F8
:10214000788589859A850E946E3118160CF046C0F4
:1021500081E0D801DB968C93D801DA96FC90DA976F
:10216000FF2011F0DB96FC908091F3019091F40137
:10217000009721F04FEF60EC0E94B00AC8010E9466
:102180007E0DF8228091F3019091F401009739F0CF
:1021900040E0F11001C04FEF60E00E94B00AF8018A
:1021A000F4AE2F960FB6F894DEBF0FBECDBFDF9111
:1021B000CF911F910F91FF90EF90DF90CF90BF9044
:1021C000AF909F908F907F906F905F904F903F90D7
:1021D0002F900895D801DA961C929FCFF80113AE84
:1021E000BBCF50E083EB92E00C94C00483EB92E011
:1021F0000C944005EF92FF920F931F93CF93DF93C0
:10220000E42EF12C8B01D0E0C0E0CE15DF0508F004
:102210003DC02FB7F8948091060290910702A091DB
:102220000802B09109022FBF8093BB029093BC02B9
:10223000A093BD02B093BE0283EB92E00E946505BD
:1022400097FF2CC02FB7F894809106029091070257
:10225000A0910802B09109022FBF4091BB0250919A
:10226000BC026091BD027091BE02841B950BA60B4F
:10227000B70B4091B7025091B8026091B9027091CA
:10228000BA0284179507A607B707B0F28C2FDF9123
:10229000CF911F910F91FF90EF900895F8018193D6
:1022A0008F012196B2CF83EB92E00E9465050895DD
:1022B00083EB92E00C948105AF92CF92EF920F9353
:1022C000CF93DF93CDB7DEB728970FB6F894DEBF74
:1022D0000FBECDBF34E239836A834B832C830D83D9
:1022E000EE82CF82A886DC01ED91FC910084F1851D
:1022F000E02D48E0BE016F5F7F4F099528960FB62D
:10230000F894DEBF0FBECDBFDF91CF910F91EF905C
:10231000CF90AF9008952F923F924F925F926F921D
:102320007F928F929F92AF92CF92DF92EF92FF9225
:102330000F931F93CF93DF9300D0CDB7DEB74C013F
:102340003B01622F84E0489FF00111243796E80D8D
:10235000F91D4080518022803380A12CC12CE12CBA
:10236000272D462D8091F7019091F8010E945C1174
:102370000E942F027101F594E794E80CF91C10E01B
:1023800000E090E4D92EA1E02A22332460167106E1
:1023900071F1F401808D8111DEB8F2012114310454
:1023A00041F0D701ED91FC91E40DF51D0190F08114
:1023B000E02DAE014E5F5F4FBE016F5F7F4FC701E3
:1023C0000995F401808D81111EB88091F7019091DB
:1023D000F801DC01ED91FC910084F185E02D42E0F3
:1023E000BE016F5F7F4F09950F5F1F4FCFCF0E94D8
:1023F0002B020F900F90DF91CF911F910F91FF90C3
:10240000EF90DF90CF90AF909F908F907F906F90E4
:102410005F904F903F902F900895AF92CF92EF92A0
:102420000F93CF93DF93CDB7DEB728970FB6F8940D
:10243000DEBF0FBECDBFCE0101960E94A105A12C2B
:10244000C12CE12C00E020E048E061E08091F70140
:102450009091F8010E945C118091F7019091F80130
:10246000DC01ED91FC910084F185E02D48E0BE0196
:102470006F5F7F4F099528960FB6F894DEBF0FBEA9
:10248000CDBFDF91CF910F91EF90CF90AF90089596
:102490000F931F93CF93DF93EC018B01E881F981B8
:1024A0000190F081E02D0995892B31F480E0DF91D6
:1024B000CF911F910F910895E881F9810280F381F6
:1024C000E02DCE010995843289F7E881F9810480F5
:1024D000F581E02D47E0B801CE010995873031F74D
:1024E000F8018081E4CFCF93DF9300D000D0CDB747
:1024F000DEB749835A836B837C83DC01ED91FC91C9
:102500000084F185E02D44E0BE016F5F7F4F0995A7
:102510000F900F900F900F90DF91CF910895AF9291
:10252000CF92EF920F93CF93DF93EC01A12C8DE02C
:10253000C82E9DE0E92E0DE02DE04CAD67E48091C2
:10254000F7019091F8010E945C118091F701909140
:10255000F801DC01ED91FC910680F781E02D6AAD78
:1025600009954AA55BA56CA57DA58091F701909181
:10257000F8010E9473124EA55FA568A979A9809100
:10258000F7019091F8010E9473124AA15BA16CA11E
:102590007DA18091F7019091F8010E9473128091C2
:1025A000F7019091F801DC01ED91FC910680F78133
:1025B000E02D6BAD09954AA95BA96CA97DA9809115
:1025C000F7019091F8010E9473124EA95FA968ADBE
:1025D00079AD8091F7019091F8010E9473124EA19C
:1025E0005FA168A579A58091F7019091F8010E94FB
:1025F00073128091F7019091F801DC01ED91FC914B
:102600000680F781E02D6C8909954C855D856E8586
:102610007F858091F7019091F8010E94731248899B
:1026200059896A897B898091F7019091F8010E940C
:1026300073124C815D816E817F818091F701909151
:10264000F8010E9473128091F7019091F801DC016A
:10265000ED91FC910680F781E02D6D8D09954D89F6
:102660005E896F89788D8091F7019091F8010E94C1
:102670007312498D5A8D6B8D7C8D8091F7019091ED
:10268000F8010E947312488559856A857B8580917F
:10269000F7019091F801DF91CF910F91EF90CF90DA
:1026A000AF900C947312CF93DF9300D0CDB7DEB709
:1026B0007A836983DC01ED91FC910084F185E02D42
:1026C00042E0BE016F5F7F4F09950F900F90DF9141
:1026D000CF91089540919C0150919D0120919A01C4
:1026E00030919B0142175307B4F49091E800957024
:1026F000E1F39091E80092FD19C08093F100809180
:102700009C0190919D0101968F739927892B19F453
:102710008EEF8093E80080919C0190919D0101963D
:1027200090939D0180939C0181E0089580E008953D
:10273000DF92EF92FF920F931F93CF93DF93D82EE8
:102740008A01EB017B01E40EF51ECE15DF0559F081
:10275000D7FE12C0FE0184910E946A132196811156
:10276000F4CF0FEF1FEFC801DF91CF911F910F91B1
:10277000FF90EF90DF9008958881EECF0F931F9325
:10278000CF93DF931F92CDB7DEB712E0198342E4F7
:1027900050E06EE271E080E80E9498138091A301FE
:1027A00081110CC010939F0184E08093A0011092CE
:1027B000A2011092A10181E08093A3010091A101E7
:1027C0001091A2010115110589F0D801ED91FC913C
:1027D0000280F381E02DBE016F5F7F4FC801099534
:1027E00097FD04C0F80100851185ECCF89810F9019
:1027F000DF91CF911F910F910895FC0185859685FA
:10280000089590E080E00895CF92DF92EF92FF92DA
:1028100081329105E8F422E020939100C12CD12C63
:102820005AEFE52E54E4F52EBC0190E080E00E94C2
:10283000A82DA70196010E94092E0E9439320E94FC
:10284000D730CB010197FF90EF90DF90CF900895A4
:10285000873021E0920750F423E020939100C12CAF
:10286000D12C4AE7E42E43E4F42EDECF893124E074
:10287000920750F424E020939100C12CD12C3AE728
:10288000E32E32E4F32ED0CF833620E1920750F4CA
:1028900025E020939100C12CD12C2AE7E22E21E4DF
:1028A000F22EC2CF90E080E0CECF0F931F93CF9354
:1028B0008C01C42F822F662349F08CE090E00E94A7
:1028C000C72EC82F8DE090E00E94C72E9FEF9C0F6F
:1028D000953008F04EC0882309F44BC0C13079F020
:1028E000C23009F44AC023E032E39FEEC33051F016
:1028F00032E39FE9C43009F497EC23E003C039E1E7
:1029000097EC24E03817A8F1F801C0838183109276
:10291000C0001092C1001092C2001092C300109229
:10292000C400269819BC39B5306139BD12BE32B722
:102930003A6032BF32B7306332BF32B7306432BF31
:1029400039B5326039BD2093C1002091C0002160AB
:102950002093C0002091C00020622093C0002E98D8
:10296000269A9093D1008093D0001092BF001092CD
:10297000BE00CF911F910F91089539E195E9C1CF24
:10298000AF92CF92EF920F93CF93DF9388E090E0D6
:102990000E94C72EC82F89E090E00E94C72ED82F32
:1029A0008AE090E00E94C72E082F8BE090E00E9402
:1029B000C72EA12CC12CE82E2D2F4C2F6CE080911E
:1029C000F7019091F8010E945C11DF91CF910F9176
:1029D000EF90CF90AF900895CF93DF93D0E0C0E019
:1029E000CE010E94C72E8F3F09F041C02196C4310D
:1029F000D105B1F744E050E070E060E085E991E096
:102A00000E94DB2E6DE871E084E090E00E94092FC7
:102A100068EE7EEF86E090E00E94092F63E08CE094
:102A200090E00E94EB2E64E18DE090E00E94EB2E9E
:102A30006AE08EE090E00E94EB2E60E08FE090E094
:102A40000E94EB2E40EE53E964E070E080E190E0FC
:102A50000E94FD2E43E353E36BE770E485E190E0D1
:102A60000E94FD2E64E189E190E00E94EB2E61E07E
:102A700088E090E00E94EB2E60E089E090E00E9408
:102A8000EB2E60E08AE090E00E94EB2E6FE18BE09D
:102A900090E0DF91CF910C94EB2E0E94AA32CF925E
:102AA000DF92EF92FF920F931F93CF93DF93EC018E
:102AB00082E290E09D838C8381E0888780E395E7C4
:102AC000A0E0B0E0888F998FAA8FBB8F80E190E063
:102AD0000E94CF2E6B017C01CC8EDD8EEE8EFF8EA0
:102AE00085E190E00E94CF2E6BA37CA38DA39EA3D3
:102AF00089E190E00E94C72E8AA38E01005C1F4FDF
:102B000081E090E0F8019183808332968CE390E03D
:102B100091838083329687E291E09183808332961D
:102B200082E691E091838083329688ED91E09183F3
:102B30008083329683E192E091838083329684E1B0
:102B400092E09183808332968FE492E09183808338
:102B5000329685EC92E091838083329680E093E018
:102B600091838083349681E093E0A0E0B0E080839D
:102B70009183A283B383C701B6010E94A82D20E0F0
:102B800030E048E851E40E9424306B017C0120E0F1
:102B900030E0A9010E946E3120E030E040E05FE3C8
:102BA00087FD5CC0C701B6010E94A12F0E94D030F2
:102BB000FE01E25AFF4F6F5F7C4F8F4F9F4F608344
:102BC00071838283938382E090E03A97918380833C
:102BD00088A199A10E941A2D8AA190E00E947E2CC2
:102BE00099A388A3688D798D8A8D9B8D0E94A82DCD
:102BF0006B017C016C817D8190E080E00E94A82DBA
:102C00009B01AC01C701B6010E9424306B017C011D
:102C100020E030E0A9010E946E3120E030E040E089
:102C20005FE387FD20C0C701B6010E94A12F0E946B
:102C3000D0307F836E83F801808191810197B0E06D
:102C4000A0E08CAF9DAFAEAFBFAFDF91CF911F9132
:102C50000F91FF90EF90DF90CF900895C701B601DC
:102C60000E94A02FA3CFC701B6010E94A02FDFCFE3
:102C70001F920F920FB60F9211242F933F938F93B1
:102C80009F93AF93BF938091060290910702A0910A
:102C90000802B09109023091FD0123E0230F2D3786
:102CA00058F50196A11DB11D2093FD0180930602E8
:102CB00090930702A0930802B09309028091FE014D
:102CC0009091FF01A0910002B09101020196A11D17
:102CD000B11D8093FE019093FF01A0930002B09379
:102CE0000102BF91AF919F918F913F912F910F90D2
:102CF0000FBE0F901F90189526E8230F0296A11D76
:102D0000B11DD2CF1F920F920FB60F9211242F93A5
:102D10003F934F935F936F937F938F939F93AF9363
:102D2000BF93EF93FF9386E192E00E943304FF91FB
:102D3000EF91BF91AF919F918F917F916F915F9133
:102D40004F913F912F910F900FBE0F901F901895AC
:102D50001F920F920FB60F9211242F938F939F9370
:102D6000EF93FF93E0912602F09127028081E0919A
:102D70002C02F0912D0282FD1BC0908180912F02C8
:102D80008F5F8F7320913002821741F0E0912F0204
:102D9000F0E0EA5EFD4F958F80932F02FF91EF9157
:102DA0009F918F912F910F900FBE0F901F901895AC
:102DB0008081F4CF1F920F920FB60F9211242F93A0
:102DC0003F934F935F936F937F938F939F93AF93B3
:102DD000BF93EF93FF9364E670E08091D3019091ED
:102DE000D4010E947F06FF91EF91BF91AF919F9117
:102DF0008F917F916F915F914F913F912F910F90A4
:102E00000FBE0F901F9018951F920F920FB60F9242
:102E100011242F933F934F935F936F937F938F93DF
:102E20009F93AF93BF93EF93FF930E94DA16FF91A6
:102E3000EF91BF91AF919F918F917F916F915F9132
:102E40004F913F912F910F900FBE0F901F901895AB
:102E50001F920F920FB60F9211242F933F934F930F
:102E60005F936F937F938F939F93AF93BF93EF93F2
:102E7000FF930E94DA16FF91EF91BF91AF919F915E
:102E80008F917F916F915F914F913F912F910F9013
:102E90000FBE0F901F9018951F920F920FB60F92B2
:102EA00011248F939F93EF93FF93E091D901F091B9
:102EB000DA0184819581019695838483FF91EF9156
:102EC0009F918F910F900FBE0F901F9018951F929A
:102ED0000F920FB60F9211248F929F92AF92CF92C2
:102EE000DF92EF92FF920F932F933F934F935F9355
:102EF0006F937F938F939F93AF93BF93CF93DF9302
:102F0000EF93FF938090D9019090DA016091960041
:102F100070919700F401C481D58190E080E00E9417
:102F2000A82D2DEB37E346E857E30E94092E6B01ED
:102F30007C01BE0190E080E00E94A82D9B01AC01C5
:102F4000C701B6010E94A12F462F272FA12CC12C0B
:102F5000E92E082F61E78091F7019091F8010E9416
:102F60005C111092950010929400F4011582148265
:102F7000FF91EF91DF91CF91BF91AF919F918F9191
:102F80007F916F915F914F913F912F910F91FF90A2
:102F9000EF90DF90CF90AF909F908F900F900FBEEB
:102FA0000F901F9018951F920F920FB60F92112439
:102FB0001F932F933F934F935F936F937F938F93C1
:102FC0009F93AF93BF93CF93DF93EF93FF93E091E2
:102FD000F301F091F401DF01AA5BBF4F8D919C9149
:102FE0001197019611969C938E9384AD95AD0196A1
:102FF00095AF84AF11E013ABC091F501D091F6010C
:103000006CAD7DAD8EAD9FAD0E94A82D20E030E06F
:1030100040E85FE30E94A12F0E94D7306CAF7DAFE4
:103020008EAF9FAF1BAFFF91EF91DF91CF91BF911B
:10303000AF919F918F917F916F915F914F913F9150
:103040002F911F910F900FBE0F901F9018951F92F8
:103050000F920FB60F9211248F93EF93FF93E0918D
:10306000E901F091EA0181E08183FF91EF918F9175
:103070000F900FBE0F901F9018951F920F920FB6D2
:103080000F9211248F939F938091E1009091E10022
:10309000937F9093E10083FF0FC01092E90091E0CD
:1030A0009093EB001092EC0092E39093ED0010925D
:1030B000050298E09093F00082FF1CC093E090938B
:1030C000E9009091F200992319F09AE39093E800B7
:1030D0009091AD01992329F09091AD019150909379
:1030E000AD0190910402992329F09091040291502E
:1030F0009093040284FF18C08091E2008E7E81606C
:103100008093E2008091E1008F7E8093E1008091C6
:10311000AE018E7E80618093AE019F918F910F9062
:103120000FBE0F901F90189580FFF7CF8091E2009F
:103130008E7E80618093E2008091E1008E7E80939C
:10314000E1008091AE018E7E8160E5CF1F920F92EB
:103150000FB60F921124DF92EF92FF920F931F93FD
:103160002F933F934F935F936F937F938F939F938F
:10317000AF93BF93EF93FF93CF93DF93CDB7DEB7BA
:103180006197DEBFCDBF1092E9008091E80083FF18
:103190002FC089E0FE013A96EE2EDF2E815029F0F5
:1031A0009091F10090833196F9CF84E680930402E8
:1031B00082EF8093E8008A8587FF38C09091E8000D
:1031C00090FFFCCF982F907609F035C19B854C85F8
:1031D0005D852C85FD84911130C0803859F5809132
:1031E000AF018093F1001092F1008EEF8093E80020
:1031F00061960FB6F894DEBF0FBECDBFDF91CF91C1
:10320000FF91EF91BF91AF919F918F917F916F91BE
:103210005F914F913F912F911F910F91FF90EF90F0
:10322000DF900F900FBE0F901F9018959EEF909318
:10323000E800C8CF1092F100D6CF913059F4811137
:10324000D4CF4130510589F68091AF018D7F8093B5
:10325000AF01CBCF933049F48111C7CF4130510535
:1032600021F68091AF018260F2CF953041F48091D8
:10327000E80080FFFCCF20682093E300B6CF9630B3
:1032800009F0ACC00889198922E01092E900109277
:103290009D0110929C01F2122EC010929B0110927F
:1032A0009A010E94BE131F8299E09983FA8291E0ED
:1032B0009E8390EA98879AEF998720919C0130919C
:1032C0009D01275F3F4F3C832B838D831092E90044
:1032D00010929D0110929C0110939B0100939A0102
:1032E00049E050E0BE016F5F7F4F80E00E9498137D
:1032F0000E94BE137ACF10939B0100939A01809194
:10330000A30181110DC082E080939F0184E080932E
:10331000A0011092A2011092A10181E08093A3016B
:103320000091A1011091A2010115110509F455C1E7
:10333000D801ED91FC910480F581E02D6E2D7D2D5D
:10334000C8010995009709F04EC1F8010085118563
:10335000EBCFF3E0FF120CC08C858823B1F18230F3
:1033600059F46BE086E991E00E94F81A81113DCF93
:1033700081E28093EB003CCF813021F46FE086E85E
:1033800091E0F2CF8330A1F7CE0101960E94A10512
:1033900082E10E946A1383E00E946A138E010F5F2C
:1033A0001F4F7E0129E0E20EF11CD8018D918D01A5
:1033B0000E946A138823E1F280E00E946A13882346
:1033C000B9F2E016F10689F710CF60E771E0FB0172
:1033D000449150E080E80E94981307CF973041F263
:1033E000983021F481E08093F100FFCE993009F00C
:1033F000FCCE837009F0BCCFE7E2F1E081E031E080
:1034000096E32191222371F08093E9003093EB0041
:10341000DF0111972C912093EC009093ED008F5FCA
:10342000873079F78EE78093EA001092EA008C8566
:1034300080930502DACE888999891092E90010926A
:103440009D0110929C0190939B0180939A018E851F
:1034500081119AC08B859A85913A49F4813209F09D
:1034600087CF47E050E064E071E080E0B4CF913274
:1034700009F07ECF833269F48C859D85B0E0A0E0B1
:103480008093000190930101A0930201B093030186
:10349000ACCE8032A9F48091E80082FFFCCF88E0B6
:1034A000E4E0F1E0815029F09091F10090833196B1
:1034B000F9CF84E6809304028BEF8093E80095CEE9
:1034C000823209F092CE8C8580930B01EEEFFFE7FC
:1034D000859194918B3F9C4D51F1E0E0F8E0809113
:1034E000040190910501A0910601B0910701803B74
:1034F0009440A105B105F1F480910B0180FD1AC043
:10350000EE3F8AE0F80789F587E797E791838083A4
:103510008091600080939E0188E19BE00FB6F89453
:10352000A895809360000FBE909360005ECEEEEF92
:10353000FAE0D5CF808191818737974709F055CE42
:10354000A8958091600088618093600080919E01C1
:1035500080936000EE3F2AE0F20789F08091FE0A36
:103560009091FF0A9183808340CE8081918187373B
:10357000980751F29093FF0A8093FE0AC5CF1092EC
:10358000FF0A1092FE0A31CE8091A30181110DC075
:1035900082E080939F0184E08093A0011092A201B9
:1035A0001092A10181E08093A3010091A1011091EB
:1035B000A2010115110509F4DBCED801ED91FC91B2
:1035C0000190F081E02D6E2D7D2DC80109958111AE
:1035D0000CCEF80100851185ECCFF1E0FF12B9CED9
:1035E00064E771E0F4CE181619060CF4FECDC0CED7
:1035F000EF92FF920F931F93CF93DF93182FE92E33
:10360000062F81E0860F880F0E946A1383E00E94D4
:103610006A13F12EC12FDE2DFE0184910E946A13E0
:10362000182F80E00E946A13812329F021969C2F95
:103630009F19901788F3DF91CF911F910F91FF9001
:10364000EF900895E6E1F2E01382128288EE93E0B3
:10365000A0E0B0E084839583A683B78325E731E0BB
:10366000318320832DEC30E0358724872CEC30E04B
:103670003787268728EC30E0318B208B29EC30E02F
:10368000338B228B2AEC30E0358B248B2EEC30E010
:10369000378B268B118E128E138E148EE3EBF2E095
:1036A0001382128284839583A683B78387E891E08F
:1036B000918380838FEF9FEF95878487E3E0F3E02A
:1036C000808312821182148613868FEF9FEFDC01B4
:1036D00087839087A187B2870895CF93DF93CDB773
:1036E000DEB7A4970FB6F894DEBF0FBECDBF7894B7
:1036F00084B5826084BD84B5816084BD85B58260F7
:1037000085BD85B5816085BD80916E0081608093A7
:103710006E00109281008091810082608093810010
:103720008091810081608093810080918000816020
:1037300080938000809191008260809391008091BD
:1037400091008160809391008091900081608093CE
:1037500090008091C10084608093C1008091C1007D
:1037600082608093C1008091C10081608093C1001C
:103770008091C30081608093C3008091C00082600B
:103780008093C0008091C20081608093C2008091CC
:103790007A00846080937A0080917A0082608093BE
:1037A0007A0080917A00816080937A0080917A001B
:1037B000806880937A00109205021092AF011092F7
:1037C000AE018091D70081608093D70080EA80931A
:1037D000D80089B5806189BD89B5826089BD09B489
:1037E00000FEFDCF0E949A038091D8008F7C8061FB
:1037F0008093D8008091E000807F8093E0008091EA
:10380000E1008E7E8093E1008DE08093E20083E012
:1038100090E00E947E2CDC0112961C92129729E304
:1038200031E02D933C932FEF3FEF3093C002209374
:10383000BF0244E650E060E070E04093B70250936E
:10384000B8026093B9027093BA0204B603FC0DC0CB
:1038500041E950ED63E070E02091E80023FD05C0F0
:103860004150510961097109B9F79093FA018093A8
:10387000F90181E090E00E947E2C9093F201809308
:10388000F10181E090E00E947E2C8C010E94EC14FA
:103890001093EE010093ED0181E090E00E947E2CF8
:1038A000909303028093020281E090E00E947E2CBC
:1038B0009093CE018093CD0181E090E00E947E2C18
:1038C0009093D0018093CF0181E090E00E947E2C04
:1038D0009093CC018093CB0181E090E00E947E2CFC
:1038E00024B7277F24BF9093F0018093EF0181E0FC
:1038F00090E00E947E2C9093D2018093D10182E0CF
:1039000090E00E947E2C8C0120E040E061E00E946B
:1039100055141093EC010093EB0189E190E00E94B3
:103920007E2C8C01FC0110821182108E14BC15BCFF
:1039300010926E0083E085BD80916E00816080935F
:103940006E001092800010928100109282001092FE
:103950006F0087E08093810089E19CE090878783F6
:103960001286118683E69CE09487838716861586E7
:103970008AE99CE0908B8787128A118A89E89BE00C
:10398000948B838B168A158A8EE090E00E94C72E56
:10399000882319F0D80157968C931093EA0100936D
:1039A000E90188E490E00E947E2CFC0110AA11AA93
:1039B00091E092AB13AA14AA16AEF89488E1809312
:1039C000600080E48093600078948091C30181114D
:1039D00046C01092B5011092B4018FEF8093B801E8
:1039E0008093B9018093BA018093BB018093BC019D
:1039F0008093BD019093BE011092C0011092BF014F
:103A00001092B7011092B6018091100290911102AC
:103A1000892B31F482EB91E0909311028093100294
:103A2000A091B001B091B101109731F082EB91E01B
:103A300015969C938E93149782EB91E09093B1012D
:103A40008093B0011092C2011092C10189E591E00A
:103A50009093B3018093B20181E08093C301559AA2
:103A6000F093B501E093B40180E190E09093C00140
:103A70008093BF018091060390910703A0910803F2
:103A8000B0910903843C29E09207A105B10520F417
:103A900084EC99E0A0E0B0E08093060390930703E4
:103AA000A0930803B0930903F093F401E093F301AA
:103AB00083E690E00E947E2C23E6DC011D922A958D
:103AC000E9F7FC01BB9620E1DF011D922A95E9F799
:103AD000FC0113AE9093F6018093F5018DE390E025
:103AE0000E947E2C8C01DC0154961C9254975D96AA
:103AF0001C925D97DA961C92DA97DB961C92DB9704
:103B0000FF24F394DC96FC9285E39CE0A0E0B0E017
:103B1000F80180839183A283B38345EE50ED62EB7D
:103B20007FE3448355836683778348EB5EE765EBE9
:103B300073E44087518762877387868F978FA0A32E
:103B4000B1A386E696E6A6E6BFE386A397A3A0A761
:103B5000B1A71093FC010093FB0188E190E00E9463
:103B60007E2CFC0112821382F582F6821086178267
:103B7000128611861586148617861686F08AF18AB3
:103B8000158A148A178A168A84E084838DE08387D5
:103B9000F093E801E093E70184E090E00E947E2C3E
:103BA0004C0180910C01D4018C9380910D011196F0
:103BB0008C93119780910E0112968C93129780919D
:103BC0000F0113968C939092DC018092DB0186E0CA
:103BD00090E00E947E2C7C0180911001F70180838F
:103BE0008091110181838091120182838091130160
:103BF000838315821482F092DA01E092D90184E085
:103C000090E00E947E2C5C0180911401D5018C9380
:103C10008091150111968C9311978091160112963F
:103C20008C9312978091170113968C93B092D801C0
:103C3000A092D70184E090E00E947E2C6C018091DC
:103C40001801F601808380911901818380911A0106
:103C5000828380911B018383D092D601C092D501CB
:103C600084E090E00E947E2CFC0180911C01808306
:103C700080911D01818380911E01828380911F01AB
:103C80008383F093D401E093D3019092DE0180927C
:103C9000DD01F092E001E092DF01B092E201A0923A
:103CA000E101D092E401C092E301F093E601E093D8
:103CB000E5018BE39DE00197F1F7C8010E94660FD3
:103CC000E091FB01F091FC0184AD882391F0E0913B
:103CD000E701F091E8011086178212861186158A95
:103CE000148A178A168A8091F5019091F6010E9434
:103CF0004F159E012F5F3F4F3C8B2B8B2090F9017E
:103D00003090FA01E091FB01F091FC0184ADBE011D
:103D100081113DC06F5F7F4FC1010E94481288230F
:103D200081F02091F9013091FA013093F80120934C
:103D3000F701813089F48091F1019091F2010E94A4
:103D40000D1280E090E0892BC9F20E941F048823A5
:103D5000A9F20E940000D2CF8C3039F48091ED019D
:103D60009091EE010E94C014ECCF863439F480911A
:103D7000FB019091FC010E94660FE3CF873409F7A5
:103D80008091FB019091FC010E948F12DACF675F56
:103D90007F4FC1010E944812F82E882309F4A3C066
:103DA0003092F8012092F7018090F5019090F60191
:103DB00084010E591F4FD8018C9181110FC0F10160
:103DC000828181110BC081E0828348EE53E060E084
:103DD0008091F3019091F4010E94E706EFEFEF0D5F
:103DE000E53708F080C0F0E0E850F14E0C947F2FEA
:103DF0006D1FA220FD201321731F731F731F731FDC
:103E0000731F1D21462175217C21AF21D021EC217A
:103E1000731F731F731F731F731F731F731F731F12
:103E2000731F731F731F731F731F9422731F731FDE
:103E3000731F731F731F731F731F731F731FAF22B3
:103E4000C7220A233D235023731F731F731F731F41
:103E5000731F5F23CF238C24731F731F731F731F64
:103E6000731F731F731FDC241625731F1E25731FFA
:103E7000731F731F731F731F731F2D2534253B255D
:103E8000731F731F731F731F731F731F731F792596
:103E90008225EA253E264A2658265F26731F731F71
:103EA000731F6E267C26B426731F731F731F731F28
:103EB000731F731F731FBC26DE260D273227731F47
:103EC000731F731F731F731F731F49275E27852777
:103ED0009B27D8272428632880288091F10190917E
:103EE000F2010E940D12E090E901F090EA01D70181
:103EF0008C918823F1F011968C9111978823C9F049
:103F000012966D917C9113976115710549F0149685
:103F10004C91443028F400E02EE3C7010E948B113D
:103F2000F70185819681892B11F00C94D12881E0CD
:103F300081830091F3011091F401F80183A9882392
:103F400009F4C2C013AA84A9882309F458C084AD17
:103F500095ADE2ACF3ACD0A88E159F0510F00C9493
:103F6000DA2864AD75AD90E080E00E94A82D4B0189
:103F70005C01B70190E080E00E94A82D9B01AC019C
:103F8000C501B4010E9424304B015C01D801D896D0
:103F90006D917C91072E000C880B990B0E94AA2D25
:103FA0009B01AC01C501B4010E94092E4B015C01CB
:103FB000F80165A970E090E080E00E94AA2D9B01C5
:103FC000AC01C501B4010E94A12F4B015C0120E0AE
:103FD00030E0A9010E946E3120E030E040E05FE374
:103FE00087FF02C00C94D428C501B4010E94A12F00
:103FF0000E94D030462F6D2DC8010E94B00AF801F2
:1040000086AD882309F460C0EA5BFF4F808191810F
:10401000D801AC5BBF4FED90FC90D801D196DC90FD
:10402000D1978E159F0510F00C94E4286081718162
:1040300090E080E00E94A82D4B015C01B70190E068
:1040400080E00E94A82D9B01AC01C501B4010E9433
:1040500024304B015C01F801EE5BFF4F6081718100
:10406000072E000C880B990B0E94AA2D9B01AC0116
:10407000C501B4010E94092E4B015C01F80167AD36
:1040800070E090E080E00E94AA2D9B01AC01C50188
:10409000B4010E94A12F4B015C0120E030E0A90196
:1040A0000E946E3120E030E040E05FE387FF02C015
:1040B0000C94DE28C501B4010E94A12F0E94D030CB
:1040C0004D2DC8010E94B00AE091F901F091FA016A
:1040D0008281811136CE2090F5013090F601F101F8
:1040E00083AD882309F42DCE13AE44AD55AD66AD36
:1040F00077ADE65BFF4F80819181B0E0A0E084174F
:104100009507A607B70710F40C946129F10104ADD7
:1041100015AD26AD37ADE05CFF4F4081518170E0B9
:1041200060E0041715072607370711F00C94ED28F7
:1041300048EE53E06FEF8091F3019091F4010E94FB
:10414000E706FFCD0E94B30180917C00806C8093D4
:104150007C0080917C00876080937C0080917B0054
:10416000806280937B0086E080937A0080917A0061
:10417000806880937A008BE99FE00197F1F7809146
:104180007A00806480937A0080917A0086FDFCCF6B
:1041900065E080E00E94BB014B015C0184E090E09F
:1041A0000E94D52E7C0186E090E00E94D52E8C01E5
:1041B000B70190E080E00E94A82DA50194010E9423
:1041C000092E6B017C01B801110F880B990B0E941D
:1041D000AA2D9B01AC01C701B6010E94A12F462F59
:1041E000272FA12CC12CE92E082F62E08091F70126
:1041F0009091F8010E945C1176CE8091100390910D
:104200001103009711F484E193E04B895C89481B0A
:10421000590BA12CC12CE12C00E0252F63E0C1013A
:104220000E945C1160CEF894A89588E180936000AC
:1042300088E080936000789456CE10E000E06FEF45
:104240007FEFC8010E94092F0E5F1F4F0115F4E098
:104250001F07A9F78091ED019091EE010E94EC14E7
:1042600020E040E061E08091EB019091EC010E9440
:1042700055148EE090E00E94C72E882309F433CEB7
:10428000E091E901F091EA01878B2DCE8A858823A0
:10429000A9F084E090E00E94D52E182FF92E86E038
:1042A00090E00E94D52EA12CC12CE92E082F2F2D95
:1042B000412F6BE0C1010E945C1115CEEB84FC84A0
:1042C0000D851E8544E050E070E060E085E991E0F6
:1042D0000E94DB2EB70184E090E00E94092FB80114
:1042E00086E090E00E94092FFECD8091ED01909133
:1042F000EE010E94C014F7CD8A858823A1F08CE0DE
:1043000090E00E94C72E182F8DE090E00E94C72EEB
:10431000A12CC12CE12C00E0282F412F6DE0C10120
:104320000E945C11E0CD1B850C858FEF810F8530DD
:1043300060F4002351F0612F8CE090E00E94EB2E9E
:10434000602F8DE090E00E94EB2E202F412F60E047
:104350008091EB019091EC010E945514C4CD8A85A7
:10436000882379F08EE090E00E94C72EA12CC12C0A
:10437000E12C00E020E0482F6EE0C1010E945C11BA
:10438000B2CD1B85112309F4AECD612F8EE090E0F4
:104390000E94EB2EE091E901F091EA01178BA3CD89
:1043A0008A85882379F08FE090E00E94C72EA12CA7
:1043B000C12CE12C00E020E0482F6FE0C1010E94F9
:1043C0005C1191CD61E08B85811101C060E08FE0CF
:1043D00090E00E94EB2E87CD8A858823E1F180E171
:1043E00090E00E94CF2E6D8B7E8B8F8B988F85E116
:1043F00090E00E94CF2E2B013C0189E190E00E94C9
:10440000C72EA12CC12CE12C00E028E0482F60E150
:10441000C1010E945C118091F7019091F8012D89F2
:104420003E894F89588D29833A834B835C83DC0115
:10443000ED91FC910084F185E02D44E0BE016F5FB9
:104440007F4F0995B301A2018091F7019091F80186
:104450000E94731248CDEDB7FEB7FE8FED8FFB853E
:10446000FD8B4C852DB73EB7241B31090FB6F89450
:104470003EBF0FBE2DBF0DB71EB70F5F1F4FD1013F
:10448000ED91FC910480F581E02DB801C101099501
:10449000F8014080518062807380C480D580E680BE
:1044A000F78046015701F0E64F16FAEE5F06610409
:1044B000710498F020E030E0A901B601C7010E9424
:1044C0006E31181694F420E030E040E85FE3B60166
:1044D000C7010E94A32D87FF12C04D8D5E8D0FB6C0
:1044E000F8945EBF0FBE4DBFFECC20E030E040E848
:1044F0005FEBB601C7010E946E31181674F32D8967
:10450000222359F3B301A20180E190E00E94FD2E25
:10451000B501A40185E190E00E94FD2E6D8989E13D
:1045200090E00E94EB2ED9CF8091EB019091EC01AD
:104530002A85222371F0A12CC12CE12C00E0DC01A2
:1045400011962C9111974C916EE1C1010E945C1162
:10455000CACC2C854B8560E00E945514C4CCE091F8
:10456000E901F091EA018A85882359F0A12CC12C38
:10457000E12C00E020E0478968E2C1010E945C1163
:10458000B2CC8B85882309F4AECC878BACCC8A84E3
:104590009B848114910409F4A6CC6090E901709089
:1045A000EA01A12CC12CE12C00E0292D482D69E263
:1045B000C1010E945C110E942F0210E000E050E453
:1045C000F52EF301808D8111FEB8AE014E5F5F4F75
:1045D000BE016F5F7F4FC3010E946106D3015896F1
:1045E0008C9181111EB88091F7019091F801DC0146
:1045F000ED91FC910084F185E02D42E0BE016F5FFA
:104600007F4F09950F5F1F4F80169106D1F60E94CC
:104610002B0269CC8A850091E9011091EA018A8B0D
:104620008150853008F05FCC0E942F02F801808D08
:10463000882311F080E48EB99E012E5E3F4FAE01BB
:104640004E5F5F4FBE016F5F7F4FC8010E94F20552
:10465000D80158968C9181111EB8A12CC12CE12C47
:104660000A8129814A896AE28091F7019091F801D3
:104670000E945C110E942B0236CC6A857B856115F5
:10468000710509F430CC4C85443008F02CCC0D85F4
:104690002BE28091E9019091EA010E948B1123CCD9
:1046A000E091E901F091EA018A85882329F0769862
:1046B0006E9A81E0808F17CC6E98108E14CC8A840D
:1046C0009B848114910409F40ECCFC84B1E0BF15E5
:1046D00008F009CC6090E9017090EA01A12CC12C8E
:1046E000E12C00E0292D482D62E3C1010E945C11FC
:1046F0000E942F026F2D70E090E080E00E94A82DB4
:104700000E94BD3128E132E741E35FE30E9424309B
:104710000E940D300E94D730E62E10E000E090E0BD
:1047200080E0A12CB12C65018E1590F441E050E0A1
:10473000082E02C0440F551F0A94E2F7052E000C04
:10474000660B770BA42AB52AC62AD72A0196ECCF86
:10475000AE01405F5F4FBE016F5E7F4FC3010E949D
:10476000190C69896A21698B8889A822A88A6F1522
:1047700010F00C94502C69838091F7019091F8010E
:10478000AF1410F40C94312CDC01ED91FC910680F7
:10479000F781E02D09950F5F1F4F0C94472C6A8419
:1047A0007B846114710409F49ECB8C849D84E2E0C7
:1047B0008E16910408F497CB4090E9015090EA01DD
:1047C000A12CC12CE12C00E0272D462D63E3C10173
:1047D0000E945C110E942F02B40190E080E00E94D0
:1047E000A82D0E94BD3128E132E741E35FE30E943A
:1047F00024300E940D300E94D730362E70E090E0B9
:1048000080E00E94A82D20E030E040E05EE30E94BE
:10481000092E0E940D300E94D730262ED12CC12C9B
:1048200090E080E040E050E0BA01831590F401E0B0
:1048300010E0082E02C0000F111F0A94E2F7012EAB
:10484000000C220B330B402B512B622B732B019648
:10485000ECCF7A01B12CA12C10E02116A9F1AE0108
:104860004E5F5F4FBE016F5F7F4FC2010E94190C08
:1048700029818A8111110DC0422F50E05A8F498F32
:10488000A82FB0E0BC8FAB8F1F5F38E0A30EB11C28
:10489000E4CF30E00A2C02C0220F331F0A94E2F763
:1048A000E98DFA8DE22BF32BFA8FE98F90E00A2C39
:1048B00002C0880F991F0A94E2F72B8D3C8D282B9C
:1048C000392B3C8F2B8FE0CF698D7A8D6E217F2124
:1048D0004B8D5C8DE422F5226815790508F0F0C750
:1048E0008091F7019091F801E814F90408F4F1C7F8
:1048F0000E945313BFEFCB1ADB0A0C94752C0E9455
:104900005313B7018091F7019091F8010E9453135E
:1049100082E0C80ED11CE9C78A849B84811491046B
:1049200009F4E1CA6090E9017090EA01A12CC12C60
:10493000E12C00E0292D482D64E3C1010E945C11A7
:104940000E942F027401F694E79410E000E0E01654
:10495000F106E9F0BE016F5F7F4FC3010E94D70CE3
:1049600049815A816B817C818091F7019091F80196
:104970000E9473124D815E816F8178858091F7016D
:104980009091F8010E9473120F5F1F4FE0CF80FEDD
:1049900010C0BE016F5F7F4FC3010E94D70C4981D9
:1049A0005A816B817C818091F7019091F8010E947E
:1049B00073120E942B0297CA2A853B852115310567
:1049C00009F491CA9E85943008F08DCA0C851D8526
:1049D0000336A0E11A0708F086CAE091E901F091D8
:1049E000EA0181E0808333832283948316830583E5
:1049F0000115110511F4818376CA11820E943302D8
:104A0000C8010E94041490939900809398008091AB
:104A10009100886080939100809171008260809302
:104A2000710010929500109294005DCAE091E90126
:104A3000F091EA0110820E94330255CAE091E90127
:104A4000F091EA014081A12CC12CE12C00E020E092
:104A50006FE3C1010E945C1146CA8091FB019091F5
:104A6000FC010E94660F3FCA8091FB019091FC01FE
:104A70000E948F1238CA8090E7019090E801A12C23
:104A8000C12CE12C00E020E048E068E4C1010E9474
:104A90005C11F401678170858091F7019091F801B4
:104AA0000E945313D40119966D917C918091F70166
:104AB0009091F8010E945313F401648975898091E3
:104AC000F7019091F8010E945313D40156966D910D
:104AD0007C918091F7019091F8010E945313F401A9
:104AE0001086178212861186158A148A178A168AEA
:104AF000FAC94B856A858091F3019091F4010E9477
:104B0000B00AF1C96B857C856115710509F4EBC9A3
:104B10000091F3011091F4012A8530E0D801D0967C
:104B2000DC90C9018D19910909F4DDC9AC015395D7
:104B30007C01FA94DC0197FF04C0AA27BB27A81BBD
:104B4000B90BEE27FF27EE19FF09A417B5071CF0D4
:104B50004E175F07C4F1AE17BF0724F0E417F5073F
:104B60000CF4C70141E0F80146AFD7AEE05CFF4F5F
:104B70003183208332969183808390E080E00E948D
:104B8000A82D20E030E048E851E40E9424306B0179
:104B90007C0120E030E0A9010E946E3120E030E08D
:104BA00040E05FE387FD11C0C701B6010E94A12F5D
:104BB0000E94D030F801EC5BFF4F71836083329626
:104BC0001182108290C9CA01CDCFC701B6010E94DF
:104BD000A02FEECF8A85882309F485C96B857C8553
:104BE0006115710509F47FC90091F3011091F40179
:104BF000D801D0962C91D09790E0982F8827AC01BF
:104C0000420F511D009709F46EC931E0DE963C93C6
:104C1000DE97DF962C93F801E05CFF4F51834083D1
:104C200032969183808390E080E00E94A82D20E05E
:104C300030E048E851E40E9424306B017C0120E020
:104C400030E0A9010E946E3120E030E040E05FE3F7
:104C500087FD0FC0C701B6010E94A12F0E94D0306E
:104C6000F801EC5BFF4F71836083329611821082F2
:104C70003AC9C701B6010E94A02FF0CF8091F3017D
:104C80009091F401FC0124A921112DC96A850E948B
:104C9000290729C94B855C854115510509F423C9AC
:104CA0006A858091F3019091F4010E94E7061BC987
:104CB000E091F301F091F40114AA16AE14C9E09149
:104CC000F301F091F401A12CC12CE4A806AD21A9B7
:104CD00040A966E5C1010E945C1105C98A85882347
:104CE00039F0D10112961C92C4010E944F15FBC8E5
:104CF00081E0F1018283F7C8D40199960C919997CC
:104D00009A96EC909A9797964C91979798962C91A3
:104D1000A12C90E1C92E6BE5C1010E945C118401B8
:104D2000055D1F4F7401BBE3EB0EF11C6801F80138
:104D3000619171918F018091F7019091F8010E942A
:104D40005313E016F10699F7D40198961C921E921F
:104D500097979A961C921E929997F601119211922A
:104D6000EE16FF06D9F7BFC881E09A85911101C000
:104D700080E0F8018083B7C8EA858FEF8E0F853019
:104D800008F0B1C88B8581110BC0E150FF0BEE0F0D
:104D9000FF1FE352FE4F808191810E94A806A3C8A5
:104DA000813009F0A0C8E150FF0BEE0FFF1FE35266
:104DB000FE4F808191810E94C80695C8EA858FEFD9
:104DC0008E0F853008F08FC8E150FF0BEE0FFF1FEC
:104DD000E352FE4F0190F081E02DA181B0E090966A
:104DE0002C918381E281F0E040A130E0082E02C0E6
:104DF000359527950A94E2F7217050E002C0559549
:104E000047958A95E2F74170A12CC12CE12C00E076
:104E100065E6C1010E945C1166C8EA858FEF8E0FBE
:104E2000853008F060C8E150FF0BEE0FFF1FE35222
:104E3000FE4FA081B181EC91F0E013968C9121E0BE
:104E400030E002C0220F331F8A95E2F7C9012B859B
:104E500090A1222319F0892B80A345C8809589232E
:104E600080A341C8EA858FEF8E0F853008F03BC8DC
:104E70006B857C856115710509F435C8E150FF0B20
:104E8000EE0FFF1FE352FE4F808191810E947F064B
:104E90002AC88A85882371F08091DB019091DC011A
:104EA0000E94A80610926A001DBA80E380936A00EF
:104EB000EE9A19C810926A001DBA15C88A8588230F
:104EC00001F11B850E94B301112379F080917B00D1
:104ED000806480937B0080917C00846080937C0060
:104EE00080917B00806280937B0080B7886080BF68
:104EF0008BE99FE00197F1F780B7836080BF0C9446
:104F0000731F0E94B3010C94731F1A858091DB01FB
:104F10009091DC010E94C806112311F40C94731FB8
:104F2000F89480E48EB9812F90E00E943D021EB873
:104F300078940C94731F8A858823B1F18091D901EC
:104F40009091DA010E94A8060E94330284E08093C7
:104F500091008091900083608093900080919100F7
:104F600088618093910083E294EF909399008093FD
:104F700098008091910080688093910080919100C9
:104F8000806480939100C59A8091710080628093C3
:104F90007100809171008160809371001092950082
:104FA000109294000C94731F0E9433020C94731F90
:104FB0008A85882309F444C00B851C85C8010197A4
:104FC0008236904110F00C94731F68ECE62EF12CA1
:104FD0000132110588F059E1E52EF12C073041E04E
:104FE000140750F076E0E72EF12C093154E0150754
:104FF00018F042E0E42EF12C0E943302C8010E9416
:1050000004149093970080939600809190008260A2
:1050100080939000809191008861809391008091AD
:10502000900080688093900046983E9AF092990094
:10503000E092980010929500109294000C94731FC7
:105040000E9433020C94731F8A858823C1F1DB848C
:105050008FEF8D0D853010F00C94731FEC84FD8460
:10506000E114F10411F40C94731F0E851F850115D2
:10507000110511F40C94731F0E943302D092910019
:10508000809190008260809390008091910088616F
:105090008093910080919000806880939000469862
:1050A0003E9AF0929700E092960010939900009338
:1050B000980010929500109294000C94731F0E9417
:1050C00033020C94731F8A858823A1F08091D50147
:1050D0009091D6010E94A8061092680010926B0071
:1050E00081E08093680080916B00806880936B0002
:1050F0000C94731F1092680010926B000C94731F35
:105100008A85882309F449C0FC848FEF8F0D87308E
:1051100010F00C94731F0D85073010F00C94731F62
:105120001B850E94B30180917C001123A1F1806452
:1051300080937C00F0927A0080917C008460809360
:105140007C0080917B00806280937B0080917A005C
:10515000806880937A008BE99FE00197F1F7809156
:105160007A00806480937A0080917A0086FDFCCF7B
:10517000602F812F0E94BB01462F272FA12CC12C0D
:10518000E92E082F65E78091F7019091F8010E94C0
:105190005C110C94731F806CCBCF0E94B3010C94F4
:1051A000731F11820C94991FC501B4010E94A02F96
:1051B0000C94F81F14AA46A90C94FB1FC501B40156
:1051C0000E94A02F0C945E20DE961C92F801E05CF9
:1051D000FF4F4D2D60810C946120F10104AD15ADA0
:1051E00026AD37ADEE5BFF4F4081518170E060E04E
:1051F000041715072607370711F5E091F301F09121
:10520000F40120A9822F90E09D5F31E036AF27AFF7
:10521000DF01A05CBF4F11969C938E93129680E0A5
:1052200093E011969C938E9312968BEE90E08D9363
:105230009C93EA5BFF4F118210820C94A11EF10136
:1052400004AD15AD26AD37ADEC5BFF4F408151810C
:1052500070E060E0041715072607370729F448EEC9
:1052600053E060E00C949B20F10104AD15AD26AD38
:1052700037ADEA5BFF4F4081518170E060E0041779
:1052800015072607370729F4C1010E94340D0C9435
:10529000A11EF10104AD15AD26AD37ADE85BFF4FA2
:1052A0004081518170E060E0041715072607370739
:1052B00009F045C048EE53E0D10157966C910C942B
:1052C0009B20D101DC964D915D916D917C91DF9792
:1052D000F101EE5AFF4F80819181B0E0A0E0841788
:1052E0009507A607B70708F444C0F10104AD15AD52
:1052F00026AD37ADE45BFF4F4081518170E060E047
:10530000041715072607370709F4A9CFF10104ADE3
:1053100015AD26AD37ADE25BFF4F4081518170E0A6
:1053200060E0041715072607370709F4ADCFF10130
:1053300004AD15AD26AD37ADE05BFF4FB1CFF10148
:1053400044AD55AD66AD77ADEA5AFF4F841795076A
:10535000A607B70711F00C94A11E808191810197D7
:10536000B0E0A0E0F10184AF95AFA6AFB7AF0C9469
:10537000A11ED101DC966D917D918D919C91DF975D
:10538000F101EC5AFF4F2081318150E040E00E9452
:105390005D2F672B682B692B11F00C94A11EF10176
:1053A00044AD55AD66AD77AD0091F3011091F401B8
:1053B000E25AFF4F80819181A281B38184179507C2
:1053C000A607B70708F42AC2F10180819181A28162
:1053D000B3810196A11DB11D80839183A283B38304
:1053E000B12C7101FAE0EF0EF11C610129E0C20E4F
:1053F000D11CD10118962C911897B21638F5A70137
:10540000B6018091E9019091EA010E94190CF10125
:10541000818592858927818720E0882329F09FEF65
:10542000980F89232F5FF9CFF10187859089A18992
:10543000B2890497A109B109820F911DA11DB11D67
:105440008787908BA18BB28BB394D3CF16968D9117
:105450009C9133E0880F991F3A95E1F7289FB0019E
:10546000299F700D112490E080E0F101638774871B
:10547000858796870E94A82D6B017C0120E030E093
:1054800040E85EE30E94092E0E9463324B015C01FA
:10549000D1011F966D917D918D919C9152970E94A3
:1054A000A82D2B013C0120E030E040E05FE3C70184
:1054B000B6010E94092E9B01AC01C301B2010E94FA
:1054C000A02FA50194010E9424304B015C01F10141
:1054D000838A948AA58AB68AC3A0D4A0E5A0F6A040
:1054E00020E030E040E050E4C701B6010E946E3198
:1054F000181664F4A5019401C501B4010E94A12FFE
:10550000A70196010E9424304B015C0120E030E0AD
:10551000A901C501B4010E946E31181624F0B7FA32
:10552000B094B7F8B094A5019401C501B4010E94EC
:10553000092E2B013C017C016B01F7FAF094F7F87E
:10554000F09420E030E040E05FE3C701B6010E9444
:10555000092E0E949E306D8B7E8B8F8B988F2AE157
:1055600036EF45E15FE3C701B6010E94092E0E94B4
:105570009E306D8F7E8F8F8F98A3C701B6010E94DA
:105580009E3069A37AA38BA39CA320E030E040EE79
:1055900050E46D897E898F89988D0E94092E6B0158
:1055A0007C0120E030E040E851E46D8D7E8D8F8DF0
:1055B00098A10E94092E9B01AC01C701B6010E946F
:1055C000A12F6B017C012BED3FE049E45FE3C301B8
:1055D000B2010E94092E20E030E040EE50E40E942B
:1055E000A12F29A13AA14BA15CA10E94092E9B01E8
:1055F000AC01C701B6010E94A12F29E838E848E0B4
:105600005DE30E94092E9B01AC0160E070E080E840
:105610009FE30E94A02F0E94633220E030E040E030
:105620005FE30E94092E6B017C0120E030E0A901BC
:10563000C501B4010E94A32D87FF56C020E030E0D1
:1056400040E05FE3C701B6010E94A12F9B01AC01BE
:105650000E94A12F9B01AC0160E070E080E89FE315
:105660000E94A02F20E030E04FE753E40E94092E73
:105670006B017C0120E030E0A9010E946E3120E046
:1056800030E040E05FE387FD38C0C701B6010E940B
:10569000A12F0E94D030C62ED10192962C919297C4
:1056A00030E050E040E06D917D918D919C910E94A1
:1056B0005D2FF10120A131A1C901860F971FDC01E7
:1056C000CC9222A130A1E32FD1019196FC9160E010
:1056D00070E0CB014E2F431B4217A0F44191640FA1
:1056E000711D811D911DF6CFA701960160E070E04C
:1056F00080E09FE30E94A02FA9CFC701B6010E94BE
:10570000A02FC7CF30E050E040E00E945D2F2F3344
:1057100031054105510520F42FE330E040E050E031
:10572000F101278BD801D4968C91811104C0622F8E
:10573000C8010E942907F101EE59FF4F808188239B
:1057400029F1F10160817181828193812EE030E045
:1057500040E050E00E945D2F672B682B692BB1F46D
:10576000D10153964C91539754962C91549755963A
:105770000C9155975696EC9056975796AC906CE5D1
:105780008091F9019091FA010E945C11F101C388A6
:10579000D488E588F68820E030E0A901C701B60189
:1057A0000E946E31181624F0F7FAF094F7F8F0948E
:1057B000A7019601D10193966D917D918D919C9158
:1057C00096970E94A32D87FD02C00C94A11EF101A3
:1057D00087A190A5019690A787A381A592A5019680
:1057E00092A781A7E091F301F091F40180A9A9E6C5
:1057F000B1E0E0E09D91981719F0EF5FE830D1F744
:10580000F0E0EE0FFF1FE20DF31D83A594A50196B6
:1058100094A783A7F101EE5BFF4F9FCDD10197962F
:105820008D919C919897019698969C938E939797BB
:10583000F80180A9A9E6B1E0E0E09D91981719F080
:10584000EF5FE830D1F7F0E0EE0FFF1FE20DF31D40
:1058500083A594A5019694A783A7F101E45BFF4F6C
:105860007CCDAA82DC01ED91FC919401201B310BCF
:105870002130310511F40C94C7230084F185E02D0B
:1058800042E0BE016F5F7F4F09950E5F1F4F081505
:10589000190510F40C948F230E942B020C94731F93
:1058A000AF14A8F7AA828091F7019091F801DC016A
:1058B000ED91FC910680F781E02D6A2D0C94CA23AE
:1058C000E814F90490F4B7018091F7019091F80180
:1058D0000FC893012C193D092130310509F00FC87B
:1058E0000E9453135FEFC51AD50AC614D70410F4EB
:1058F0000C9410240E942B020C94731F0F931F937F
:10590000CF93DF938230910510F482E090E0E09134
:105910001203F091130330E020E0B0E0A0E03097F4
:1059200099F42115310509F44AC0281B390B24309C
:105930003105D8F58A819B816115710589F1FB01DB
:1059400093838283FE0111C04081518102811381C2
:1059500048175907E0F04817590799F4109761F074
:1059600012960C93129713961C933296CF01DF91E7
:10597000CF911F910F910895009312031093130379
:10598000F4CF2115310551F04217530738F0A90122
:10599000DB019A01BD01DF01F801C1CFEF01F9CFB1
:1059A0009093130380931203CDCFFE01E20FF31FF8
:1059B000819391932250310939832883D7CF209145
:1059C000100330911103232B41F4209122013091D7
:1059D0002301309311032093100320912001309173
:1059E00021012115310541F42DB73EB74091240125
:1059F00050912501241B350BE0911003F091110308
:105A0000E217F307A0F42E1B3F0B2817390778F095
:105A1000AC014E5F5F4F2417350748F04E0F5F1FF4
:105A20005093110340931003819391939FCFF0E023
:105A3000E0E09CCFCF93DF930097E9F0FC01329731
:105A400013821282A0911203B0911303ED0130E092
:105A500020E01097A1F420813181820F931F2091C3
:105A60001003309111032817390709F061C0F09332
:105A70001103E0931003DF91CF910895EA01CE174F
:105A8000DF07E8F54A815B819E0141155105B1F7B9
:105A9000E901FB83EA8349915991C40FD51FEC17A3
:105AA000FD0761F4808191810296840F951FE901C1
:105AB00099838883828193819B838A83F0E0E0E0ED
:105AC00012968D919C9113970097B9F52D913C9169
:105AD0001197CD010296820F931F209110033091F0
