:100000000C94D1000C94F9000C94F9000C94F900B4
:100010000C94F9000C94F9000C94F9000C94D91686
:100020000C94F9000C9403170C943C180C94A5182C
:100030000C94D2170C94F9000C94F9000C94F9006C
:100040000C94F9000C94F9000C94F9000C94F9004C
:100050000C94F9000C94F9000C94F9000C943716E8
:100060000C94F9000C94A7160C9481160C94F900CA
:100070000C9427170C94F9000C94F9000C94661753
:100080000C9426180C94F9000C94F9000C944B175E
:100090000C94F9000C94F9000C94F9000C94F900FC
:1000A0000C94F9000C94F9000C94F90007634236A3
:1000B000B79BD8A71A39685618AEBAAB558C1D3CF9
:1000C000B7CC5763BD6DEDFD753EF6177231BF00BD
:1000D0000000803F08000000BE922449123EABAAF7
:1000E000AA2ABECDCCCC4C3E00000080BEABAAAA52
:1000F000AA3E00000000BF000000803F000000009A
:1001000000084178D3BB4387D1133D190E3CC3BDD2
:100110004282AD2B3E68EC8276BED98FE1A93E4C7F
:1001200080EFFFBE01C4FF7F3F0000000000080B0E
:1001300000020202000009040000010202000005A2
:1001400024001001052401010104240206052406EF
:1001500000010705810310004009040100020A00A4
:10016000000007050202400000070583024000006E
:100170000403090412010002EF020140091284483D
:100180000001010203014761627269656C204775D5
:100190006572726572005241564120524E4700000E
:1001A000211B11241FBECFEFDAE0DEBFCDBF11E06F
:1001B000A0E0B1E0E8E6F5E602C005900D92AA39AC
:1001C000B107D9F723E0AAE9B1E001C01D92A4313B
:1001D000B207E1F710E0C1EDD0E004C02197FE01C5
:1001E0000E94822FC03DD107C9F70E946C1B0C945E
:1001F000B2320C940000FB01DC016C9112967C91F0
:10020000962F990F990F990F35E5292F239F020EED
:1002100020E0211D1124822F562F5074462F40724A
:1002200067FD40C051112CC0411105C0922F90951F
:10023000892F90E004C025E5280F90E08BEA7F3FEE
:10024000D9F030E0772321F0779F312D09F03F5F1F
:10025000332309F448C0482F439F040E40E0411D5A
:10026000842F239F020E20E0211D492F439F040E5F
:1002700040E0411D942F11248083218392830895AF
:1002800041110BC0392F2AEA329F030E30E0311D95
:1002900011249BEA931B280FCBCF90E02095982F39
:1002A00080E0CDCF511112C041110CC0392F2AEA84
:1002B000329F030E30E0311D11242BEA231B95E5FC
:1002C000930FEECF922F909520E0B9CF411106C049
:1002D00025E5280F9BEA981B822FF6CF2AEA280FE4
:1002E00090E0932FF8CF90E020E080E0C5CF909190
:1002F0000502911103C08FEF9FEF08954FB7F89457
:1003000092E09093E9009091F200292F30E01216CC
:10031000130614F421E030E0232B29F084E68093C7
:1003200004028091F100992339F02091F20021110B
:1003300003C02BE62093E8004FBF9923E1F290E041
:1003400008952FB7F89483E08093E9009091E80036
:10035000892F807295FF04C09091F20080E4891B80
:100360002FBF089510927C0010927A0010927B00AB
:1003700010BE0895CF92DF92EF92FF92CF93DF935A
:10038000F62EC62FD0E09E01220F331FA1E0B0E071
:1003900002C0AA0FBB1F2A95E2F730E020E040E040
:1003A00050E0BA01A217B307B1F090917A009064BF
:1003B00090937A0090917A0096FDFCCF909178000E
:1003C000E0917900FE2FE92F4E0F5F1F611D711D17
:1003D0002F5F3F4FE7CF04C07695679557954795B8
:1003E000FA94D2F79AE0C92E97EDD92E93E2E92E2E
:1003F00090E4F92E882341F088E4C82E81EED82EAF
:100400008AE9E82E80E4F82EBA0190E080E00E94AC
:10041000AB2DA70196010E940C2E6B017C012A9640
:1004200061E070E080E090E004C0660F771F881FF5
:10043000991FCA95D2F70E94AB2D9B01AC01C70151
:10044000B6010E942730DF91CF91FF90EF90DF90AF
:10045000CF900895789483E085BD0895F89487E05F
:1004600085BD089510929000109291001092920014
:10047000109271003E9808958230910538F0880FEF
:10048000991F880F991F05970197F1F708953FB7B6
:10049000F8948091FE019091FF01A0910002B0912B
:1004A000010226B5A89B05C02F3F19F00196A11D9A
:1004B000B11D3FBFBA2FA92F982F8827BC01CD01AE
:1004C000620F711D811D911D42E0660F771F881F0D
:1004D000991F4A95D1F708953F924F925F926F927C
:1004E0007F928F929F92AF92BF92CF92DF92EF92C4
:1004F000FF920F931F93CF93DF9300D01F92CDB73E
:10050000DEB75C01D62E8091060390910703A0917F
:100510000803B0910903892B8A2B8B2BD9F00E94F9
:10052000470200911202109113022091140230919F
:100530001502601B710B820B930B00910603109147
:1005400007032091080330910903601771078207A0
:100550009307C8F20E94470260931202709313023D
:100560008093140290931502E0910E03F0910F0313
:10057000309759F040910A0350910B0360910C039E
:1005800070910D038D2D0995D82EE0901002F090FA
:1005900011024D2C512C712C612CE114F10409F441
:1005A0005BC0D7011C96CC901C978091040390915E
:1005B00005038436910510F41C961C92D701ED9129
:1005C000FC918080918019821A821B82DD2091F13A
:1005D00087010A5F1F4FF0E0E0E0D8012D918D0107
:1005E000222321F112963C90332001F130E050E0BB
:1005F00040E02F5F3F4F4F4F5F4FC301B2010E945A
:100600003C2F9B01AC01832D90E0B0E0A0E0BC0149
:10061000CD016F5F7F4F8F4F9F4F0E943C2FA1E016
:10062000B0E0AC0FBD1FAE0FBF1F8C933196E3300F
:10063000F10599F609811A812B81F70145855685C7
:10064000B501C701F4010995D7011C96CC921C97FE
:100650001496ED90FC90A1CF80910E0290910F0224
:100660009C012F5F3F4F30930F0220930E0249975A
:100670000CF44AC08FB7F89420910602309107021B
:1006800040910802509109028FBF80910A02909117
:100690000B02A0910C02B0910D02281B390B4A0BE2
:1006A0005B0B21F421E030E040E050E0E0910E02ED
:1006B000F0910F0288EE93E0E89FB001E99F700D82
:1006C000F89F700D1124072E000C880B990B0E94C7
:1006D000602F309305032093040310920F021092B1
:1006E0000E022FB7F8948091060290910702A09114
:1006F0000802B09109022FBF80930A0290930B0267
:10070000A0930C02B0930D020F900F900F90DF9109
:10071000CF911F910F91FF90EF90DF90CF90BF90FE
:10072000AF909F908F907F906F905F904F903F9091
:100730000895CF92DF92EF92FF920E9447026B01E1
:100740007C010E9447026C197D098E099F09683E51
:10075000734081059105A8F3FF90EF90DF90CF9053
:10076000089580E991E00895AF92BF92CF92DF9211
:10077000EF92FF920F931F93CF93DF936C017B0156
:100780008B01040F151FEB015E01AE18BF08C017E7
:10079000D10759F06991D601ED91FC910190F0815A
:1007A000E02DC6010995892B79F7C501DF91CF911D
:1007B0001F910F91FF90EF90DF90CF90BF90AF907F
:1007C0000895FC01538D448D252F30E0842F90E057
:1007D000821B930B541710F0CF960895019708953C
:1007E000FC01918D828D981761F0A28DAE0FBF2F05
:1007F000B11D5D968C91928D9F5F9F73928F90E05B
:1008000008958FEF9FEF0895FC01918D828D9817C9
:1008100031F0828DE80FF11D858D90E008958FEF06
:100820009FEF0895FC01918D228D892F90E0805CCF
:100830009F4F821B91098F739927089586E192E05B
:100840000E94120421E0892B09F420E0822F0895F0
:1008500080E090E0892B29F00E941E0481110C9405
:1008600000000895FC01A48DA80FB92FB11DA35A53
:10087000BF4F2C91848D90E001968F739927848FC0
:10088000A689B7892C93A089B1898C9182748C93A5
:10089000938D848D981306C00288F389E02D8081A2
:1008A0008F7D80830895EF92FF920F931F93CF93D4
:1008B000DF93EC0181E0888F9B8D8C8D981319C09C
:1008C000E889F989808185FF14C09FB7F894EE8983
:1008D000FF896083E889F9898081827480839FBF62
:1008E00081E090E0DF91CF911F910F91FF90EF9009
:1008F0000895F62E0B8D10E00F5F1F4F0F73112719
:10090000E02E8C8D8E110CC00FB607FCFACFE88953
:10091000F989808185FFF5CFCE010E943204F1CFA5
:10092000EB8DEC0FFD2FF11DE35AFF4FF0829FB7C7
:10093000F8940B8FEA89FB8980818062CFCFCF93B7
:10094000DF93EC01888D8823B9F0AA89BB89E889F7
:10095000F9898C9185FD03C0808186FD0DC00FB69D
:1009600007FCF7CF8C9185FFF2CF808185FFEDCF1B
:10097000CE010E943204E9CFDF91CF9108958F928A
:100980009F92AF92BF92CF92DF92EF92FF920F931E
:100990001F93CF93DF936C017B018A0180910B0140
:1009A000882309F457C080910502882309F452C0B6
:1009B0008091AE0180FF05C08091E000826080934D
:1009C000E000E801B12C8AEFA82E93E0892E2AE3FB
:1009D000922E209711F4BB20B9F10E94A101811140
:1009E00006C0AA94AA20B1F10E949903F2CF8C17F5
:1009F0001D0611F00CF08C2F9FB7F8948092E9003F
:100A00002091E80025FD02C09FBFE3CF282F30E0F2
:100A1000C21BD30BF701815020F041914093F100AC
:100A2000FACFE20EF31EBB2021F09092E800B12C29
:100A3000EBCF8091E80085FDE7CF9092E800BB24E2
:100A4000B394209709F3F3CF84E68093AD01101699
:100A500011063CF081E090E0F6019383828310E080
:100A600000E0C801DF91CF911F910F91FF90EF90AF
:100A7000DF90CF90BF90AF909F908F900895CF93CD
:100A8000DF931F92CDB7DEB76983DC01ED91FC9156
:100A90000280F381E02D41E050E0BE016F5F7F4FA7
:100AA00009950F90DF91CF91089583E08093E9003D
:100AB0008091F200882319F08AE38093E80008957A
:100AC0000E94A10190E00895FC018485958597FD21
:100AD00005C02FEF3FEF3587248708950C947701E9
:100AE000CF93DF93EC018C859D8597FF04C00E9416
:100AF00077019D878C878C859D85DF91CF910895A7
:100B0000FC018485958597FD0BC09FB7F89482E022
:100B10008093E9008091F2009FBF90E001960895D4
:100B20009FB7F89482E08093E9008091F2009FBF24
:100B300090E008958A3010F4805D0895895A0895F0
:100B40000F931F93CF93DF93EC01EEE0F0E000E012
:100B500011E210935700849108273196E431F10592
:100B6000C1F7802F82958F700E949A058883802F0D
:100B70008F700E949A058983E5E1F0E01093570099
:100B80000491802F82958F700E949A058A83802F0E
:100B90008F700E949A058B83E6E1F0E01093570076
:100BA0000491802F82958F700E949A058C83802FEC
:100BB0008F700E949A058D83E7E1F0E01093570053
:100BC0001491812F82958F700E949A058E83812FB8
:100BD0008F700E949A058F83DF91CF911F910F91A3
:100BE0000895AF92BF92CF92DF92EF92FF920F9350
:100BF0001F93CF93DF9300D01F92CDB7DEB75C0178
:100C00008B016A017901F90180818530A9F481E0C5
:100C10008B839E012D5F3F4FAE014E5F5F4FBE0144
:100C20006F5F7F4FC5010E94F10599818A819817F6
:100C300009F183E0F7018083F70180818230E1F4DC
:100C400010928400F501878990E00E943C02809117
:100C500084008170F80180830F900F900F90DF91D6
:100C6000CF911F910F91FF90EF90DF90CF90BF90A9
:100C7000AF90089582E0DECF833041F416BCF501D9
:100C8000878990E00E943C0286B5E3CF10928400F1
:100C900016BCF501878990E00E943C029091840087
:100CA000998386B59170F80190838170F6018083F5
:100CB000F7019081943081F6F80190818927CBCF9C
:100CC000EF92FF920F931F93CF93DF937B018A01E3
:100CD000C4E8D0E0188216BCFC01878990E00E942D
:100CE0003C028881F701808386B5F8018083DF911B
:100CF000CF911F910F91FF90EF9008950F931F9345
:100D0000CF93DF938C01DC01EC91F0E090A113967E
:100D10008C91C1E0D0E09E0101C0220F8A95EAF7D4
:100D2000922B90A3CB010E943C02D801EC91F0E001
:100D300080A113969C9101C0CC0F9A95EAF7C095BB
:100D4000C823C0A3DF91CF911F910F910895DC01BB
:100D5000EC91F0E080A113969C91139721E030E094
:100D6000A90101C0440F9A95EAF74095482340A392
:100D70001196EC911197F0E080A113969C9101C01F
:100D8000220F9A95EAF72095282320A30895DC01E5
:100D9000EC91F0E080A113969C91139741E050E014
:100DA0009A0101C0220F9A95EAF72095282320A3E3
:100DB0001196EC911197F0E080A113969C9101C0DF
:100DC000440F9A95EAF7482B40A30895CF92DF92FB
:100DD000EF92FF92CF93DF93EC0199A970E09B0112
:100DE000291B310949F181E08CAB9DAB7FAB6EAB28
:100DF00039AF28AFBA0190E080E00E94AB2D20E02F
:100E000030E048E851E40E9427306B017C0120E08B
:100E100030E0A9010E94713120E030E040E05FE362
:100E200087FD11C0C701B6010E94A42F0E94D330D4
:100E30007BAF6AAF1DAE1CAEDF91CF91FF90EF90FC
:100E4000DF90CF900895C701B6010E94A32FEECF87
:100E5000FF920F931F93CF93DF9300D000D000D069
:100E6000CDB7DEB78C01F62EFC0120A982A988231C
:100E700079F180E0662369F0862F90E001969595E0
:100E800087958158382F339F030E30E0311D112490
:100E9000832F2C839FEF9D838E83BE016F5F7F4FD7
:100EA000CE0104960E94FB0060910303CE010196DF
:100EB0000E946C02F801F1AA26960FB6F894DEBFE4
:100EC0000FBECDBFDF91CF911F910F91FF9008957D
:100ED0002C838FEF8D836E83E0CF0F931F93CF937F
:100EE000DF932091AC012F5F322F37703093AC012C
:100EF00020FF2BC020E831FD2064347009F020620F
:100F0000205FFC01EC01239600E011E0648566237C
:100F100029F070E0C8010E944C2F6F5F6187322F6B
:100F2000369F030E30E0311D1124311110C016829E
:100F3000662311F0615061873196EC17FD0731F798
:100F4000DF91CF911F910F91089520E0D4CF3150C0
:100F50003683EECF4F925F927F928F929F92AF92A5
:100F6000BF92CF92DF92EF92FF920F931F93CF9396
:100F7000DF932C01EB010E944702F20127853089A3
:100F8000621B730B6A307105B0F3F8948A819B8100
:100F9000181619060CF0CDC1E881F9816BB1862EC7
:100FA000689485F83BB13F7D3BB9DA848F812D2D64
:100FB000281B822F2F834F85042E000C550BAA81EE
:100FC000BB817D85FC84EE847F5FF394E3949E81F6
:100FD0009884B984AB841181C12C6C2D0C2D2C2DDF
:100FE0002181112788942111280F08F42FEF819572
:100FF000889470FD120F1795889471FD120F179544
:10100000889472FD120F1795889473FD120F17952F
:10101000889474FD120F1795889475FD120F17951B
:10102000889476FD120F1795889477FD120F179507
:101030008894622F7111612F8D0D162F002C8BB8A3
:1010400000C017FF3BB920816627889400C000C00C
:10105000002C3BB92111290F00C0002C8BB800C017
:1010600016FF3BB908F42FEF9195889400C000C09B
:10107000002C3BB9F0FC620F00C0002C8BB800C004
:1010800015FF3BB967958894F1FC620F00C000C062
:10109000002C3BB96795889400C0002C8BB800C029
:1010A00014FF3BB9F2FC620F6795889400C000C042
:1010B000002C3BB9F3FC620F00C0002C8BB800C0C1
:1010C00013FF3BB967958894F4FC620F00C000C021
:1010D000002C3BB96795889400C0002C8BB800C0E9
:1010E00012FF3BB9F5FC620F6795889400C000C001
:1010F000002C3BB9F6FC620F00C0002C8BB800C07E
:1011000011FF3BB967958894F7FC620F00C000C0DF
:10111000002C3BB96795889400C0002C8BB800C0A8
:1011200010FF3BB9122FF110162F9B0D00C000C00D
:10113000002C3BB900C000C0002C8BB800C017FFCA
:101140003BB922816627889400C000C0002C3BB9BF
:101150002111290D00C0002C8BB800C016FF3BB92F
:1011600008F42FEFE40FF51F00C000C0002C3BB9BE
:10117000E0FC620F00C0002C8BB800C015FF3BB92B
:1011800067958894E1FC620F00C000C0002C3BB959
:101190006795889400C0002C8BB800C014FF3BB941
:1011A000E2FC620F6795889400C000C0002C3BB938
:1011B000E3FC620F00C0002C8BB800C013FF3BB9EA
:1011C00067958894E4FC620F00C000C0002C3BB916
:1011D0006795889400C0002C8BB800C012FF3BB903
:1011E000E5FC620F6795889400C000C0002C3BB9F5
:1011F000E6FC620F00C0002C8BB800C011FF3BB9A9
:1012000067958894E7FC620F00C000C0002C3BB9D2
:101210006795889400C0002C8BB800C010FF3BB9C4
:10122000122FE110162F919400C000C0002C3BB982
:101230009A0C00C000C08BB800C017FF3BB92181D9
:101240006627889400C000C0002C3BB92111280FEC
:1012500000C0002C8BB800C016FF3BB908F42FEF7C
:101260008195889400C000C0002C3BB970FD620FCE
:1012700000C0002C8BB800C015FF3BB9679588945F
:1012800071FD620F00C000C0002C3BB967958894C7
:1012900000C0002C8BB800C014FF3BB972FD620F78
:1012A0006795889400C000C0002C3BB973FD620FA5
:1012B00000C0002C8BB800C013FF3BB96795889421
:1012C00074FD620F00C000C0002C3BB96795889484
:1012D00000C0002C8BB800C012FF3BB975FD620F37
:1012E0006795889400C000C0002C3BB976FD620F62
:1012F00000C0002C8BB800C011FF3BB967958894E3
:1013000077FD620F00C000C0002C3BB96795889440
:1013100000C0002C8BB800C010FF3BB9122F711118
:10132000162F8D0D00C000C0002C3BB9119709F09D
:1013300086CE4A815B8120EE31E0DA010E94882F5F
:10134000DC01CB01F4E0B695A79597958795FA95C2
:10135000D1F730E020E0B901EAE94E9F040E611DAB
:101360005E9F600D711D1124650F711D860F971F03
:10137000A11DB11D893E43E09407A105B10508F404
:1013800034C0885E9340A109B10942E0B695A795A3
:10139000979587954A95D1F747E0849F080E211DC0
:1013A000949F200D311D1124290F311D6091AB0137
:1013B00070E0860F971F820F931F40910602509195
:1013C00007026091080270910902292F3327420F0A
:1013D000531F611D711D40930602509307026093D5
:1013E0000802709309028093AB0178940E9447022F
:1013F000F201708B6787DF91CF911F910F91FF9062
:10140000EF90DF90CF90BF90AF909F908F907F90A4
:101410005F904F90089581E090E00895559A089567
:101420006F927F928F92CF92DF92EF92FF920F9303
:101430001F93CF93DF93CDB7DEB762970FB6F894C3
:10144000DEBF0FBECDBF6C017A013801822EDC01F8
:101450001C962C91CA0157FF04C088279927841B2A
:10146000950B7A8369839C838B839E838D836D86A2
:101470007E868F86213049F5CE0101960E946D0748
:1014800083E0888B1A8A198AF7FE02C08DEF888B59
:10149000D601ED91FC910684F785E02DBE016F5FCA
:1014A0007F4FC601099562960FB6F894DEBF0FBE56
:1014B000CDBFDF91CF911F910F91FF90EF90DF9003
:1014C000CF908F907F906F9008951C861B861A8610
:1014D000198618861F82D4CFEF92FF920F931F9325
:1014E000CF93DF93CDB7DEB762970FB6F894DEBF28
:1014F0000FBECDBF7C01DC011C968C917A83698381
:101500005C834B835E834D830D871E872F878130DD
:10151000F9F4CE0101960E946D07188A1A8A198A79
:10152000D701ED91FC910684F785E02DBE016F5F38
:101530007F4FC701099562960FB6F894DEBF0FBEC4
:10154000CDBFDF91CF911F910F91FF90EF90089544
:101550001C861B861A86198618861F82DECFEF929C
:10156000FF920F931F93CF93DF9300D000D000D052
:10157000CDB7DEB78C01E62EF42EFC0182A98823BC
:1015800089F180E0442369F0842F90E001969595DD
:1015900087958158282F229F020E20E0211D1124BB
:1015A000822FE9829FEF9A838B83BE016C5F7F4F0E
:1015B000CE0101960E94FB0060910303CE010496C8
:1015C0000E946C02F801E0AAF1AA26960FB6F894E0
:1015D000DEBF0FBECDBFDF91CF911F910F91FF9066
:1015E000EF90089569838FEF8A834B83DECF0F934B
:1015F0001F93CF93DF9300D01F92CDB7DEB7AB011F
:1016000019821A821B82DC01ED91FC910190F0811C
:10161000E02D00E010E020E0BE016F5F7F4F0995F4
:101620000F900F900F90DF91CF911F910F91089520
:10163000FC018485958520810097A1F4228B81E0AF
:10164000808B81E090E095878487868597852181CE
:101650000097F9F4238B81E0818B81E090E09787FC
:1016600086870895328932130CC020892F5F208B22
:101670003385231306C0248935892F5F3F4F358B6F
:10168000248B0196811522E09207E9F615861486CF
:10169000DCCF338932130CC021892F5F218B338536
:1016A000231306C0268937892F5F3F4F378B268B40
:1016B0000196811522E0920791F617861686089505
:1016C000FC018081928189131BC085818F5F858396
:1016D0009481891728F08781908501969087878368
:1016E00081819381891310C086818F5F8683948165
:1016F000891768F081859285019692878187089580
:10170000828381E08583ECCF838381E086830895A3
:101710003F924F925F926F927F928F929F92AF9281
:10172000BF92CF92DF92EF92FF920F931F93CF93CE
:10173000DF9300D000D0CDB7DEB74C016B017A014A
:10174000FB011082FA0110820DE211E088E0582EB0
:10175000412C312C332011F041102BC0AE014E5FD3
:101760005F4FBE016F5F7F4FC4010E946006AE01F4
:101770004C5F5F4FBE016D5F7F4FC4010E946006EA
:1017800031100AC089818170A82E8B818170782EDA
:10179000A81611F0332433944110DCCF8A81817074
:1017A000B82E8C818170682EB816A1F2442443941F
:1017B000D1CF7A1438F4F6018081F8019081892B19
:1017C000F60180836B1438F4F7018081F801908171
:1017D000892BF70180835A940F5F1F4F5110B8CFA8
:1017E0000091E7011091E801F6018081F801808302
:1017F000F7018081F8018183C8010E94600BC80154
:101800000E94180B0F900F900F900F90DF91CF91C7
:101810001F910F91FF90EF90DF90CF90BF90AF900E
:101820009F908F907F906F905F904F903F90089522
:10183000AF92BF92DF92EF92FF920F931F93CF93DD
:10184000DF935C017B018A01FB011082FA011082A7
:10185000CDE2D1E088E0D82E1092840016BCF501CC
:10186000878990E00E943C028091840096B580FFB9
:1018700005C0F70180812881822B808390FF05C0FD
:10188000F80180819881892B8083DA942196D11088
:10189000E3CFC091E701D091E801F701808188830F
:1018A000F80180818983CE010E94600BCE01DF9117
:1018B000CF911F910F91FF90EF90DF90BF90AF906D
:1018C0000C94180BCF92DF92EF92FF920F931F931D
:1018D000CF93DF9300D000D0CDB7DEB78C016B0182
:1018E0007A01AE014E5F5F4FBE016F5F7F4F0E9476
:1018F000180CAE014C5F5F4FBE016D5F7F4FC8019A
:101900000E94180C89819B818927F60180838A8136
:101910009C818927F70180830F900F900F900F9083
:10192000DF91CF911F910F91FF90EF90DF90CF90BB
:101930000895CF92DF92EF92FF920F931F93CF9370
:10194000DF9300D000D0CDB7DEB76C017B018A01F8
:10195000AE014E5F5F4FBE016F5F7F4F0E94180C5C
:10196000AE014C5F5F4FBE016D5F7F4FC6010E94AD
:10197000180C99818B818927990F911D8927F7016F
:1019800080839A818C818927990F911D8927F8017D
:1019900080830F900F900F900F90DF91CF911F9148
:1019A0000F91FF90EF90DF90CF900895EF92FF920C
:1019B0000F931F93CF93DF93CDB7DEB728970FB662
:1019C000F894DEBF0FBECDBF7C018B01AE014A5F34
:1019D0005F4FBE016E5F7F4F0E94180CAE01495FE2
:1019E0005F4FBE016D5F7F4FC7010E94180CAE01B3
:1019F000485F5F4FBE016C5F7F4FC7010E94180CAC
:101A000069817A818B819C818F77992780689F6318
:101A100020E030E040E85FE30E94A32FF8016083FC
:101A20007183828393836D817E818F8198858F7787
:101A3000992780689F6320E030E040E85FE30E94E0
:101A4000A32FF801648375838683978328960FB646
:101A5000F894DEBF0FBECDBFDF91CF911F910F91E4
:101A6000FF90EF900895CF93DF9300D0CDB7DEB70E
:101A7000FC0110821182128213822681378183E059
:101A8000220F331F8A95E1F74085429FC001439F93
:101A9000900D112496958795B0E0A0E08787908BF4
:101AA000A18BB28B92A180A1A82FB1A12A2F281BB4
:101AB000291710F41D92FACF178AAE014E5F5F4FBF
:101AC000BE016F5F7F4F8091E9019091EA010E9412
:101AD000180CE9818A81E827E770F0E0E759FE4FAA
:101AE00040E060818091F3019091F4010E94AF0A7F
:101AF0000F900F90DF91CF9108952F923F924F92C8
:101B00005F926F927F928F929F92AF92BF92CF928D
:101B1000DF92EF92FF920F931F93CF93DF93CDB796
:101B2000DEB7CA50D2400FB6F894DEBF0FBECDBFAD
:101B30008C0180E091E09E012F5F3F4FCD5FDD4F34
:101B400039832883C350D240D901FC011D923197BB
:101B5000E9F71E01F1E02F0E3F1ED101FC011D929D
:101B60003197E9F72091E9013091EA01CB5FDD4F30
:101B700039832883C550D2400E942E02412C512C1B
:101B80003201C12CD12C7601812C912C5401F80109
:101B900080819181A281B381481659066A067B062D
:101BA00008F047C0AE014E5F5D4FBE016F5F7D4FD5
:101BB000CB5FDD4F88819981C550D2400E94180CBF
:101BC000CF5FDD4FA881C150D2408A2F90E088239B
:101BD00029F02FEF280F82239F5FF9CF890E911CE8
:101BE000A11CB11CCE5FDD4FE881C250D2409E2FB8
:101BF000992329F02FEF290F92238F5FF9CFC80E79
:101C0000D11CE11CF11C21E030E02C0F3D1F2A0FFC
:101C1000311DD9018C918F5F8C93E20DF32DF11D55
:101C200080818F5F80833FEF431A530A630A730AF0
:101C3000AECF0E942A02D8018D919D910D90BC914A
:101C4000A02DCB5FDD4F88839983AA83BB83C550CA
:101C5000D240BC01CD0123E0660F771F881F991F7A
:101C60002A95D1F70E94AB2D2B013C01C501B4018F
:101C70000E94AB2DA30192010E94273020E030E0AA
:101C800040E05FE30E94A32F20E030E048EC52E404
:101C90000E940C2E4B015C01F80184869586A68675
:101CA000B786C701B6010E94AB2DA30192010E9425
:101CB000273020E030E040E05FE30E94A32F20E0E7
:101CC00030E048EC52E40E940C2E6B017C01D801FC
:101CD0005096CD92DD92ED92FC92539720E030E049
:101CE000A901C501B4010E947131181624F0B7FA98
:101CF000B094B7F8B094F80144805580668077803E
:101D0000A5019401C301B2010E94713187FD19C080
:101D100020E030E0A901C701B6010E947131181618
:101D200024F0F7FAF094F7F8F094A7019601C301B4
:101D3000B2010E94713187FD04C081E0D801549640
:101D40008C93CB5FDD4F688179818A819B81C550FF
:101D5000D2400E94AB2D20E030E040E85BE30E94DF
:101D60000C2E2B013C01FE013196CB5FDD4FF98338
:101D7000E883C550D240C75FDD4F39822882C95001
:101D8000D240C12CD12C760146015701CB5FDD4FEB
:101D9000A881B981C550D2406D91CB5FDD4FB98329
:101DA000A883C550D24070E090E080E00E94AB2D47
:101DB000A30192010E94A32F9B01AC010E940C2E53
:101DC000A30192010E9427309B01AC01C501B4011F
:101DD0000E94A42F4B015C01C75FDD4FE881F981B0
:101DE000C950D2406191C75FDD4FF983E883C95084
:101DF000D24070E090E080E00E94AB2DA301920100
:101E00000E94A32F9B01AC010E940C2EA301920102
:101E10000E9427309B01AC01C701B6010E94A42F8C
:101E20006B017C01CB5FDD4F28813981C550D240E9
:101E30002216330609F0AACFD80155968D929D92AD
:101E4000AD92BC925897F801C18ED28EE38EF48E7B
:101E50004084518462847384A3019201C501B4015A
:101E60000E94A62D87FF2EC0A3019201C701B601D3
:101E70000E94A62D87FF26C081E0D8015D968C9335
:101E8000D80154968C915497882311F05D968C91CB
:101E9000C65FDD4F0FB6F894DEBF0FBECDBFDF913A
:101EA000CF911F910F91FF90EF90DF90CF90BF9057
:101EB000AF909F908F907F906F905F904F903F90EA
:101EC0002F900895F801158EDBCF2F923F924F92FD
:101ED0005F926F927F928F929F92AF92BF92CF92BA
:101EE000DF92EF92FF920F931F93CF93DF93CDB7C3
:101EF000DEB72F970FB6F894DEBF0FBECDBF8C01B3
:101F00008091F3019091F401009721F04FE760EC8C
:101F10000E94AF0A2090E9013090EA010E942E024F
:101F2000812C912C54011F82188619861A861B82D7
:101F30001C821D821E82C12CD12C7601412C512C79
:101F40003201F801868D978DA0A1B1A1881699065E
:101F5000AA06BB0608F054C0AE014F5F5F4FBE013A
:101F60006E5F7F4FC1010E9460062A81420E511CA4
:101F7000611C711C3981C30ED11CE11CF11C811440
:101F80009104A104B104A1F1422F6B85461B550BAE
:101F9000CA0157FF03C0919581959109092E000C44
:101FA000AA0BBB0B4B815C816D817E81480F591F51
:101FB0006A1F7B1F4B835C836D837E83632FAF859A
:101FC0006A1B770BCB0177FF03C09195819591092F
:101FD000092E000CAA0BBB0B4F81588569857A85A9
:101FE000480F591F6A1F7B1F4F83588769877A875D
:101FF0005FEF851A950AA50AB50A3F872B87A1CFFF
:102000000E942A02D8015E966D917D918D919C91DE
:1020100091976B877C878D879E870E94AB2D4B01A4
:102020005C01C301B2010E94AB2DA50194010E9485
:1020300027302B013C01F80142A653A664A675A6E1
:10204000C701B6010E94AB2DA50194010E94273063
:102050004B015C01D8019E968D929D92AD92BC92EF
:10206000D1976B857C858D859E856150710981092D
:1020700091090E94AB2D6B017C016B817C818D816C
:102080009E810E94AB2DA70196010E9427306B8391
:102090007C838D839E83F80162AB73AB84AB95AB7D
:1020A0006F81788589859A850E94AB2DA70196015D
:1020B0000E9427306F83788789879A87D801D696C0
:1020C0006D937D938D939C93D997F101678970E00F
:1020D00090E080E00E94AB2D9B01AC010E94A42FF8
:1020E0006B017C01D8019296CD92DD92ED92FC922B
:1020F0009597AC019B01C301B2010E94713187FD2C
:1021000068C0A7019601C501B4010E94713187FD25
:1021100060C081E0F80182AFF80186A097A0A0A47A
:10212000B1A4A50194016B817C818D819E810E9467
:10213000713118160CF051C0A50194016F8178859A
:1021400089859A850E94713118160CF046C081E08D
:10215000D801DB968C93D801DA96FC90DA97FF20B1
:1021600011F0DB96FC908091F3019091F4010097BF
:1021700021F04FEF60EC0E94AF0AC8010E947D0D74
:10218000F8228091F3019091F401009739F040E03A
:10219000F11001C04FEF60E00E94AF0AF801F4AE09
:1021A0002F960FB6F894DEBF0FBECDBFDF91CF9153
:1021B0001F910F91FF90EF90DF90CF90BF90AF9065
:1021C0009F908F907F906F905F904F903F902F9057
:1021D0000895D801DA961C929FCFF80113AEBBCFB9
:1021E00050E083EB92E00C94BF0483EB92E00C94FC
:1021F0003F05EF92FF920F931F93CF93DF93E42E4F
:10220000F12C8B01D0E0C0E0CE15DF0508F03DC019
:102210002FB7F8948091060290910702A0910802CE
:10222000B09109022FBF8093BB029093BC02A09390
:10223000BD02B093BE0283EB92E00E94640597FF5B
:102240002CC02FB7F8948091060290910702A091BC
:102250000802B09109022FBF4091BB025091BC020D
:102260006091BD027091BE02841B950BA60BB70B4B
:102270004091B7025091B8026091B9027091BA02D0
:1022800084179507A607B707B0F28C2FDF91CF917F
:102290001F910F91FF90EF900895F80181938F01A6
:1022A0002196B2CF83EB92E00E946405089583EB00
:1022B00092E00C948005AF92CF92EF920F93CF9360
:1022C000DF93CDB7DEB728970FB6F894DEBF0FBE09
:1022D000CDBF34E239836A834B832C830D83EE8236
:1022E000CF82A886DC01ED91FC910084F185E02D80
:1022F00048E0BE016F5F7F4F099528960FB6F894AE
:10230000DEBF0FBECDBFDF91CF910F91EF90CF9089
:10231000AF9008952F923F924F925F926F927F926B
:102320008F929F92AF92CF92DF92EF92FF920F9394
:102330001F93CF93DF9300D0CDB7DEB74C013B01A5
:10234000622F84E0489FF00111243796E80DF91DB3
:102350004080518022803380A12CC12CE12C272D7C
:10236000462D8091F7019091F8010E945B110E9427
:102370002E027101F594E794E80CF91C10E000E0DE
:1023800090E4D92EA1E02A2233246016710671F15F
:10239000F401808D8111DEB8F2012114310441F085
:1023A000D701ED91FC91E40DF51D0190F081E02D38
:1023B000AE014E5F5F4FBE016F5F7F4FC701099552
:1023C000F401808D81111EB88091F7019091F80180
:1023D000DC01ED91FC910084F185E02D42E0BE012D
:1023E0006F5F7F4F09950F5F1F4FCFCF0E942A026B
:1023F0000F900F90DF91CF911F910F91FF90EF9071
:10240000DF90CF90AF909F908F907F906F905F9074
:102410004F903F902F900895AF92CF92EF920F93ED
:10242000CF93DF93CDB7DEB728970FB6F894DEBF12
:102430000FBECDBFCE0101960E94A005A12CC12CDC
:10244000E12C00E020E048E061E08091F70190910C
:10245000F8010E945B118091F7019091F801DC0175
:10246000ED91FC910084F185E02D48E0BE016F5FA5
:102470007F4F099528960FB6F894DEBF0FBECDBFEB
:10248000DF91CF910F91EF90CF90AF9008950F9380
:102490001F93CF93DF93EC018B01E881F9810190C9
:1024A000F081E02D0995892B31F480E0DF91CF9107
:1024B0001F910F910895E881F9810280F381E02D49
:1024C000CE010995843289F7E881F9810480F5818C
:1024D000E02D47E0B801CE010995873031F7F801CA
:1024E0008081E4CFCF93DF9300D000D0CDB7DEB7AB
:1024F00049835A836B837C83DC01ED91FC910084DA
:10250000F185E02D44E0BE016F5F7F4F09950F908C
:102510000F900F900F90DF91CF910895AF92CF92CF
:10252000EF920F93CF93DF93EC01A12C8DE0C82E97
:102530009DE0E92E0DE02DE04CAD67E48091F701C0
:102540009091F8010E945B118091F7019091F80140
:10255000DC01ED91FC910680F781E02D6AAD0995D3
:102560004AA55BA56CA57DA58091F7019091F80126
:102570000E9472124EA55FA568A979A98091F70102
:102580009091F8010E9472124AA15BA16CA17DA1F9
:102590008091F7019091F8010E9472128091F701E9
:1025A0009091F801DC01ED91FC910680F781E02D1E
:1025B0006BAD09954AA95BA96CA97DA98091F7012A
:1025C0009091F8010E9472124EA95FA968AD79AD91
:1025D0008091F7019091F8010E9472124EA15FA1C3
:1025E00068A579A58091F7019091F8010E94721277
:1025F0008091F7019091F801DC01ED91FC9106804A
:10260000F781E02D6C8909954C855D856E857F8508
:102610008091F7019091F8010E94721248895989BE
:102620006A897B898091F7019091F8010E9472126A
:102630004C815D816E817F818091F7019091F801DD
:102640000E9472128091F7019091F801DC01ED91E6
:10265000FC910680F781E02D6D8D09954D895E898D
:102660006F89788D8091F7019091F8010E94721224
:10267000498D5A8D6B8D7C8D8091F7019091F80179
:102680000E947212488559856A857B858091F70181
:102690009091F801DF91CF910F91EF90CF90AF9093
:1026A0000C947212CF93DF9300D0CDB7DEB77A834C
:1026B0006983DC01ED91FC910084F185E02D42E01D
:1026C000BE016F5F7F4F09950F900F90DF91CF9103
:1026D000089540919C0150919D0120919A01309163
:1026E0009B0142175307B4F49091E8009570E1F311
:1026F0009091E80092FD19C08093F10080919C01B7
:1027000090919D0101968F739927892B19F48EEF73
:102710008093E80080919C0190919D010196909397
:102720009D0180939C0181E0089580E00895DF92EF
:10273000EF92FF920F931F93CF93DF93D82E8A01CE
:10274000EB017B01E40EF51ECE15DF0559F0D7FE37
:1027500012C0FE0184910E94691321968111F4CF69
:102760000FEF1FEFC801DF91CF911F910F91FF90E5
:10277000EF90DF9008958881EECF0F931F93CF9352
:10278000DF931F92CDB7DEB712E0198342E450E029
:102790006EE271E080E80E9497138091A30181119D
:1027A0000CC010939F0184E08093A0011092A201BD
:1027B0001092A10181E08093A3010091A1011091E9
:1027C000A2010115110589F0D801ED91FC9102805B
:1027D000F381E02DBE016F5F7F4FC801099597FD22
:1027E00004C0F80100851185ECCF89810F90DF913D
:1027F000CF911F910F910895FC01858596850895CD
:1028000090E080E00895CF92DF92EF92FF928132C4
:102810009105E8F422E020939100C12CD12C5AEFCD
:10282000E52E54E4F52EBC0190E080E00E94AB2D33
:10283000A70196010E940C2E0E943C320E94DA30C1
:10284000CB010197FF90EF90DF90CF9008958730F4
:1028500021E0920750F423E020939100C12CD12C69
:102860004AE7E42E43E4F42EDECF893124E09207D8
:1028700050F424E020939100C12CD12C3AE7E32EB0
:1028800032E4F32ED0CF833620E1920750F425E0D6
:1028900020939100C12CD12C2AE7E22E21E4F22EC4
:1028A000C2CF90E080E0CECF0F931F93CF938C01E7
:1028B000C42F822F662349F08FE090E00E94CA2E39
:1028C000C82F80E190E00E94CA2E9FEF9C0F9530A8
:1028D00008F04EC0882309F44BC0C13079F0C230F3
:1028E00009F44AC023E032E39FEEC33051F032E3F3
:1028F0009FE9C43009F497EC23E003C039E197EC79
:1029000024E03817A8F1F801C08381831092C00039
:102910001092C1001092C2001092C3001092C40025
:10292000269819BC39B5306139BD12BE32B73A604C
:1029300032BF32B7306332BF32B7306432BF39B5DD
:10294000326039BD2093C1002091C00021602093E6
:10295000C0002091C00020622093C0002E98269ACB
:102960009093D1008093D0001092BF001092BE00CF
:10297000CF911F910F91089539E195E9C1CFAF92A1
:10298000CF92EF920F93CF93DF938AE090E00E9473
:10299000CA2EC82F8BE090E00E94CA2ED82F8CE060
:1029A00090E00E94CA2E082F8DE090E00E94CA2E6F
:1029B000A12CC12CE82E2D2F4C2F6CE08091F7011B
:1029C0009091F8010E945B11DF91CF910F91EF90F0
:1029D000CF90AF900895CF93DF93D0E0C0E0CE01C9
:1029E0000E94CA2E8F3F09F041C02196C431D10503
:1029F000B1F744E050E070E060E085E991E00E94CA
:102A0000DE2E6DE871E084E090E00E940C2F68EE0D
:102A10007EEF86E090E00E940C2F63E08FE090E074
:102A20000E94EE2E64E180E190E00E94EE2E6AE0CA
:102A300084E190E00E94EE2E60E089E190E00E9447
:102A4000EE2E40EE53E964E070E08EE190E00E94EB
:102A5000002F43E353E36BE770E482E290E00E94CF
:102A6000002F64E186E290E00E94EE2E61E08AE0B1
:102A700090E00E94EE2E60E08BE090E00E94EE2E4F
:102A800060E08CE090E00E94EE2E6FE18DE090E03F
:102A9000DF91CF910C94EE2E0E94AD32CF92DF9257
:102AA000EF92FF920F931F93CF93DF93EC0182E29B
:102AB00090E09D838C8381E0888780E395E7A0E0A8
:102AC000B0E0888F998FAA8FBB8F8EE190E00E9433
:102AD000D22E6B017C01CC8EDD8EEE8EFF8E82E2DB
:102AE00090E00E94D22E6BA37CA38DA39EA386E2CE
:102AF00090E00E94CA2E8AA38E01005C1F4F81E0E5
:102B000090E0F8019183808332968CE390E091838A
:102B10008083329687E291E091838083329682E6C9
:102B200091E091838083329688ED91E09183808358
:102B3000329683E192E091838083329684E192E041
:102B40009183808332968FE492E0918380833296E2
:102B500085EC92E091838083329680E093E09183CC
:102B60008083349681E093E0A0E0B0E0808391839D
:102B7000A283B383C701B6010E94AB2D20E030E0F1
:102B800048E851E40E9427306B017C0120E030E0EE
:102B9000A9010E94713120E030E040E05FE387FD51
:102BA0005CC0C701B6010E94A42F0E94D330FE0171
:102BB000E25AFF4F6F5F7C4F8F4F9F4F608371834F
:102BC0008283938382E090E03A979183808388A107
:102BD00099A10E941D2D8AA190E00E94812C99A3A9
:102BE00088A3688D798D8A8D9B8D0E94AB2D6B019A
:102BF0007C016C817D8190E080E00E94AB2D9B0187
:102C0000AC01C701B6010E9427306B017C0120E0B6
:102C100030E0A9010E94713120E030E040E05FE344
:102C200087FD20C0C701B6010E94A42F0E94D330A7
:102C30007F836E83F801808191810197B0E0A0E0ED
:102C40008CAF9DAFAEAFBFAFDF91CF911F910F9112
:102C5000FF90EF90DF90CF900895C701B6010E94DA
:102C6000A32FA3CFC701B6010E94A32FDFCF1F92CE
:102C70000F920FB60F9211242F933F938F939F9330
:102C8000AF93BF938091060290910702A091080232
:102C9000B09109023091FD0123E0230F2D3758F543
:102CA0000196A11DB11D2093FD0180930602909312
:102CB0000702A0930802B09309028091FE0190914F
:102CC000FF01A0910002B09101020196A11DB11D6A
:102CD0008093FE019093FF01A0930002B093010244
:102CE000BF91AF919F918F913F912F910F900FBE08
:102CF0000F901F90189526E8230F0296A11DB11D75
:102D0000D2CF1F920F920FB60F9211242F933F93A1
:102D10004F935F936F937F938F939F93AF93BF93E3
:102D2000EF93FF9386E192E00E943204FF91EF91CE
:102D3000BF91AF919F918F917F916F915F914F91D3
:102D40003F912F910F900FBE0F901F9018951F92DB
:102D50000F920FB60F9211242F938F939F93EF939F
:102D6000FF93E0912602F09127028081E0912C02EE
:102D7000F0912D0282FD1BC0908180912F028F5F08
:102D80008F7320913002821741F0E0912F02F0E022
:102D9000EA5EFD4F958F80932F02FF91EF919F91F7
:102DA0008F912F910F900FBE0F901F9018958081DB
:102DB000F4CF1F920F920FB60F9211242F933F93CF
:102DC0004F935F936F937F938F939F93AF93BF9333
:102DD000EF93FF9364E670E08091D3019091D4016A
:102DE0000E947E06FF91EF91BF91AF919F918F91CD
:102DF0007F916F915F914F913F912F910F900FBEF7
:102E00000F901F9018951F920F920FB60F921124DA
:102E10002F933F934F935F936F937F938F939F93E2
:102E2000AF93BF93EF93FF930E94D916FF91EF9159
:102E3000BF91AF919F918F917F916F915F914F91D2
:102E40003F912F910F900FBE0F901F9018951F92DA
:102E50000F920FB60F9211242F933F934F935F93CE
:102E60006F937F938F939F93AF93BF93EF93FF9352
:102E70000E94D916FF91EF91BF91AF919F918F91D1
:102E80007F916F915F914F913F912F910F900FBE66
:102E90000F901F9018951F920F920FB60F9211244A
:102EA0008F939F93EF93FF93E091D901F091DA0113
:102EB00084819581019695838483FF91EF919F9101
:102EC0008F910F900FBE0F901F9018951F920F9229
:102ED0000FB60F9211248F929F92AF92CF92DF92F2
:102EE000EF92FF920F932F933F934F935F936F93C4
:102EF0007F938F939F93AF93BF93CF93DF93EF9382
:102F0000FF938090D9019090DA01609196007091C2
:102F10009700F401C481D58190E080E00E94AB2D40
:102F20002DEB37E346E857E30E940C2E6B017C0142
:102F3000BE0190E080E00E94AB2D9B01AC01C70177
:102F4000B6010E94A42F462F272FA12CC12CE92EB9
:102F5000082F61E78091F7019091F8010E945B11C1
:102F60001092950010929400F40115821482FF9142
:102F7000EF91DF91CF91BF91AF919F918F917F9111
:102F80006F915F914F913F912F910F91FF90EF9033
:102F9000DF90CF90AF909F908F900F900FBE0F90CB
:102FA0001F9018951F920F920FB60F9211241F9326
:102FB0002F933F934F935F936F937F938F939F9341
:102FC000AF93BF93CF93DF93EF93FF93E091F30120
:102FD000F091F401DF01AA5BBF4F8D919C91119795
:102FE000019611969C938E9384AD95AD019695AF05
:102FF00084AF11E013ABC091F501D091F6016CAD37
:103000007DAD8EAD9FAD0E94AB2D20E030E040E85D
:103010005FE30E94A42F0E94DA306CAF7DAF8EAFC9
:103020009FAF1BAFFF91EF91DF91CF91BF91AF9118
:103030009F918F917F916F915F914F913F912F91D0
:103040001F910F900FBE0F901F9018951F920F9217
:103050000FB60F9211248F93EF93FF93E091E90144
:10306000F091EA0181E08183FF91EF918F910F90C0
:103070000FBE0F901F9018951F920F920FB60F92D0
:1030800011248F939F938091E1009091E100937FB1
:103090009093E10083FF0FC01092E90091E09093BC
:1030A000EB001092EC0092E39093ED001092050279
:1030B00098E09093F00082FF1CC093E09093E900A9
:1030C0009091F200992319F09AE39093E80090917F
:1030D000AD01992329F09091AD0191509093AD01EC
:1030E00090910402992329F09091040291509093B9
:1030F000040284FF18C08091E2008E7E816080937C
:10310000E2008091E1008F7E8093E1008091AE012A
:103110008E7E80618093AE019F918F910F900FBE44
:103120000F901F90189580FFF7CF8091E2008E7E60
:1031300080618093E2008091E1008E7E8093E100C7
:103140008091AE018E7E8160E5CF1F920F920FB607
:103150000F921124DF92EF92FF920F931F932F9300
:103160003F934F935F936F937F938F939F93AF930F
:10317000BF93EF93FF93CF93DF93CDB7DEB7619704
:10318000DEBFCDBF1092E9008091E80083FF2FC021
:1031900089E0FE013A96EE2EDF2E815029F09091C3
:1031A000F10090833196F9CF84E68093040282EF98
:1031B0008093E8008A8587FF38C09091E80090FFEF
:1031C000FCCF982F907609F035C19B854C855D85A5
:1031D0002C85FD84911130C0803859F58091AF0164
:1031E0008093F1001092F1008EEF8093E8006196D9
:1031F0000FB6F894DEBF0FBECDBFDF91CF91FF9128
:10320000EF91BF91AF919F918F917F916F915F915E
:103210004F913F912F911F910F91FF90EF90DF9071
:103220000F900FBE0F901F9018959EEF9093E8009F
:10323000C8CF1092F100D6CF913059F48111D4CF7C
:103240004130510589F68091AF018D7F8093AF01A8
:10325000CBCF933049F48111C7CF4130510521F6CE
:103260008091AF018260F2CF953041F48091E80007
:1032700080FFFCCF20682093E300B6CF963009F0A2
:10328000ACC00889198922E01092E90010929D01D2
:1032900010929C01F2122EC010929B0110929A0182
:1032A0000E94BD131F8299E09983FA8291E09E8368
:1032B00090EA98879AEF998720919C0130919D011F
:1032C000275F3F4F3C832B838D831092E900109240
:1032D0009D0110929C0110939B0100939A0149E07B
:1032E00050E0BE016F5F7F4F80E00E9497130E9405
:1032F000BD137ACF10939B0100939A018091A30193
:1033000081110DC082E080939F0184E08093A00131
:103310001092A2011092A10181E08093A30100917B
:10332000A1011091A2010115110509F455C1D8019F
:10333000ED91FC910480F581E02D6E2D7D2DC8016D
:103340000995009709F04EC1F80100851185EBCF72
:10335000F3E0FF120CC08C858823B1F1823059F460
:1033600068E086E991E00E94F71A81113DCF81E281
:103370008093EB003CCF813021F46FE086E891E050
:10338000F2CF8330A1F7CE0101960E94A00582E121
:103390000E94691383E00E9469138E010F5F1F4F23
:1033A0007E0129E0E20EF11CD8018D918D010E9471
:1033B00069138823E1F280E00E9469138823B9F23F
:1033C000E016F10689F710CF60E771E0FB01449148
:1033D00050E080E80E94971307CF973041F2983071
:1033E00021F481E08093F100FFCE993009F0FCCE0A
:1033F000837009F0BCCFE7E2F1E081E031E096E3D1
:103400002191222371F08093E9003093EB00DF01DA
:1034100011972C912093EC009093ED008F5F8730F3
:1034200079F78EE78093EA001092EA008C8580930A
:103430000502DACE888999891092E90010929D01DF
:1034400010929C0190939B0180939A018E8581112B
:103450009AC08B859A85913A49F4813209F087CFD9
:1034600047E050E064E071E080E0B4CF913209F0D1
:103470007ECF833269F48C859D85B0E0A0E0809397
:10348000000190930101A0930201B0930301ACCE1F
:103490008032A9F48091E80082FFFCCF88E0E4E06C
:1034A000F1E0815029F09091F10090833196F9CFAD
:1034B00084E6809304028BEF8093E80095CE8232FD
:1034C00009F092CE8C8580930B01EEEFFFE785919A
:1034D00094918B3F9C4D51F1E0E0F8E08091040124
:1034E00090910501A0910601B0910701803B9440A5
:1034F000A105B105F1F480910B0180FD1AC0EE3FEA
:103500008AE0F80789F587E797E7918380838091C0
:10351000600080939E0188E19BE00FB6F894A89527
:10352000809360000FBE909360005ECEEEEFFAE0F5
:10353000D5CF808191818737974709F055CEA895DF
:103540008091600088618093600080919E018093EB
:103550006000EE3F2AE0F20789F08091FE0A909128
:10356000FF0A9183808340CE8081918187379807BD
:1035700051F29093FF0A8093FE0AC5CF1092FF0A82
:103580001092FE0A31CE8091A30181110DC082E01C
:1035900080939F0184E08093A0011092A201109279
:1035A000A10181E08093A3010091A1011091A201EA
:1035B0000115110509F4DBCED801ED91FC910190C4
:1035C000F081E02D6E2D7D2DC801099581110CCE65
:1035D000F80100851185ECCFF1E0FF12B9CE64E768
:1035E00071E0F4CE181619060CF4FECDC0CEEF92A1
:1035F000FF920F931F93CF93DF93182FE92E062F7F
:1036000081E0860F880F0E94691383E00E9469138E
:10361000F12EC12FDE2DFE0184910E946913182F17
:1036200080E00E946913812329F021969C2F9F1925
:10363000901788F3DF91CF911F910F91FF90EF903A
:103640000895E6E1F2E01382128288EE93E0A0E0B2
:10365000B0E084839583A683B78325E731E0318387
:1036600020832DEC30E0358724872CEC30E0378741
:10367000268728EC30E0318B208B29EC30E0338B2F
:10368000228B2AEC30E0358B248B2EEC30E0378B0C
:10369000268B118E128E138E148EE3EBF2E01382C2
:1036A000128284839583A683B78387E891E0918310
:1036B00080838FEF9FEF95878487E3E0F3E080833B
:1036C00012821182148613868FEF9FEFDC018783AD
:1036D0009087A187B2870895CF93DF93CDB7DEB7E8
:1036E000A4970FB6F894DEBF0FBECDBF789484B513
:1036F000826084BD84B5816084BD85B5826085BDEE
:1037000085B5816085BD80916E00816080936E007B
:10371000109281008091810082608093810080916D
:10372000810081608093810080918000816080931E
:10373000800080919100826080939100809191003F
:1037400081608093910080919000816080939000CF
:103750008091C10084608093C1008091C10082602B
:103760008093C1008091C10081608093C1008091ED
:10377000C30081608093C3008091C0008260809309
:10378000C0008091C20081608093C20080917A0065
:10379000846080937A0080917A00826080937A00BE
:1037A00080917A00816080937A0080917A008068AD
:1037B00080937A00109205021092AF011092AE0130
:1037C0008091D70081608093D70080EA8093D800F1
:1037D00089B5806189BD89B5826089BD09B400FE63
:1037E000FDCF0E9499038091D8008F7C80618093E7
:1037F000D8008091E000807F8093E0008091E1001C
:103800008E7E8093E1008DE08093E20083E090E083
:103810000E94812CDC0112961C92129729E331E060
:103820002D933C932FEF3FEF3093C0022093BF02C4
:1038300044E650E060E070E04093B7025093B80275
:103840006093B9027093BA0204B603FC0DC041E95B
:1038500050ED63E070E02091E80023FD05C0415089
:10386000510961097109B9F79093FA018093F9013F
:1038700081E090E00E94812C9093F2018093F1010D
:1038800081E090E00E94812C8C010E94EB14109347
:10389000EE010093ED0181E090E00E94812C909375
:1038A00003028093020281E090E00E94812C9093B9
:1038B000CE018093CD0181E090E00E94812C909315
:1038C000D0018093CF0181E090E00E94812C909301
:1038D000CC018093CB0181E090E00E94812C24B741
:1038E000277F24BF9093F0018093EF0181E090E067
:1038F0000E94812C9093D2018093D10182E090E0CC
:103900000E94812C8C0120E040E061E00E94541470
:103910001093EC010093EB0189E190E00E94812C6F
:103920008C01FC0110821182108E14BC15BC109207
:103930006E0083E085BD80916E00816080936E0093
:1039400010928000109281001092820010926F00FD
:1039500087E08093810088E19CE0908787831286CE
:10396000118682E69CE0948783871686158689E90E
:103970009CE0908B8787128A118A88E89BE0948B61
:10398000838B168A158A84E190E00E94CA2E8823D0
:1039900019F0D80157968C931093EA010093E9012E
:1039A00088E490E00E94812CFC0110AA11AA91E009
:1039B00092AB13AA14AA16AEF89488E18093600023
:1039C00080E48093600078948091C301811146C0A7
:1039D0001092B5011092B4018FEF8093B8018093DB
:1039E000B9018093BA018093BB018093BC0180939D
:1039F000BD019093BE011092C0011092BF011092C0
:103A0000B7011092B6018091100290911102892B9A
:103A100031F482EB91E09093110280931002A09117
:103A2000B001B091B101109731F082EB91E01596A1
:103A30009C938E93149782EB91E09093B1018093C5
:103A4000B0011092C2011092C10189E591E09093FA
:103A5000B3018093B20181E08093C301559AF09342
:103A6000B501E093B40180E190E09093C0018093B0
:103A7000BF018091060390910703A0910803B091C4
:103A80000903843C29E09207A105B10520F484ECE8
:103A900099E0A0E0B0E08093060390930703A09321
:103AA0000803B0930903F093F401E093F30183E674
:103AB00090E00E94812C23E6DC011D922A95E9F713
:103AC000FC01BB9620E1DF011D922A95E9F7FC017C
:103AD00013AE9093F6018093F5018DE390E00E9480
:103AE000812C8C01DC0154961C9254975D961C929B
:103AF0005D97DA961C92DA97DB961C92DB97FF248F
:103B0000F394DC96FC9285E39CE0A0E0B0E0F80141
:103B100080839183A283B38345EE50ED62EB7FE314
:103B2000448355836683778348EB5EE765EB73E4F4
:103B30004087518762877387868F978FA0A3B1A331
:103B400086E696E6A6E6BFE386A397A3A0A7B1A75D
:103B50001093FC010093FB0188E190E00E94812C0E
:103B6000FC0112821382F582F68210861782128679
:103B700011861586148617861686F08AF18A158AAC
:103B8000148A178A168A84E084838DE08387F093F1
:103B9000E801E093E70184E090E00E94812C4C0171
:103BA00080910C01D4018C9380910D0111968C931E
:103BB000119780910E0112968C93129780910F01AC
:103BC00013968C939092DC018092DB0186E090E06A
:103BD0000E94812C7C0180911001F70180838091EB
:103BE000110181838091120182838091130183836B
:103BF00015821482F092DA01E092D90184E090E01B
:103C00000E94812C5C0180911401D5018C938091DC
:103C1000150111968C9311978091160112968C9331
:103C200012978091170113968C93B092D801A092AD
:103C3000D70184E090E00E94812C6C0180911801F2
:103C4000F601808380911901818380911A0182831A
:103C500080911B018383D092D601C092D50184E06C
:103C600090E00E94812CFC0180911C018083809156
:103C70001D01818380911E01828380911F018383B6
:103C8000F093D401E093D3019092DE018092DD01A4
:103C9000F092E001E092DF01B092E201A092E10136
:103CA000D092E401C092E301F093E601E093E501D4
:103CB0008BE39DE00197F1F7C8010E94650FE09149
:103CC000FB01F091FC0184AD882391F0E091E701C4
:103CD000F091E8011086178212861186158A148ADF
:103CE000178A168A8091F5019091F6010E944E156F
:103CF0009E012F5F3F4F3C8B2B8B2090F901309022
:103D0000FA01E091FB01F091FC0184ADBE0181114B
:103D10003DC06F5F7F4FC1010E944712882381F031
:103D20002091F9013091FA013093F8012093F701C5
:103D3000813089F48091F1019091F2010E940C127E
:103D400080E090E0892BC9F20E941E048823A9F22A
:103D50000E940000D2CF8C3039F48091ED01909117
:103D6000EE010E94BF14ECCF863439F48091FB0140
:103D70009091FC010E94650FE3CF873409F7809191
:103D8000FB019091FC010E948E12DACF675F7F4F9A
:103D9000C1010E944712F82E882309F4A3C0309273
:103DA000F8012092F7018090F5019090F6018401CE
:103DB0000E591F4FD8018C9181110FC0F1018281E2
:103DC00081110BC081E0828348EE53E060E0809176
:103DD000F3019091F4010E94E606EFEFEF0DE53755
:103DE00008F080C0F0E0E950F14E0C94822F6C1F77
:103DF000A120FC201221721F721F721F721F721FDE
:103E00001C21452174217B21AE21CF21EB21721F82
:103E1000721F721F721F721F721F721F721F721F1A
:103E2000721F721F721F721F9322721F721F721FE6
:103E3000721F721F721F721F721F721FAE22C62264
:103E400009233C234F23721F721F721F721F721FA0
:103E50005E23D3239424721F721F721F721F721F5E
:103E6000721F721FE4241E25721F2625721F721FE7
:103E7000721F721F721F721F35253C254325721F4A
:103E8000721F721F721F721F721F721F8925922567
:103E9000FD254B26582666266D26721F721F721F3F
:103EA0007C268A26B726721F721F721F721F721F0E
:103EB000721F721FBF26E12610273527721F721F3F
:103EC000721F721F721F721F4C27612788279E273F
:103ED000DB272728662883288091F1019091F20141
:103EE0000E940C12E090E901F090EA01D7018C9158
:103EF0008823F1F011968C9111978823C9F01296BE
:103F00006D917C9113976115710549F014964C9150
:103F1000443028F400E02EE3C7010E948A11F70123
:103F200085819681892B11F00C94D42881E08183BE
:103F30000091F3011091F401F80183A9882309F499
:103F4000C2C013AA84A9882309F458C084AD95ADD2
:103F5000E2ACF3ACD0A88E159F0510F00C94DD28D0
:103F600064AD75AD90E080E00E94AB2D4B015C012B
:103F7000B70190E080E00E94AB2D9B01AC01C50130
:103F8000B4010E9427304B015C01D801D8966D9195
:103F90007C91072E000C880B990B0E94AD2D9B0184
:103FA000AC01C501B4010E940C2E4B015C01F8016B
:103FB00065A970E090E080E00E94AD2D9B01AC010E
:103FC000C501B4010E94A42F4B015C0120E030E048
:103FD000A9010E94713120E030E040E05FE387FFFB
:103FE00002C00C94D728C501B4010E94A42F0E94DE
:103FF000D330462F6D2DC8010E94AF0AF80186AD5F
:10400000882309F460C0EA5BFF4F80819181D80169
:10401000AC5BBF4FED90FC90D801D196DC90D1976E
:104020008E159F0510F00C94E7286081718190E057
:1040300080E00E94AB2D4B015C01B70190E080E075
:104040000E94AB2D9B01AC01C501B4010E94273039
:104050004B015C01F801EE5BFF4F60817181072E1F
:10406000000C880B990B0E94AD2D9B01AC01C50182
:10407000B4010E940C2E4B015C01F80167AD70E0A9
:1040800090E080E00E94AD2D9B01AC01C501B40120
:104090000E94A42F4B015C0120E030E0A9010E94A6
:1040A000713120E030E040E05FE387FF02C00C9414
:1040B000E128C501B4010E94A42F0E94D3304D2DE8
:1040C000C8010E94AF0AE091F901F091FA018281E2
:1040D000811136CE2090F5013090F601F10183ADCB
:1040E000882309F42DCE13AE44AD55AD66AD77AD42
:1040F000E65BFF4F80819181B0E0A0E084179507D7
:10410000A607B70710F40C946429F10104AD15ADAE
:1041100026AD37ADE05CFF4F4081518170E060E03B
:10412000041715072607370711F00C94F02848EEFE
:1041300053E06FEF8091F3019091F4010E94E60645
:10414000FFCD0E94B20180917C00806C80937C0046
:1041500080917C00876080937C0080917B008062EE
:1041600080937B0086E080937A0080917A0080685B
:1041700080937A008BE99FE00197F1F780917A00B4
:10418000806480937A0080917A0086FDFCCF65E0A0
:1041900080E00E94BA014B015C0184E090E00E9443
:1041A000D82E7C0186E090E00E94D82E8C01B701C9
:1041B00090E080E00E94AB2DA50194010E940C2E9E
:1041C0006B017C01B801110F880B990B0E94AD2D7A
:1041D0009B01AC01C701B6010E94A42F462F272FD7
:1041E000A12CC12CE92E082F62E08091F70190915B
:1041F000F8010E945B1176CE80911003909111031B
:10420000009711F484E193E04B895C89481B590BBA
:10421000A12CC12CE12C00E0252F63E0C1010E94FC
:104220005B1160CEF894A89588E18093600088E0E7
:1042300080936000789456CE10E000E06FEF7FEF3F
:10424000C8010E940C2F0E5F1F4F0115F4E01F07DD
:10425000A9F78091ED019091EE010E94EB1420E00E
:1042600040E061E08091EB019091EC010E945414D8
:1042700084E190E00E94CA2E882309F433CEE091B5
:10428000E901F091EA01878B2DCE8A858823A9F078
:1042900084E090E00E94D82E182FF92E86E090E05E
:1042A0000E94D82EA12CC12CE92E082F2F2D412F92
:1042B0006BE0C1010E945B1115CEEB84FC840D857F
:1042C0001E8544E050E070E060E085E991E00E94E6
:1042D000DE2EB70184E090E00E940C2FB80186E04A
:1042E00090E00E940C2FFECD8091ED019091EE01A7
:1042F0000E94BF14F7CD8A858823A1F08FE090E05B
:104300000E94CA2E182F80E190E00E94CA2EA12C94
:10431000C12CE12C00E0282F412F6DE0C1010E944B
:104320005B11E0CD1B850C858FEF810F853060F42C
:10433000002351F0612F8FE090E00E94EE2E602F5D
:1043400080E190E00E94EE2E202F412F60E08091CE
:10435000EB019091EC010E945414C4CD8A8588230E
:1043600079F084E190E00E94CA2EA12CC12CE12CAE
:1043700000E020E0482F6EE0C1010E945B11B2CD49
:104380001B85112309F4AECD612F84E190E00E94DA
:10439000EE2EE091E901F091EA01178BA3CD8A8519
:1043A000882379F089E190E00E94CA2EA12CC12CCB
:1043B000E12C00E020E0482F6FE0C1010E945B117A
:1043C00091CD61E08B85811101C060E089E190E0D1
:1043D0000E94EE2E87CD8A858823E1F18EE190E060
:1043E0000E94D22E6D8B7E8B8F8B988F82E290E015
:1043F0000E94D22E2B013C0186E290E00E94CA2E40
:10440000A12CC12CE12C00E028E0482F60E1C10183
:104410000E945B118091F7019091F8012D893E89EE
:104420004F89588D29833A834B835C83DC01ED915E
:10443000FC910084F185E02D44E0BE016F5F7F4F69
:104440000995B301A2018091F7019091F8010E94B2
:10445000721248CDEDB7FEB7FE8FED8FFB85FD8B59
:104460004C852DB73EB7241B31090FB6F8943EBFDB
:104470000FBE2DBF0DB71EB70F5F1F4FD101ED91BE
:10448000FC910480F581E02DB801C1010995F80186
:104490004080518062807380C480D580E680F78040
:1044A00046015701F0E64F16FAEE5F06610471040B
:1044B00098F020E030E0A901B601C7010E947131F7
:1044C000181694F420E030E040E85FE3B601C7013D
:1044D0000E94A62D87FF12C04D8D5E8D0FB6F894F9
:1044E0005EBF0FBE4DBFFECC20E030E040E85FEB8A
:1044F000B601C7010E947131181674F32D89222369
:1045000059F3B301A2018EE190E00E94002FB501A2
:10451000A40182E290E00E94002F6D8986E290E083
:104520000E94EE2ED9CF8091EB019091EC012A856B
:10453000222371F0A12CC12CE12C00E0DC011196AA
:104540002C9111974C916EE1C1010E945B11CACC74
:104550002C854B8560E00E945414C4CCE091E901A5
:10456000F091EA018A85882359F0A12CC12CE12C15
:1045700000E020E0478968E2C1010E945B11B2CCF3
:104580008B85882309F4AECC878BACCC8A849B8442
:104590008114910409F4A6CC6090E9017090EA01BD
:1045A000A12CC12CE12C00E0292D482D69E2C1018C
:1045B0000E945B110E942E0210E000E050E4F52EF4
:1045C000F301808D8111FEB8AE014E5F5F4FBE01D9
:1045D0006F5F7F4FC3010E946006D30158968C9194
:1045E00081111EB88091F7019091F801DC01ED91E5
:1045F000FC910084F185E02D42E0BE016F5F7F4FAA
:1046000009950F5F1F4F80169106D1F60E942A026E
:1046100069CC8A850091E9011091EA018A8B815069
:10462000853008F05FCC0E942E02F801808D88232F
:1046300011F080E48EB99E012E5E3F4FAE014E5FB9
:104640005F4FBE016F5F7F4FC8010E94F105D80127
:1046500058968C9181111EB8A12CC12CE12C0A8195
:1046600029814A896AE28091F7019091F8010E94BC
:104670005B110E942A0236CC6A857B856115710523
:1046800009F430CC4C85443008F02CCC0D852BE25D
:104690008091E9019091EA010E948A1123CCE09176
:1046A000E901F091EA018A85882329F076986E9ACB
:1046B00081E0808F17CC6E98108E14CC8A849B84F6
:1046C0008114910409F40ECCFC84FF2009F40ACC77
:1046D0006090E9017090EA01A12CC12CE12C00E06E
:1046E000292D482D62E3C1010E945B110E942E0218
:1046F0006F2D70E090E080E00E94AB2D20E030E074
:1047000040E85FE30E94A42F0E94C03128E132E715
:1047100041E35FE30E9427300E9410300E94DA30AC
:10472000E62E10E000E090E080E0A12CB12C6501C5
:104730008E1590F441E050E0082E02C0440F551F42
:104740000A94E2F7052E000C660B770BA42AB52A13
:10475000C62AD72A0196ECCFAE01405F5F4FBE015B
:104760006F5E7F4FC3010E94180C69896A21698BB3
:104770008889A822A88AF61610F40C94532C698311
:104780008091F7019091F801FA1410F00C94342CF8
:10479000DC01ED91FC910680F781E02D09950F5F1A
:1047A0001F4F0C944A2C6A847B846114710409F4B1
:1047B00099CB8C849D848114910409F493CB40900F
:1047C000E9015090EA01A12CC12CE12C00E0272D39
:1047D000462D63E3C1010E945B110E942E02B401C9
:1047E00090E080E00E94AB2D20E030E040E85FE305
:1047F0000E94A42F0E94C03128E132E741E35FE329
:104800000E9427300E9410300E94DA30362E70E06D
:1048100090E080E00E94AB2D20E030E040E05EE3DD
:104820000E940C2E0E9410300E94DA30262ED12CCD
:10483000C12C90E080E040E050E0BA01831590F494
:1048400001E010E0082E02C0000F111F0A94E2F7E9
:10485000012E000C220B330B402B512B622B732BA0
:104860000196ECCF7A01B12CA12C10E02116A9F110
:10487000AE014E5F5F4FBE016F5F7F4FC2010E946E
:10488000180C29818A8111110DC0E22FF0E0FA8FF6
:10489000E98F282F30E03C8F2B8F1F5FB8E0AB0EE5
:1048A000B11CE4CF30E00A2C02C0220F331F0A945F
:1048B000E2F7498D5A8D422B532B5A8F498F90E046
:1048C0000A2C02C0880F991F0A94E2F7AB8DBC8DA9
:1048D000A82BB92BBC8FAB8FE0CF698D7A8D6E2161
:1048E0007F21EB8DFC8DEE22FF228616970608F4C1
:1048F000EAC78091F7019091F8018E149F0408F0A7
:10490000EBC70E945213BFEFCB1ADB0AF1C70E941C
:104910005213B7018091F7019091F8010E94521350
:1049200022E0C20ED11CE4C78A849B8481149104C6
:1049300009F4D8CA6090E9017090EA01A12CC12C59
:10494000E12C00E0292D482D64E3C1010E945B1198
:104950000E942E027401F694E79410E000E0E01645
:10496000F106E9F0BE016F5F7F4FC3010E94D60CD4
:1049700049815A816B817C818091F7019091F80186
:104980000E9472124D815E816F8178858091F7015E
:104990009091F8010E9472120F5F1F4FE0CF80FECE
:1049A00010C0BE016F5F7F4FC3010E94D60C4981CA
:1049B0005A816B817C818091F7019091F8010E946E
:1049C00072120E942A028ECA2A853B852115310562
:1049D00009F488CA9E85943008F084CA0C851D8528
:1049E000033640E1140708F07DCAE091E901F09137
:1049F000EA0181E0808333832283948316830583D5
:104A00000115110511F481836DCA11820E943202D1
:104A1000C8010E940314909399008093980080919C
:104A200091008860809391008091710082608093F2
:104A30007100109295001092940054CAE091E9011F
:104A4000F091EA0110820E9432024CCAE091E90121
:104A5000F091EA014081A12CC12CE12C00E020E082
:104A60006FE3C1010E945B113DCA8091FB019091EF
:104A7000FC010E94650F36CA8091FB019091FC01F8
:104A80000E948E122FCA8090E7019090E801A12C1D
:104A9000C12CE12C00E020E048E068E4C1010E9464
:104AA0005B11D40117966D917C918091F7019091E3
:104AB000F8010E945213F401618572858091F7011B
:104AC0009091F8010E945213D40154966D917C91FB
:104AD0008091F7019091F8010E945213F4016689C8
:104AE00077898091F7019091F8010E945213D401C7
:104AF00018961C921E9217971A961C921E9219973E
:104B000055961C921E92549757961C921E92569739
:104B1000E9C94B856A858091F3019091F4010E9467
:104B2000AF0AE0C96B857C856115710509F4DAC9A6
:104B30000091F3011091F4012A8530E0F801D0A82A
:104B4000C9018D19910909F4CDC9AC0153957C01B6
:104B5000FA94DC0197FF04C0AA27BB27A81BB90B56
:104B6000EE27FF27EE19FF09A417B5071CF04E1713
:104B70005F07E4F1AE17BF0724F0E417F5070CF464
:104B8000C70141E0D801DE964C93DE97DF96DC92B8
:104B9000F801E05CFF4F318320833296918380835C
:104BA00090E080E00E94AB2D20E030E048E851E446
:104BB0000E9427306B017C0120E030E0A9010E94B7
:104BC000713120E030E040E05FE387FD11C0C701B4
:104BD000B6010E94A42F0E94D330F801EC5BFF4F76
:104BE000718360833296118210827CC9CA01C9CF59
:104BF000C701B6010E94A32FEECF8A85882309F44E
:104C000071C96B857C856115710509F46BC90091CB
:104C1000F3011091F401F80120A990E0982F882762
:104C2000AC01420F511D009709F45CC931E036AF69
:104C300027AFE05CFF4F518340833296918380839E
:104C400090E080E00E94AB2D20E030E048E851E4A5
:104C50000E9427306B017C0120E030E0A9010E9416
:104C6000713120E030E040E05FE387FD0FC0C70115
:104C7000B6010E94A42F0E94D330F801EC5BFF4FD5
:104C8000718360833296118210822CC9C701B601EC
:104C90000E94A32FF0CF8091F3019091F401DC01E9
:104CA000D4962C9121111EC96A850E9428071AC921
:104CB0004B855C854115510509F414C96A858091BD
:104CC000F3019091F4010E94E6060CC9E091F30112
:104CD000F091F40114AA16AE05C9E091F301F09128
:104CE000F401A12CC12CE4A806AD21A940A966E5D8
:104CF000C1010E945B11F6C88A85882331F0F10159
:104D00001282C4010E944E15EDC881E0D1011296B5
:104D10008C93E8C8F40101A5E2A447A120A5A12C29
:104D200090E1C92E6BE5C1010E945B118401055D14
:104D30001F4F7401FBE3EF0EF11C6801D8016D9168
:104D40007D918D018091F7019091F8010E9452139D
:104D5000E016F10699F7F40110A617A212A611A603
:104D6000F60111921192EE16FF06D9F7BBC881E049
:104D70009A85911101C080E0D8018C93B3C8EA856F
:104D80008FEF8E0F853008F0ADC88B8581110BC079
:104D9000E150FF0BEE0FFF1FE352FE4F8081918128
:104DA0000E94A7069FC8813009F09CC8E150FF0B04
:104DB000EE0FFF1FE352FE4F808191810E94C706D4
:104DC00091C8EA858FEF8E0F853008F08BC8E150CF
:104DD000FF0BEE0FFF1FE352FE4F0190F081E02D1D
:104DE000A181B0E090962C918381E281F0E040A116
:104DF00030E0082E02C0359527950A94E2F721701D
:104E000050E002C0559547958A95E2F74170A12C74
:104E1000C12CE12C00E065E6C1010E945B1162C873
:104E2000EA858FEF8E0F853008F05CC8E150FF0BEC
:104E3000EE0FFF1FE352FE4FA081B181EC91F0E035
:104E400013968C9121E030E002C0220F331F8A9527
:104E5000E2F7C9012B8590A1222319F0892B80A3A9
:104E600041C88095892380A33DC8EA858FEF8E0FC6
:104E7000853008F037C86B857C856115710509F4AC
:104E800031C8E150FF0BEE0FFF1FE352FE4F808150
:104E900091810E947E0626C88A85882371F08091C0
:104EA000DB019091DC010E94A70610926A001DBAF6
:104EB00080E380936A00EE9A15C810926A001DBACA
:104EC00011C88A85882301F11B850E94B201112334
:104ED00079F080917B00806480937B0080917C00DE
:104EE000846080937C0080917B00806280937B0053
:104EF00080B7886080BF8BE99FE00197F1F780B7AA
:104F0000836080BF0C94721F0E94B2010C94721FC8
:104F10001A858091DB019091DC010E94C706112364
:104F200011F40C94721FF89480E48EB9812F90E0F4
:104F30000E943C021EB878940C94721F8A858823C4
:104F4000B1F18091D9019091DA010E94A7060E94E7
:104F5000320284E08093910080919000836080937E
:104F600090008091910088618093910083E294EF9A
:104F7000909399008093980080919100806880932D
:104F8000910080919100806480939100C59A8091F6
:104F900071008062809371008091710081608093C4
:104FA000710010929500109294000C94721F0E9450
:104FB00032020C94721F8A85882309F444C00B8541
:104FC0001C85C80101978236904110F00C94721F25
:104FD00068ECE62EF12C0132110588F059E1E52E3E
:104FE000F12C073041E0140750F076E0E72EF12C69
:104FF000093154E0150718F042E0E42EF12C0E942C
:105000003202C8010E940314909397008093960087
:1050100080919000826080939000809191008861DF
:1050200080939100809190008068809390004698D2
:105030003E9AF0929900E09298001092950010929A
:1050400094000C94721F0E9432020C94721F8A8585
:105050008823C1F1DB848FEF8D0D853010F00C9427
:10506000721FEC84FD84E114F10411F40C94721F9E
:105070000E851F850115110511F40C94721F0E94F5
:105080003202D092910080919000826080939000D3
:105090008091910088618093910080919000806858
:1050A0008093900046983E9AF0929700E092960086
:1050B000109399000093980010929500109294001C
:1050C0000C94721F0E9432020C94721F8A858823EE
:1050D000A1F08091D5019091D6010E94A70610926F
:1050E000680010926B0081E08093680080916B00F3
:1050F000806880936B000C94721F1092680010926D
:105100006B000C94721F8A85882309F449C0FC84C3
:105110008FEF8F0D873010F00C94721F0D850730C4
:1051200010F00C94721F1B850E94B20180917C00CC
:105130001123A1F1806480937C00F0927A00809129
:105140007C00846080937C0080917B0080628093EF
:105150007B0080917A00806880937A008BE99FE0E1
:105160000197F1F780917A00806480937A008091B2
:105170007A0086FDFCCF602F812F0E94BA01462F56
:10518000272FA12CC12CE92E082F65E78091F7016C
:105190009091F8010E945B110C94721F806CCBCF30
:1051A0000E94B2010C94721F11820C94981FC501C9
:1051B000B4010E94A32F0C94F71F14AA46A90C94C3
:1051C000FA1FC501B4010E94A32F0C945D20DE9646
:1051D0001C92F801E05CFF4F4D2D60810C94602023
:1051E000F10104AD15AD26AD37ADEE5BFF4F40814B
:1051F000518170E060E0041715072607370711F5A5
:10520000E091F301F091F40120A9822F90E09D5FDD
:1052100031E036AF27AFDF01A05CBF4F11969C9302
:105220008E93129680E093E011969C938E93129643
:105230008BEE90E08D939C93EA5BFF4F118210827E
:105240000C94A01EF10104AD15AD26AD37ADEC5B9D
:10525000FF4F4081518170E060E004171507260779
:10526000370729F448EE53E060E00C949A20F101EE
:1052700004AD15AD26AD37ADEA5BFF4F40815181DE
:1052800070E060E0041715072607370729F4C1010D
:105290000E94330D0C94A01EF10104AD15AD26AD96
:1052A00037ADE85BFF4F4081518170E060E004174B
:1052B00015072607370709F045C048EE53E0D1012E
:1052C00057966C910C949A20D101DC964D915D918A
:1052D0006D917C91DF97F101EE5AFF4F80819181B2
:1052E000B0E0A0E084179507A607B70708F444C00C
:1052F000F10104AD15AD26AD37ADE45BFF4F408144
:10530000518170E060E0041715072607370709F49C
:10531000A9CFF10104AD15AD26AD37ADE25BFF4F6E
:105320004081518170E060E00417150726073707B8
:1053300009F4ADCFF10104AD15AD26AD37ADE05B9D
:10534000FF4FB1CFF10144AD55AD66AD77ADEA5A2F
:10535000FF4F84179507A607B70711F00C94A01EFE
:10536000808191810197B0E0A0E0F10184AF95AF19
:10537000A6AFB7AF0C94A01ED101DC966D917D91C4
:105380008D919C91DF97F101EC5AFF4F2081318183
:1053900050E040E00E94602F672B682B692B11F0D2
:1053A0000C94A01EF10144AD55AD66AD77AD0091F2
:1053B000F3011091F401E25AFF4F80819181A281A3
:1053C000B38184179507A607B70708F42AC2F1012D
:1053D00080819181A281B3810196A11DB11D80833D
:1053E0009183A283B383B12C7101FAE0EF0EF11C1B
:1053F000610129E0C20ED11CD10118962C91189799
:10540000B21638F5A701B6018091E9019091EA0141
:105410000E94180CF101818592858927818720E0FF
:10542000882329F09FEF980F89232F5FF9CFF1018F
:1054300087859089A189B2890497A109B109820F52
:10544000911DA11DB11D8787908BA18BB28BB39449
:10545000D3CF16968D919C9133E0880F991F3A9582
:10546000E1F7289FB001299F700D112490E080E0A2
:10547000F10163877487858796870E94AB2D6B0146
:105480007C0120E030E040E85EE30E940C2E0E94A8
:1054900066324B015C01D1011F966D917D918D911A
:1054A0009C9152970E94AB2D2B013C0120E030E0F3
:1054B00040E05FE3C701B6010E940C2E9B01AC01E6
:1054C000C301B2010E94A32FA50194010E942730BD
:1054D0004B015C01F101838A948AA58AB68AC3A034
:1054E000D4A0E5A0F6A020E030E040E050E4C70101
:1054F000B6010E947131181664F4A5019401C5012A
:10550000B4010E94A42FA70196010E9427304B01ED
:105510005C0120E030E0A901C501B4010E947131B5
:10552000181624F0B7FAB094B7F8B094A501940116
:10553000C501B4010E940C2E2B013C017C016B01C2
:10554000F7FAF094F7F8F09420E030E040E05FE301
:10555000C701B6010E940C2E0E94A1306D8B7E8B7C
:105560008F8B988F2AE136EF45E15FE3C701B601E3
:105570000E940C2E0E94A1306D8F7E8F8F8F98A37A
:10558000C701B6010E94A13069A37AA38BA39CA393
:1055900020E030E040EE50E46D897E898F89988D5F
:1055A0000E940C2E6B017C0120E030E040E851E4C9
:1055B0006D8D7E8D8F8D98A10E940C2E9B01AC016C
:1055C000C701B6010E94A42F6B017C012BED3FE0C7
:1055D00049E45FE3C301B2010E940C2E20E030E0F9
:1055E00040EE50E40E94A42F29A13AA14BA15CA156
:1055F0000E940C2E9B01AC01C701B6010E94A42F92
:1056000029E838E848E05DE30E940C2E9B01AC01DC
:1056100060E070E080E89FE30E94A32F0E94663262
:1056200020E030E040E05FE30E940C2E6B017C0143
:1056300020E030E0A901C501B4010E94A62D87FF3A
:1056400056C020E030E040E05FE3C701B6010E94B1
:10565000A42F9B01AC010E94A42F9B01AC0160E030
:1056600070E080E89FE30E94A32F20E030E04FE746
:1056700053E40E940C2E6B017C0120E030E0A90174
:105680000E94713120E030E040E05FE387FD38C0E8
:10569000C701B6010E94A42F0E94D330C62ED101AB
:1056A00092962C91929730E050E040E06D917D9180
:1056B0008D919C910E94602FF10120A131A1C9011F
:1056C000860F971FDC01CC9222A130A1E32FD101DC
:1056D0009196FC9160E070E0CB014E2F431B421786
:1056E000A0F44191640F711D811D911DF6CFA7019A
:1056F000960160E070E080E09FE30E94A32FA9CFB5
:10570000C701B6010E94A32FC7CF30E050E040E0B0
:105710000E94602F2F3331054105510520F42FE3FE
:1057200030E040E050E0F101278BD801D4968C9115
:10573000811104C0622FC8010E942807F101EE59AF
:10574000FF4F8081882329F1F1016081718182817D
:1057500093812EE030E040E050E00E94602F672B04
:10576000682B692BB1F4D10153964C915397549601
:105770002C91549755960C9155975696EC905697B8
:105780005796AC906CE58091F9019091FA010E94D6
:105790005B11F101C388D488E588F68820E030E009
:1057A000A901C701B6010E947131181624F0F7FA59
:1057B000F094F7F8F094A7019601D10193966D91BA
:1057C0007D918D919C9196970E94A62D87FD02C098
:1057D0000C94A01EF10187A190A5019690A787A324
:1057E00081A592A5019692A781A7E091F301F0917E
:1057F000F40180A9A9E6B1E0E0E09D91981719F0C5
:10580000EF5FE830D1F7F0E0EE0FFF1FE20DF31D80
:1058100083A594A5019694A783A7F101EE5BFF4FA2
:105820009FCDD10197968D919C91989701969896CE
:105830009C938E939797F80180A9A9E6B1E0E0E0E8
:105840009D91981719F0EF5FE830D1F7F0E0EE0F77
:10585000FF1FE20DF31D83A594A5019694A783A7CE
:10586000F101E45BFF4F7CCDAA82DC01ED91FC915C
:105870009401201B310B2130310511F40C94CB2302
:105880000084F185E02D42E0BE016F5F7F4F0995F6
:105890000E5F1F4F0815190510F40C9493230E94F6
:1058A0002A020C94721FFA14A8F3AA828091F701BD
:1058B0009091F801DC01ED91FC910680F781E02DDB
:1058C0006A2D0C94CE238E149F0490F0B701809122
:1058D000F7019091F80115C893012C193D09213069
:1058E000310509F014C80E945213FFEFCF1ADF0AE6
:1058F000C614D70410F40C9419240E942A020C94A4
:10590000721F0F931F93CF93DF938230910510F492
:1059100082E090E0E0911203F091130330E020E088
:10592000B0E0A0E0309799F42115310509F44AC0A0
:10593000281B390B24303105D8F58A819B816115EC
:10594000710589F1FB0193838283FE0111C04081BF
:1059500051810281138148175907E0F04817590710
:1059600099F4109761F012960C93129713961C936A
:105970003296CF01DF91CF911F910F91089500933F
:10598000120310931303F4CF2115310551F0421780
:10599000530738F0A901DB019A01BD01DF01F801CD
:1059A000C1CFEF01F9CF9093130380931203CDCFB2
:1059B000FE01E20FF31F8193919322503109398345
:1059C0002883D7CF2091100330911103232B41F46A
:1059D0002091220130912301309311032093100371
:1059E00020912001309121012115310541F42DB77D
:1059F0003EB74091240150912501241B350BE091C5
:105A00001003F0911103E217F307A0F42E1B3F0BD4
:105A10002817390778F0AC014E5F5F4F2417350720
:105A200048F04E0F5F1F5093110340931003819372
:105A300091939FCFF0E0E0E09CCFCF93DF9300976E
:105A4000E9F0FC01329713821282A0911203B09107
:105A50001303ED0130E020E01097A1F420813181A3
:105A6000820F931F209110033091110328173907DB
:105A700009F061C0F0931103E0931003DF91CF911F
:105A80000895EA01CE17DF07E8F54A815B819E01A0
:105A900041155105B1F7E901FB83EA834991599119
:105AA000C40FD51FEC17FD0761F480819181029628
:105AB000840F951FE90199838883828193819B8359
:105AC0008A83F0E0E0E012968D919C911397009705
:105AD000B9F52D913C911197CD010296820F931F3C
