:100000000C94BD000C94E5000C94E5000C94E50004
:100010000C94E5000C94E5000C94E5000C94C50FDD
:100020000C94E5000C94EF0F0C940B110C947411CC
:100030000C94CF100C94E5000C94E5000C94E500B2
:100040000C94E5000C9401110C94F7100C94ED1035
:100050000C94E5000C94E5000C94E5000C94230F3F
:100060000C94E5000C94930F0C946D0F0C94E50028
:100070000C9413100C94E5000C94E5000C945210B1
:100080000C94B9100C94E3100C94D9100C94371004
:100090000C94E5000C94E5000C94E5000C94E5004C
:1000A0000C94E5000C94E5000C94E50008000000B9
:1000B000BE922449123EABAAAA2ABECDCCCC4C3E5D
:1000C00000000080BEABAAAAAA3E00000000BF004C
:1000D0000000803F0000000000084178D3BB438748
:1000E000D1133D190E3CC3BD4282AD2B3E68EC825C
:1000F00076BED98FE1A93E4C80EFFFBE01C4FF7FE1
:100100003F0000000000080B00020202000009048A
:100110000000010202000005240010010524010175
:1001200001042402060524060001070581031000CE
:100130004009040100020A00000007050202400015
:1001400000070583024000000403090412010002B5
:10015000EF020140091284480001010203014761D6
:10016000627269656C2047756572726572005241F2
:10017000564120524E470000F01311241FBECFEF0E
:10018000DAE0DEBFCDBF11E0A0E0B1E0E8EFF5E4DA
:1001900002C005900D92A836B107D9F722E0A8E673
:1001A000B1E001C01D92A53BB207E1F710E0CDEB35
:1001B000D0E004C02197FE010E94E720CC3BD1078C
:1001C000C9F70E943F140C94FA220C940000FB0122
:1001D000DC015C9112966C91252F220F220F220FC9
:1001E00095E5822F899F080E80E0811D1124452FFF
:1001F0004074352F307257FD40C0411129C0311174
:1002000006C0982F9095282F892F90E004C025E5EF
:10021000280F90E08BEA6F3FB9F030E0662321F0C1
:10022000669F312D09F03F5F332309F445C0839F5A
:10023000080E80E0811D239F020E20E0211D939F68
:10024000090E90E0911D11248083218392830895EB
:1002500031110DC0922F2AEA929F090E90E0911D54
:1002600011242BEA291B922F2AEA280FCDCF90E0E8
:10027000282F2095982F80E0CECF411111C0311149
:100280000BC0922F8AEA989F090E90E0911D1124CD
:100290002BEA291B9B5AEFCF982F909520E0BBCFDC
:1002A000311106C025E5280F9BEA981B822FF6CF57
:1002B0002AEA280F30E0F9CF90E020E080E0C4CFB8
:1002C0009091B601911103C08FEF9FEF08954FB742
:1002D000F89492E09093E9009091F200292F30E099
:1002E0001216130614F421E030E0232B29F084E6E3
:1002F0008093B5018091F100992339F02091F200AB
:10030000211103C02BE62093E8004FBF9923E1F2AF
:1003100090E008952FB7F89483E08093E9009091DE
:10032000E800892F807295FF04C09091F20080E46C
:10033000891B2FBF0895CF92EF920F93CF93DF9336
:10034000CDB7DEB728970FB6F894DEBF0FBECDBF8E
:1003500034E239836A834B832C830D83EE82CF8210
:100360001886DC01ED91FC910084F185E02D48E0D8
:10037000BE016F5F7F4F099528960FB6F894DEBFD8
:100380000FBECDBFDF91CF910F91EF90CF90089529
:10039000789483E085BD0895F89487E085BD08953D
:1003A00010929000109291001092920010927100A1
:1003B0003E9808958230910538F0880F991F880F74
:1003C000991F05970197F1F708953FB7F894809129
:1003D000AF019091B001A091B101B091B20126B5E9
:1003E000A89B05C02F3F19F00196A11DB11D3FBF6D
:1003F000BA2FA92F982F8827BC01CD01620F711D3C
:10040000811D911D42E0660F771F881F991F4A9535
:10041000D1F70895CF92DF92EF92FF920E94E5010B
:100420006B017C010E94E5016C197D098E099F0911
:10043000683E734081059105A8F3FF90EF90DF902F
:10044000CF900895AF92BF92CF92DF92EF92FF923A
:100450000F931F93CF93DF936C017B018B01040FEC
:10046000151FEB015E01AE18BF08C017D10759F088
:100470006991D601ED91FC910190F081E02DC601CA
:100480000995892B79F7C501DF91CF911F910F91C4
:10049000FF90EF90DF90CF90BF90AF900895FC0158
:1004A000538D448D252F30E0842F90E0821B930BD9
:1004B000541710F0CF96089501970895FC01918D7F
:1004C000828D981761F0A28DAE0FBF2FB11D5D9682
:1004D0008C91928D9F5F9F73928F90E008958FEF24
:1004E0009FEF0895FC01918D828D981731F0828DD8
:1004F000E80FF11D858D90E008958FEF9FEF08952F
:10050000FC01918D228D892F90E0805C9F4F821B92
:1005100091098F739927089587EB91E00E948002DB
:1005200021E0892B09F420E0822F089580E090E0FB
:10053000892B29F00E948C0281110C9400000895EF
:10054000FC01A48DA80FB92FB11DA35ABF4F2C9148
:10055000848D90E001968F739927848FA689B7893F
:100560002C93A089B1898C9182748C93938D848D06
:10057000981306C00288F389E02D80818F7D8083E7
:100580000895EF92FF920F931F93CF93DF93EC01A7
:1005900081E0888F9B8D8C8D981319C0E889F9892B
:1005A000808185FF14C09FB7F894EE89FF8960832E
:1005B000E889F9898081827480839FBF81E090E01F
:1005C000DF91CF911F910F91FF90EF900895F62E3C
:1005D0000B8D10E00F5F1F4F0F731127E02E8C8DD6
:1005E0008E110CC00FB607FCFACFE889F98980811B
:1005F00085FFF5CFCE010E94A002F1CFEB8DEC0F6D
:10060000FD2FF11DE35AFF4FF0829FB7F8940B8F37
:10061000EA89FB8980818062CFCFCF93DF93EC01A1
:10062000888D8823B9F0AA89BB89E889F9898C91DA
:1006300085FD03C0808186FD0DC00FB607FCF7CF96
:100640008C9185FFF2CF808185FFEDCFCE010E9496
:10065000A002E9CFDF91CF9108958F929F92AF9240
:10066000BF92CF92DF92EF92FF920F931F93CF939F
:10067000DF936C017B018A0180910B01882309F4CF
:1006800057C08091B601882309F452C080917A0145
:1006900080FF05C08091E00082608093E000E80167
:1006A000B12C8AEFA82E93E0892E2AE3922E209770
:1006B00011F4BB20B9F10E948A01811106C0AA94ED
:1006C000AA20B1F10E940A02F2CF8C171D0611F088
:1006D0000CF08C2F9FB7F8948092E9002091E800ED
:1006E00025FD02C09FBFE3CF282F30E0C21BD30BF4
:1006F000F701815020F041914093F100FACFE20ED2
:10070000F31EBB2021F09092E800B12CEBCF80913A
:10071000E80085FDE7CF9092E800BB24B3942097D2
:1007200009F3F3CF84E680937901101611063CF0AB
:1007300081E090E0F6019383828310E000E0C8013D
:10074000DF91CF911F910F91FF90EF90DF90CF90AD
:10075000BF90AF909F908F900895CF93DF931F929B
:10076000CDB7DEB76983DC01ED91FC910280F381A6
:10077000E02D41E050E0BE016F5F7F4F09950F9083
:10078000DF91CF91089583E08093E9008091F2009A
:10079000882319F08AE38093E80008950E948A0173
:1007A00090E00895FC018485958597FD05C02FEFA5
:1007B0003FEF3587248708950C946001CF93DF9332
:1007C000EC018C859D8597FF04C00E9460019D8788
:1007D0008C878C859D85DF91CF910895FC01848560
:1007E000958597FD0BC09FB7F89482E08093E90050
:1007F0008091F2009FBF90E0019608959FB7F89412
:1008000082E08093E9008091F2009FBF90E008951C
:100810008A3010F4805D0895895A08950F931F93CC
:10082000CF93DF93EC01EEE0F0E000E011E21093F3
:100830005700849108273196E431F105C1F7802FE4
:1008400082958F700E9408048883802F8F700E9489
:1008500008048983E5E1F0E0109357000491802FAC
:1008600082958F700E9408048A83802F8F700E9467
:1008700008048B83E6E1F0E0109357000491802F89
:1008800082958F700E9408048C83802F8F700E9445
:1008900008048D83E7E1F0E0109357001491812F55
:1008A00082958F700E9408048E83812F8F700E9422
:1008B00008048F83DF91CF911F910F910895FF92CC
:1008C0000F931F93CF93DF93F62E8A01E9010E94C5
:1008D000D0018F2D66E00E94DB20A1E9B0E09C935F
:1008E000E0E9F0E08081826080838C9188618C9364
:1008F00080818068808346983E9A10939700009389
:100900009600D0939900C093980010929500109291
:100910009400DF91CF911F910F91FF9008954F9216
:100920005F926F927F928F929F92AF92BF92CF927F
:10093000DF92EF92FF920F931F93CF93DF9300D03C
:10094000CDB7DEB75C014B01622F84E0489FF00118
:1009500011243796EA0DFB1D608071804280538020
:10096000C12CE12C292D482D8091A4019091A50145
:100970000E949B010E94CC017201F594E794EA0C5D
:10098000FB1C10E000E090E4D92EA1E04A2255249F
:100990008016910671F1F501808D8111DEB8F301A9
:1009A0004114510441F0D701ED91FC91E60DF71D82
:1009B0000190F081E02DAE014E5F5F4FBE016F5F91
:1009C0007F4FC7010995F501808D81111EB8809177
:1009D000A4019091A501DC01ED91FC910084F185C9
:1009E000E02D42E0BE016F5F7F4F09950F5F1F4F03
:1009F000CFCF0E94C8010F900F90DF91CF911F9130
:100A00000F91FF90EF90DF90CF90BF90AF909F90AD
:100A10008F907F906F905F904F900895AF92BF92AC
:100A2000CF92DF92EF92FF920F931F93CF93DF93BA
:100A300000D01F92CDB7DEB75C018B016A0179014E
:100A4000F90180818530A9F481E08B839E012D5FBF
:100A50003F4FAE014E5F5F4FBE016F5F7F4FC501DD
:100A60000E940E0599818A81981709F183E0F701A8
:100A70008083F70180818230E1F410928400F501D7
:100A8000878990E00E94DA01809184008170F801EA
:100A900080830F900F900F90DF91CF911F910F9156
:100AA000FF90EF90DF90CF90BF90AF90089582E0DD
:100AB000DECF833041F416BCF501878990E00E94B7
:100AC000DA0186B5E3CF1092840016BCF501878960
:100AD00090E00E94DA0190918400998386B591702C
:100AE000F80190838170F6018083F7019081943042
:100AF00081F6F80190818927CBCFEF92FF920F9377
:100B00001F93CF93DF937B018A01C4E8D0E0188262
:100B100016BCFC01878990E00E94DA018881F70108
:100B2000808386B5F8018083DF91CF911F910F916B
:100B3000FF90EF9008950F931F93CF93DF938C0155
:100B4000DC01EC91F0E090A113968C91C1E0D0E033
:100B50009E0101C0220F8A95EAF7922B90A3CB0148
:100B60000E94DA01D801EC91F0E080A113969C91EB
:100B700001C0CC0F9A95EAF7C095C823C0A3DF91B6
:100B8000CF911F910F910895DC01EC91F0E080A1CD
:100B900013969C91139721E030E0A90101C0440F06
:100BA0009A95EAF74095482340A31196EC91119746
:100BB000F0E080A113969C9101C0220F9A95EAF76C
:100BC0002095282320A30895DC01EC91F0E080A17A
:100BD00013969C91139741E050E09A0101C0220FB7
:100BE0009A95EAF72095282320A31196EC91119766
:100BF000F0E080A113969C9101C0440F9A95EAF70A
:100C0000482B40A30895FC01848595852081009799
:100C1000A1F4228B81E0808B81E090E0958784872E
:100C20008685978521810097F9F4238B81E0818B5C
:100C300081E090E0978786870895328932130CC04F
:100C400020892F5F208B3385231306C024893589A3
:100C50002F5F3F4F358B248B0196811522E0920741
:100C6000E9F615861486DCCF338932130CC021894E
:100C70002F5F218B3385231306C0268937892F5F89
:100C80003F4F378B268B0196811522E0920791F614
:100C9000178616860895FC018081928189131BC0F6
:100CA00085818F5F85839481891728F0878190855E
:100CB00001969087878381819381891310C08681F3
:100CC0008F5F86839481891768F08185928501966C
:100CD000928781870895828381E08583ECCF838327
:100CE00081E0868308953F924F925F926F927F9248
:100CF0008F929F92AF92BF92CF92DF92EF92FF922C
:100D00000F931F93CF93DF9300D000D0CDB7DEB702
:100D10004C016B017A01FB011082FA0110820DE295
:100D200011E088E0582E412C312C332011F0411075
:100D30002BC0AE014E5F5F4FBE016F5F7F4FC4019E
:100D40000E947D05AE014C5F5F4FBE016D5F7F4F1E
:100D5000C4010E947D0531100AC089818170A82ECE
:100D60008B818170782EA81611F0332433944110B2
:100D7000DCCF8A818170B82E8C818170682EB81684
:100D8000A1F244244394D1CF7A1438F4F60180813F
:100D9000F8019081892BF60180836B1438F4F701F8
:100DA0008081F8019081892BF70180835A940F5F2D
:100DB0001F4F5110B8CF0091980110919901F60181
:100DC0008081F8018083F7018081F8018183C80167
:100DD0000E944B06C8010E9403060F900F900F90CF
:100DE0000F90DF91CF911F910F91FF90EF90DF90C7
:100DF000CF90BF90AF909F908F907F906F905F90BB
:100E00004F903F900895AF92BF92DF92EF92FF9282
:100E10000F931F93CF93DF935C017B018A01FB014A
:100E20001082FA011082CDE2D1E088E0D82E109233
:100E3000840016BCF501878990E00E94DA01809158
:100E4000840096B580FF05C0F70180812881822B40
:100E5000808390FF05C0F80180819881892B808371
:100E6000DA942196D110E3CFC0919801D0919901E5
:100E7000F70180818883F80180818983CE010E94F7
:100E80004B06CE01DF91CF911F910F91FF90EF9014
:100E9000DF90BF90AF900C940306CF92DF92EF9259
:100EA000FF920F931F93CF93DF9300D000D0CDB765
:100EB000DEB78C016B017A01AE014E5F5F4FBE0160
:100EC0006F5F7F4F0E940307AE014C5F5F4FBE0113
:100ED0006D5F7F4FC8010E94030789819B8189272D
:100EE000F60180838A819C818927F70180830F9096
:100EF0000F900F900F90DF91CF911F910F91FF9066
:100F0000EF90DF90CF900895CF92DF92EF92FF9213
:100F10000F931F93CF93DF9300D000D0CDB7DEB7F0
:100F20006C017B018A01AE014E5F5F4FBE016F5FB6
:100F30007F4F0E940307AE014C5F5F4FBE016D5FA4
:100F40007F4FC6010E94030799818B818927990FE2
:100F5000911D8927F70180839A818C818927990FB8
:100F6000911D8927F80180830F900F900F900F90AB
:100F7000DF91CF911F910F91FF90EF90DF90CF9075
:100F80000895EF92FF920F931F93CF93DF93CDB706
:100F9000DEB728970FB6F894DEBF0FBECDBF7C0139
:100FA0008B01AE014A5F5F4FBE016E5F7F4F0E94B3
:100FB0000307AE01495F5F4FBE016D5F7F4FC70101
:100FC0000E940307AE01485F5F4FBE016C5F7F4F19
:100FD000C7010E94030769817A818B819C818F7789
:100FE000992780689F6320E030E040E85FE30E943B
:100FF000ED20F80160837183828393836D817E810C
:101000008F8198858F77992780689F6320E030E0F3
:1010100040E85FE30E94ED20F801648375838683D6
:10102000978328960FB6F894DEBF0FBECDBFDF9131
:10103000CF911F910F91FF90EF9008952F923F92C3
:101040004F925F926F927F928F929F92AF92BF92D8
:10105000CF92DF92EF92FF920F931F93CF93DF9384
:10106000CDB7DEB7CA50D2400FB6F894DEBF0FBE80
:10107000CDBF8C0180E091E09E012F5F3F4FCD5F9F
:10108000DD4F39832883C350D240D901FC011D9222
:101090003197E9F71E01F1E02F0E3F1ED101FC014F
:1010A0001D923197E9F720919A0130919B01CB5F16
:1010B000DD4F39832883C550D2400E94CC01412C9A
:1010C000512C3201C12CD12C7601812C912C540150
:1010D000F80180819181A281B381481659066A0680
:1010E0007B0608F047C0AE014E5F5D4FBE016F5FEB
:1010F0007D4FCB5FDD4F88819981C550D2400E94E2
:101100000307CF5FDD4FA881C150D2408A2F90E006
:10111000882329F02FEF280F82239F5FF9CF890EB4
:10112000911CA11CB11CCE5FDD4FE881C250D240A2
:101130009E2F992329F02FEF290F92238F5FF9CF4C
:10114000C80ED11CE11CF11C21E030E02C0F3D1F2A
:101150002A0F311DD9018C918F5F8C93E20DF32DF5
:10116000F11D80818F5F80833FEF431A530A630A2A
:10117000730AAECF0E94C801D8018D919D910D9048
:10118000BC91A02DCB5FDD4F88839983AA83BB835D
:10119000C550D240BC01CD0123E0660F771F881FE8
:1011A000991F2A95D1F70E94861F2B013C01C5018A
:1011B000B4010E94861FA30192010E94712120E0C8
:1011C00030E040E05FE30E94ED2020E030E048ECBA
:1011D00052E40E94E71F4B015C01F801848695866A
:1011E000A686B786C701B6010E94861FA301920199
:1011F0000E94712120E030E040E05FE30E94ED209A
:1012000020E030E048EC52E40E94E71F6B017C01D3
:10121000D8015096CD92DD92ED92FC92539720E04A
:1012200030E0A901C501B4010E945A22181624F029
:10123000B7FAB094B7F8B094F8014480558066804E
:101240007780A5019401C301B2010E945A2287FD53
:1012500019C020E030E0A901C701B6010E945A225E
:10126000181624F0F7FAF094F7F8F094A701960115
:10127000C301B2010E945A2287FD04C081E0D80157
:1012800054968C93CB5FDD4F688179818A819B81F5
:10129000C550D2400E94861F20E030E040E85BE36A
:1012A0000E94E71F2B013C01FE013196CB5FDD4F11
:1012B000F983E883C550D240C75FDD4F3982288269
:1012C000C950D240C12CD12C760146015701CB5FC9
:1012D000DD4FA881B981C550D2406D91CB5FDD4F04
:1012E000B983A883C550D24070E090E080E00E94AE
:1012F000861FA30192010E94ED209B01AC010E9478
:10130000E71FA30192010E9471219B01AC01C5015D
:10131000B4010E94EE204B015C01C75FDD4FE88104
:10132000F981C950D2406191C75FDD4FF983E883ED
:10133000C950D24070E090E080E00E94861FA30177
:1013400092010E94ED209B01AC010E94E71FA301C6
:1013500092010E9471219B01AC01C701B6010E945C
:10136000EE206B017C01CB5FDD4F28813981C550B8
:10137000D2402216330609F0AACFD80155968D9295
:101380009D92AD92BC925897F801C18ED28EE38E99
:10139000F48E4084518462847384A3019201C50158
:1013A000B4010E94811F87FF2EC0A3019201C701D3
:1013B000B6010E94811F87FF26C081E0D8015D969B
:1013C0008C93D80154968C915497882311F05D9694
:1013D0008C91C65FDD4F0FB6F894DEBF0FBECDBF58
:1013E000DF91CF911F910F91FF90EF90DF90CF9001
:1013F000BF90AF909F908F907F906F905F904F9035
:101400003F902F900895F801158EDBCF2F923F92D9
:101410004F925F926F927F928F929F92AF92BF9204
:10142000CF92DF92EF92FF920F931F93CF93DF93B0
:10143000CDB7DEB72F970FB6F894DEBF0FBECDBF86
:101440001C0100919A0110919B010E94CC01812CFA
:10145000912C54011F82188619861A861B821C82C1
:101460001D821E82C12CD12C7601412C512C3201BF
:10147000F101868D978DA0A1B1A188169906AA06C3
:10148000BB0608F054C0AE014F5F5F4FBE016E5FF8
:101490007F4FC8010E947D052A81420E511C611CAC
:1014A000711C3981C30ED11CE11CF11C8114910403
:1014B000A104B104A1F1422F6B85461B550BCA0153
:1014C00057FF03C0919581959109092E000CAA0B35
:1014D000BB0B4B815C816D817E81480F591F6A1F58
:1014E0007B1F4B835C836D837E83632FAF856A1B79
:1014F000770BCB0177FF03C0919581959109092E58
:10150000000CAA0BBB0B4F81588569857A85480F63
:10151000591F6A1F7B1F4F83588769877A875FEF40
:10152000851A950AA50AB50A3F872B87A1CF0E9485
:10153000C801D1015E966D917D918D919C9191979D
:101540006B877C878D879E870E94861F4B015C017D
:10155000C301B2010E94861FA50194010E9471215E
:101560002B013C01F10142A653A664A675A6C70152
:10157000B6010E94861FA50194010E9471214B01B2
:101580005C01D1019E968D929D92AD92BC92D197B5
:101590006B857C858D859E856150710981099109D6
:1015A0000E94861F6B017C016B817C818D819E81F5
:1015B0000E94861FA70196010E9471216B837C8384
:1015C0008D839E83F10162AB73AB84AB95AB6F816E
:1015D000788589859A850E94861FA70196010E94B9
:1015E00071216F83788789879A87D101D6966D9309
:1015F0007D938D939C93D997F801678970E090E073
:1016000080E00E94861F9B01AC010E94EE206B01CE
:101610007C01D1019296CD92DD92ED92FC9295974C
:10162000AC019B01C301B2010E945A2287FD4FC049
:10163000A7019601C501B4010E945A2287FD47C047
:1016400081E0F10182AFF10186A097A0A0A4B1A42E
:10165000A50194016B817C818D819E810E945A221B
:101660001816CCF5A50194016F81788589859A8536
:101670000E945A2218167CF581E0D101DB968C93EA
:10168000D101DA961C91DA97112311F0DB961C91A7
:10169000C1010E941E088123F10184AF2F960FB66D
:1016A000F894DEBF0FBECDBFDF91CF911F910F9198
:1016B000FF90EF90DF90CF90BF90AF909F908F9072
:1016C0007F906F905F904F903F902F900895D10141
:1016D000DA961C92B8CFF10113AED2CFCF92EF922F
:1016E0000F93CF93DF93CDB7DEB728970FB6F8945B
:1016F000DEBF0FBECDBFCE0101960E940E04C12CED
:10170000E12C00E020E048E061E08091A4019091AC
:10171000A5010E949B018091A4019091A501DC018B
:10172000ED91FC910084F185E02D48E0BE016F5FF2
:101730007F4F099528960FB6F894DEBF0FBECDBF38
:10174000DF91CF910F91EF90CF90089550E084E515
:1017500092E00C942D0384E592E00C94AD03EF929B
:10176000FF920F931F93CF93DF93E42EF12C8B0105
:10177000D0E0C0E0CE15DF0508F03DC02FB7F894EB
:101780008091AB019091AC01A091AD01B091AE01FF
:101790002FBF80935C0290935D02A0935E02B09392
:1017A0005F0284E592E00E94D20397FF2CC02FB71E
:1017B000F8948091AB019091AC01A091AD01B091F2
:1017C000AE012FBF40915C0250915D0260915E02BC
:1017D00070915F02841B950BA60BB70B40915802CA
:1017E0005091590260915A0270915B0284179507DB
:1017F000A607B707B0F28C2FDF91CF911F910F9101
:10180000FF90EF900895F80181938F012196B2CF58
:1018100084E592E00E94D203089584E592E00C945E
:10182000EE030F931F93CF93DF93EC018B01E881BD
:10183000F9810190F081E02D0995892B31F480E048
:10184000DF91CF911F910F910895E881F981028076
:10185000F381E02DCE010995843289F7E881F98181
:101860000480F581E02D47E0B801CE01099587306D
:1018700031F7F8018081E4CFCF93DF9300D000D01F
:10188000CDB7DEB749835A836B837C83DC01ED914E
:10189000FC910084F185E02D44E0BE016F5F7F4F35
:1018A00009950F900F900F900F90DF91CF910895B1
:1018B000CF92EF920F93CF93DF93EC018DE0C82E80
:1018C0009DE0E92E0DE02DE04CAD6DE38091A4018B
:1018D0009091A5010E949B018091A4019091A50186
:1018E000DC01ED91FC910680F781E02D6AAD099550
:1018F0004AA55BA56CA57DA58091A4019091A50149
:101900000E943C0C4EA55FA568A979A98091A4010D
:101910009091A5010E943C0C4AA15BA16CA17DA104
:101920008091A4019091A5010E943C0C8091A4019A
:101930009091A501DC01ED91FC910680F781E02DED
:101940006BAD09954AA95BA96CA97DA98091A401F9
:101950009091A5010E943C0C4EA95FA968AD79AD9C
:101960008091A4019091A5010E943C0C4EA15FA121
:1019700068A579A58091A4019091A5010E943C0CD5
:101980008091A4019091A501DC01ED91FC9106806C
:10199000F781E02D6C8909954C855D856E857F8585
:1019A0008091A4019091A5010E943C0C488959891D
:1019B0006A897B898091A4019091A5010E943C0CC9
:1019C0004C815D816E817F818091A4019091A50100
:1019D0000E943C0C8091A4019091A501DC01ED9145
:1019E000FC910680F781E02D6D8D09954D895E890A
:1019F0006F89788D8091A4019091A5010E943C0C83
:101A0000498D5A8D6B8D7C8D8091A4019091A5019B
:101A10000E943C0C488559856A857B858091A4018C
:101A20009091A501DF91CF910F91EF90CF900C9401
:101A30003C0CCF93DF9300D0CDB7DEB77A836983B8
:101A4000DC01ED91FC910084F185E02D42E0BE01C6
:101A50006F5F7F4F09950F900F90DF91CF910895A1
:101A600040916A0150916B012091680130916901A8
:101A700042175307B4F49091E8009570E1F3909108
:101A8000E80092FD19C08093F10080916A01909165
:101A90006B0101968F739927892B19F48EEF809330
:101AA000E80080916A0190916B01019690936B011F
:101AB00080936A0181E0089580E00895DF92EF92BB
:101AC000FF920F931F93CF93DF93D82E8A01EB01E0
:101AD0007B01E40EF51ECE15DF0559F0D7FE12C0CE
:101AE000FE0184910E94300D21968111F4CF0FEFF9
:101AF0001FEFC801DF91CF911F910F91FF90EF90E1
:101B0000DF9008958881EECF0F931F93CF93DF93DB
:101B10001F92CDB7DEB712E0198342E450E066E0D1
:101B200071E080E80E945E0D8091710181110CC00E
:101B300010936D0184E080936E01109270011092F9
:101B40006F0181E08093710100916F01109170012C
:101B50000115110589F0D801ED91FC910280F38106
:101B6000E02DBE016F5F7F4FC801099597FD04C04E
:101B7000F80100851185ECCF89810F90DF91CF911D
:101B80001F910F910895CF92DF92EF92FF928132D1
:101B90009105E8F422E020939100C12CD12C5AEF5A
:101BA000E52E54E4F52EBC0190E080E00E94861FF3
:101BB000A70196010E94E71F0E94AF220E94EA211E
:101BC000CB010197FF90EF90DF90CF900895873081
:101BD00021E0920750F423E020939100C12CD12CF6
:101BE0004AE7E42E43E4F42EDECF893124E0920765
:101BF00050F424E020939100C12CD12C3AE7E32E3D
:101C000032E4F32ED0CF833620E1920750F425E062
:101C100020939100C12CD12C2AE7E22E21E4F22E50
:101C2000C2CF90E080E0CECF0F931F93CF938C0173
:101C3000C42F822F662349F08AE090E00E94A520FD
:101C4000C82F8BE090E00E94A5209FEF9C0F95305D
:101C500008F053C0882309F450C0C13079F0C23075
:101C600009F44FC033E022E39FEEC33051F022E38A
:101C70009FE9C43009F497EC33E003C029E197EC05
:101C800034E02817D0F121E0F8012083C383848356
:101C9000318392831092C0001092C1001092C20052
:101CA0001092C3001092C40026983E9819BC29B522
:101CB000206129BD12BE22B72A6022BF22B720634D
:101CC00022BF22B7206422BF29B5226029BD3093EC
:101CD000C1002091C00021602093C0002091C0006D
:101CE00020622093C0002E98269A9093D100809372
:101CF000D0001092BF001092BE00CF911F910F91A3
:101D0000089529E195E9BCCFCF92EF920F93CF933D
:101D1000DF9385E090E00E94A520C82F86E090E048
:101D20000E94A520D82F87E090E00E94A520082FD0
:101D300088E090E00E94A520C12CE82E2D2F4C2F8A
:101D40006CE08091A4019091A5010E949B01DF911C
:101D5000CF910F91EF90CF900895AF92BF92CF9215
:101D6000DF92EF920F93CF935B016A01C22FBC0108
:101D700089E190E00E94C520B5018BE190E00E94CE
:101D8000C520B6018DE190E00E94C5206C2F83E252
:101D900090E00E94B320602F84E290E00E94B32084
:101DA0006E2D88E290E0CF910F91EF90DF90CF9071
:101DB000BF90AF900C94B320EF920F93CF93DF932B
:101DC000D0E0C0E0CE010E94A5208F3F21F52196F2
:101DD000C431D105B9F763E08AE090E00E94B320F6
:101DE00064E18BE090E00E94B3206AE08FE090E035
:101DF0000E94B32060E184E190E00E94B32089E971
:101E0000E82E0FEC26E44CE251E06EE570E088E548
:101E100092E00E94AD0E62E085E090E00E94B32067
:101E200060E086E090E00E94B32060E087E090E010
:101E30000E94B32063E188E090E0DF91CF910F91A1
:101E4000EF900C94B3201F920F920FB60F921124B3
:101E50002F933F938F939F93AF93BF938091AB0149
:101E60009091AC01A091AD01B091AE013091AA0169
:101E700023E0230F2D3758F50196A11DB11D2093A6
:101E8000AA018093AB019093AC01A093AD01B093F4
:101E9000AE018091AF019091B001A091B101B091DC
:101EA000B2010196A11DB11D8093AF019093B001C5
:101EB000A093B101B093B201BF91AF919F918F9167
:101EC0003F912F910F900FBE0F901F90189526E80D
:101ED000230F0296A11DB11DD2CF1F920F920FB6F4
:101EE0000F9211242F933F934F935F936F937F93A0
:101EF0008F939F93AF93BF93EF93FF9387EB91E003
:101F00000E94A002FF91EF91BF91AF919F918F919D
:101F10007F916F915F914F913F912F910F900FBEE5
:101F20000F901F9018951F920F920FB60F921124C9
:101F30002F938F939F93EF93FF93E091C701F091BD
:101F4000C8018081E091CD01F091CE0182FD1BC0DE
:101F500090818091D0018F5F8F732091D101821782
:101F600041F0E091D001F0E0E954FE4F958F80936D
:101F7000D001FF91EF919F918F912F910F900FBE04
:101F80000F901F9018958081F4CF1F920F920FB67B
:101F90000F9211242F933F934F935F936F937F93EF
:101FA0008F939F93AF93BF93EF93FF9364E670E09B
:101FB00080918201909183010E949B05FF91EF9196
:101FC000BF91AF919F918F917F916F915F914F9151
:101FD0003F912F910F900FBE0F901F9018951F9259
:101FE0000F920FB60F9211242F933F934F935F934D
:101FF0006F937F938F939F93AF93BF93EF93FF93D1
:102000000E94C50FFF91EF91BF91AF919F918F916A
:102010007F916F915F914F913F912F910F900FBEE4
:102020000F901F9018951F920F920FB60F921124C8
:102030002F933F934F935F936F937F938F939F93D0
:10204000AF93BF93EF93FF930E94C50FFF91EF9162
:10205000BF91AF919F918F917F916F915F914F91C0
:102060003F912F910F900FBE0F901F9018951F92C8
:102070000F920FB60F9211248F939F93EF93FF93BC
:10208000E0918801F091890180819181019691838D
:102090008083FF91EF919F918F910F900FBE0F90D2
:1020A0001F9018951F920F920FB60F921124CF9286
:1020B000DF92EF92FF920F932F933F934F935F9393
:1020C0006F937F938F939F93AF93BF93CF93DF9340
:1020D000EF93FF936091960070919700E0918801D3
:1020E000F0918901C081D18190E080E00E94861F3B
:1020F0002DEB37E346E857E30E94E71F6B017C01B5
:10210000BE0190E080E00E94861F9B01AC01C701E8
:10211000B6010E94EE20462F272FC12CE92E082F52
:1021200068E78091A4019091A5010E949B01109203
:10213000950010929400E0918801F091890111823C
:102140001082FF91EF91DF91CF91BF91AF919F915D
:102150008F917F916F915F914F913F912F910F914F
:10216000FF90EF90DF90CF900F900FBE0F901F90D9
:1021700018951F920F920FB60F9211248F93EF9321
:10218000FF93E0919A01F0919B0181E08183FF919F
:10219000EF918F910F900FBE0F901F9018951F9287
:1021A0000F920FB60F9211240F900FBE0F901F9039
:1021B00018951F920F920FB60F9211240F900FBE19
:1021C0000F901F9018951F920F920FB60F92112427
:1021D0000F900FBE0F901F9018951F920F920FB681
:1021E0000F9211240F900FBE0F901F9018951F9201
:1021F0000F920FB60F9211240F900FBE0F901F90E9
:1022000018951F920F920FB60F9211240F900FBEC8
:102210000F901F9018951F920F920FB60F921124D6
:102220008F939F938091E1009091E100937F909331
:10223000E10083FF0FC01092E90091E09093EB0062
:102240001092EC0092E39093ED001092B60198E0AA
:102250009093F00082FF1CC093E09093E90090916E
:10226000F200992319F09AE39093E8009091790194
:10227000992329F09091790191509093790190914F
:10228000B501992329F09091B50191509093B50132
:1022900084FF18C08091E2008E7E81608093E2000E
:1022A0008091E1008F7E8093E10080917A018E7EA3
:1022B000806180937A019F918F910F900FBE0F9054
:1022C0001F90189580FFF7CF8091E2008E7E80618D
:1022D0008093E2008091E1008E7E8093E100809106
:1022E0007A018E7E8160E5CF1F920F920FB60F921A
:1022F0001124DF92EF92FF920F931F932F933F933E
:102300004F935F936F937F938F939F93AF93BF93FD
:10231000EF93FF93CF93DF93CDB7DEB76197DEBF27
:10232000CDBF1092E9008091E80083FF2FC089E0C3
:10233000FE013A96EE2EDF2E815029F09091F100A9
:1023400090833196F9CF84E68093B50182EF809334
:10235000E8008A8587FF38C09091E80090FFFCCFA5
:10236000982F907609F035C19B854C855D852C852D
:10237000FD84911130C0803859F580917B018093A4
:10238000F1001092F1008EEF8093E80061960FB695
:10239000F894DEBF0FBECDBFDF91CF91FF91EF91DB
:1023A000BF91AF919F918F917F916F915F914F916D
:1023B0003F912F911F910F91FF90EF90DF900F9021
:1023C0000FBE0F901F9018959EEF9093E800C8CF16
:1023D0001092F100D6CF913059F48111D4CF413011
:1023E000510589F680917B018D7F80937B01CBCF56
:1023F000933049F48111C7CF4130510521F68091C6
:102400007B018260F2CF953041F48091E80080FF3B
:10241000FCCF20682093E300B6CF963009F0ACC023
:102420000889198922E01092E90010926B0110923C
:102430006A01F2122EC010926901109268010E9486
:10244000840D1F8299E09983FA8291E09E8390EA3D
:1024500098879AEF998720916A0130916B01275FE5
:102460003F4F3C832B838D831092E90010926B01C8
:1024700010926A01109369010093680149E050E0ED
:10248000BE016F5F7F4F80E00E945E0D0E94840D51
:102490007ACF1093690100936801809171018111D5
:1024A0000DC082E080936D0184E080936E011092F4
:1024B000700110926F0181E08093710100916F01B2
:1024C000109170010115110509F455C1D801ED9164
:1024D000FC910480F581E02D6E2D7D2DC8010995BC
:1024E000009709F04EC1F80100851185EBCFF3E0AC
:1024F000FF120CC08C858823B1F1823059F468E05A
:102500008EE691E00E94C61381113DCF81E2809357
:10251000EB003CCF813021F46FE08EE591E0F2CF0B
:102520008330A1F7CE0101960E940E0482E10E9441
:10253000300D83E00E94300D8E010F5F1F4F7E0132
:1025400029E0E20EF11CD8018D918D010E94300D21
:102550008823E1F280E00E94300D8823B9F2E01672
:10256000F10689F710CF68E471E0FB01449150E077
:1025700080E80E945E0D07CF973041F2983021F439
:1025800081E08093F100FFCE993009F0FCCE83709A
:1025900009F0BCCFE7E2F1E081E031E096E3219180
:1025A000222371F08093E9003093EB00DF01119753
:1025B0002C912093EC009093ED008F5F873079F79A
:1025C0008EE78093EA001092EA008C858093B60132
:1025D000DACE888999891092E90010926B011092E5
:1025E0006A0190936901809368018E8581119AC078
:1025F0008B859A85913A49F4813209F087CF47E07B
:1026000050E064E071E080E0B4CF913209F07ECF19
:10261000833269F48C859D85B0E0A0E08093000151
:1026200090930101A0930201B0930301ACCE8032DC
:10263000A9F48091E80082FFFCCF88E0E4E0F1E0BB
:10264000815029F09091F10090833196F9CF84E682
:102650008093B5018BEF8093E80095CE823209F02C
:1026600092CE8C8580930B01EEEFFFE785919491DC
:102670008B3F9C4D51F1E0E0F8E080910401909196
:102680000501A0910601B0910701803B9440A1058E
:10269000B105F1F480910B0180FD1AC0EE3F8AE094
:1026A000F80789F587E797E7918380838091600039
:1026B00080936C0188E19BE00FB6F894A895809315
:1026C00060000FBE909360005ECEEEEFFAE0D5CFD3
:1026D000808191818737974709F055CEA8958091E1
:1026E000600088618093600080916C01809360003D
:1026F000EE3F2AE0F20789F08091FE0A9091FF0AEE
:102700009183808340CE808191818737980751F2F1
:102710009093FF0A8093FE0AC5CF1092FF0A109291
:10272000FE0A31CE8091710181110DC082E080934B
:102730006D0184E080936E011092700110926F0120
:1027400081E08093710100916F011091700101157A
:10275000110509F4DBCED801ED91FC910190F081D7
:10276000E02D6E2D7D2DC801099581110CCEF8014B
:1027700000851185ECCFF1E0FF12B9CE6CE471E079
:10278000F4CE181619060CF4FECDC0CEEF92FF92CF
:102790000F931F93CF93DF93182FE92E062F81E01D
:1027A000860F880F0E94300D83E00E94300DF12EBD
:1027B000C12FDE2DFE0184910E94300D182F80E084
:1027C0000E94300D812329F021969C2F9F1990178C
:1027D00088F3DF91CF911F910F91FF90EF900895B3
:1027E000E7EBF1E01382128288EE93E0A0E0B0E024
:1027F00084839583A683B78327E431E031832083E4
:102800002DEC30E0358724872CEC30E037872687A5
:1028100028EC30E0318B208B29EC30E0338B228B9D
:102820002AEC30E0358B248B2EEC30E0378B268B76
:10283000118E128E138E148EE4E5F2E01382128252
:1028400084839583A683B78389E591E09183808310
:102850008FEF9FEF95878487E4EAF2E0808312820E
:102860001182148613868FEF9FEFDC018783908798
:10287000A187B28713821482158216820895CF939E
:10288000DF93CDB7DEB768970FB6F894DEBF0FBE03
:10289000CDBF789484B5826084BD84B5816084BDE9
:1028A00085B5826085BD85B5816085BD80916E00EE
:1028B000816080936E00109281008091810082601F
:1028C000809381008091810081608093810080915C
:1028D000800081608093800080919100826080936D
:1028E000910080919100816080939100809190008F
:1028F0008160809390008091C10084608093C100CA
:102900008091C10082608093C1008091C10081608C
:102910008093C1008091C30081608093C300809147
:10292000C00082608093C0008091C200816080936B
:10293000C20080917A00846080937A0080917A004E
:10294000826080937A0080917A00816080937A001F
:1029500080917A00806880937A001092B60110927C
:102960007B0110927A018091D70081608093D7001B
:1029700080EA8093D80089B5806189BD89B582607D
:1029800089BD09B400FEFDCF0E940A028091D800E3
:102990008F7C80618093D8008091E000807F80935D
:1029A000E0008091E1008E7E8093E1008DE08093D5
:1029B000E20083E090E00E945C1EDC0112961C9213
:1029C000129729E331E02D933C932FEF3FEF3093A3
:1029D00061022093600244E650E060E070E04093C2
:1029E00058025093590260935A0270935B0204B6E6
:1029F00003FC0DC041E950ED63E070E02091E80078
:102A000023FD05C04150510961097109B9F790933F
:102A1000A7018093A60181E090E00E945C1E909344
:102A2000A3018093A20181E090E00E945C1E8C01D2
:102A30000E94DC0E10939F0100939E0181E090E0C4
:102A40000E945C1E9093B4018093B30181E090E0FA
:102A50000E945C1E90937F0180937E0182E090E053
:102A60000E945C1EFC0111821082118210829093E0
:102A700089018093880181E090E00E945C1E909320
:102A80007D0180937C0181E090E00E945C1E24B770
:102A9000277F24BF9093A1018093A00181E090E063
:102AA0000E945C1E909381018093800185E090E0FC
:102AB0000E945C1E8C01DC011C9220E040E061E081
:102AC0000E94140E10939D0100939C0189E190E0F7
:102AD0000E945C1E8C01FC0110821182108E14BCBD
:102AE00015BC10926E0083E085BD80916E00816000
:102AF00080936E00109280001092810010928200EC
:102B000010926F0087E08093810083E097E09087C8
:102B10008783128611868DE497E0948783871686D3
:102B2000158684E897E0908B8787128A118A83E75D
:102B300096E0948B838B168A158A8FE090E00E9432
:102B4000A520882319F0D80157968C9310939B01E8
:102B500000939A018DE390E00E945C1E8C01FC01C1
:102B6000148A158E12AE13AEFF24F394F4AE85E3EF
:102B70009CE0A0E0B0E080839183A283B38345EE24
:102B800050ED62EB7FE3448355836683778348EBA4
:102B90005EE765EB73E44087518762877387868FB2
:102BA000978FA0A3B1A386E696E6A6E6BFE386A329
:102BB00097A3A0A7B1A71093A9010093A80188E14A
:102BC00090E00E945C1EFC0112821382F582F68264
:102BD0001086178212861186158614861786168629
:102BE000F08AF18A158A148A178A168A84E0848307
:102BF0008DE08387F0939901E093980184E090E061
:102C00000E945C1E4C0180910C01D4018C93809138
:102C10000D0111968C93119780910E0112968C9351
:102C2000129780910F0113968C9390928D01809250
:102C30008C0184E090E00E945C1E5C018091100198
:102C4000F50180838091110181838091120182833B
:102C5000809113018383B0928B01A0928A0184E05A
:102C600090E00E945C1E6C0180911401D6018C934F
:102C70008091150111968C931197809116011296EF
:102C80008C9312978091170113968C93D0928701A1
:102C9000C092860184E090E00E945C1E7C018091DD
:102CA0001801F701808380911901818380911A01B5
:102CB000828380911B018383F0928501E0928401DD
:102CC00084E090E00E945C1EFC0180911C018083E6
:102CD00080911D01818380911E01828380911F015B
:102CE0008383F0938301E093820190928F0180921D
:102CF0008E01B0929101A0929001D0929301C09266
:102D00009201F0929501E0929401F0939701E09383
:102D1000960180E291EA0E94DA01C8010E94060A47
:102D20009E012F5F3F4F1901A090A601B090A7010F
:102D3000E091A801F091A90184AD81113CC0B101DD
:102D4000C5010E94110C882381F02091A6013091C9
:102D5000A7013093A5012093A401813089F48091CB
:102D6000A2019091A3010E946E0B80E090E0892B5C
:102D7000D9F20E948C028823B9F20E940000D4CFBD
:102D80008C3039F480919E0190919F010E94840EB5
:102D9000ECCF8C3339F48091A8019091A9010E9465
:102DA000060AE3CF8D3309F78091A8019091A9011C
:102DB0000E94580CDACFBE01675F7F4FC5010E94A9
:102DC000110C882341F1B092A501A092A401823395
:102DD00009F44AC508F0FBC0803109F427C308F0A4
:102DE00056C08A3009F4A0C278F4823009F47EC259
:102DF000833009F48FC2813071F48091A2019091E7
:102E0000A3010E946E0B07C08D3009F4BDC258F5B6
:102E10008C3009F4B2C2E0909A01F0909B01D70186
:102E20008C91882309F4A1CF11968C911197882356
:102E300009F49BCF12966D917C91139761157105E2
:102E400049F014964C91443028F400E024E3C70183
:102E50000E948F04F70185819681892B09F0E6C6CF
:102E600081E0818382CF8E3009F4BDC28F3099F624
:102E70008A85882309F4D4C284E190E00E94A520C9
:102E8000C12CE12C00E020E0482F6FE03FC28132EE
:102E900009F49AC308F04BC08E3109F449C398F481
:102EA000843109F0B8CF80919C0190919D012A85D1
:102EB000222309F439C3C12CE12C00E0FC01248158
:102EC000438164E123C280909A0190909B018F31ED
:102ED00009F440C3803209F09ECF8A858A8B8150E5
:102EE000853008F098CF0E94CC01F401808D8823B2
:102EF00011F080E48EB99E012E5E3F4FAE014E5F11
:102F00005F4FB101C4010E940E05D40158968C9107
:102F100081111EB8C12CE12C0A8129814A8960E205
:102F20008091A4019091A5010E949B014AC38090C9
:102F30009A0190909B01883209F45EC368F4823252
:102F400009F069CF8A85882309F451C376986E9A6F
:102F500081E0F401808F5FCF893209F4BAC38A32ED
:102F600009F059CF6A847B846114710409F453CF4A
:102F7000C12CE12C00E0272D462D6AE2C5010E94FC
:102F80009B010E94CC015301B694A79410E000E08D
:102F9000A016B10609F457C4B101C4010E94C107CB
:102FA00049815A816B817C818091A4019091A50116
:102FB0000E943C0C4D815E816F8178858091A401D7
:102FC0009091A5010E943C0C0F5F1F4FE1CF873607
:102FD00009F4EDC408F082C08D3309F491C488F47B
:102FE000853309F47BC48C3309F483C4833309F03B
:102FF00012CFE0919A01F0919B0110820E94D001C2
:103000000ACF843609F483C408F040C08E3309F037
:1030100002CF8090980190909901C12CE12C00E0A2
:1030200020E048E06EE3C5010E949B01F401678146
:1030300070858091A4019091A5010E94190DD40181
:1030400019966D917C918091A4019091A5010E94A7
:10305000190DF401648975898091A4019091A501ED
:103060000E94190DD40156966D917C918091A40116
:103070009091A5010E94190DF40110861782128605
:103080001186158A148A178A168AC5CE853609F4E0
:1030900060C4863609F0BFCEEA858FEF8E0F85308B
:1030A00008F0B9CEE150FF0BEE0FFF1FE257FE4FC5
:1030B000A081B181EC91F0E013968C9121E030E099
:1030C00002C0220F331F8A95E2F7C9012B8590A118
:1030D000222309F469C4892B80A39DCE823809F488
:1030E000BCC408F052C08F3609F47CC4A8F48E36F4
:1030F00009F091CE8A85882309F470C480918C01EF
:1031000090918D010E94C40510926A001DBA80E35F
:1031100080936A00EE9A7FCE803709F48BC488379B
:1031200009F079CE8A85882309F468CF80918A01D5
:1031300090918B010E94C4050E94D00184E080938D
:103140009100809190008360809390008091910025
:1031500088618093910083E294EF9093990080932B
:1031600098008091910080688093910080919100F7
:10317000806480939100C59A8091710080628093F1
:103180007100809171008160A2C3843809F4B7C4D2
:1031900008F4A5C48C3809F424C5863909F03BCE5F
:1031A0008A85882309F43AC59C858FEF890F87307B
:1031B00008F031CE6D85673008F02DCE7B851092FA
:1031C0007C0010927A0010927B0010BE80917C00EF
:1031D000772309F421C5806480937C0090937A0062
:1031E00080917C00846080937C0080917B00806271
:1031F00080937B0080917A00806880937A008BE9CD
:103200009FE00197F1F780917A00806480937A00C3
:1032100080917A0086FDFCCF062F10E0C801880F50
:10322000991F41E050E002C0440F551F8A95E2F714
:1032300080E090E0DC01F0E0E0E020917A002064A2
:1032400020937A0020917A0026FDFCCF209178000F
:1032500030917900820F931FA11DB11D31964E1739
:103260005F0759F704C0B695A795979587956A9516
:10327000D2F738E4C32E31EED32E3AE9E32E30E410
:10328000F32E711108C02AE0C22E27EDD22E23E2C0
:10329000E22E20E4F22EBC0190E080E00E94861F26
:1032A000A70196010E94E71F6B017C01065F1F4F7B
:1032B00061E070E080E090E004C0660F771F881F37
:1032C000991F0A95D2F70E94861F9B01AC01C70186
:1032D000B6010E947121462F272FC12CE92E082FFD
:1032E00066E98091A4019091A50111C08091B1027D
:1032F0009091B202009711F485EB92E0A101481B76
:10330000590BC12CE12C00E0252F62E0C5010E9481
:103310009B0181CDF894A89588E18093600088E0B6
:1033200080936000789477CD10E000E06FEF7FEF3E
:10333000C8010E94C5200E5F1F4F011534E013071E
:10334000A9F780919E0190919F010E94DC0E20E0E0
:1033500040E061E080919C0190919D010E94140EDB
:103360008FE090E00E94A520E0919A01F0919B01EE
:10337000882309F450CD878B4ECD80919E0190918A
:103380009F010E94840E47CD8A85882381F08AE0C0
:1033900090E00E94A520182F8BE090E00E94A520CD
:1033A000C12CE12C00E0282F412F6DE0AFCF1B8511
:1033B0000C858FEF810F853060F4002351F0612F71
:1033C0008AE090E00E94B320602F8BE090E00E94A2
:1033D000B320202F412F60E080919C0190919D01AE
:1033E0000E94140E18CD8A85882359F08FE090E052
:1033F0000E94A520C12CE12C00E020E0482F6EE0C7
:1034000085CF1B85112309F406CD612F8FE090E055
:103410000E94B320E0919A01F0919B01178BFBCCA5
:103420006B8584E190E00E94B320F5CC8A858823E7
:10343000E9F189E190E00E94AD202C018BE190E060
:103440000E94AD203C018DE190E00E94AD204C0136
:1034500083E290E00E94A520182F84E290E00E9471
:10346000A520F82E88E290E00E94A520C12C36E02D
:10347000E32E082F2F2D412F60E1C5010E949B01F3
:10348000B2018091A4019091A5010E94190DB30190
:103490008091A4019091A5010E94190DB401809121
:1034A000A4019091A5010E94190DB5CC8DB69EB6D0
:1034B0001B850C85ED844E858DB79EB7841B9109C5
:1034C0000FB6F8949EBF0FBE8DBFADB7BEB71196B5
:1034D0006D01D501ED91FC910480F581E02DB601DF
:1034E000C5010995F601808191819C012A5031091D
:1034F000273A344098F4D60112966D917C91139737
:103500006115710559F014964D915C914A30510541
:1035100028F0112319F0212F0E94AD0E0FB6F89458
:103520009EBE0FBE8DBE77CC2C854B8560E058CFFC
:10353000E0919A01F0919B018A85882339F0C12C92
:10354000E12C00E020E047896EE1E0CE8B8581111F
:1035500012CF61CC6A847B846114710409F45BCC62
:10356000C12CE12C00E0272D462D6FE1C5010E9402
:103570009B010E94CC0110E000E020E4F22ED40177
:1035800058968C918111FEB8AE014E5F5F4FB1012C
:10359000C4010E947D05F401808D81111EB88091C7
:1035A000A4019091A501DC01ED91FC910084F185CD
:1035B000E02D42E0B10109950F5F1F4F60167106C3
:1035C000F1F60E94C80127CC6A857B8561157105DB
:1035D00009F421CC4C85443008F01DCC0D8521E246
:1035E00080919A0190919B010E948F0414CC6E9857
:1035F000D40158961C920FCC6A847B8461147104A8
:1036000009F409CCFC84FF2009F405CCC12CE12C81
:1036100000E0272D462D68E2C5010E949B010E9413
:10362000CC016F2D70E090E080E00E94861F20E0CA
:1036300030E040E85FE30E94EE200E94672228E12C
:1036400032E741E35FE30E9471210E945A210E9408
:10365000EA21562E10E000E090E080E0A12CB12C91
:103660006501851590F441E050E0082E02C0440F3A
:10367000551F0A94E2F7052E000C660B770BA42A5F
:10368000B52AC62AD72A0196ECCFAE01405F5F4F1C
:10369000BE016F5E7F4FC4010E94030769896A21E2
:1036A000698B8889A822A88AF61608F4C1C26983A2
:1036B0008091A4019091A501FA1408F0C8C2DC0120
:1036C000ED91FC910680F781E02D09950F5F1F4F6A
:1036D000D1C2EA85FB85FC8BEB8BEF2B09F49BCBEE
:1036E0006C847D846114710409F495CBC12CE12CA8
:1036F00000E02C894B8969E2C5010E949B010E9470
:10370000CC01B30190E080E00E94861F20E030E011
:1037100040E85FE30E94EE200E94672228E132E742
:1037200041E35FE30E9471210E945A210E94EA2135
:10373000162F70E090E080E00E94861F20E030E0CD
:1037400040E05EE30E94E71F0E945A210E94EA21A6
:10375000062FB12CA12C90E080E0C12CD12C760159
:10376000811790F421E030E0082E02C0220F331FB1
:103770000A94E2F7032E000C440B550BC22AD32AFD
:10378000E42AF52A0196ECCF512C412CF12C0F158F
:1037900099F1AE014E5F5F4FB101C4010E94030772
:1037A00029818A81F1100DC0422F50E05E8B4D8B34
:1037B000A82FB0E0B88FAF8BF39438E0430E511CC4
:1037C000E6CF30E0042C02C0220F331F0A94E2F748
:1037D000ED89FE89E22BF32BFE8BED8B90E0042C20
:1037E00002C0880F991F0A94E2F72F89388D282B81
:1037F000392B388F2F8BE0CF6D897E896C217D210D
:103800004F89588DC422D5226616770608F437C230
:103810008091A4019091A5016C147D0408F038C238
:103820000E94190DBFEFAB1ABB0A3FC20E94190DCF
:10383000B6018091A4019091A5010E94190D82E02A
:10384000A80EB11C32C260FEBCCEB101C4010E9400
:10385000C10749815A816B817C818091A40190913B
:10386000A5010E943C0CADCE2A853B852115310572
:1038700009F4D1CA9E85943008F0CDCA0C851D8507
:103880000336A0E11A0708F0C6CAE0919A01F09148
:103890009B0181E080833383228394831683058395
:1038A0000115110511F48183B6CA11820E94D0015D
:1038B000C8010E94C30D9093990080939800809155
:1038C0009100886080939100809171008260809364
:1038D000710010929500109294009DCAE0919A0197
:1038E000F0919B014081C12CE12C00E020E065E3D8
:1038F0000DCD8091A8019091A9010E94060A8BCA62
:103900008091A8019091A9010E94580C84CAEA856F
:103910008FEF8E0F853008F07ECA8B8581110BC02A
:10392000E150FF0BEE0FFF1FE257FE4F80819181A8
:103930000E94C40570CA813009F06DCAE150FF0BC6
:10394000EE0FFF1FE257FE4F808191810E94E40538
:1039500062CAEA858FEF8E0F853008F05CCAE150AD
:10396000FF0BEE0FFF1FE257FE4F0190F081E02D9D
:10397000A181B0E090962C918381E281F0E040A19A
:1039800030E0082E02C0359527950A94E2F72170A1
:1039900050E002C0559547958A95E2F74170C12CD9
:1039A000E12C00E065E6B2CC8095892395CBEA85D1
:1039B0008FEF8E0F853008F02ECA6B857C856115E0
:1039C000710509F428CAE150FF0BEE0FFF1FE25703
:1039D000FE4F808191810E949B051DCA10926A0052
:1039E0001DBA19CA8A85882309F418C18B851092DB
:1039F0007C0010927A0010927B0010BE882379F030
:103A000080917B00806480937B0080917C00846047
:103A100080937C0080917B00806280937B0080B7E4
:103A2000886080BF8BE99FE00197F1F780B78360E2
:103A300080BFF1C91A8580918C0190918D010E94FF
:103A4000E405112309F4E7C9F89480E48EB9812FC5
:103A500090E00E94DA011EB865CC8A85882309F4BB
:103A6000CDCA0B851C85C80101978236904108F0AC
:103A7000D2C978ECC72ED12C0132110588F069E14A
:103A8000C62ED12C073041E0140750F0E6E0CE2ED0
:103A9000D12C093154E0150718F052E0C52ED12C75
:103AA0000E94D001C8010E94C30D9093970080939B
:103AB00096008091900082608093900080919100A8
:103AC000886180939100809190008068809390003D
:103AD00046983E9AD0929900C0929800FACE8A8574
:103AE000882309F48BCA2E853F854C855D856B85BF
:103AF00080918801909189010E945F048CC98A8518
:103B0000882309F47BCA6B857C856115710509F4EE
:103B100075CA1D85112309F471CA90E080E00E94E6
:103B2000861F9B01AC0160E074E284EF99E40E947F
:103B300071216B017C0120E030E0A9010E945A2232
:103B400020E030E040E05FE387FD41C0C701B601FF
:103B50000E94EE200E94E3216150710981099109C0
:103B60000E94881F2B013C01612F70E090E080E0F3
:103B70000E94861F20E030E04FE753E40E9471214D
:103B800020E030E048EC52E40E94E71F4B015C016A
:103B900020E030E0A9010E945A2220E030E040E01D
:103BA0005FE387FD19C0C501B4010E94EE200E94A9
:103BB000E3210E94881F0E94EA21062F10E0C30122
:103BC000B2010E94EA219801AB0162E091CFC701E6
:103BD000B6010E94ED20BECFC501B4010E94ED20C8
:103BE000E6CF8A85882399F08091840190918501A0
:103BF0000E94C4051092680010926B0081E08093CF
:103C0000680080916B00806880936B0004C91092FB
:103C1000680010926B00FFC8806CDECA10927C00B6
:103C200010927A0010927B0010BEF5C811829DC8D8
:103C3000FA1400F1AA828091A4019091A501DC01FF
:103C4000ED91FC910680F781E02D6A2D3ECDAA8290
:103C5000DC01ED91FC919301201B310B21303105EA
:103C600009F430CD0084F185E02D42E0B1010995E1
:103C70000E5F1F4F0615170508F4EECCA2CC6C148E
:103C80007D0498F0B6018091A4019091A501C8CD62
:103C90002B893C892A193B092130310509F0C6CD11
:103CA0000E94190D5FEFA51AB50A2B893C89A2164F
:103CB000B30608F450CD85CC0F931F93CF93DF93B9
:103CC0008230910510F482E090E0E091B302F0912F
:103CD000B40230E020E0B0E0A0E0309799F4211584
:103CE000310509F44AC0281B390B24303105D8F5B9
:103CF0008A819B816115710589F1FB019383828320
:103D0000FE0111C04081518102811381481759077A
:103D1000E0F04817590799F4109761F012960C9348
:103D2000129713961C933296CF01DF91CF911F917A
:103D30000F9108950093B3021093B402F4CF2115AC
:103D4000310551F04217530738F0A901DB019A0100
:103D5000BD01DF01F801C1CFEF01F9CF9093B402AB
:103D60008093B302CDCFFE01E20FF31F81939193B5
:103D70002250310939832883D7CF2091B102309165
:103D8000B202232B41F42091220130912301309380
:103D9000B2022093B102209120013091210121151E
:103DA000310541F42DB73EB74091240150912501D2
:103DB000241B350BE091B102F091B202E217F30738
:103DC000A0F42E1B3F0B2817390778F0AC014E5F8B
:103DD0005F4F2417350748F04E0F5F1F5093B20214
:103DE0004093B102819391939FCFF0E0E0E09CCFAC
:103DF000CF93DF930097E9F0FC0132971382128290
:103E0000A091B302B091B402ED0130E020E0109730
:103E1000A1F420813181820F931F2091B102309152
:103E2000B2022817390709F061C0F093B202E0939B
:103E3000B102DF91CF910895EA01CE17DF07E8F5CF
:103E40004A815B819E0141155105B1F7E901FB8370
:103E5000EA8349915991C40FD51FEC17FD0761F40E
:103E6000808191810296840F951FE901998388834F
:103E7000828193819B838A83F0E0E0E012968D91AA
:103E80009C9113970097B9F52D913C911197CD0115
:103E90000296820F931F2091B1023091B20228172F
:103EA000390739F6309751F51092B4021092B302E7
:103EB000B093B202A093B102BCCFD383C28340813E
:103EC0005181840F951FC817D90761F44E5F5F4F6A
:103ED00088819981480F591F518340838A819B8132
:103EE000938382832115310509F0B0CFF093B4029A
:103EF000E093B3029ECFFD01DC01C0CF138212829A
:103F0000D7CF0E94C31F08F481E00895E89409C048
:103F100097FB3EF490958095709561957F4F8F4FFC
:103F20009F4F9923A9F0F92F96E9BB279395F69512
:103F3000879577956795B795F111F8CFFAF4BB0F90
:103F400011F460FF1BC06F5F7F4F8F4F9F4F16C0F4
:103F5000882311F096E911C0772321F09EE8872F7E
:103F6000762F05C0662371F096E8862F70E060E03A
:103F70002AF09A95660F771F881FDAF7880F9695B3
:103F8000879597F90895990F0008550FAA0BE0E857
:103F9000FEEF16161706E807F907C0F0121613060B
:103FA000E407F50798F0621B730B840B950B39F44B
:103FB0000A2661F0232B242B252B21F408950A26B1
:103FC00009F4A140A6958FEF811D811D08950E94DF
:103FD000FA1F0C946B200E945D2038F00E94642030
:103FE00020F0952311F00C9454200C945A201124A5
:103FF0000C949F200E947C2070F3959FC1F3950F35
:1040000050E0551F629FF001729FBB27F00DB11D5C
:10401000639FAA27F00DB11DAA1F649F6627B00DEC
:10402000A11D661F829F2227B00DA11D621F739FD5
:10403000B00DA11D621F839FA00D611D221F749FE3
:104040003327A00D611D231F849F600D211D822F2A
:10405000762F6A2F11249F5750409AF0F1F0882351
:104060004AF0EE0FFF1FBB1F661F771F881F91507E
:104070005040A9F79E3F510580F00C9454200C94B9
:104080009F205F3FE4F3983ED4F38695779567953C
:10409000B795F795E7959F5FC1F7FE2B880F911DA8
:1040A0009695879597F9089597F99F6780E870E04E
:1040B00060E008959FEF80EC089500240A9416169E
:1040C000170618060906089500240A941216130606
:1040D000140605060895092E0394000C11F4882394
:1040E00052F0BB0F40F4BF2B11F460FF04C06F5FB0
:1040F0007F4F8F4F9F4F089557FD9058440F551F86
:1041000059F05F3F71F04795880F97FB991F61F059
:104110009F3F79F087950895121613061406551FD0
:10412000F2CF4695F1DF08C0161617061806991F3C
:10413000F1CF86957105610508940895E894BB2731
:1041400066277727CB0197F90895F999FECF92BD9D
:1041500081BDF89A992780B50895A8E1B0E042E0C2
:1041600050E00C94CD20262FF999FECF92BD81BD51
:10417000F89A019700B4021639F01FBA20BD0FB6A5
:10418000F894FA9AF99A0FBE08950196272F0E9483
:10419000B4200C94B320DC01CB01FC01F999FECFD3
:1041A00006C0F2BDE1BDF89A319600B40D924150BF
:1041B0005040B8F70895991B79E004C0991F9617ED
:1041C00008F0961B881F7A95C9F780950895EE0F21
:1041D000FF1F0590F491E02D09945058BB27AA27A2
:1041E0000E9405210C946B200E945D2038F00E94F3
:1041F000642020F039F49F3F19F426F40C945A20DF
:104200000EF4E095E7FB0C945420E92F0E947C20EB
:1042100058F3BA17620773078407950720F079F4FB
:10422000A6F50C949E200EF4E0950B2EBA2FA02D2F
:104230000B01B90190010C01CA01A0011124FF2753
:10424000591B99F0593F50F4503E68F11A16F0404E
:10425000A22F232F342F4427585FF3CF469537954D
:104260002795A795F0405395C9F77EF41F16BA0B12
:10427000620B730B840BBAF09150A1F0FF0FBB1FC0
:10428000661F771F881FC2F70EC0BA0F621F731F09
:10429000841F48F4879577956795B795F7959E3F66
:1042A00008F0B0CF9395880F08F09927EE0F9795F7
:1042B000879508950E94422290F09F3748F491110B
:1042C00016F40C949F2060E070E080E89FE308956E
:1042D00026F01B16611D711D811D0C9419220C9472
:1042E00034220E9485210C946B200E94642058F097
:1042F0000E945D2040F029F45F3F29F00C94542087
:1043000051110C949F200C945A200E947C2068F339
:104310009923B1F3552391F3951B550BBB27AA277E
:1043200062177307840738F09F5F5F4F220F331FB8
:10433000441FAA1FA9F335D00E2E3AF0E0E832D080
:1043400091505040E695001CCAF72BD0FE2F29D083
:10435000660F771F881FBB1F261737074807AB0755
:10436000B0E809F0BB0B802DBF01FF2793585F4FCA
:104370003AF09E3F510578F00C9454200C949F2005
:104380005F3FE4F3983ED4F3869577956795B795AC
:10439000F7959F5FC9F7880F911D9695879597F9B7
:1043A0000895E1E0660F771F881FBB1F6217730730
:1043B0008407BA0720F0621B730B840BBA0BEE1F45
:1043C00088F7E09508950E94EA216894B1110C9451
:1043D0009F2008950E94842088F09F5798F0B92F5D
:1043E0009927B751B0F0E1F0660F771F881F991F2A
:1043F0001AF0BA95C9F714C0B13091F00E949E200E
:10440000B1E008950C949E20672F782F8827B85F1D
:1044100039F0B93FCCF3869577956795B395D9F781
:104420003EF490958095709561957F4F8F4F9F4F8B
:104430000895882371F4772321F09850872B762FE5
:1044400007C0662311F499270DC09051862B70E0A8
:1044500060E02AF09A95660F771F881FDAF7880FB9
:104460009695879597F908959F3F31F0915020F4E4
:10447000879577956795B795880F911D9695879540
:1044800097F908950E948420A0F0BEE7B91788F438
:10449000BB279F3860F41616B11D672F782F882729
:1044A000985FF7CF869577956795B11D9395963967
:1044B000C8F308950E94C31F08F48FEF089516F003
:1044C0000C9434220C945A2068940C9454200E942A
:1044D0008420A8F39923C1F3AEF3DF93CF931F9306
:1044E0000F93FF92C92FDD2788232AF02197660FAB
:1044F000771F881FDAF720E030E040E85FEB9FE3AA
:10450000883920F0803E38F021968F770E94EE2087
:10451000ECEAF0E004C00E94EE20E9EDF0E00E9439
:10452000D3228B01BE01EC01FB2E6F5771097595EB
:10453000771F880B990B0E94881F28E132E741E31F
:104540005FE30E94FA1FAF2D9801AE01FF900F911B
:104550001F91CF91DF910E9405210C946B200E9446
:104560008420E8F09E37E8F09639B8F49E3848F495
:10457000672F782F8827985FF9CF8695779567956D
:1045800093959539D0F3B62FB1706B0F711D811DC6
:1045900020F487957795679593950C9419220C9440
:1045A00034220C949F20DF93CF931F930F93FF929D
:1045B000EF92DF927B018C01689406C0DA2EEF0146
:1045C0000E94FA1FFE01E894A5912591359145912D
:1045D0005591A6F3EF010E940521FE019701A80164
:1045E000DA9469F7DF90EF90FF900F911F91CF91D0
:0845F000DF910895F894FFCF5C
:1045F800FFFFFFFF00E10000000000000E0D0C06A9
:104608000807060708070606050403070504030547
:104618000000B502800000C1808100000001020492
:104628000810204080000000000D0C080CAF0BABF8
:104638000BA60B00000000C10222024F020D0380EE
:10464800025E02720200000000AD032D03CE03C318
:0846580003EE03D203DE0300B0
:00000001FF
