:100000000C94BE000C94E6000C94E6000C94E60000
:100010000C94E6000C94E6000C94E6000C94071196
:100020000C94E6000C94F3100C9451110C94BA113A
:100030000C94E9100C94E6000C94E6000C94E60095
:100040000C94E6000C94E6000C94E6000C94E60098
:100050000C94E6000C94E6000C94E6000C94E40F7B
:100060000C94E6000C9454100C942E100C94E600A2
:100070000C94FD100C94E6000C94E6000C94A11076
:100080000C9411110C94E6000C94E6000C9486106C
:100090000C94E6000C94E6000C94E6000C94E60048
:1000A0000C94E6000C94E6000C94E60008000000B6
:1000B000BE922449123EABAAAA2ABECDCCCC4C3E5D
:1000C00000000080BEABAAAAAA3E00000000BF004C
:1000D0000000803F0000000000084178D3BB438748
:1000E000D1133D190E3CC3BD4282AD2B3E68EC825C
:1000F00076BED98FE1A93E4C80EFFFBE01C4FF7FE1
:100100003F0000000000080B00020202000009048A
:100110000000010202000005240010010524010175
:1001200001042402060524060001070581031000CE
:100130004009040100020A00000007050202400015
:1001400000070583024000000403090412010002B5
:10015000EF020140091284480001010203014761D6
:10016000627269656C2047756572726572005241F2
:10017000564120524E4720763100361411241FBEBE
:10018000CFEFDAE0DEBFCDBF11E0A0E0B1E0ECE7F9
:10019000F5E402C005900D92AC36B107D9F722E024
:1001A000ACE6B1E001C01D92A33CB207E1F710E05C
:1001B000CEEBD0E004C02197FE010E94B020CD3BE1
:1001C000D107C9F70E9481140C94BC220C94000042
:1001D000FB01DC016C9112967C91962F990F990F7F
:1001E000990F35E5292F239F020E20E0211D1124B0
:1001F000822F562F5074462F407267FD40C0511118
:100200002CC0411105C0922F9095892F90E004C019
:1002100025E5280F90E08BEA7F3FD9F030E0772387
:1002200021F0779F312D09F03F5F332309F448C057
:10023000482F439F040E40E0411D842F239F020E50
:1002400020E0211D492F439F040E40E0411D942FC3
:100250001124808321839283089541110BC0392F8B
:100260002AEA329F030E30E0311D11249BEA931BD2
:10027000280FCBCF90E02095982F80E0CDCF511163
:1002800012C041110CC0392F2AEA329F030E30E010
:10029000311D11242BEA231B95E5930FEECF922FEE
:1002A000909520E0B9CF411106C025E5280F9BEAC3
:1002B000981B822FF6CF2AEA280F90E0932FF8CFD1
:1002C00090E020E080E0C5CF9091B601911103C08D
:1002D0008FEF9FEF08954FB7F89492E09093E90065
:1002E0009091F200292F30E01216130614F421E049
:1002F00030E0232B29F084E68093B5018091F10052
:10030000992339F02091F200211103C02BE62093AC
:10031000E8004FBF9923E1F290E008952FB7F894D9
:1003200083E08093E9009091E800892F807295FF27
:1003300004C09091F20080E4891B2FBF08951092B1
:100340007C0010927A0010927B0010BE0895CF922C
:10035000DF92EF92FF92CF93DF93F62EC62FD0E07D
:100360009E01220F331FA1E0B0E002C0AA0FBB1F05
:100370002A95E2F730E020E040E050E0BA01A21711
:10038000B307B1F090917A00906490937A009091C5
:100390007A0096FDFCCFE091790090917800FE2FD5
:1003A000E92F4E0F5F1F611D711D2F5F3F4FE7CF7C
:1003B00004C07695679557954795FA94D2F79AE0D9
:1003C000C92E97EDD92E93E2E92E90E4F92E8823D9
:1003D00039F083E3C82EDC2C8BE9E82E80E4F82E7C
:1003E000BA0190E080E00E94171FA70196010E94C9
:1003F000781F6B017C012A9661E070E080E090E05C
:1004000004C0660F771F881F991FCA95D2F70E94F4
:10041000171F9B01AC01C701B6010E943A21DF9171
:10042000CF91FF90EF90DF90CF900895CF92EF9211
:100430000F93CF93DF93CDB7DEB728970FB6F8941D
:10044000DEBF0FBECDBF34E239836A834B832C837A
:100450000D83EE82CF821886DC01ED91FC91008441
:10046000F185E02D48E0BE016F5F7F4F099528962A
:100470000FB6F894DEBF0FBECDBFDF91CF910F91C5
:10048000EF90CF9008954F925F926F927F928F92EC
:100490009F92AF92BF92CF92EF920F931F93E62F4E
:1004A000BA01A901C02E472E5524662477248B015A
:1004B00022273327852E962EA72EBB24E42C282D09
:1004C0006E2F0E9416021F910F91EF90CF90BF9058
:1004D000AF909F908F907F906F905F904F90089516
:1004E000F89487E085BD0895789483E085BD0895EC
:1004F0001092900010929100109292001092710050
:100500003E9808958230910538F0880F991F880F22
:10051000991F05970197F1F708953FB7F8948091D7
:10052000AF019091B001A091B101B091B20126B597
:10053000A89B05C02F3F19F00196A11DB11D3FBF1B
:10054000BA2FA92F982F8827BC01CD01620F711DEA
:10055000811D911D42E0660F771F881F991F4A95E4
:10056000D1F708950F931F93CF93C62F8091B502B3
:100570009091B602A091B702B091B802892B8A2B54
:100580008B2BD9F00E948D020091C1011091C20104
:100590002091C3013091C401601B710B820B930B3E
:1005A0000091B5021091B6022091B7023091B802C5
:1005B0006017710782079307C8F20E948D0260934B
:1005C000C1017093C2018093C3019093C401E09173
:1005D000BD02F091BE02309751F04091B9025091A6
:1005E000BA026091BB027091BC028C2F0995809178
:1005F000BF019091C0019C012F5F3F4F3093C0011C
:100600002093BF0149970CF44AC08FB7F89420910A
:10061000B7013091B8014091B9015091BA018FBF33
:100620008091BB019091BC01A091BD01B091BE0130
:10063000281B390B4A0B5B0B21F421E030E040E032
:1006400050E0E091BF01F091C00188EE93E0E89F97
:10065000B001E99F700DF89F700D1124072E000C5A
:10066000880B990B0E948E203093B4022093B30222
:100670001092C0011092BF012FB7F8948091B7017A
:100680009091B801A091B901B091BA012FBF8093A8
:10069000BB019093BC01A093BD01B093BE01CF916B
:1006A0001F910F910895CF92DF92EF92FF920E94D7
:1006B0008D026B017C010E948D026C197D098E09EF
:1006C0009F09683E734081059105A8F3FF90EF9064
:1006D000DF90CF900895AF92BF92CF92DF92EF92CA
:1006E000FF920F931F93CF93DF936C017B018B01DC
:1006F000040F151FEB015E01AE18BF08C017D1072C
:1007000059F06991D601ED91FC910190F081E02DB5
:10071000C6010995892B79F7C501DF91CF911F910A
:100720000F91FF90EF90DF90CF90BF90AF90089522
:10073000FC01538D448D252F30E0842F90E0821BE7
:10074000930B541710F0CF96089501970895FC016C
:10075000918D828D981761F0A28DAE0FBF2FB11DC4
:100760005D968C91928D9F5F9F73928F90E008951C
:100770008FEF9FEF0895FC01918D828D981731F0D6
:10078000828DE80FF11D858D90E008958FEF9FEF2A
:100790000895FC01918D228D892F90E0805C9F4F00
:1007A000821B91098F739927089585EC91E00E942F
:1007B000C90321E0892B09F420E0822F089580E00D
:1007C00090E0892B29F00E94D50381110C94000040
:1007D0000895FC01A48DA80FB92FB11DA35ABF4FD6
:1007E0002C91848D90E001968F739927848FA68930
:1007F000B7892C93A089B1898C9182748C93938D45
:10080000848D981306C00288F389E02D80818F7D46
:1008100080830895EF92FF920F931F93CF93DF93FE
:10082000EC0181E0888F9B8D8C8D981319C0E8892D
:10083000F989808185FF14C09FB7F894EE89FF89FC
:100840006083E889F9898081827480839FBF81E019
:1008500090E0DF91CF911F910F91FF90EF9008955D
:10086000F62E0B8D10E00F5F1F4F0F731127E02E38
:100870008C8D8E110CC00FB607FCFACFE889F98970
:10088000808185FFF5CFCE010E94E903F1CFEB8D8A
:10089000EC0FFD2FF11DE35AFF4FF0829FB7F89444
:1008A0000B8FEA89FB8980818062CFCFCF93DF9362
:1008B000EC01888D8823B9F0AA89BB89E889F98978
:1008C0008C9185FD03C0808186FD0DC00FB607FCAD
:1008D000F7CF8C9185FFF2CF808185FFEDCFCE01E0
:1008E0000E94E903E9CFDF91CF9108958F929F9203
:1008F000AF92BF92CF92DF92EF92FF920F931F932E
:10090000CF93DF936C017B018A0180910B018823D7
:1009100009F457C08091B601882309F452C0809130
:100920007E0180FF05C08091E00082608093E0003E
:10093000E801B12C8AEFA82E93E0892E2AE3922EAB
:10094000209711F4BB20B9F10E948E01811106C0DD
:10095000AA94AA20B1F10E945303F2CF8C171D066E
:1009600011F00CF08C2F9FB7F8948092E900209141
:10097000E80025FD02C09FBFE3CF282F30E0C21B57
:10098000D30BF701815020F041914093F100FACF51
:10099000E20EF31EBB2021F09092E800B12CEBCFC9
:1009A0008091E80085FDE7CF9092E800BB24B394E6
:1009B000209709F3F3CF84E680937D01101611068A
:1009C0003CF081E090E0F6019383828310E000E048
:1009D000C801DF91CF911F910F91FF90EF90DF90B1
:1009E000CF90BF90AF909F908F900895CF93DF935B
:1009F0001F92CDB7DEB76983DC01ED91FC910280D7
:100A0000F381E02D41E050E0BE016F5F7F4F09951B
:100A10000F90DF91CF91089583E08093E90080915A
:100A2000F200882319F08AE38093E80008950E9479
:100A30008E0190E00895FC018485958597FD05C0A1
:100A40002FEF3FEF3587248708950C946401CF93EF
:100A5000DF93EC018C859D8597FF04C00E946401A3
:100A60009D878C878C859D85DF91CF910895FC01B2
:100A70008485958597FD0BC09FB7F89482E080939D
:100A8000E9008091F2009FBF90E0019608959FB722
:100A9000F89482E08093E9008091F2009FBF90E09B
:100AA00008958A3010F4805D0895895A08950F934F
:100AB0001F93CF93DF93EC01EEE0F0E000E011E252
:100AC00010935700849108273196E431F105C1F75E
:100AD000802F82958F700E9451058883802F8F70A0
:100AE0000E9451058983E5E1F0E0109357000491DD
:100AF000802F82958F700E9451058A83802F8F707E
:100B00000E9451058B83E6E1F0E0109357000491B9
:100B1000802F82958F700E9451058C83802F8F705B
:100B20000E9451058D83E7E1F0E010935700149186
:100B3000812F82958F700E9451058E83812F8F7037
:100B40000E9451058F83DF91CF911F910F910895DE
:100B50004F925F926F927F928F929F92AF92BF92CD
:100B6000CF92DF92EF92FF920F931F93CF93DF9379
:100B700000D000D000D0CDB7DEB76C014B835C83D2
:100B80006D837E83602F0E2D84E0289FF001112459
:100B90003796EC0DFD1DA080B180828093802B8163
:100BA0003C814D815E818091A8019091A9010E94B4
:100BB00043020E9470028401159507950C0D1D1DBE
:100BC000412C512C320190E4F92E91E08922992494
:100BD0008B819C81AD81BE8184159505A605B705E5
:100BE00091F1D60158968C918111FEB8F5018114CE
:100BF000910441F0D801ED91FC91EA0DFB1D0190AB
:100C0000F081E02DAE014E5F5F4FBE016F5F7F4F01
:100C1000C8010995F601808D81111EB88091A80147
:100C20009091A901DC01ED91FC910084F185E02D0A
:100C300042E0BE016F5F7F4F0995BFEF4B1A5B0A21
:100C40006B0A7B0AC5CF0E94740226960FB6F894F1
:100C5000DEBF0FBECDBFDF91CF911F910F91FF90EF
:100C6000EF90DF90CF90BF90AF909F908F907F904C
:100C70006F905F904F900895AF92BF92CF92DF92A6
:100C8000EF92FF920F931F93CF93DF9300D01F92A9
:100C9000CDB7DEB75C018B016A017901F901808172
:100CA0008530A9F481E08B839E012D5F3F4FAE011B
:100CB0004E5F5F4FBE016F5F7F4FC5010E943C06D4
:100CC00099818A81981709F183E0F7018083F70100
:100CD00080818230E1F410928400F501878990E0F0
:100CE0000E948202809184008170F80180830F90BD
:100CF0000F900F90DF91CF911F910F91FF90EF9088
:100D0000DF90CF90BF90AF90089582E0DECF833028
:100D100041F416BCF501878990E00E94820286B5F5
:100D2000E3CF1092840016BCF501878990E00E9401
:100D3000820290918400998386B59170F801908326
:100D40008170F6018083F7019081943081F6F8017B
:100D500090818927CBCFEF92FF920F931F93CF9370
:100D6000DF937B018A01C4E8D0E0188216BCFC0145
:100D7000878990E00E9482028881F701808386B58E
:100D8000F8018083DF91CF911F910F91FF90EF9039
:100D90000895DC011196EC911197F0E080A1149672
:100DA0009C91149721E030E0A90101C0440F9A956D
:100DB000EAF74095482340A31296EC911297F0E091
:100DC00080A114969C9101C0220F9A95EAF7209574
:100DD000282320A30895DC011196EC911197F0E0EF
:100DE00080A114969C91149741E050E09A0101C0B3
:100DF000220F9A95EAF72095282320A31296EC91CA
:100E00001297F0E080A114969C9101C0440F9A952E
:100E1000EAF7482B40A30895EF92FF920F931F9398
:100E2000CF93DF9300D000D000D0CDB7DEB78C01D8
:100E3000E62EF42EFC0182A9882389F180E0442368
:100E400069F0842F90E00196959587958158282F19
:100E5000229F020E20E0211D1124822FE9829FEFA4
:100E60009A838B83BE016C5F7F4FCE0101960E94F7
:100E7000E8006091B202CE0104960E94B202F8012D
:100E8000E0AAF1AA26960FB6F894DEBF0FBECDBF3A
:100E9000DF91CF911F910F91FF90EF90089569839B
:100EA0008FEF8A834B83DECFFC018485958520817B
:100EB0000097A1F4228B81E0808B81E090E0958700
:100EC00084878685978521810097F9F4238B81E0BB
:100ED000818B81E090E0978786870895328932136D
:100EE0000CC020892F5F208B3385231306C02489F3
:100EF00035892F5F3F4F358B248B0196811522E07A
:100F00009207E9F615861486DCCF338932130CC0BC
:100F100021892F5F218B3385231306C026893789CA
:100F20002F5F3F4F378B268B0196811522E092076A
:100F300091F6178616860895FC01808192818913A7
:100F40001BC085818F5F85839481891728F08781F5
:100F5000908501969087878381819381891310C042
:100F600086818F5F86839481891768F08185928559
:100F70000196928781870895828381E08583ECCFF3
:100F8000838381E0868308953F924F925F926F92B0
:100F90007F928F929F92AF92BF92CF92DF92EF9209
:100FA000FF920F931F93CF93DF9300D000D0CDB764
:100FB000DEB74C016B017A01FB011082FA0110824D
:100FC0000DE211E088E0582E412C312C332011F035
:100FD00041102BC0AE014E5F5F4FBE016F5F7F4F70
:100FE000C4010E94AB06AE014C5F5F4FBE016D5F56
:100FF0007F4FC4010E94AB0631100AC08981817005
:10100000A82E8B818170782EA81611F0332433948A
:101010004110DCCF8A818170B82E8C818170682E5E
:10102000B816A1F244244394D1CF7A1438F4F601CF
:101030008081F8019081892BF60180836B1438F44C
:10104000F7018081F8019081892BF70180835A9400
:101050000F5F1F4F5110B8CF00919C0110919D015F
:10106000F6018081F8018083F7018081F801818396
:10107000C8010E949C07C8010E9454070F900F905E
:101080000F900F90DF91CF911F910F91FF90EF90F4
:10109000DF90CF90BF90AF909F908F907F906F9098
:1010A0005F904F903F900895AF92BF92DF92EF9282
:1010B000FF920F931F93CF93DF935C017B018A0113
:1010C000FB011082FA011082CDE2D1E088E0D82E37
:1010D0001092840016BCF501878990E00E9482027C
:1010E0008091840096B580FF05C0F701808128813A
:1010F000822B808390FF05C0F80180819881892B25
:101100008083DA942196D110E3CFC0919C01D091D5
:101110009D01F70180818883F80180818983CE0158
:101120000E949C07CE01DF91CF911F910F91FF90FC
:10113000EF90DF90BF90AF900C945407CF92DF9266
:10114000EF92FF920F931F93CF93DF9300D000D0C5
:10115000CDB7DEB78C016B017A01AE014E5F5F4FF8
:10116000BE016F5F7F4F0E945408AE014C5F5F4F1E
:10117000BE016D5F7F4FC8010E94540889819B8129
:101180008927F60180838A819C818927F7018083E2
:101190000F900F900F900F90DF91CF911F910F91B3
:1011A000FF90EF90DF90CF900895CF92DF92EF9273
:1011B000FF920F931F93CF93DF9300D000D0CDB752
:1011C000DEB76C017B018A01AE014E5F5F4FBE014D
:1011D0006F5F7F4F0E945408AE014C5F5F4FBE01AE
:1011E0006D5F7F4FC6010E94540899818B818927CA
:1011F000990F911D8927F70180839A818C81892716
:10120000990F911D8927F80180830F900F900F90FF
:101210000F90DF91CF911F910F91FF90EF90DF9092
:10122000CF9008952F923F924F925F926F927F924C
:101230008F929F92AF92BF92CF92DF92EF92FF92E6
:101240000F931F93CF93DF93CDB7DEB7CA50D24031
:101250000FB6F894DEBF0FBECDBF8C0180E091E0E9
:101260009E012F5F3F4FCD5FDD4F39832883C350F1
:10127000D240D901FC011D923197E9F71E01F1E03E
:101280002F0E3F1ED101FC011D923197E9F72091ED
:101290009E0130919F01CB5FDD4F39832883C5507C
:1012A000D2400E947002412C512C3201C12CD12C11
:1012B0007601812C912C5401F80180819181A281C9
:1012C000B381481659066A067B0608F047C0AE018E
:1012D0004E5F5D4FBE016F5F7D4FCB5FDD4F8881FD
:1012E0009981C550D2400E945408CF5FDD4FA8813C
:1012F000C150D2408A2F90E0882329F02FEF280F89
:1013000082239F5FF9CF890E911CA11CB11CCE5F77
:10131000DD4FE881C250D2409E2F992329F02FEF54
:10132000290F92238F5FF9CFC80ED11CE11CF11C4D
:1013300021E030E02C0F3D1F2A0F311DD9018C9187
:101340008F5F8C93E20DF32DF11D80818F5F808381
:101350003FEF431A530A630A730AAECF0E94740226
:10136000D8018D919D910D90BC91A02DCB5FDD4F4B
:1013700088839983AA83BB83C550D240BC01CD0129
:1013800023E0660F771F881F991F2A95D1F70E94C7
:10139000171F2B013C01C501B4010E94171FA301B7
:1013A00092010E943A2120E030E040E05FE30E9499
:1013B000B62020E030E048EC52E40E94781F4B0158
:1013C0005C01F80184869586A686B786C701B601BA
:1013D0000E94171FA30192010E943A2120E030E0F1
:1013E00040E05FE30E94B62020E030E048EC52E4A9
:1013F0000E94781F6B017C01D8015096CD92DD923E
:10140000ED92FC92539720E030E0A901C501B401B0
:101410000E941C22181624F0B7FAB094B7F8B094C2
:10142000F8014480558066807780A5019401C3014E
:10143000B2010E941C2287FD19C020E030E0A90102
:10144000C701B6010E941C22181624F0F7FAF09486
:10145000F7F8F094A7019601C301B2010E941C2283
:1014600087FD04C081E0D80154968C93CB5FDD4F9B
:10147000688179818A819B81C550D2400E94171F63
:1014800020E030E040E85BE30E94781F2B013C0144
:10149000FE013196CB5FDD4FF983E883C550D24022
:1014A000C75FDD4F39822882C950D240C12CD12C70
:1014B000760146015701CB5FDD4FA881B981C55048
:1014C000D2406D91CB5FDD4FB983A883C550D24028
:1014D00070E090E080E00E94171FA30192010E943B
:1014E000B6209B01AC010E94781FA30192010E94CB
:1014F0003A219B01AC01C501B4010E94B7204B0108
:101500005C01C75FDD4FE881F981C950D24061912C
:10151000C75FDD4FF983E883C950D24070E090E0A7
:1015200080E00E94171FA30192010E94B6209B0138
:10153000AC010E94781FA30192010E943A219B01F5
:10154000AC01C701B6010E94B7206B017C01CB5FE3
:10155000DD4F28813981C550D2402216330609F06B
:10156000AACFD80155968D929D92AD92BC92589774
:10157000F801C18ED28EE38EF48E40845184628451
:101580007384A3019201C501B4010E94121F87FF59
:101590002EC0A3019201C701B6010E94121F87FF4E
:1015A00026C081E0D8015D968C93D80154968C9129
:1015B0005497882311F05D968C91C65FDD4F0FB66E
:1015C000F894DEBF0FBECDBFDF91CF911F910F9179
:1015D000FF90EF90DF90CF90BF90AF909F908F9053
:1015E0007F906F905F904F903F902F900895F801FB
:1015F000158EDBCF2F923F924F925F926F927F9228
:101600008F929F92AF92BF92CF92DF92EF92FF9212
:101610000F931F93CF93DF93CDB7DEB72F970FB6FE
:10162000F894DEBF0FBECDBF1C0100919E0110914A
:101630009F010E947002812C912C54011F821886F8
:1016400019861A861B821C821D821E82C12CD12CF7
:101650007601412C512C3201F101868D978DA0A18C
:10166000B1A188169906AA06BB0608F054C0AE01BF
:101670004F5F5F4FBE016E5F7F4FC8010E94AB0698
:101680002A81420E511C611C711C3981C30ED11C70
:10169000E11CF11C81149104A104B104A1F1422FB9
:1016A0006B85461B550BCA0157FF03C09195819569
:1016B0009109092E000CAA0BBB0B4B815C816D813B
:1016C0007E81480F591F6A1F7B1F4B835C836D838C
:1016D0007E83632FAF856A1B770BCB0177FF03C037
:1016E000919581959109092E000CAA0BBB0B4F8196
:1016F000588569857A85480F591F6A1F7B1F4F835C
:10170000588769877A875FEF851A950AA50AB50A0F
:101710003F872B87A1CF0E947402D1015E966D9105
:101720007D918D919C9191976B877C878D879E870A
:101730000E94171F4B015C01C301B2010E94171FD9
:10174000A50194010E943A212B013C01F10142A61E
:1017500053A664A675A6C701B6010E94171FA5016E
:1017600094010E943A214B015C01D1019E968D9219
:101770009D92AD92BC92D1976B857C858D859E851F
:1017800061507109810991090E94171F6B017C0149
:101790006B817C818D819E810E94171FA70196011C
:1017A0000E943A216B837C838D839E83F10162AB1F
:1017B00073AB84AB95AB6F81788589859A850E94E0
:1017C000171FA70196010E943A216F8378878987A6
:1017D0009A87D101D6966D937D938D939C93D997DB
:1017E000F801678970E090E080E00E94171F9B017C
:1017F000AC010E94B7206B017C01D1019296CD9281
:10180000DD92ED92FC929597AC019B01C301B20170
:101810000E941C2287FD47C0A7019601C501B401A3
:101820000E941C2287FD3FC0F10186A097A0A0A4C2
:10183000B1A4A50194016B817C818D819E810E9460
:101840001C22181684F5A50194016F81788589857D
:101850009A850E941C22181634F581E0D101DA968F
:101860008C93D101DA961C91C1010E941209812347
:10187000F10183AF2F960FB6F894DEBF0FBECDBF38
:10188000DF91CF911F910F91FF90EF90DF90CF905C
:10189000BF90AF909F908F907F906F905F904F9090
:1018A0003F902F900895F10112AEDBCFCF92EF92CF
:1018B0000F93CF93DF93CDB7DEB728970FB6F89489
:1018C000DEBF0FBECDBFCE0101960E945705C12CD1
:1018D000E12C00E020E048E061E08091A8019091D7
:1018E000A9010E9416028091A8019091A901DC0132
:1018F000ED91FC910084F185E02D48E0BE016F5F21
:101900007F4F099528960FB6F894DEBF0FBECDBF66
:10191000DF91CF910F91EF90CF90089550E082E644
:1019200092E00C94760482E692E00C94F604EF9236
:10193000FF920F931F93CF93DF93E42EF12C8B0133
:10194000D0E0C0E0CE15DF0508F03DC02FB7F89419
:101950008091B7019091B801A091B901B091BA01FD
:101960002FBF80936A0290936B02A0936C02B09396
:101970006D0282E692E00E941B0597FF2CC02FB7F4
:10198000F8948091B7019091B801A091B901B091FC
:10199000BA012FBF40916A0250916B0260916C02B4
:1019A00070916D02841B950BA60BB70B40916602DC
:1019B00050916702609168027091690284179507DF
:1019C000A607B707B0F28C2FDF91CF911F910F912F
:1019D000FF90EF900895F80181938F012196B2CF87
:1019E00082E692E00E941B05089582E692E00C9444
:1019F00037050F931F93CF93DF93EC018B01E881A1
:101A0000F9810190F081E02D0995892B31F480E076
:101A1000DF91CF911F910F910895E881F9810280A4
:101A2000F381E02DCE010995843289F7E881F981AF
:101A30000480F581E02D47E0B801CE01099587309B
:101A400031F7F8018081E4CFCF93DF9300D000D04D
:101A5000CDB7DEB749835A836B837C83DC01ED917C
:101A6000FC910084F185E02D44E0BE016F5F7F4F63
:101A700009950F900F900F900F90DF91CF910895DF
:101A8000CF92EF920F93CF93DF93EC01C12C8DE0B7
:101A9000E82E0DE029E14BAD67E48091A80190911B
:101AA000A9010E9416024AA55BA56CA57DA580919F
:101AB000A8019091A9010E94240D4EA55FA568A9D7
:101AC00079A98091A8019091A9010E94240D4AA9A9
:101AD0005BA96CA97DA98091A8019091A9010E94A0
:101AE000240D4EA95FA968AD79AD8091A8019091B0
:101AF000A9010E94240D4AA15BA16CA17DA1809146
:101B0000A8019091A9010E94240D4EA15FA168A592
:101B100079A58091A8019091A9010E94240D80913E
:101B2000A8019091A901DC01ED91FC910680F7815B
:101B3000E02D6AAD09954C855D856E857F85809128
:101B4000A8019091A9010E94240D488959896A89A8
:101B50007B898091A8019091A9010E94240D4C815C
:101B60005D816E817F818091A8019091A9010E9481
:101B7000240D8091A8019091A901DC01ED91FC91C7
:101B80000680F781E02D6C8909954D895E896F8902
:101B9000788D8091A8019091A9010E94240D498D12
:101BA0005A8D6B8D7C8D8091A8019091A9010E9426
:101BB000240D488559856A857B858091A80190917F
:101BC000A9010E94240D8091A8019091A901DC0136
:101BD000ED91FC910680F781E02D6D8DDF91CF9125
:101BE0000F91EF90CF900994CF93DF9300D0CDB7B2
:101BF000DEB77A836983DC01ED91FC910084F18585
:101C0000E02D42E0BE016F5F7F4F09950F900F906E
:101C1000DF91CF91089540916E0150916F01209115
:101C20006C0130916D0142175307B4F49091E800B4
:101C30009570E1F39091E80092FD19C08093F10056
:101C400080916E0190916F0101968F739927892B76
:101C500019F48EEF8093E80080916E0190916F01EE
:101C6000019690936F0180936E0181E0089580E06A
:101C70000895DF92EF92FF920F931F93CF93DF931C
:101C8000D82E8A01EB017B01E40EF51ECE15DF058F
:101C900059F0D7FE12C0FE0184910E940B0E2196CE
:101CA0008111F4CF0FEF1FEFC801DF91CF911F918A
:101CB0000F91FF90EF90DF9008958881EECF0F9302
:101CC0001F93CF93DF931F92CDB7DEB712E0198336
:101CD00042E450E066E071E080E80E94390E8091B5
:101CE000750181110CC01093710184E08093720121
:101CF000109274011092730181E08093750100913C
:101D00007301109174010115110589F0D801ED914D
:101D1000FC910280F381E02DBE016F5F7F4FC8010F
:101D2000099597FD04C0F80100851185ECCF8981E4
:101D30000F90DF91CF911F910F910895CF92DF9275
:101D4000EF92FF9281329105E8F422E02093910016
:101D5000C12CD12C5AEFE52E54E4F52EBC0190E0B5
:101D600080E00E94171FA70196010E94781F0E9421
:101D700071220E94AC21CB010197FF90EF90DF9080
:101D8000CF900895873021E0920750F423E020930C
:101D90009100C12CD12C4AE7E42E43E4F42EDECF8F
:101DA000893124E0920750F424E020939100C12C63
:101DB000D12C3AE7E32E32E4F32ED0CF833620E164
:101DC000920750F425E020939100C12CD12C2AE7F2
:101DD000E22E21E4F22EC2CF90E080E0CECF0F932E
:101DE0001F93CF938C01C42F822F662349F08CE080
:101DF00090E00E943620C82F8DE090E00E943620AF
:101E00009FEF9C0F953008F04EC0882309F44BC01B
:101E1000C13079F0C23009F44AC023E032E39FEECA
:101E2000C33051F032E39FE9C43009F497EC23E06A
:101E300003C039E197EC24E03817A8F1F801C0831A
:101E400081831092C0001092C1001092C2001092C3
:101E5000C3001092C400269819BC39B5306139BD51
:101E600012BE32B73A6032BF32B7306332BF32B7D8
:101E7000306432BF39B5326039BD2093C100209142
:101E8000C00021602093C0002091C00020622093F8
:101E9000C0002E98269A9093D1008093D000109283
:101EA000BF001092BE00CF911F910F91089539E1AC
:101EB00095E9C1CFCF92EF920F93CF93DF9388E054
:101EC00090E00E943620C82F89E090E00E943620E2
:101ED000D82F8AE090E00E943620082F8BE090E017
:101EE0000E943620C12CE82E2D2F4C2F6CE08091C3
:101EF000A8019091A9010E941602DF91CF910F9144
:101F0000EF90CF900895CF93DF93D0E0C0E0CE0163
:101F10000E9436208F3F09F041C02196C431D1057F
:101F2000B1F744E050E070E060E087E691E00E94A5
:101F30004A206DE871E084E090E00E94782068EE2D
:101F40007EEF86E090E00E94782063E08CE090E0F5
:101F50000E945A2064E18DE090E00E945A206AE0DD
:101F60008EE090E00E945A2060E08FE090E00E94B6
:101F70005A2040EE53E964E070E080E190E00E9476
:101F80006C2043E353E36BE770E485E190E00E944B
:101F90006C2064E189E190E00E945A2061E088E0D1
:101FA00090E00E945A2060E089E090E00E945A2070
:101FB00060E08AE090E00E945A2063E18BE090E0CC
:101FC000DF91CF910C945A201F920F920FB60F926F
:101FD00011242F933F938F939F93AF93BF9380913F
:101FE000B7019091B801A091B901B091BA013091B7
:101FF000AE0123E0230F2D3758F50196A11DB11D29
:102000002093AE018093B7019093B801A093B901DA
:10201000B093BA018091AF019091B001A091B1014C
:10202000B091B2010196A11DB11D8093AF019093B3
:10203000B001A093B101B093B201BF91AF919F9154
:102040008F913F912F910F900FBE0F901F90189579
:1020500026E8230F0296A11DB11DD2CF1F920F9229
:102060000FB60F9211242F933F934F935F936F936B
:102070007F938F939F93AF93BF93EF93FF9385ECE1
:1020800091E00E94E903FF91EF91BF91AF919F9181
:102090008F917F916F915F914F913F912F910F9011
:1020A0000FBE0F901F9018951F920F920FB60F92B0
:1020B00011242F938F939F93EF93FF93E091D5017A
:1020C000F091D6018081E091DB01F091DC0182FD8D
:1020D0001BC090818091DE018F5F8F732091DF01A3
:1020E000821741F0E091DE01F0E0EB53FE4F958F57
:1020F0008093DE01FF91EF919F918F912F910F902F
:102100000FBE0F901F9018958081F4CF1F920F92F1
:102110000FB60F9211248F939F93EF93FF93E0914B
:102120008E01F0918F01858196810196968385833A
:10213000FF91EF919F918F910F900FBE0F901F9085
:1021400018951F920F920FB60F921124CF92EF9213
:102150000F931F932F933F934F935F936F937F93AF
:102160008F939F93AF93BF93CF93DF93EF93FF939F
:10217000C0918E01D0918F014091960050919700AF
:102180000D811E81C12CE12E252F61E78091A801D0
:102190009091A9010E94160210929500109294004D
:1021A0001E821D82FF91EF91DF91CF91BF91AF9180
:1021B0009F918F917F916F915F914F913F912F915F
:1021C0001F910F91EF90CF900F900FBE0F901F9027
:1021D00018951F920F920FB60F9211240F900FBEF9
:1021E0000F901F9018951F920F920FB60F92112407
:1021F0000F900FBE0F901F9018951F920F920FB661
:102200000F9211240F900FBE0F901F9018951F92E0
:102210000F920FB60F9211240F900FBE0F901F90C8
:1022200018951F920F920FB60F921124EF920F93F1
:102230002F933F934F935F936F937F938F939F93CE
:10224000AF93BF93CF93DF93EF93FF93C0919E0122
:10225000D0919F018981882379F019822C812430C3
:1022600048F44A815B8170E060E0E12C0EE3CE012E
:102270000E94A80581E08983FF91EF91DF91CF91C2
:10228000BF91AF919F918F917F916F915F914F918E
:102290003F912F910F91EF900F900FBE0F901F90D5
:1022A00018951F920F920FB60F9211248F939F9340
:1022B0008091E1009091E100937F9093E10083FF92
:1022C0000FC01092E90091E09093EB001092EC00A7
:1022D00092E39093ED001092B60198E09093F00095
:1022E00082FF1CC093E09093E9009091F200992343
:1022F00019F09AE39093E80090917D01992329F0D9
:1023000090917D01915090937D019091B501992319
:1023100029F09091B50191509093B50184FF18C0B8
:102320008091E2008E7E81608093E2008091E100E6
:102330008F7E8093E10080917E018E7E806180930C
:102340007E019F918F910F900FBE0F901F90189557
:1023500080FFF7CF8091E2008E7E80618093E20063
:102360008091E1008E7E8093E10080917E018E7EDF
:102370008160E5CF1F920F920FB60F921124DF926A
:10238000EF92FF920F931F932F933F934F935F937F
:102390006F937F938F939F93AF93BF93EF93FF932D
:1023A000CF93DF93CDB7DEB76197DEBFCDBF10927D
:1023B000E9008091E80083FF2FC089E0FE013A9692
:1023C000EE2EDF2E815029F09091F100908331960E
:1023D000F9CF84E68093B50182EF8093E8008A8587
:1023E00087FF38C09091E80090FFFCCF982F90763F
:1023F00009F035C19B854C855D852C85FD84911147
:1024000030C0803859F580917F018093F10010929F
:10241000F1008EEF8093E80061960FB6F894DEBF6E
:102420000FBECDBFDF91CF91FF91EF91BF91AF91E3
:102430009F918F917F916F915F914F913F912F91DC
:102440001F910F91FF90EF90DF900F900FBE0F90B4
:102450001F9018959EEF9093E800C8CF1092F1005E
:10246000D6CF913059F48111D4CF4130510589F63E
:1024700080917F018D7F80937F01CBCF933049F492
:102480008111C7CF4130510521F680917F018260D3
:10249000F2CF953041F48091E80080FFFCCF2068B6
:1024A0002093E300B6CF963009F0ACC008891989B3
:1024B00022E01092E90010926F0110926E01F21268
:1024C0002EC010926D0110926C010E945F0E1F824F
:1024D00099E09983FA8291E09E8390EA98879AEF37
:1024E000998720916E0130916F01275F3F4F3C83A8
:1024F0002B838D831092E90010926F0110926E0170
:1025000010936D0100936C0149E050E0BE016F5FD4
:102510007F4F80E00E94390E0E945F0E7ACF1093A9
:102520006D0100936C018091750181110DC082E0F5
:102530008093710184E08093720110927401109273
:10254000730181E080937501009173011091740112
:102550000115110509F455C1D801ED91FC910480D4
:10256000F581E02D6E2D7D2DC8010995009709F0AC
:102570004EC1F80100851185EBCFF3E0FF120CC0CE
:102580008C858823B1F1823059F46BE08EE691E0BE
:102590000E940C1481113DCF81E28093EB003CCF6F
:1025A000813021F46FE08EE591E0F2CF8330A1F726
:1025B000CE0101960E94570582E10E940B0E83E036
:1025C0000E940B0E8E010F5F1F4F7E0129E0E20E6D
:1025D000F11CD8018D918D010E940B0E8823E1F230
:1025E00080E00E940B0E8823B9F2E016F10689F70D
:1025F00010CF68E471E0FB01449150E080E80E9454
:10260000390E07CF973041F2983021F481E0809362
:10261000F100FFCE993009F0FCCE837009F0BCCFF9
:10262000E7E2F1E081E031E096E32191222371F0CD
:102630008093E9003093EB00DF0111972C912093F8
:10264000EC009093ED008F5F873079F78EE78093F1
:10265000EA001092EA008C858093B601DACE888970
:1026600099891092E90010926F0110926E01909377
:102670006D0180936C018E8581119AC08B859A853E
:10268000913A49F4813209F087CF47E050E064E0A5
:1026900071E080E0B4CF913209F07ECF833269F4EB
:1026A0008C859D85B0E0A0E08093000190930101AE
:1026B000A0930201B0930301ACCE8032A9F48091C3
:1026C000E80082FFFCCF88E0E4E0F1E0815029F0EF
:1026D0009091F10090833196F9CF84E68093B50113
:1026E0008BEF8093E80095CE823209F092CE8C85F4
:1026F00080930B01EEEFFFE7859194918B3F9C4D0A
:1027000051F1E0E0F8E08091040190910501A09181
:102710000601B0910701803B9440A105B105F1F499
:1027200080910B0180FD1AC0EE3F8AE0F80789F521
:1027300087E797E7918380838091600080937001A1
:1027400088E19BE00FB6F894A895809360000FBED7
:10275000909360005ECEEEEFFAE0D5CF808191815C
:102760008737974709F055CEA8958091600088611A
:10277000809360008091700180936000EE3F2AE0BA
:10278000F20789F08091FE0A9091FF0A918380837D
:1027900040CE808191818737980751F29093FF0A4C
:1027A0008093FE0AC5CF1092FF0A1092FE0A31CE26
:1027B0008091750181110DC082E08093710184E0E8
:1027C00080937201109274011092730181E08093E2
:1027D000750100917301109174010115110509F43F
:1027E000DBCED801ED91FC910190F081E02D6E2DB2
:1027F0007D2DC801099581110CCEF8010085118548
:10280000ECCFF1E0FF12B9CE6CE471E0F4CE181613
:1028100019060CF4FECDC0CEEF92FF920F931F93DA
:10282000CF93DF93182FE92E062F81E0860F880FB4
:102830000E940B0E83E00E940B0EF12EC12FDE2DA5
:10284000FE0184910E940B0E182F80E00E940B0E57
:10285000812329F021969C2F9F19901788F3DF91EF
:10286000CF911F910F91FF90EF900895E5ECF1E06B
:102870001382128288EE93E0A0E0B0E08483958317
:10288000A683B78327E431E0318320832DEC30E049
:10289000358724872CEC30E03787268728EC30E01A
:1028A000318B208B29EC30E0338B228B2AEC30E00B
:1028B000358B248B2EEC30E0378B268B118E128ECD
:1028C000138E148EE2E6F2E01382128284839583E3
:1028D000A683B78389E591E0918380838FEF9FEF93
:1028E00095878487E2EBF2E080831282118214865E
:1028F00013868FEF9FEFDC0187839087A187B287D4
:102900000895CF93DF93CDB7DEB768970FB6F894ED
:10291000DEBF0FBECDBF789484B5826084BD84B520
:10292000816084BD85B5826085BD85B5816085BDCA
:1029300080916E00816080936E0010928100809182
:10294000810082608093810080918100816080930A
:10295000810080918000816080938000809191004F
:1029600082608093910080919100816080939100BA
:10297000809190008160809390008091C10084607C
:102980008093C1008091C10082608093C1008091DA
:10299000C10081608093C1008091C30081608093F9
:1029A000C3008091C00082608093C0008091C2000B
:1029B00081608093C20080917A00846080937A0065
:1029C00080917A00826080937A0080917A008160A1
:1029D00080937A0080917A00806880937A001092C8
:1029E000B60110927F0110927E018091D700816024
:1029F0008093D70080EA8093D80089B5806189BD33
:102A000089B5826089BD09B400FEFDCF0E945303E1
:102A10008091D8008F7C80618093D8008091E00005
:102A2000807F8093E0008091E1008E7E8093E100C2
:102A30008DE08093E20083E090E00E94ED1DDC01D8
:102A400012961C92129729E331E02D933C932FEFBD
:102A50003FEF30936F0220936E0244E650E060E057
:102A600070E040936602509367026093680270932F
:102A7000690204B603FC0DC041E950ED63E070E06B
:102A80002091E80023FD05C04150510961097109F9
:102A9000B9F79093AB018093AA0181E090E00E9486
:102AA000ED1D9093A7018093A60181E090E00E9424
:102AB000ED1D8C010E94830F1093A3010093A201CE
:102AC00081E090E00E94ED1D9093B4018093B301EA
:102AD00081E090E00E94ED1D90938301809382013C
:102AE00081E090E00E94ED1D909385018093840128
:102AF00081E090E00E94ED1D909381018093800120
:102B000081E090E00E94ED1D24B7277F24BF9093C1
:102B1000A5018093A40181E090E00E94ED1D9093B7
:102B200087018093860182E090E00E94ED1D8C0178
:102B300020E040E061E00E94EF0E1093A1010093BD
:102B4000A00189E190E00E94ED1D8C01FC01108242
:102B500081E08183108E14BC15BC10926E0083E05E
:102B600085BD80916E00816080936E001092800020
:102B7000109281001092820010926F0087E0809383
:102B8000810084E598E090878783128611868EE91C
:102B900098E0948783871686158685ED98E0908B5C
:102BA0008787128A118A84EC97E0948B838B168A2C
:102BB000158A8EE090E00E943620882319F0D80113
:102BC00057968C9310939F0100939E018CE390E0A5
:102BD0000E94ED1D8C01FC01148A158E12AEFF249B
:102BE000F394F3AE85E39CE0A0E0B0E080839183B2
:102BF000A283B38345EE50ED62EB7FE344835583BC
:102C00006683778348EB5EE765EB73E44087518723
:102C100062877387868F978FA0A3B1A386E696E617
:102C2000A6E6BFE386A397A3A0A7B1A71093AD0123
:102C30000093AC0188E190E00E94ED1DFC0112823E
:102C40001382F582F6821086178212861186158607
:102C5000148617861686F08AF18A158A148A178ACE
:102C6000168A74E0772E74828DE08387F0939D013D
:102C7000E0939C0185E090E00E94ED1D4C01809165
:102C80000C01D40111968C93119780910D0112962D
:102C90008C93129780910E0113968C9313978091C9
:102CA0000F0114968C931497FC929092910180924C
:102CB000900187E090E00E94ED1D7C018091100161
:102CC000F7018183809111018283809112018383B6
:102CD0008091130184831682158282E08083F092B2
:102CE0008F01E0928E0185E090E00E94ED1D5C0175
:102CF00080911401D50111968C9311978091150143
:102D000012968C9312978091160113968C931397B9
:102D10008091170114968C93149783E08C93B09252
:102D20008D01A0928C0185E090E00E94ED1D6C0168
:102D300080911801F601818380911901828380912D
:102D40001A01838380911B0184837082D0928B014E
:102D5000C0928A0185E090E00E94ED1DFC01809107
:102D60001C01818380911D01828380911E018383D8
:102D700080911F01848385E08083F0938901E09333
:102D800088019092930180929201F0929501E092D5
:102D90009401B0929701A0929601D0929901C092AD
:102DA0009801F0939B01E0939A018BE39DE00197DA
:102DB000F1F7C8010E94FA0A1E01F8E02F0E311C3B
:102DC000A090AA01B090AB01E091AC01F091AD01EF
:102DD00083ADBE016F5F7F4F81113BC0C5010E9473
:102DE000F90C882381F02091AA013091AB01309336
:102DF000A9012093A801813089F48091A6019091C6
:102E0000A7010E94560C80E090E0892BC9F20E9435
:102E1000D5038823A9F20E940000D2CF8C3039F468
:102E20008091A2019091A3010E945A0FECCF8634A9
:102E300039F48091AC019091AD010E94FA0AE3CF80
:102E4000873409F78091AC019091AD010E94400D4B
:102E5000DACFC5010E94F90C8823D1F0B092A90104
:102E6000A092A801833309F473C408F0F3C08E3034
:102E700009F4D8C208F075C0843009F47BC240F56B
:102E8000823009F40BC208F061C2813009F4FFC13D
:102E9000C0909E01D0909F01F6018081882309F4A3
:102EA000B2CF85819681892B09F0ADCF1182248123
:102EB000243048F44281538170E060E0E12C0EE35D
:102EC000C6010E94A80581E0D60111968C939BCF84
:102ED0008B3009F459C258F510E000E08A30C1F691
:102EE0006FEF7FEFC8010E9478200E5F1F4F011522
:102EF00024E01207A9F78091A2019091A3010E94FA
:102F0000830F20E040E061E08091A0019091A10159
:102F10000E94EF0E8EE090E00E943620E0919E012C
:102F2000F0919F01882309F4B3CF878BB1CF8C3008
:102F300009F455C28D3009F0ABCF8A81882309F49A
:102F400055C28CE090E00E943620182F8DE090E072
:102F50000E943620C12CE12C00E0282F412F6DE08B
:102F600005C2893209F44FC3D0F4803109F48FC20D
:102F700008F475C28E3109F42DC3883209F088CF68
:102F8000E0919E01F0919F018A81882309F437C363
:102F9000C12CE12C00E020E0478968E2E7C1C09045
:102FA0009E01D0909F018B3209F497C308F469C346
:102FB0008C3209F4A0C3823309F06ACF2A813B81A5
:102FC0004C815D812D873E874F87588BFE8000E0C6
:102FD00062E3C5010E9443020E947002412C512C01
:102FE00032018F2C912CB12CA12C8D859E85AF8523
:102FF000B889481659066A067B0609F46BC3C501F1
:10300000B4010E94171F0E94292228E132E741E300
:103010005FE30E943A210E9423210E94AC21E62F07
:1030200090E080E040E050E0BA018E1708F071C3F4
:1030300001E010E0082E02C0000F111F0A94E2F711
:10304000012E000C220B330B402B512B622B732BC8
:103050000196EBCF863609F49EC408F06EC0863424
:1030600009F424C4F0F5E0919E01F0919F018D33A5
:1030700009F411C48F3309F412C48C3309F008CF5A
:103080008C81843008F004CF0D811E81033640E12D
:10309000140708F0FDCE2A813B8191E09083918353
:1030A000338322838483168305830115110509F474
:1030B000EFCE0E947802C8010E949E0E9093990064
:1030C0008093980080919100886080939100809116
:1030D00071008260809371001092950010929400AC
:1030E000D7CE883409F4F0C308F4E7C3843609F472
:1030F00030C4853609F0CCCEEA818FEF8E0F853053
:1031000008F0C6CEE150FF0BEE0FFF1FEE56FE4F4C
:103110000190F081E02DA381B0E090962C9130E0F9
:10312000848102C0359527958A95E2F72170C12CDC
:10313000E12C00E0408165E619C1813709F48BC4B8
:1031400008F058C08E3609F44CC4D8F5873609F01B
:103150009FCEEA818FEF8E0F853008F099CE8B815C
:103160009C81009709F494CEE150FF0BEE0FFF1FF6
:10317000EE56FE4F00811181D8011196EC91119706
:10318000F0E020A114963C9141E050E001C0440FD2
:103190003A95EAF7242B20A30E948202D8011196C7
:1031A000EC911197F0E020A114968C9141E050E051
:1031B00002C0440F551F8A95E2F7CA018095822309
:1031C0000BC48F3609F422C4803709F061CE1A810E
:1031D00080919001909191010E94EB06112309F4D6
:1031E00057CEF89480E48EB9812F90E00E9482023D
:1031F0001EB8C8C0833709F4A3C408F45FC4843779
:1032000009F4CEC4853709F043CE8A81882309F4B6
:103210001FC4FC808FEF8F0D873008F039CE0D81F1
:10322000073008F035CE1B810E949F0180917C0001
:10323000112309F4D0C4806480937C00F0927A005A
:1032400080917C00846080937C0080917B00806210
:1032500080937B0080917A00806880937A008BE76E
:103260009AE10197F1F780917A00806C80937A005F
:1032700080917A0086FDFCCF602F812F0E94A701EC
:10328000462F272FC12CE92E082F65E75AC08091C1
:10329000A6019091A7010E94560CFACD0E949F01B1
:1032A00080917C00806C80937C0080917C008760A2
:1032B00080937C0080917B00806280937B0086E01D
:1032C00080937A0080917A00806880937A008BE7FF
:1032D0009AE10197F1F780917A00806C80937A00EF
:1032E00080917A0086FDFCCF65E080E00E94A70116
:1032F0004B015C0184E090E00E9444207C0186E068
:1033000090E00E9444208C01B70190E080E00E9490
:10331000171FA50194010E94781F6B017C01B80161
:10332000110F880B990B0E94191F9B01AC01C7015B
:10333000B6010E94B720462F272FC12CE92E082F57
:1033400062E08091A8019091A90111C08091BF0213
:103350009091C002009711F483EC92E0A101481B08
:10336000590BC12CE12C00E0252F63E0C5010E9420
:1033700016028ECDF894A89588E18093600088E0CD
:1033800080936000789484CD8A81882389F084E0DA
:1033900090E00E944420182FF92E86E090E00E94D1
:1033A0004420C12CE92E082F2F2D412F6BE0DECFBA
:1033B000EB80FC800D811E8144E050E070E060E015
:1033C00087E691E00E944A20B70184E090E00E94E5
:1033D0007820B80186E090E00E94782059CD809155
:1033E000A2019091A3010E945A0F52CD1B810C8122
:1033F0008FEF810F853060F4002351F0612F8CE056
:1034000090E00E945A20602F8DE090E00E945A20A8
:10341000202F412F60E08091A0019091A1010E9496
:10342000EF0E36CD8A81882359F08EE090E00E941D
:103430003620C12CE12C00E020E0482F6EE096CF32
:103440001B81112309F424CD612F8EE090E00E94AE
:103450005A20E0919E01F0919F01178B19CD8A812E
:10346000882359F08FE090E00E943620C12CE12C97
:1034700000E020E0482F6FE079CF61E08B8181117F
:1034800001C060E08FE090E00E945A2001CD8A8167
:103490008823C9F180E190E00E943E206D877E87FD
:1034A0008F87988B85E190E00E943E202B013C01A4
:1034B00089E190E00E943620C12CE12C00E028E058
:1034C000482F60E1C5010E9416028091A8019091E9
:1034D000A9012D853E854F855889288739874A87D8
:1034E0005B87DC01ED91FC910084F185E02D44E0E7
:1034F000B1010995B301A2018091A8019091A901A0
:103500000E94240DC5CCEDB7FEB7FE87ED879B80EA
:103510004C812DB73EB7241B31090FB6F8943EBF3E
:103520000FBE2DBF8DB79EB701966C01D501ED91F1
:10353000FC910480F581E02DBC01C5010995F601DF
:10354000408051806280738004811581A680B7809D
:1035500068017501F0E64F16FAEE5F06610471042A
:1035600098F020E030E0A901B801C5010E941C22BA
:10357000181694F420E030E040E85FE3B801C5019C
:103580000E94121F87FF12C02D853E850FB6F8944A
:103590003EBF0FBE2DBF7CCC20E030E040E85FEBAB
:1035A000B801C5010E941C22181674F3992061F31A
:1035B000B301A20180E190E00E946C20B701A60156
:1035C00085E190E00E946C20692D89E190E00E94E5
:1035D0005A20DACF8091A0019091A1012A81222363
:1035E00051F0C12CE12C00E0DC0111962C911197D7
:1035F0004C916EE1BBCE2C814B8160E010CF8B8172
:10360000811193CC45CC4A805B806C807D80E090BA
:103610009E01F0909F0100E0A301920169E2C501C3
:103620000E9443020E947002812C912C540110E4EC
:1036300084149504A604B70409F44CC0F701808DE6
:1036400081111EB9AE01475F5F4FB101C7010E94F2
:10365000AB06D70158968C9181111EB88091A801B4
:103660009091A901DC01ED91FC910084F185E02DA0
:1036700042E0B1010995BFEF8B1A9B0AAB0ABB0A66
:10368000D7CF8A818C878150853008F001CC0E9489
:103690007002F601808D882311F080E48EB99E01BE
:1036A000245F3F4FAE01475F5F4FB101C6010E94EB
:1036B0003C06D60158968C9181111EB8C12CE12C84
:1036C000098528854C856AE28091A8019091A9011D
:1036D0000E9416020E947402DBCB2E81243008F077
:1036E000D7CB4A815B816C817D81EF800BE2C60183
:1036F0000E94A805CDCB8A81882331F076986E9AF6
:1037000081E0F601808FC4CB6E98D60158961C924A
:10371000BFCB042FAE01475F5F4FB101C6010E94CE
:10372000540868858985682760236F1598F780910C
:10373000A8019091A901DC01ED91FC910680F7812F
:10374000E02D0995BFEF4B1A5B0A6B0A7B0A4DCC43
:103750004A805B806C807D80CE80DF80E0919E011E
:10376000F0919F01FE87ED8700E0A301920163E3E2
:10377000C5010E9443020E947002812C912C5401C9
:10378000960150E040E02D8B3E8B4F8B588F841478
:103790009504A604B70409F49DCF6D897E898F89AD
:1037A000988D0E94171F0E94292228E132E741E3E9
:1037B0005FE30E943A210E9423210E94AC2190E005
:1037C00080E0E12CF12C8701861790F421E030E0B5
:1037D000082E02C0220F331F0A94E2F7032E000CBA
:1037E000440B550BE22AF32A042B152B0196ECCF40
:1037F000FC8AEB8A70E090E080E00E94171F20E0D6
:1038000030E040E05EE30E94781F0E9423210E9486
:10381000AC21062FF12CE12C10E0011721F1AE01B3
:10382000475F5F4FB1018D859E850E945408888552
:1038300099858927111109C0482F50E05A8B498B6F
:103840001F5FB8E0EB0EF11CE8CF90E00E2C02C039
:10385000880F991F0A94E2F7A989BA89A82BB92B76
:10386000BA8BA98BEDCFE989FA892B893C89E223B0
:10387000F323FA8BE98BEC15FD0560F6BF0180910F
:10388000A8019091A9010E94F40D3FEF831A930AB9
:10389000A30AB30A7CCF10820E947802F9CAC12C15
:1038A000E12C00E020E040816FE360CD8091AC012D
:1038B0009091AD010E94FA0AEBCA8091AC019091FF
:1038C000AD010E94400DE4CA80909C0190909D0142
:1038D000C12CE12C00E020E048E068E4C5010E9432
:1038E0001602D40117966D917C918091A801909158
:1038F000A9010E94F40DF401618572858091A801EF
:103900009091A9010E94F40DD40118961C921E9268
:1039100017971A961C921E92199754966D917C9146
:103920008091A8019091A9010E94F40DF40166898B
:1039300077898091A8019091A9010E94F40DD4018A
:1039400055961C921E92549757961C921E9256970B
:103950009FCAEA818FEF8E0F853008F099CA8B815C
:1039600081110BC0E150FF0BEE0FFF1FEE56FE4F13
:10397000808191810E94C9068BCA813009F088CA72
:10398000E150FF0BEE0FFF1FEE56FE4F808191813D
:103990000E94EB067DCAEA818FEF8E0F853008F01A
:1039A00077CAE150FF0BEE0FFF1FEE56FE4FA081CE
:1039B000B1811196EC911197F0E014968C9121E071
:1039C00030E002C0220F331F8A95E2F7C9012B8134
:1039D00090A1222319F0892B80A35ACA80958923AC
:1039E000FBCF8A81882371F08091900190919101A1
:1039F0000E94C90610926A001DBA80E380936A0093
:103A0000EE9A46CA10926A001DBA42CA8A81882379
:103A1000F9F01B810E949F01112379F080917B00B6
:103A2000806480937B0080917C00846080937C0024
:103A300080917B00806280937B0080B7886080BF2C
:103A40008BE79AE10197F1F780B7836080BF20CAC6
:103A50000E949F011DCA8A81882309F41DCF80918D
:103A60008E0190918F010E94C9060E94780284E025
:103A7000809391008091900083608093900080916A
:103A8000910088618093910083E294EF9093990074
:103A9000809398008091910080688093910080913C
:103AA0009100806480939100C59A8091710080623A
:103AB000809371008091710081600CCB8A81882392
:103AC00009F4EACEEB80FC8008EC10E051E2E51648
:103AD000F104B8F009E110E087E0E81681E0F806AB
:103AE00080F006E010E099E1E91694E0F90648F06C
:103AF00010E000E0A3E6EA16A0E1FA0610F402E006
:103B000010E00E947802C7010E949E0E90939700D9
:103B100080939600809190008260809390008091C5
:103B200091008861809391008091900080688093DB
:103B3000900046983E9A1093990000939800CCCA42
:103B40008A81882309F4A8CEDB808FEF8D0D853024
:103B500008F09EC9EC80FD80E114F10409F498C9D5
:103B60000E811F810115110509F492C90E94780286
:103B7000D09291008091900082608093900080911B
:103B8000910088618093910080919000806880937B
:103B9000900046983E9AF0929700E0929600CBCF24
:103BA0008A81882399F080918A0190918B010E94EB
:103BB000C9061092680010926B0081E08093680043
:103BC00080916B00806880936B0062C910926800DE
:103BD00010926B005DC9806C2FCB0F931F93CF9316
:103BE000DF938230910510F482E090E0E091C10211
:103BF000F091C20230E020E0B0E0A0E0309799F40C
:103C00002115310509F44AC0281B390B2430310530
:103C1000D8F58A819B816115710589F1FB01938338
:103C20008283FE0111C040815181028113814817B6
:103C30005907E0F04817590799F4109761F0129668
:103C40000C93129713961C933296CF01DF91CF916C
:103C50001F910F9108950093C1021093C202F4CFF7
:103C60002115310551F04217530738F0A901DB0146
:103C70009A01BD01DF01F801C1CFEF01F9CF9093A7
:103C8000C2028093C102CDCFFE01E20FF31F8193E8
:103C900091932250310939832883D7CF2091BF02D5
:103CA0003091C002232B41F4209122013091230155
:103CB0003093C0022093BF02209120013091210156
:103CC0002115310541F42DB73EB7409124015091A3
:103CD0002501241B350BE091BF02F091C002E217D1
:103CE000F307A0F42E1B3F0B2817390778F0AC011F
:103CF0004E5F5F4F2417350748F04E0F5F1F5093FC
:103D0000C0024093BF02819391939FCFF0E0E0E027
:103D10009CCFCF93DF930097E9F0FC013297138299
:103D20001282A091C102B091C202ED0130E020E008
:103D30001097A1F420813181820F931F2091BF023F
:103D40003091C0022817390709F061C0F093C00212
:103D5000E093BF02DF91CF910895EA01CE17DF070C
:103D6000E8F54A815B819E0141155105B1F7E901F2
:103D7000FB83EA8349915991C40FD51FEC17FD07C6
:103D800061F4808191810296840F951FE9019983E6
:103D90008883828193819B838A83F0E0E0E012969E
:103DA0008D919C9113970097B9F52D913C911197A6
:103DB000CD010296820F931F2091BF023091C00265
:103DC0002817390739F6309751F51092C202109230
:103DD000C102B093C002A093BF02BCCFD383C28301
:103DE00040815181840F951FC817D90761F44E5F38
:103DF0005F4F88819981480F591F518340838A8181
:103E00009B81938382832115310509F0B0CFF09314
:103E1000C202E093C1029ECFFD01DC01C0CF13823C
:103E20001282D7CF0E94541F08F481E00895E894CD
:103E300009C097FB3EF490958095709561957F4FF2
:103E40008F4F9F4F9923A9F0F92F96E9BB279395A0
:103E5000F695879577956795B795F111F8CFFAF4B0
:103E6000BB0F11F460FF1BC06F5F7F4F8F4F9F4FE1
:103E700016C0882311F096E911C0772321F09EE83F
:103E8000872F762F05C0662371F096E8862F70E0A5
:103E900060E02AF09A95660F771F881FDAF7880F7F
:103EA0009695879597F90895990F0008550FAA0BD5
:103EB000E0E8FEEF16161706E807F907C0F012163D
:103EC0001306E407F50798F0621B730B840B950B40
:103ED00039F40A2661F0232B242B252B21F4089595
:103EE0000A2609F4A140A6958FEF811D811D089532
:103EF0000E948B1F0C94FC1F0E94EE1F38F00E9442
:103F0000F51F20F0952311F00C94E51F0C94EB1F86
:103F100011240C9430200E940D2070F3959FC1F362
:103F2000950F50E0551F629FF001729FBB27F00D67
:103F3000B11D639FAA27F00DB11DAA1F649F6627BC
:103F4000B00DA11D661F829F2227B00DA11D621F0B
:103F5000739FB00DA11D621F839FA00D611D221FC5
:103F6000749F3327A00D611D231F849F600D211DA9
:103F7000822F762F6A2F11249F5750409AF0F1F02C
:103F800088234AF0EE0FFF1FBB1F661F771F881F95
:103F900091505040A9F79E3F510580F00C94E51FC9
:103FA0000C9430205F3FE4F3983ED4F386957795E8
:103FB0006795B795F795E7959F5FC1F7FE2B880F3B
:103FC000911D9695879597F9089597F99F6780E8D1
:103FD00070E060E008959FEF80EC089500240A945B
:103FE0001616170618060906089500240A941216D4
:103FF0001306140605060895092E0394000C11F407
:10400000882352F0BB0F40F4BF2B11F460FF04C0B3
:104010006F5F7F4F8F4F9F4F089557FD9058440F0C
:10402000551F59F05F3F71F04795880F97FB991F17
:1040300061F09F3F79F087950895121613061406D4
:10404000551FF2CF4695F1DF08C016161706180661
:10405000991FF1CF86957105610508940895E8943C
:10406000BB2766277727CB0197F90895F999FECFEB
:1040700092BD81BDF89A992780B50895A6E1B0E078
:1040800044E050E00C948020A8E1B0E042E050E031
:104090000C948020DC01A40FB51F4150504048F023
:1040A000CB01840F951F2E910E945B204150504000
:1040B000D0F70895262FF999FECF92BD81BDF89AC9
:1040C000019700B4021639F01FBA20BD0FB6F8945C
:1040D000FA9AF99A0FBE08950396272F0E945B2043
:1040E0000E945A20252F0E945B20242F0C945B20D5
:1040F0000196272F0E945B200C945A20DC01CB01F3
:10410000FC01F999FECF06C0F2BDE1BDF89A3196E7
:1041100000B40D9241505040B8F70895A1E21A2E14
:10412000AA1BBB1BFD010DC0AA1FBB1FEE1FFF1F5B
:10413000A217B307E407F50720F0A21BB30BE40BAB
:10414000F50B661F771F881F991F1A9469F76095F2
:104150007095809590959B01AC01BD01CF010895AC
:10416000EE0FFF1F0590F491E02D09945058BB27E6
:10417000AA270E94CE200C94FC1F0E94EE1F38F04C
:104180000E94F51F20F039F49F3F19F426F40C9497
:10419000EB1F0EF4E095E7FB0C94E51FE92F0E945E
:1041A0000D2058F3BA17620773078407950720F0AC
:1041B00079F4A6F50C942F200EF4E0950B2EBA2F6F
:1041C000A02D0B01B90190010C01CA01A00111241D
:1041D000FF27591B99F0593F50F4503E68F11A16C9
:1041E000F040A22F232F342F4427585FF3CF46955A
:1041F00037952795A795F0405395C9F77EF41F167C
:10420000BA0B620B730B840BBAF09150A1F0FF0F45
:10421000BB1F661F771F881FC2F70EC0BA0F621F31
:10422000731F841F48F4879577956795B795F79521
:104230009E3F08F0B0CF9395880F08F09927EE0FB6
:104240009795879508950E94042290F09F3748F42F
:10425000911116F40C94302060E070E080E89FE348
:10426000089526F01B16611D711D811D0C94DB2124
:104270000C94F6210E944E210C94FC1F0E94F51F05
:1042800058F00E94EE1F40F029F45F3F29F00C9493
:10429000E51F51110C9430200C94EB1F0E940D204F
:1042A00068F39923B1F3552391F3951B550BBB2765
:1042B000AA2762177307840738F09F5F5F4F220FAA
:1042C000331F441FAA1FA9F335D00E2E3AF0E0E8A1
:1042D00032D091505040E695001CCAF72BD0FE2FEB
:1042E00029D0660F771F881FBB1F2617370748077F
:1042F000AB07B0E809F0BB0B802DBF01FF27935837
:104300005F4F3AF09E3F510578F00C94E51F0C94F6
:1043100030205F3FE4F3983ED4F386957795679518
:10432000B795F7959F5FC9F7880F911D969587956B
:1043300097F90895E1E0660F771F881FBB1F62178A
:1043400073078407BA0720F0621B730B840BBA0B48
:10435000EE1F88F7E09508950E94152088F09F577A
:1043600098F0B92F9927B751B0F0E1F0660F771F99
:10437000881F991F1AF0BA95C9F714C0B13091F08F
:104380000E942F20B1E008950C942F20672F782FE2
:104390008827B85F39F0B93FCCF386957795679554
:1043A000B395D9F73EF490958095709561957F4FC0
:1043B0008F4F9F4F0895882371F4772321F09850F1
:1043C000872B762F07C0662311F499270DC09051D3
:1043D000862B70E060E02AF09A95660F771F881FA1
:1043E000DAF7880F9695879597F908959F3F31F0F2
:1043F000915020F4879577956795B795880F911D13
:104400009695879597F908950E941520A0F0BEE72C
:10441000B91788F4BB279F3860F41616B11D672FB3
:10442000782F8827985FF7CF869577956795B11D88
:1044300093959639C8F308950E94541F08F48FEF9E
:10444000089516F00C94F6210C94EB1F68940C94CC
:10445000E51F0E941520A8F39923C1F3AEF3DF9363
:10446000CF931F930F93FF92C92FDD2788232AF044
:104470002197660F771F881FDAF720E030E040E8C9
:104480005FEB9FE3883920F0803E38F021968F77EC
:104490000E94B720ECEAF0E004C00E94B720E9EDEA
:1044A000F0E00E9495228B01BE01EC01FB2E6F57BC
:1044B00071097595771F880B990B0E94191F28E1C8
:1044C00032E741E35FE30E948B1FAF2D9801AE01FD
:1044D000FF900F911F91CF91DF910E94CE200C94FD
:1044E000FC1F0E941520E8F09E37E8F09639B8F4DA
:1044F0009E3848F4672F782F8827985FF9CF8695E4
:104500007795679593959539D0F3B62FB1706B0F6A
:10451000711D811D20F487957795679593950C946F
:10452000DB210C94F6210C943020DF93CF931F9362
:104530000F93FF92EF92DF927B018C01689406C08B
:10454000DA2EEF010E948B1FFE01E894A5912591C0
:10455000359145915591A6F3EF010E94CE20FE01C1
:104560009701A801DA9469F7DF90EF90FF900F911F
:0C4570001F91CF91DF910895F894FFCFC8
:10457C00FFFFFFFF00E10000000000000E0D0C0625
:10458C0008070607080706060504030705040305C4
:10459C000000C302800000C1808100000001020401
:1045AC00081020408000000000F50CF00C970C93D4
:1045BC000C8E0C000000000A046B0398035604C90F
:1045CC0003A703BB0300000000F604760417050CD8
:0C45DC000537051B05270552415641001C
:00000001FF
